:020000040800F2
:10000000580900209D010008393200080D30000811
:1000100035320008E1080008253D00080000000016
:10002000000000000000000000000000B1320008E5
:10003000450A000800000000A93200081934000831
:10004000B7010008B7010008B7010008B7010008B0
:10005000B7010008AD320008B7010008B701000879
:10006000B7010008B7010008B7010008B701000890
:10007000B7010008B7010008B7010008B701000880
:10008000B7010008B7010008B7010008B701000870
:10009000B7010008B7010008B7010008B701000860
:1000A000B7010008B7010008B7010008B701000850
:1000B000E9340008B7010008B7010008B7010008DB
:1000C000B7010008B7010008B7010008B701000830
:1000D000B7010008053D0008153D0008B7010008FC
:1000E000B7010008B7010008B7010008B701000810
:1000F000B7010008B7010008B7010008B701000800
:10010000B7010008B7010008B7010008B7010008EF
:10011000B7010008B7010008B7010008B7010008DF
:10012000B7010008B7010008B7010008B7010008CF
:10013000B7010008B7010008B7010008B7010008BF
:10014000B7010008B7010008B7010008B7010008AF
:10015000B7010008B7010008B7010008B70100089F
:10016000B7010008B7010008B7010008B70100088F
:10017000B7010008B7010008B7010008000000003F
:10018000B7010008B7010008DFF80CD000F0BEFA94
:1001900000480047913E0008580900200648804763
:1001A00006480047FEE7FEE7FEE7FEE7FEE7FEE75C
:1001B000FEE7FEE7FEE7FEE7D53400088901000808
:1001C0002DE9F05F0546002092469B46884606468C
:1001D000814640241BE0284641464746224600F01F
:1001E000E2F853465A46C01A914110D311461846B8
:1001F000224600F0C9F82D1A67EB01084F46224647
:100200000120002100F0C0F817EB00094E41201E2C
:10021000A4F10104DFDC484631462A464346BDE8E6
:10022000F09FD2B201E000F8012B491EFBD27047CB
:100230000022F6E710B513460A4604461946FFF7B2
:10024000F0FF204610BD30B505462A460B4612F891
:10025000010B13F8014B08B1A042F8D01CB10028E3
:1002600002D06D1CF1E7284630BD421C10F8011B7E
:100270000029FBD1801A70472DE9FE4F81EA030463
:1002800004F0004421F0004100944FF0000B23F0F3
:10029000004350EA01045ED052EA03045BD0C3F38A
:1002A0000A54C1F30A552C44A4F2F3340194A0FB80
:1002B0000254C1F3130141F48011C3F3130343F457
:1002C000801301FB024400FB034E840A970A44EAB0
:1002D000815447EA8357A4FB076802958D0A05FB02
:1002E00007854FEA932C04FB0C542705029D4FEA27
:1002F000065847EA1637B5EB08056EEB070C870E74
:10030000920E47EA811742EA8312A7FB0201B6EB7D
:100310000B0164EB00042B0D43EA0C335E1844EB35
:100320001C50DA465146E7FB0201C5F313044FEABD
:100330000B3343EA14534FEA0432019C43EA0603A9
:10034000A4F10C040294009CCDE900B400F04AF83A
:1003500003B0BDE8F08F00200146F9E730B50B4649
:10036000014600202022012409E021FA02F59D42E5
:1003700005D303FA02F5491B04FA02F52844151EB9
:10038000A2F10102F1DC30BD202A04DB203A00FAA0
:1003900002F1002070479140C2F1200320FA03F3DC
:1003A000194390407047202A04DB203A21FA02F0DA
:1003B0000021704721FA02F3D040C2F1200291409F
:1003C00008431946704710B5141E73F1000408DA8B
:1003D000401C41F1000192185B411A4301D120F009
:1003E000010010BD2DE9F04D92469B4611B1B1FAC6
:1003F00081F202E0B0FA80F220329046FFF7C4FFAB
:1004000004460F4640EA0A0041EA0B0153465A46A9
:10041000084313D0114653EA010019D0C8F1400235
:100420005046FFF7C0FF05460E4650465946424625
:10043000FFF7AAFF084305D0012004E02046394613
:10044000BDE8F08D0020054346EAE0762C433743B3
:100450000A986305E40AA0EB08000022FD0A44EABA
:1004600047540A3002D500200146E9E7010510197A
:100470006941DDE9084500196941BDE8F04DA2E791
:100480002DE9FE4F804681EA0300C00F0C46009024
:1004900021F0004123F00045B8EB0200A94105D24C
:1004A0004046214690461C460B46024623F000403B
:1004B000104347D0270DC7F30A00C3F30A51029037
:1004C000401A019040286BDAC3F3130040F4801BFC
:1004D0000098924620B10023D2EB030A63EB0B0B8A
:1004E00001985946C0F140025046FFF74DFF0646BD
:1004F0000D4650465946019A00F01AF910EB0800D3
:100500006141002487EA115284EAE7731A4340D01C
:10051000009A62B3019A012A4FEA075215DC001BC8
:1005200061EB02014FF0004202EA0752CDE90042BE
:10053000001C41F5801132462B46FFF753FF03B0F4
:10054000BDE8F08F40462146F9E7001B61EB020150
:10055000001C41F5801300185B412018A2F500171C
:1005600047EB030140EAD570B6196D4111E06D0803
:100570004FEA360645EAC0754FEA0752001B61EBA9
:100580000201001C41F5801149084FEA30000019B2
:10059000514132462B4603B0BDE8F04FFFF713BF81
:1005A0000098012240000023D0EB020263EBE073CD
:1005B000009821464FEAE074B8EB000061EB0401BB
:1005C000E9E783F000435BE781F0004158E72DE95C
:1005D000F04D81EA030404F0004B21F0004514467D
:1005E0004FF0000A23F0004150EA050220D054EAFF
:1005F00001021DD0C5F30A570246C5F31303C1F328
:100600001300C1F30A5640F4801543F48013A7EB9E
:100610000608101BD64608F2FD3873EB050002D31E
:1006200008F1010801E092185B41B8F1000F03DA0C
:1006300000200146BDE8F08D00204FF480110646F1
:1006400084460EE0171B73EB050705D3121B63EB03
:10065000050306434CEA010C49084FEA30009218A2
:100660005B4150EA0107EDD152EA030012D082EA61
:10067000040083EA0501084305D0101BAB4106D2F4
:100680000122002306E000224FF0004302E06FF059
:10069000010253101AEB06004CEB085110EB0A0054
:1006A00041EB0B01BDE8F04DFFF78DBEC1F30A52DF
:1006B000C1F3130140F2FF3341F480119A4202DA90
:1006C00000200146704740F233439A42A2F233427F
:1006D00002DC5242FFF767BEFFF756BE30B5041E7C
:1006E00071F1000404DB4FF00044404264EB01016F
:1006F000141E73F1000405DB1C464FF00043524208
:1007000063EB0403994208BF904230BD064C074D8D
:1007100006E0E06840F0010394E8070098471034D1
:10072000AC42F6D3FFF734FD94510008B4510008F1
:10073000202A06DBCB17203A41FA02F043EAE073A5
:1007400006E041FA02F3D040C2F120029140084392
:100750001946704782B0019042F20030C4F20100A5
:1007600000900099486820F4403048600198426841
:10077000009948681043486001980168486820F46F
:1007800080704860019801680269486840EA022068
:10079000486001980168486820F0407048600198FE
:1007A0000168826848681043486001980168886859
:1007B00020F40060886001980168C268886810436E
:1007C00088600198806A0121C0F60071884219D0C2
:1007D000FFE701980168886820F0706088600198E0
:1007E0000168826A88681043886001980168886897
:1007F00020F04050886001980168C26A8868104300
:1008000088600CE001980168886820F0706088605A
:1008100001980168886820F040508860FFE70198DF
:100820000168886820F0020088600198027E0168F3
:10083000886840EA42008860019890F82000C8B1BA
:10084000FFE701980168486840F40060486001983B
:100850000168486820F46040486001980168426A75
:100860004EF20000CFF6FF7000EB423248681043B2
:10087000486006E001980168486820F4006048601C
:10088000FFE701980168C86A20F47000C862019807
:100890000168C2690020CFF6F07000EB0252C86A0E
:1008A0001043C86201980168886820F4007088606D
:1008B000019890F830200168886840EA42208860FA
:1008C00001980168886820F4806088600198016858
:1008D0004269886840EA8220886002B07047000060
:1008E000FFE7FEE780B584B000208DF80E00FFE73B
:1008F00040F20040C4F20200802100F0CBFD01462E
:100900000020029041B1FFE79DF80E1000206429FD
:10091000B8BF01200290FFE70298C00748B1FFE787
:100920009DF80E0001308DF80E00012003F06CFAE6
:10093000DEE79DF80E00642804DBFFE701208DF858
:100940000F0031E000208DF80E00FFE740F200407C
:10095000C4F20200802100F09DFD014600200190BC
:1009600041B9FFE79DF80E1000206429B8BF0120AF
:100970000190FFE70198C00748B1FFE79DF80E001E
:1009800001308DF80E00012003F03EFADEE79DF8FD
:100990000E00642804DBFFE701208DF80F0003E060
:1009A00000208DF80F00FFE79DF80F0004B080BD18
:1009B00080B586B080200190002002900390022034
:1009C000049040F20040C4F2020001A900F086FB4E
:1009D00006B080BD80B586B08020019001200290D5
:1009E000002003900220049040F20040C4F2020074
:1009F00001A900F073FB06B080BD000080B500F0D7
:100A000003F8FFF76FFF80BD80B582B0FFF7E2FF0C
:100A100040F20040C4F202000090802101910022C7
:100A200000F050FD142000F037FB009801990122DE
:100A300000F048FD1E2003F0E7F9FFF7B9FF02B010
:100A400080BD00007047000072B6FFE7FEE70000BF
:100A500085B00390029100200190FFE7039890F881
:100A60003C00012804D1FFE702208DF81300F7E0D5
:100A70000399012081F83C00FFE7FFE70298006836
:100A80000A281CD3FFE70298008800EB4000A0F181
:100A90001E01072000FA01F203980168C86890431C
:100AA000C86002998868098801EB41011E3900FA83
:100AB00001F203980168C8681043C86018E0029802
:100AC000008800EB4001072000FA01F2039801685A
:100AD00008699043086102998868098801EB41011F
:100AE00000FA01F203980168086910430861FFE702
:100AF0000298406806281BD8FFE70298406800EB80
:100B00008000411F1F2000FA01F203980168486B22
:100B10009043486302990888496801EB81010539CF
:100B200000FA01F203980168486B104348633DE006
:100B3000029840680C281CD8FFE70298406800EB38
:100B40008000A0F123011F2000FA01F20398016840
:100B5000086B9043086302990888496801EB81019A
:100B6000233900FA01F203980168086B1043086307
:100B70001BE00298406800EB8000A0F141011F20BB
:100B800000FA01F203980168C86A9043C8620299AA
:100B90000888496801EB8101413900FA01F20398A4
:100BA0000168C86A1043C862FFE7FFE742F20030FD
:100BB000C4F2010000900398006842F20001C4F200
:100BC000010188420BD1FFE702980068122806D184
:100BD000FFE70099486840F480004860FFE7039809
:100BE000006842F20001C4F2010188422ED1FFE701
:100BF00002980068102805D0FFE7029800681128C5
:100C000024D1FFE70099486840F40000486002984A
:100C10000068102819D1FFE740F20400C2F200007A
:100C200000684DF68361C4F21B31A0FB0110800CFB
:100C300000EB800040000190FFE7019820B1FFE742
:100C4000019801380190F8E7FFE7FFE7FFE7039914
:100C5000002081F83C00FFE700208DF81300FFE73B
:100C60009DF8130005B0704780B584B00290002055
:100C70008DF80700029820B9FFE701208DF80F00DA
:100C800042E00298806A0121C0F60071884201D0DA
:100C9000FFE7FFE70298006C50B9FFE7029800F009
:100CA00037F8029900204864029981F83C00FFE778
:100CB0000298006CC006002817D4FFE70298006C69
:100CC00040F0020020F48850029908640298FFF76F
:100CD00041FD0299002048640298006C40F0010038
:100CE00020F002000299086403E001208DF807005B
:100CF000FFE7FFE70299002081F83C00FFE79DF83D
:100D000007008DF80F00FFE79DF80F0004B080BDCD
:100D100080B588B00790002006900590049003905D
:100D200002900798006842F20001C4F20101884273
:100D30002FD1FFE7FFE70020019043F64400C4F203
:100D40000200016841F480710160006800F4807065
:100D500001900198FFE7FFE70020009043F6300084
:100D6000C4F20200016841F001010160006800F076
:100D7000010000900098FFE70120029003200390FB
:100D8000002004900020C4F2020002A900F0A6F99D
:100D9000FFE708B080BD000084B002900020019001
:100DA000FFE7029890F83C00012804D1FFE70220F9
:100DB0008DF80F00D4E00299012081F83C00FFE794
:100DC000FFE7029800688068C007F0B9FFE7029863
:100DD0000168886840F00100886040F20400C2F2B7
:100DE000000000684DF68361C4F21B31A0FB0110C6
:100DF000800C00EB40000190FFE7019820B1FFE775
:100E0000019801380190F8E7FFE7029800688068D0
:100E1000C007002800F09580FFE70298006C40F4BE
:100E2000807040F20161884302990864029800686A
:100E300040684005002809D5FFE70298006C40F49F
:100E4000805020F4005002990864FFE70298006C7B
:100E5000C004002806D5FFE70299486C20F0060080
:100E6000486403E0029900204864FFE7FFE7029925
:100E7000002081F83C00FFE742F20030C4F201009C
:100E80000090029801686FF02200086000984068A6
:100E9000C006E8BBFFE70298006842F20001C4F216
:100EA0000101884224D0FFE70298006842F2001155
:100EB000C4F20101884208D1FFE742F20430C4F2D3
:100EC00001000068C00698B1FFE70298006842F28E
:100ED0000021C4F20101884219D1FFE742F2043037
:100EE000C4F20100006800F01F000F280FD8FFE7D0
:100EF00002980068806810F0405F07D1FFE7029811
:100F00000168886840F080408860FFE7FFE717E0ED
:100F10000298006842F20001C4F2010188420ED139
:100F2000FFE702980068806810F0405F07D1FFE794
:100F300002980168886840F080408860FFE7FFE71A
:100F40000AE00299086C40F0100008640299486CAD
:100F500040F001004864FFE700208DF80F00FFE734
:100F60009DF80F0004B0704780B584B002900298DD
:100F7000806D019000F0BEFA0090029890F8350064
:100F800002280DD0FFE7029980204865FFE702990B
:100F9000002081F83400FFE701208DF80F0055E0B4
:100FA00002980168086820F016000860029801683D
:100FB000486920F0800048610298006C20B9FFE782
:100FC0000298806C38B1FFE702980168086820F049
:100FD00008000860FFE702980168086820F0010037
:100FE0000860FFE7029800680068C007C8B1FFE723
:100FF00000F080FA0099401A062811D3FFE7029901
:10100000202048650299032081F83500FFE7029906
:10101000002081F83400FFE703208DF80F0015E071
:10102000E0E70298C16D3F208840019988600299ED
:10103000012081F83500FFE70299002081F8340093
:10104000FFE7FFE700208DF80F00FFE79DF80F0096
:1010500004B080BD82B00090009890F8350002285E
:1010600007D0FFE700998020486501208DF8070030
:101070000EE00099052081F83500009801680868A5
:1010800020F001000860FFE700208DF80700FFE76F
:101090009DF8070002B0704780B584B0039000F05F
:1010A00029FA0290039801900198013048B1FFE7B6
:1010B00040F21400C2F20000017801980844019047
:1010C000FFE7FFE700F016FA0299401A01998842FB
:1010D00001D2FFE7F6E704B080BD00008EB00D90AE
:1010E0000C9100200A90099008900B90FFE70B9854
:1010F0000F2800F2CC81FFE70B99012088400A906D
:101100000C9800680A990840099009980A99884241
:1011100040F0B881FFE70C98406800F00300012818
:1011200007D0FFE70C98406800F0030002282FD199
:10113000FFE70D98806808900B984100032000FAA3
:1011400001F10898884308900C98C0680B994900F1
:1011500000FA01F108980843089008980D998860F2
:101160000D98406808900B99012000FA01F1089849
:10117000884308900C984068C0F300100B9900FA5F
:1011800001F108980843089008980D994860FFE716
:101190000C98406800F00300032818D0FFE70D9872
:1011A000C06808900B984100032000FA01F10898EC
:1011B000884308900C9880680B99490000FA01F167
:1011C00008980843089008980D99C860FFE70C98A4
:1011D000406800F00300022826D1FFE70D980B9924
:1011E0006FF0030202EA51010844006A08900B986C
:1011F00000F0070081000F2000FA01F108988843F1
:1012000008900C9800690B9901F00701890000FA19
:1012100001F108980843089008980D990B9B02EA81
:10122000530211440862FFE70D98006808900B987C
:101230004100032000FA01F10898884308900C98B7
:10124000406800F003000B99490000FA01F108988A
:101250000843089008980D9908600C9880798007D9
:10126000002800F00E81FFE7FFE70020079043F61B
:101270004400C4F20200016841F48041016000684A
:1012800000F4804007900798FFE70B9820F00300D8
:1012900043F60801C4F20101405808900B9800F091
:1012A000030081000F2000FA01F10898884308909C
:1012B0000D980021C4F20201884203D1FFE700200B
:1012C00006905EE00D9840F20041C4F202018842AF
:1012D00003D1FFE70120059050E00D9840F6000192
:1012E000C4F20201884203D1FFE70220049042E0E9
:1012F0000D9840F60041C4F20201884203D1FFE795
:101300000320039034E00D9841F20001C4F2020181
:10131000884203D1FFE70420029026E00D9841F2B5
:101320000041C4F20201884203D1FFE70520019089
:1013300018E00D9841F60001C4F20201884203D181
:10134000FFE7062000900AE00D9941F60042C4F242
:1013500002020820914208BF07200090FFE7009892
:101360000190FFE701980290FFE702980390FFE7E2
:1013700003980490FFE704980590FFE7059806900E
:10138000FFE70698C0B20B9901F00301890000FA4B
:1013900001F108980843089008980B9921F003017F
:1013A00043F60802C4F20102885043F60840C4F232
:1013B00001000068089009990898884308900C98E3
:1013C0008079C006002805D5FFE7099908980843E9
:1013D0000890FFE7089843F60841C4F2010108604D
:1013E00043F60C40C4F2010000680890099908987F
:1013F000884308900C9880798006002805D5FFE77F
:101400000999089808430890FFE7089843F60C41AB
:10141000C4F20101086043F60440C4F20100006810
:10142000089009990898884308900C98807980075B
:10143000002805D5FFE70999089808430890FFE7B9
:10144000089843F60441C4F20101086043F60040E5
:10145000C4F2010000680890099908988843089030
:101460000C988079C00728B1FFE7099908980843CC
:101470000890FFE7089843F60041C4F201010860B4
:10148000FFE7FFE7FFE70B9801300B902FE60EB068
:101490007047000082B00190ADF802100198006919
:1014A000BDF80210084204D0FFE701208DF80100CA
:1014B00003E000208DF80100FFE79DF8010002B075
:1014C0007047000082B00190ADF802108DF8012045
:1014D0009DF8010028B1FFE7BDF80200019988617D
:1014E00005E0BDF80200000401998861FFE702B041
:1014F0007047000040F25450C2F20000006870478C
:1015000040F21400C2F20000027840F25451C2F2DC
:1015100000010868104408607047000080B543F679
:101520000041C4F20201086840F4007008600868D5
:1015300040F480600860086840F480700860032010
:1015400000F094F80F2000F005F800F03BF80020C0
:1015500080BD000080B582B0009040F20400C2F26D
:101560000000006840F21401C2F200010A784FF452
:101570007A71B1FBF2F1B0FBF1F000F0AFFD20B1F8
:10158000FFE701208DF8070018E000980F280DD81C
:10159000FFE700994FF0FF30002200F04DF800986F
:1015A00040F21801C2F20001086003E001208DF84A
:1015B000070003E000208DF80700FFE79DF8070013
:1015C00002B080BD80B584B0FFE70020039043F6F1
:1015D0004400C4F20200016841F4804101600068E7
:1015E00000F4804003900398FFE7FFE7002002909B
:1015F00043F64000C4F20200016841F080510160EE
:10160000006800F0805002900298FFE705200190EA
:101610000022114600F010F8019800F003F804B021
:1016200080BD000080B582B08DF807009DF90700ED
:1016300002F07AFB02B080BD80B586B08DF817004D
:10164000049103920020029002F086FB02909DF923
:101650001700019002980499039A01F0EFFD0146EA
:10166000019802F081FB06B080BD000080B582B019
:101670000190019802F09AFB02B080BD80B584B061
:1016800002900191029820B9FFE701208DF80F0028
:1016900021E1019843F60041C4F20201096801F01A
:1016A0000701884212D9FFE7019943F60040C4F2CE
:1016B00002000170006800F007000199884204D020
:1016C000FFE701208DF80F0005E1FFE702980078A1
:1016D000800700282AD5FFE70298007840070028F5
:1016E00009D5FFE743F60801C4F20201086840F497
:1016F000E0500860FFE7029800780007002809D54D
:10170000FFE743F60801C4F20201086840F46040B4
:101710000860FFE743F60801C4F20201086820F000
:10172000F000029A926810430860FFE70298007880
:10173000C00700286ED0FFE702984068012811D149
:10174000FFE743F60000C4F20200006800F4003135
:101750000020B0EB514F04D1FFE701208DF80F00BE
:10176000B9E02CE002984068022805D0FFE7029813
:101770004068032811D1FFE743F60000C4F20200DD
:10178000006800F000710020B0EB516F04D1FFE75A
:1017900001208DF80F009EE010E043F60000C4F237
:1017A0000200006800F002010020B0EB510F04D1EC
:1017B000FFE701208DF80F008DE0FFE7FFE743F61C
:1017C0000801C4F20201086820F00300029A52687E
:1017D00010430860FFF78EFE0090FFE743F6080015
:1017E000C4F20200006800F00C0002994968B0EBF6
:1017F000810F0ED0FFE7FFF77DFE0099401A41F2FE
:101800008931884204D3FFE703208DF80F0062E09E
:10181000E4E7FFE7019843F60041C4F202010968DA
:1018200001F00701884212D2FFE7019943F6004018
:10183000C4F202000170006800F0070001998842BC
:1018400004D0FFE701208DF80F0044E0FFE7029885
:101850000078400700280CD5FFE743F60801C4F2E2
:101860000201086820F4E050029AD2681043086030
:10187000FFE702980078000700280DD5FFE743F640
:101880000801C4F20201086820F46040029A12695B
:1018900040EAC2000860FFE700F04CF843F6080198
:1018A000C4F202010968C9B20A0944F63851C0F607
:1018B0000001895CC84040F20401C2F200010860E6
:1018C00040F21800C2F200000068FFF743FE00205B
:1018D0008DF80F00FFE79DF80F0004B080BD0000F9
:1018E00040F20400C2F200000068704780B5FFF7C4
:1018F000F7FF43F60801C4F202010968C1F382222E
:1019000044F64851C0F60001895CC84080BD000023
:1019100080B5FFF7E5FF43F60801C4F2020109684C
:1019200089B24A0B44F64851C0F60001895CC840B0
:1019300080BD000080B586B0002005900490039023
:10194000029043F60800C4F20200006800F00C00A8
:101950000146019140B1FFE7019804280AD0FFE752
:10196000019808280CD04FE042F20040C0F2F40089
:1019700002904FE041F20020C0F27A00029049E06C
:1019800043F60400C4F20200016801F03F01059132
:1019900000684002002813D5FFE743F60400C4F2B4
:1019A00002000068C0F3881041F20021C0F27A0101
:1019B000A0FB0101059A0023FEF702FC049012E04F
:1019C00043F60400C4F202000068C0F3881042F23B
:1019D0000041C0F2F401A0FB0101059A0023FEF7CB
:1019E000EFFB0490FFE743F60400C4F20200006836
:1019F00000F44031022000EBD130039004980399A9
:101A0000B0FBF1F0029005E042F20040C0F2F400B9
:101A10000290FFE7029806B080BD000080B586B056
:101A20000490049820B9FFE701208DF8170050E3D7
:101A300004980078C007002800F0A580FFE743F66F
:101A40000800C4F20200006800F00C00042813D063
:101A5000FFE743F60800C4F20200006800F00C0043
:101A600008281ED1FFE743F60400C4F20200006814
:101A70004002002815D5FFE743F60000C4F202003B
:101A8000006800F400310020B0EB514F08D0FFE7B0
:101A90000498406820B9FFE701208DF8170018E38B
:101AA00070E0FFE704984068B0F5803F09D1FFE798
:101AB00043F60001C4F20201086840F48030086077
:101AC00020E004984068B0F5A02F0DD1FFE743F661
:101AD0000001C4F20201086840F480200860086830
:101AE00040F4803008600CE043F60001C4F20201CB
:101AF000086820F480300860086820F480200860BE
:101B0000FFE7FFE7FFE704984068E8B1FFE7FFF76A
:101B1000F1FC0390FFE743F60000C4F20200006806
:101B200000F400310020B0EB514F0CD1FFE7FFF77C
:101B3000E1FC0399401A652804D3FFE703208DF8E0
:101B40001700C6E2E7E71CE0FFF7D4FC0390FFE7CD
:101B500043F60000C4F20200006800F400310020E7
:101B6000B0EB514F0CD0FFE7FFF7C4FC0399401ACC
:101B7000652804D3FFE703208DF81700A9E2E7E703
:101B8000FFE7FFE7FFE7049800788007002840F1AF
:101B90009680FFE743F60800C4F20200006810F0E8
:101BA0000C0F13D0FFE743F60800C4F202000068F0
:101BB00000F00C0008282CD1FFE743F60400C4F223
:101BC000020000684002002823D4FFE743F600002B
:101BD000C4F20200006800F002010020B0EB510FD7
:101BE00009D0FFE70498C068012804D0FFE701206E
:101BF0008DF817006DE243F60001C4F20201086897
:101C000020F0F800049A126940EAC2000860FFE779
:101C100054E00498C06870B3FFE70021C4F2472184
:101C200001200860FFF766FC0390FFE743F6000021
:101C3000C4F20200006800F002010020B0EB510F76
:101C40000CD1FFE7FFF756FC0399401A032804D391
:101C5000FFE703208DF817003BE2E7E743F60001BA
:101C6000C4F20201086820F0F800049A126940EA00
:101C7000C200086021E00021C4F247210020086072
:101C8000FFF738FC0390FFE743F60000C4F20200C0
:101C9000006800F002010020B0EB510F0CD0FFE70C
:101CA000FFF728FC0399401A032804D3FFE7032019
:101CB0008DF817000DE2E7E7FFE7FFE7FFE704987D
:101CC0000078000700284BD5FFE70498406918B357
:101CD000FFE740F68061C4F2472101200860FFF76A
:101CE00009FC0390FFE743F67400C4F202000068A9
:101CF00000F002010020B0EB510F0CD1FFE7FFF71D
:101D0000F9FB0399401A032804D3FFE703208DF859
:101D10001700DEE1E7E722E040F68061C4F24721E8
:101D200000200860FFF7E6FB0390FFE743F674002E
:101D3000C4F20200006800F002010020B0EB510F75
:101D40000CD0FFE7FFF7D6FB0399401A032804D312
:101D5000FFE703208DF81700BBE1E7E7FFE7FFE7A8
:101D6000049800784007002840F1CE80FFE700206B
:101D70008DF8070043F64000C4F202000068C0007E
:101D8000002815D4FFE7FFE70020009043F640004D
:101D9000C4F20200016841F080510160006800F067
:101DA000805000900098FFE701208DF80700FFE7C2
:101DB00047F20000C4F200000068C005002822D4E9
:101DC000FFE747F20001C4F20001086840F48070A8
:101DD0000860FFF78FFB0390FFE747F20000C4F2B3
:101DE00000000068C00500280CD4FFE7FFF782FB65
:101DF0000399401A032804D3FFE703208DF8170046
:101E000067E1EAE7FFE7FFE704988068012809D166
:101E1000FFE743F67001C4F20201086840F00100D8
:101E200008601FE00498806805280DD1FFE743F69D
:101E30007001C4F20201086840F0040008600868FC
:101E400040F0010008600CE043F67001C4F20201AA
:101E5000086820F001000860086820F004000860AD
:101E6000FFE7FFE7FFE704988068F8B1FFE7FFF7B7
:101E700041FB0390FFE743F67000C4F202000068E4
:101E800000F002010020B0EB510F0ED1FFE7FFF789
:101E900031FB0399401A41F28931884204D3FFE7AC
:101EA00003208DF8170014E1E5E71EE0FFF722FBA1
:101EB0000390FFE743F67000C4F20200006800F0F0
:101EC00002010020B0EB510F0ED0FFE7FFF712FB2D
:101ED0000399401A41F28931884204D3FFE7032075
:101EE0008DF81700F5E0E5E7FFE79DF8070001280A
:101EF00009D1FFE743F64001C4F20201086820F06F
:101F000080500860FFE7FFE704988069002800F030
:101F1000DC80FFE743F60800C4F20200006800F02E
:101F20000C00082800F08580FFE7049880690228EB
:101F30005CD1FFE76021C4F2472100200860FFF771
:101F4000D9FA0390FFE743F60000C4F202000068EC
:101F500000F000710020B0EB516F0CD0FFE7FFF7ED
:101F6000C9FA0399401A032804D3FFE703208DF828
:101F70001700AEE0E7E70499C869D1F820C04B6AC2
:101F80008A6A40EA0C0040EA8310D2034FF6FF73DE
:101F90009A43A2F580321043C96A40EA016043F6D1
:101FA0000401C4F2020108606021C4F2472101204B
:101FB0000860FFF79FFA0390FFE743F60000C4F2C2
:101FC0000200006800F000710020B0EB516F0CD1EE
:101FD000FFE7FFF78FFA0399401A032804D3FFE7BE
:101FE00003208DF8170074E0E7E721E06021C4F2D8
:101FF000472100200860FFF77DFA0390FFE743F6D2
:102000000000C4F20200006800F000710020B0EB94
:10201000516F0CD0FFE7FFF76DFA0399401A0328C0
:1020200004D3FFE703208DF8170052E0E7E7FFE74E
:102030004AE004988069012804D1FFE701208DF867
:10204000170046E043F60400C4F202000068029064
:1020500004988069012831D0FFE7029800F48000DD
:102060000499C969884229D1FFE7029800F03F002E
:102070000499096A884221D1FFE7029847F6C071A6
:1020800008400499496AB0EB811F17D1FFE7029815
:1020900000F440300499896AC9034FF6FF729143F6
:1020A000A1F58031884209D1FFE7029800F0706005
:1020B0000499C96AB0EB016F04D0FFE701208DF8E5
:1020C000170006E0FFE7FFE7FFE700208DF81700A5
:1020D000FFE79DF8170006B080BD000080B582B014
:1020E0000190019801F06EF902B080BD81B00090BE
:1020F00001B0704781B0009001B0704785B0039087
:102100000291FFE7039890F83C00012804D1FFE713
:1021100002208DF813007EE00399012081F83C0035
:10212000FFE7FFE70399022081F83D00039800686C
:10213000406801900398006880680090019820F042
:10214000700001900298016801980843019001987D
:10215000039909684860039800680021C4F20101EE
:1021600088423CD0FFE703980068B0F1804F36D03A
:10217000FFE70398006840F20041C4F20001884282
:102180002DD0FFE70398006840F60001C4F200017B
:10219000884224D0FFE70398006840F60041C4F26B
:1021A000000188421BD0FFE70398006840F200411D
:1021B000C4F20101884212D0FFE70398006844F29C
:1021C0000001C4F20101884209D0FFE703980068CA
:1021D00041F60001C4F2000188420ED1FFE70098E9
:1021E00020F0800000900298416800980843009019
:1021F0000098039909688860FFE70399012081F836
:102200003D00FFE70399002081F83C00FFE7002034
:102210008DF81300FFE79DF8130005B0704700002C
:1022200080B582B00090009820B9FFE701208DF8BA
:1022300007003FE0009890F83D0040B9FFE70099A3
:10224000002081F83C00009800F038F8FFE7009982
:10225000022081F83D00009951F8040B01F04CF97F
:102260000099012081F84600FFE70099012081F8DC
:102270003E00009981F83F00009981F840000099E4
:1022800081F84100FFE7FFE70099012081F8420053
:10229000009981F84300009981F84400009981F881
:1022A0004500FFE70099012081F83D0000208DF8EE
:1022B0000700FFE79DF8070002B080BD80B584B03D
:1022C000039003980068B0F1804F1BD1FFE7FFE750
:1022D0000020029043F64000C4F20200016841F081
:1022E00001010160006800F0010002900298FFE720
:1022F0001C20019000221146FFF79EF90198FFF77C
:1023000091F9FFE704B080BD83B00190019890F887
:102310003D00012804D0FFE701208DF80B0064E0A8
:102320000199022081F83D00019800680021C4F263
:10233000010188423CD0FFE701980068B0F1804F6E
:1023400036D0FFE70198006840F20041C4F2000176
:1023500088422DD0FFE70198006840F60001C4F2E2
:102360000001884224D0FFE70198006840F6004150
:10237000C4F2000188421BD0FFE70198006840F2D8
:102380000041C4F20101884212D0FFE701980068C1
:1023900044F20001C4F20101884209D0FFE701982C
:1023A000006841F60001C4F20001884212D1FFE743
:1023B00001980068806800F00700009000980628E7
:1023C00007D0FFE701980168086840F00100086045
:1023D000FFE706E001980168086840F00100086026
:1023E000FFE700208DF80B00FFE79DF80B0003B01E
:1023F0007047000081B00090FFE700980068006A15
:1024000041F21111084210D1FFE700980068006AFC
:1024100040F24441084207D1FFE70098016808688C
:1024200020F001000860FFE7FFE7FFE700990120C7
:1024300081F83D00002001B07047000080B586B0F3
:102440000490039100208DF80B00FFE7049890F8AA
:102450003C00012804D1FFE702208DF81700ABE013
:102460000499012081F83C00FFE7FFE7049902206E
:1024700081F83D000498006880680190019820F080
:1024800077000190019820F47F4001900198049911
:1024900009688860039800680090002872D0FFE700
:1024A000009810286ED0FFE7009820286AD0FFE738
:1024B0000098302866D0FFE70098402855D0FFE705
:1024C0000098502837D0FFE70098602840D0FFE7F9
:1024D000009870280BD0FFE70098B0F5805F05D01A
:1024E000FFE70098B0F5005F16D052E055E0049881
:1024F0000068039B5A689968DB6801F0D5F8049876
:10250000006880680190019840F077000190019880
:1025100004990968886040E004980068039B5A6841
:102520009968DB6801F0C0F804980168886840F495
:102530008040886031E004980068039A5168D2684E
:1025400001F0E2F804980068502101F0C7F824E097
:1025500004980068039A5168D26801F0FDF8049865
:102560000068602101F0BAF817E004980068039A47
:102570005168D26801F0C8F804980068402101F061
:10258000ADF80AE0049800680399096801F0A6F81C
:1025900003E001208DF80B00FFE70499012081F88A
:1025A0003D00FFE70499002081F83C00FFE79DF81B
:1025B0000B008DF81700FFE79DF8170006B080BDEF
:1025C00081B0009001B0704780B584B0039003984B
:1025D0000068C068029003980068006901909DF847
:1025E00004008007002824D5FFE79DF80800800735
:1025F00000281DD5FFE7039801686FF0020008610D
:10260000039901200877039800688069800720B14A
:10261000FFE70398FFF7D4FF06E0039800F0E2F825
:10262000039800F0E3F8FFE7039900200877FFE73D
:10263000FFE79DF804004007002825D5FFE79DF837
:102640000800400700281ED5FFE7039801686FF0D7
:1026500004000861039902200877039800688069E4
:1026600010F4407F04D0FFE70398FFF7A9FF06E0CE
:10267000039800F0B7F8039800F0B8F8FFE7039963
:1026800000200877FFE7FFE79DF804000007002817
:1026900024D5FFE79DF80800000700281DD5FFE7B7
:1026A000039801686FF00800086103990420087717
:1026B00003980068C069800720B1FFE70398FFF71F
:1026C0007FFF06E0039800F08DF8039800F08EF885
:1026D000FFE7039900200877FFE7FFE79DF8040074
:1026E000C006002825D5FFE79DF80800C006002891
:1026F0001ED5FFE7039801686FF010000861039989
:102700000820087703980068C06910F4407F04D05F
:10271000FFE70398FFF754FF06E0039800F062F824
:10272000039800F063F8FFE7039900200877FFE7BC
:10273000FFE79DF80400C00778B1FFE79DF80800A7
:10274000C00748B1FFE7039801686FF00100086116
:10275000039800F04FF8FFE7FFE79DF8040000063C
:10276000002810D5FFE79DF808000006002809D5CD
:10277000FFE7039801686FF0800008610398FFF796
:10278000B5FCFFE7FFE79DF804004006002810D5E0
:10279000FFE79DF808004006002809D5FFE70398E9
:1027A00001686FF040000861039800F027F8FFE728
:1027B000FFE79DF804008006002810D5FFE79DF88C
:1027C00008008006002809D5FFE7039801686FF02C
:1027D000200008610398FFF78DFCFFE7FFE704B0D6
:1027E00080BD000081B0009001B0704781B00090C2
:1027F00001B0704781B0009001B0704781B0009087
:1028000001B0704782B00190ADF8021002B070477D
:1028100081B0009001B0704780B592B011901198CE
:1028200000680068109011980068C0680F901198B7
:10283000006840690E9000200D900C90109800F0F8
:102840000F000D900D9888B9FFE79DF840008006B5
:1028500000280AD5FFE79DF83C008006002804D533
:10286000FFE7119801F010F8EAE1FFE70D98002862
:1028700000F0C280FFE79DF83800C00738B9FFE7D5
:10288000BDF83C0010F4907F00F0B680FFE79DF8A3
:102890004000C00758B1FFE79DF83D00C00730B1C8
:1028A000FFE71199486C40F001004864FFE79DF88C
:1028B0004000400700280BD5FFE79DF83800C0070F
:1028C00030B1FFE71199486C40F002004864FFE71F
:1028D0009DF84000800700280BD5FFE79DF83800E1
:1028E000C00730B1FFE71199486C40F0040048641C
:1028F000FFE79DF840000007002811D5FFE79DF88D
:102900003C008006002805D4FFE79DF83800C0078A
:1029100030B1FFE71199486C40F008004864FFE7C8
:102920001198406C002866D0FFE79DF840008006B3
:1029300000280AD5FFE79DF83C008006002804D552
:10294000FFE7119800F0A0FFFFE7119800684069C9
:10295000C0F380100C901198406C0007002804D43C
:10296000FFE70C9800283ED0FFE7119800F02EFFFB
:10297000119800684069400600282FD5FFE7FFE75F
:10298000FFE71198006850E8050F20F040000B9019
:10299000FFE70B991198026842E805100028F0D172
:1029A000FFE7FFE71198C06B98B1FFE71198C16B83
:1029B00043F2AD70C0F6000008651198C06BFEF7D9
:1029C00049FB28B1FFE71198C06B016D8847FFE70D
:1029D00003E01198FFF71CFFFFE703E01198FFF7F2
:1029E00017FFFFE706E01198FFF712FF119900208B
:1029F0004864FFE7FFE723E11198006B012840F0EE
:102A0000FF80FFE79DF84000C006002840F1F880F5
:102A1000FFE79DF83C00C006002840F1F180FFE789
:102A2000FFE700200A901198006800680A9011984A
:102A3000006840680A900A98FFE7119800684069AA
:102A40004006002840F18280FFE71198C06B0068C3
:102A50004068ADF82600BDF82600002875D0FFE7D5
:102A6000BDF826001199898D88426EDAFFE7BDF81E
:102A700026001199C8851198C06BC069B0F5807F98
:102A800058D0FFE7FFE7FFE71198006850E8030F11
:102A900020F480700890FFE708991198026842E8D6
:102AA00003100028F0D1FFE7FFE7FFE7FFE71198E9
:102AB000006850E8050F20F001000790FFE7079934
:102AC0001198026842E805100028F0D1FFE7FFE7FF
:102AD000FFE7FFE71198006850E8050F20F040007D
:102AE0000690FFE706991198026842E80510002851
:102AF000F0D1FFE7FFE71199202081F842001199FA
:102B000000200863FFE7FFE71198006850E8030F13
:102B100020F010000590FFE705991198026842E83F
:102B200003100028F0D1FFE7FFE71198C06BFEF714
:102B30001BFAFFE71199022048631198818DC28D1D
:102B4000891A89B2FFF75EFEFFE779E01199888D57
:102B5000C98D401AADF812001198C08D00284ED0D2
:102B6000FFE7BDF81200002849D0FFE7FFE7FFE7C5
:102B70001198006850E8030F20F490700390FFE76D
:102B800003991198026842E803100028F0D1FFE78A
:102B9000FFE7FFE7FFE71198006850E8050F20F016
:102BA00001000290FFE702991198026842E80510BF
:102BB0000028F0D1FFE7FFE71199202081F84200BB
:102BC000119900200863FFE7FFE71198006850E8BB
:102BD000030F20F010000190FFE70199119802689F
:102BE00042E803100028F0D1FFE7FFE71199022027
:102BF00048631198BDF81210FFF704FEFFE71FE0CD
:102C00009DF84000000600280AD5FFE79DF83C002B
:102C10000006002804D5FFE7119800F0BBFF0FE085
:102C20009DF84000400600280AD5FFE79DF83C00CB
:102C30004006002804D5FFE7119800F011FEFFE7D9
:102C400012B080BD80B582B00090009820B9FFE737
:102C500001208DF8070040E00098806908B1FFE787
:102C600000E0FFE7009890F8410040B9FFE70099C5
:102C7000002081F84000009800F034F8FFE7009948
:102C8000242081F8410000980168C86820F40050B1
:102C9000C860009800F0AEFE00980168086920F452
:102CA0009040086100980168486920F02A00486156
:102CB00000980168C86840F40050C860009900207E
:102CC0004864009A202182F84110009A82F842104C
:102CD000009948638DF80700FFE79DF8070002B0F0
:102CE00080BD000080B58EB00D9000200C900B9040
:102CF0000A90099008900D98006841F20001C4F212
:102D0000010188423ED1FFE7FFE70020079043F62C
:102D10004400C4F20200016841F010010160006843
:102D200000F0100007900798FFE7FFE700200690EB
:102D300043F63000C4F20200016841F00101016075
:102D4000006800F0010006900698FFE74FF4C060AD
:102D5000089002200990002002900A9003200B9016
:102D600007200C900020C4F2020008A9FEF7B6F973
:102D7000029A252003901146FEF75EFC0398FEF7A9
:102D800051FC46E00D98006844F20041C4F2000195
:102D900088423DD1FFE7FFE70020059043F6400061
:102DA000C4F20200016841F400310160006800F4DF
:102DB000003005900598FFE7FFE70020049043F6F8
:102DC0003000C4F20200016841F0010101600068B6
:102DD00000F0010004900498FFE70C200890022006
:102DE0000990002000900A9003200B9007200C907F
:102DF0000020C4F2020008A9FEF770F9009A26200C
:102E000001901146FEF718FC0198FEF70BFCFFE756
:102E1000FFE70EB080BD000080B584B00290019144
:102E2000ADF80220029890F84200202817D1FFE761
:102E3000019820B1FFE7BDF8020020B9FFE70120AB
:102E40008DF80F000FE002990020086302980199A5
:102E5000BDF8022000F06CFE8DF80F0003E00220A8
:102E60008DF80F00FFE79DF80F0004B080BD000053
:102E700080B582B001900198006841F20001C4F26F
:102E8000010188420CD1FFE740F2B400C2F2000019
:102E900040F24E11C2F200010122FFF7BDFF17E020
:102EA0000198006844F20041C4F2000188420ED14A
:102EB000FFE701F0CBF840F2FC00C2F2000040F264
:102EC0004F51C2F200010122FFF7A6FFFFE7FFE723
:102ED00002B080BD80B58AB008900791ADF81A2085
:102EE000059300200290089890F84100202840F0B7
:102EF0008180FFE7079820B1FFE7BDF81A0020B9ED
:102F0000FFE701208DF8270078E008990020486449
:102F10000899212081F84100FEF7ECFA0290BDF8F3
:102F20001A0008998884BDF81A000899C88408987E
:102F30008068B0F5805F09D1FFE70898006928B97B
:102F4000FFE7002004900798039004E0079804909E
:102F500000200390FFE7FFE70898C08C78B3FFE7F5
:102F60000898029B05996A4611608021002200F0B2
:102F70005BFE40B1FFE70899202081F84100032063
:102F80008DF827003AE0049858B9FFE703980088C5
:102F90006FF35F2008990968486003980230039036
:102FA00008E004980078089909684860049801309E
:102FB0000490FFE70899C88C0138C884CCE70898CA
:102FC000029B05996A4611604021002200F02CFE08
:102FD00040B1FFE70899202081F8410003208DF8D7
:102FE00027000BE00899202081F8410000208DF88F
:102FF000270003E002208DF82700FFE79DF8270057
:103000000AB080BD81B0009001B07047FFE7FEE7D5
:1030100080B586B00022009205920492039202923B
:1030200040F22400C2F20000019042F20001C4F21A
:1030300001010160426082600261027680F8202016
:10304000C2620121C0F600718162C2600121C161CA
:1030500080F830204161FDF707FE18B1FFE7FDF76A
:10306000F3FCFFE70020029001210391049040F25D
:103070002400C2F2000002A9FDF7EAFC18B1FFE744
:10308000FDF7E2FCFFE706B080BD000080B58CB024
:1030900000200B900A90099008900790FFE700200D
:1030A000069043F63000C4F20200016841F080014E
:1030B0000160006800F0800006900698FFE7FFE7D7
:1030C0000020059043F63000C4F20200016841F090
:1030D00001010160006800F0010005900598FFE71C
:1030E000FFE70020049043F63000C4F202000168BC
:1030F00041F002010160006800F0020004900498B1
:10310000FFE740F20040C4F20200039080210191E9
:1031100000220292FEF7D6F9019A029903980792CB
:1031200001220892099103210A9107A9FDF7D6FF10
:103130000CB080BD80B588B0002101910791069147
:10314000059104910391029140F26C00C2F20000DB
:103150004FF0804202604722426081604FF0FF32B0
:10316000C26001618161FFF75BF818B1FFE7FDF70D
:103170006BFCFFE74FF48050049040F26C00C2F209
:10318000000004A9FFF75AF918B1FFE7FDF75CFC4E
:10319000FFE700200290039040F26C00C2F20000B2
:1031A00002A9FEF7ABFF18B1FFE7FDF74DFCFFE703
:1031B00008B080BD80B582B040F2B400C2F2000019
:1031C000019041F20001C4F2010101604FF4E131CC
:1031D000416000218160C16001610C224261816116
:1031E000C161FFF72FFD18B1FFE7FDF72DFCFFE7E9
:1031F00002B080BD80B582B040F2FC00C2F2000097
:10320000019044F20041C4F2000101604FF4E13149
:10321000416000218160C16001610C2242618161D5
:10322000C161FFF70FFD18B1FFE7FDF70DFCFFE7E8
:1032300002B080BDFFE7FEE7FFE7FEE788B007903A
:1032400006910592079800F0070004900498C0F1D9
:103250000700052803D3FFE70420019004E0049849
:10326000C0F107000190FFE7019803900498043033
:10327000062803D8FFE70020009003E004980338F5
:103280000090FFE70098029006980399012202FA45
:1032900001F101390840029B984005999A40013A92
:1032A0001140084308B070477047000070470000A5
:1032B0007047000080B5A0B040F22000C2F20000CC
:1032C000007800287BD1FFE744F6BA51C0F6000130
:1032D00007A8059001F0AEF805990690BDF81820F2
:1032E00040F2B400C2F200004FF0FF33FFF7F2FDEE
:1032F000FFE7FDF783FBA8B9FFE744F66F51C0F67F
:10330000000107A8049001F095F804990690BDF813
:10331000182040F2B400C2F200004FF0FF33FFF774
:10332000D9FD19E044F69951C0F6000107A80390B1
:1033300001F080F803990690BDF8182040F2B4001F
:10334000C2F200004FF0FF33FFF7C4FD4FF4FA70F4
:10335000FDF7A2FEFFE7CCE740F22400C2F2000036
:10336000FDF71AFD44F68551C0F6000107A800904C
:1033700001F060F800990690BDF8182040F2B40002
:10338000C2F2000002904FF0FF330193FFF7A2FD5D
:10339000009844F65051C0F6000101F04BF8009936
:1033A000019B024602980692BDF81820FFF792FD95
:1033B00040F22001C2F2000101200870FFE720B0B6
:1033C00080BD000080B582B0009000980138B0F157
:1033D000807F03D3FFE70120019019E000980138B6
:1033E0004EF21401CEF2000108604FF0FF300F21C1
:1033F00000F0BAFC4EF21801CEF200010020086085
:103400004EF21002CEF20002072111600190FFE798
:10341000019802B080BD000080B5FEF771F880BD54
:1034200080B594B008A83021FCF702FF0020079077
:103430000690059004900390FFE70020029043F669
:103440004000C4F20200016841F080510160006850
:1034500000F0805002900298FFE7FFE70020019003
:1034600047F20000C4F20000016841F480410160AD
:10347000006800F4804001900198FFE70120089067
:103480004FF48030099002210E914FF480000F908C
:1034900004201090482211921291139008A8FEF770
:1034A000BDFA18B1FFE7FDF7CFFAFFE70F20039051
:1034B00002210491002005904FF48052069207905B
:1034C00003A8FEF7DBF818B1FFE7FDF7BDFAFFE749
:1034D00014B080BD4EF68851CEF20001086840F469
:1034E000700008607047000080B540F26C00C2F2C6
:1034F0000000FFF769F880BD83B002900191029847
:103500000068009002980021C4F20101884225D091
:10351000FFE70298B0F1804F20D0FFE7029840F219
:103520000041C4F20001884218D0FFE7029840F63B
:103530000001C4F20001884210D0FFE7029840F673
:103540000041C4F20001884208D0FFE7029840F22F
:103550000041C4F2010188420AD1FFE7009820F03F
:103560007000009001984168009808430090FFE7C0
:1035700002980021C4F20101884255D0FFE7029869
:10358000B0F1804F50D0FFE7029840F20041C4F202
:103590000001884248D0FFE7029840F60001C4F2DB
:1035A0000001884240D0FFE7029840F60041C4F293
:1035B0000001884238D0FFE7029840F20041C4F28F
:1035C0000101884230D0FFE7029844F20001C4F2C2
:1035D0000101884228D0FFE7029844F20041C4F27A
:1035E0000101884220D0FFE7029844F60001C4F2AE
:1035F0000101884218D0FFE7029841F60001C4F2A9
:103600000001884210D0FFE7029841F60041C4F261
:103610000001884208D0FFE7029842F20001C4F29C
:10362000000188420AD1FFE7009820F44070009022
:103630000198C168009808430090FFE7009820F0C7
:103640008000019949690843009000980299086038
:10365000019880680299C86201980068029988629E
:1036600002980021C4F20101884208D0FFE70298C5
:1036700040F20041C4F20101884205D1FFE7019800
:10368000006902990863FFE70299012048610298E6
:103690000069C00730B1FFE70299086920F0010016
:1036A0000861FFE703B0704785B004900391029270
:1036B0000193049880680090009820F47F40009067
:1036C00003980299019A41EA0221014300980843B4
:1036D000009000980499886005B0704783B002900C
:1036E0000191029880680090009820F0700000908E
:1036F00001980099084340F0070000900098029953
:10370000886003B07047000085B004900391029276
:103710000498006A00900499086A20F00100086289
:10372000049880690190019820F0F00001900299BE
:10373000019840EA01100190009820F00A000090E2
:1037400003990098084300900198049988610098B3
:103750000499086205B0704785B004900391029205
:103760000498006A00900499086A20F0100008622A
:10377000049880690190019820F4704001900299AA
:10378000019840EA01300190009820F0A0000090DC
:103790000399009840EA011000900198049988610B
:1037A00000980499086205B07047000080B582B0A7
:1037B00001900198806B009000990020C8850099C5
:1037C000C8840098FFF724F802B080BD84B003904D
:1037D000FFE7FFE70398006850E8030F20F49070BC
:1037E0000290FFE702990398026842E8031000285C
:1037F000F0D1FFE7FFE7FFE7FFE70398006850E835
:10380000050F20F001000190FFE70199039802687D
:1038100042E805100028F0D1FFE7FFE70398006BAE
:10382000012814D1FFE7FFE7FFE70398006850E89D
:10383000030F20F010000090FFE700990398026842
:1038400042E803100028F0D1FFE7FFE7FFE7039904
:10385000202081F8420003990020086304B07047DB
:1038600080B582B0019001980168C86820F04000DE
:10387000C8600199202081F841000198FFF7C2FB40
:10388000002002B080BD000080B586B0049004988E
:1038900090F84200222840F0A480FFE70498806856
:1038A000B0F5805F15D1FFE70498006988B9FFE79C
:1038B000002003900498806A029004980068406891
:1038C0006FF35F20029908800499886A0230886249
:1038D00025E00498806A0390002002900498806894
:1038E000B0F5805F08D0FFE70498806850B9FFE723
:1038F0000498006930B9FFE70498006840680399AC
:10390000087007E004980068406800F07F000399A1
:103910000870FFE70499886A01308862FFE704991C
:10392000C88D0138C8850004002856D1FFE70498E7
:103930000168C86820F02000C86004980168C86861
:1039400020F48070C86004980168486920F0010084
:1039500048610499202081F84200049900204863BE
:103960000498006B012830D1FFE704990020086318
:10397000FFE7FFE70498006850E8030F20F010000D
:103980000190FFE701990498026842E803100028BB
:10399000F0D1FFE7FFE7049800680068C006002840
:1039A0000ED5FFE7FFE7002000900498006800684C
:1039B000009004980068406800900098FFE7FFE7D7
:1039C0000498818DFEF71EFF03E00498FFF750FA7C
:1039D000FFE700208DF8170007E000208DF81700A2
:1039E00003E002208DF81700FFE79DF8170006B0EE
:1039F00080BD000080B586B005900598006800691C
:103A000020F44050059A1168D26810430861059966
:103A100088680B694A69C9691843104308430490D0
:103A200005980068C06849F20C618843049908430E
:103A300005990968C86005980068406920F44070DD
:103A4000059A11689269104348610598006841F22F
:103A50000001C4F20101884209D0FFE7059800681F
:103A600041F20041C4F20101884204D1FFE7FDF7B1
:103A70004FFF039003E0FDF739FF0390FFE7059840
:103A8000C069B0F5004F29D1FFE703981921A0FBC9
:103A90000101059A1368029353685A00DB0FFCF783
:103AA0008FFB0299864648F21F53C5F2EB13AEFB1B
:103AB0000320420910014FF0640C02FB1CEC32227F
:103AC00002EBCC02A2FB0332F82303EA521300EB11
:103AD0004300C2F342121044886026E00398192183
:103AE000A0FB0101059A1368019353689A009B0F8C
:103AF000FCF766FB0199844648F21F52C5F2EB12AF
:103B0000ACFB02304309642003FB10CC322000EBF5
:103B10000C10A0FB0202F02000EA521000EB031090
:103B2000C2F3431210448860FFE706B080BD000076
:103B300083B002900191ADF8022001980299886249
:103B4000BDF8020002998885BDF802000299C88577
:103B50000299002048640299222081F842000298CC
:103B6000006938B1FFE702980168C86840F48070C6
:103B7000C860FFE702980168486940F001004861A9
:103B800002980168C86840F02000C860002003B0B7
:103B90007047000083B00190019890F841002128FF
:103BA0003AD1FFE701988068B0F5805F13D1FFE755
:103BB0000198006978B9FFE70198006A00900098C1
:103BC00000886FF35F200199096848600199086ACD
:103BD0000230086208E0019A106A411C1162007804
:103BE000019909684860FFE70199C88C0138C884C9
:103BF000000468B9FFE701980168C86820F08000F8
:103C0000C86001980168C86840F04000C860FFE7DC
:103C100000208DF80B0003E002208DF80B00FFE779
:103C20009DF80B0003B0704780B586B0DDF820C06A
:103C3000049003918DF80B200193FFE7049800682E
:103C4000006803990840401AB0FA80F040099DF8D6
:103C50000B1088424DD1FFE708980130002847D06B
:103C6000FFE7FDF747FC0199401A0899884203D8FD
:103C7000FFE7089820B9FFE703208DF817003CE024
:103C800004980068C0684007002830D5FFE7039813
:103C900080282CD0FFE70398402828D0FFE704981D
:103CA0000068006800F008010120B0EBD10F1DD1C1
:103CB000FFE7FFE70020009004980068006800908C
:103CC00004980068406800900098FFE70498FFF7A8
:103CD0007DFD049908204864FFE70499002081F8DD
:103CE0004000FFE701208DF8170006E0FFE7FFE73F
:103CF000A4E700208DF81700FFE79DF8170006B035
:103D000080BD000080B540F2B400C2F20000FEF7B2
:103D100083FD80BD80B540F2FC00C2F20000FEF7DA
:103D20007BFD80BDFFE7FEE781B08DF803009DF9C4
:103D3000030000280ED4FFE79DF9031001F01F02D5
:103D4000012090404A094EF20011CEF2000141F8E4
:103D50002200FFE701B070474EF60C50CEF2000093
:103D60000068C0F30220704782B08DF80700009110
:103D70009DF9070000280AD4FFE7009800019DF98B
:103D800007104EF20042CEF2000288540BE0009879
:103D900000019DF8071001F00F014EF61452CEF20B
:103DA00000028854FFE702B07047000083B0029021
:103DB000029800F0070000904EF60C51CEF2000180
:103DC0000868019001984FF6FF0210400190019899
:103DD000009A40EA02200022C0F2FA5210430190F9
:103DE0000198086003B0704780B540F24F10C2F2EE
:103DF00000004FF48061FCF71BFA40F25051C2F210
:103E000000010020088080BD80B582B0ADF80600BA
:103E1000BDF806104FF6FA70401AADF80400BDF870
:103E2000041040F26C00C2F2000002685162FEF71A
:103E30006BFAFFE7BDF804004FF6F971884209DC20
:103E4000FFE740F26C00C2F200000068406AADF883
:103E50000400EFE740F26C00C2F20000FEF7CAFA7D
:103E600002B080BD80B584B00390029103988DF8B4
:103E7000070040F2B400C2F200000DF10701012278
:103E80004FF6FF73FFF726F8039804B080BD0000DB
:103E900080B5A4B000202390FDF740FBFFF7C0FAE7
:103EA000FFF7F4F8FFF746F9FFF7A4F9FFF7B0F8CA
:103EB000FFF780F945F2FE00C0F6000000F0AAFA14
:103EC000FFF7F8F944F62570C0F6000000F0AAF8F4
:103ED00044F6E250C0F6000000F074FA40F24C11D3
:103EE000C2F2000101910220087044F65470C0F63D
:103EF000000000F097F844F6D070C0F6000000F023
:103F000061FA01990320087040F2B400C2F2000087
:103F100040F24E11C2F2000101220292FEF77CFF34
:103F2000029A40F2FC00C2F2000040F24F51C2F28D
:103F30000001FEF771FFFFE740F24C10C2F20000F3
:103F4000007804282FD1FFE7FDF7D4FA40F248119A
:103F5000C2F200010968401A40F6B831884222D303
:103F6000FFE740F20C00C2F20000036845F21F01B7
:103F7000C0F6000145F2C402C0F6000203A800909A
:103F800000F058FA009800F01DFA40F24C11C2F20D
:103F9000000105200870FDF7ADFA40F24811C2F2A9
:103FA00000010860FFE740F24C10C2F20000007808
:103FB000072836D1FFE740F24D10C2F2000000782A
:103FC00002281EDCFFE740F24D11C2F20001087822
:103FD0000130087044F6A770C0F6000000F022F827
:103FE0004FF47A70FDF758F844F6E250C0F600003E
:103FF00000F0E8F940F24C11C2F200010220087012
:104000000EE044F6ED60C0F6000000F00BF800F0A2
:1040100085F940F24D11C2F2000100200870FFE75F
:10402000FFE789E780B582B0019001980090FCF726
:104030001CF9009982B240F2B400C2F200004FF0C5
:10404000FF33FEF747FF02B080BD000080B5CEB061
:1040500040F2B400C2F2000040F24F51C2F200013F
:1040600001224FF0FF33FEF735FF40F25050C2F20D
:104070000000008840F2FE31884215DCFFE740F284
:104080004F50C2F20000027840F25050C2F20000DD
:104090000388591C018040F24F11C2F20001CA543A
:1040A000028800208854FFE740F24F50C2F200001F
:1040B00000780A2813D0FFE740F24F50C2F2000008
:1040C00000780D280BD0FFE740F25050C2F20000FC
:1040D000008840F2FF318842C0F21381FFE740F2CE
:1040E0004C10C2F200000490027845F20A01C0F6BA
:1040F000000146A8039000F09DF90398FFF792FF96
:1041000004980078023801460591042800F2B9802D
:104110000599DFE801F0031AB64789004FF4FA6009
:10412000FCF7BAFF44F68070C0F60000FFF77AFF94
:1041300044F6D070C0F6000000F044F940F24C1193
:10414000C2F20001032008709BE040F24F10C2F25F
:10415000000045F21111C0F60001FCF774F860B9D7
:10416000FFE740F24F10C2F2000045F21611C0F610
:104170000001FCF768F8A0B1FFE745F2A400C0F623
:104180000000FFF74FFF40F24C11C2F20001042083
:104190000870FDF7AFF940F24811C2F20001086063
:1041A000FFE76EE040F24F10C2F2000045F20F113F
:1041B000C0F60001FCF747F8A8B3FFE740F20C0196
:1041C000C2F200010A68501C086040F21001C2F2FD
:1041D00000010B68581C086040F2080CC2F2000C89
:1041E000DCF80000411CCCF800106946086045F27C
:1041F0004211C0F6000106A8029000F01BF90298D7
:10420000FCF733F8029982B240F2FC00C2F20000DF
:104210004FF0FF33FEF75EFE40F24C11C2F2000198
:1042200006200870FFE72CE040F24F10C2F20000B9
:1042300045F22011C0F60001FCF705F860B9FFE770
:1042400040F24F10C2F2000045F22511C0F6000105
:10425000FBF7F9FFA0B1FFE745F27F00C0F60000D1
:10426000FFF7E0FE40F24C11C2F20001042008709A
:10427000FDF740F940F24811C2F200010860FFE783
:10428000FFE740F24F10C2F2000045F23111C0F6D4
:104290000001FBF7D8FFC0B9FFE740F24F10C2F2B0
:1042A000000045F22C11C0F60001FBF7CCFF60B90D
:1042B000FFE740F24F10C2F2000045F23711C0F69E
:1042C0000001FBF7C0FF68B1FFE745F22600C0F62A
:1042D0000000FFF7A7FE40F24C11C2F200010720D8
:1042E0000870FFE740F24F10C2F200004FF4806107
:1042F000FBF79EFF40F25051C2F2000100200880FF
:10430000FFE740F2FC00C2F2000040F24F51C2F25F
:1043100000010122FEF780FD4EB080BD80B582B065
:1043200044F6CC60C0F60000FFF77CFEFFF75CFDB2
:1043300040F2FC00C2F2000045F20101C0F60001AB
:1043400008224FF0FF33FEF7C5FD44F68D60C0F63E
:104350000000FFF767FE42F21070FCF79DFEFFF7CA
:1043600043FD00200190FFE70198022816DCFFE7DB
:1043700040F2FC00C2F2000044F6FC71C0F60001FD
:1043800004224FF0FF33FEF7A5FD4FF4FA70FCF75F
:1043900083FEFFE7019801300190E5E745F23F0019
:1043A000C0F60000FFF73EFE40F24C11C2F20001E1
:1043B0000020087040F24D11C2F20001087002B0F6
:1043C00080BD000080B582B0019040F24F10C2F273
:1043D00000004FF48061FBF72BFF40F25051C2F216
:1043E00000010020088001980090FBF73EFF009933
:1043F00082B240F2FC00C2F200004FF0FF33FEF741
:1044000069FDFDF777F840F24411C2F2000108603F
:1044100002B080BD0FB4054B10B503A9044A029841
:1044200000F0EEF810BC5DF814FB0000653E0008DB
:10443000000000200FB4084B10B504A902AA03988D
:1044400000F0DEF8044602A9002000F070FC2046CF
:1044500010BC5DF814FB00002F4D000802E008C8F6
:10446000121F08C1002AFAD170477047002001E0EE
:1044700001C1121F002AFBD1704700002DE9FF5F28
:1044800082B00021DDE90430020DDDF840B00343C5
:1044900018D044F61050A2F2FF324243151411987E
:1044A00001281FD0A5EB0B00401C5FEA000A4FF06B
:1044B00000064E4FDFF83891B046504615D5CAF188
:1044C000000413E0119801244AA3012801D16FEAE6
:1044D0000B010298119AC0E90031C0E9024206B00E
:1044E000BDE8F09FCBF10000DFE704460021404A21
:1044F000491842EB0450CDE9001012E0E00707D064
:1045000032463B4640464946FBF7B6FE8046894662
:1045100032463B4610461946FBF7AEFE06460F46AE
:104520006410002CEAD1DDE90401DDE90023BAF1D1
:10453000000F06DAFBF7A0FE42464B46FBF79CFE57
:1045400005E0FCF744F842464B46FCF740F80446C9
:104550000E460022284BFCF7C1F803D84FF0FF307D
:10456000014607E00022254B20463146FBF788FF35
:10457000FCF79CF8102409E0002C0ADB0A22002337
:10458000FBF71EFE039B30321A55641E50EA0102EF
:10459000F2D1641C039AC4F111031444119A012A44
:1045A00003D0012208430DD10AE0084304D00020C3
:1045B0004FF0110B119072E7A3EB0B056D1E0DE090
:1045C0005B4504DD4FF0000205F1010504E003DA6C
:1045D0004FF00002A5F10105002AECD002981199D4
:1045E000C0E90231C0E9004579E70000000014404D
:1045F0000000F03F300000000000F0430000E03F0A
:104600002DE9FF4F95B09B468946064600250FE2EF
:10461000252877D100242746F84A0121059400E097
:10462000044316F8013F203B01FA03F01042F7D192
:1046300030782A2811D06FF02F033078A0F13002A3
:10464000092A16D8059A44F0020402EB820203EB11
:1046500042021044761C0590EFE759F8042B0592AE
:10466000002A03DA504244F40054059044F0020456
:10467000761C30782E2816D116F8010F44F0040469
:104680002A280DD06FF02F023078A0F13003092BCB
:1046900009D807EB870302EB4303C718761CF3E73F
:1046A00059F8047B761C30786C280FD006DC4C2837
:1046B00017D068280DD06A2814D104E0742810D0CF
:1046C0007A280FD10DE044F400140AE044F4801479
:1046D00001E044F440147278824202D104F580145F
:1046E000761C761C307866280BD013DC582877D0DF
:1046F00009DC002875D04528F6D04628F4D0472894
:104700001AD19DE118E0632835D0642879D0652856
:1047100012D195E1702873D008DC6728F1D06928A0
:104720006FD06E280DD06F2806D1B5E073282CD03D
:10473000752875D0782874D05A46179990476D1C03
:1047400075E1C4F30250022809D003280DD0D9F82E
:10475000001004280DD00D6009F1040967E1D9F8B3
:104760000010EA17C1E90052F6E7D9F800100D80F1
:10477000F2E70D70F0E719F8041B8DF80010002027
:104780008DF80100EA46012003E059F804AB4FF030
:10479000FF3061074FF0000102D40DE008F1010184
:1047A0008846B9420FDA8045F8DB1AF8081000296C
:1047B000F4D108E008F1010188468142FADB1AF8D9
:1047C00008100029F6D105985B46A0EB08072146A2
:1047D0003846179A00F094FA284400EB080507E0E1
:1047E0004DE029E10DE01AF8010B5A461799904760
:1047F000B8F10108F7D25B4621463846179A13E113
:1048000042E00A220092C4F302524FF0000A022A48
:1048100008D059F804CB032A4FEAEC710AD00DE016
:1048200029E02AE009F1070121F00702F2E802C1BC
:10483000914609E00FFA8CFC4FEAEC71042A03D18F
:104840004FFA8CFC4FEAEC71002907DA0A46002186
:10485000DCF1000C61EB02012D2202E0220504D5FF
:104860002B228DF80420012203E0E20701D0202250
:10487000F7E7904659E00A2102E010220DE01021EE
:104880004FF0000A00910BE010224FF0000A44F0B4
:1048900004040827009203E008224FF0000A009267
:1048A000C4F30252022A05D059F804CB0021032A8E
:1048B00008D009E009F1070121F00702F2E802C17E
:1048C000914605E01FFA8CFC042A01D10CF0FF0C84
:1048D0004FF00008220728D5702806D0009B83F0EF
:1048E000100353EA0A0305D00EE040228DF804209D
:1048F000012208E05CEA010206D030228DF8042093
:104900008DF8050002229046009B83F0080353EACD
:104910000A030AD15CEA010201D1620705D53022FF
:104920008DF804204FF001087F1E582804D034A0D1
:1049300003900EA802900DE036A0F9E753466046BA
:10494000009AFBF73DFC84460398825C0298401E67
:10495000029002705CEA0100F0D1029806A9081AE0
:1049600000F1200A600702D524F4803400E001271A
:10497000574502DDA7EB0A0000E0002000EB0A012A
:10498000009005984144401A0590E00306D45B4628
:104990002146179A059800F0B3F90544002706E070
:1049A00001A85A46C05D179990476D1C7F1C47456A
:1049B000F6DBE0030CD55B462146179A059800F01C
:1049C0009FF9054404E030205A46179990476D1C22
:1049D0000099481E00900029F5DC08E00298029931
:1049E0005A460078491C0291179990476D1CBAF1FC
:1049F0000001AAF1010AF1DC65E1000009280100CB
:104A00003031323334353637383961626364656644
:104A10000000000030313233343536373839414206
:104A2000434445460000000000F058F90544761C58
:104A3000307800287FF4ECAD19B02846BDE8F08F3F
:104A4000620700D4062709F1070222F0070CFCE8F0
:104A50000223E14603F000485FEA080C02D00FF29F
:104A6000702C0DE05FEA045C02D50FF2682C07E0C1
:104A70005FEAC47C02D00FF2602C01E0AFF2700C50
:104A80004FF0FF3823F00043CDF850C065280CD01C
:104A900006DC452809D046281DD047283DD13DE0F9
:104AA000662818D067287ED138E00021112F01DB5D
:104AB000112000E0781CCDE9000106A90EA8FFF73F
:104AC000DDFCDDE90F010E9A03910021009207F150
:104AD000010A04914DE04FF000400097CDE901102C
:104AE00006A90EA8FFF7CAFCDDE90F0203920E9B90
:104AF00011990022DDF80CA00093049211B9791CE1
:104B000000EB010AB7EB0A0004D4C0F1FF3007F153
:104B1000010A0490AAEB0700019044E0012F00DA9B
:104B200001270021112F01DD112000E03846CDE9D9
:104B3000000106A90EA8FFF7A1FCDDE90F010E9AFE
:104B40000391002104910092BA4621070CD40399E5
:104B5000514500DA8A46BAF1010F05DD009AAAF143
:104B60000101515C302908D0B84202DA10F1040F7B
:104B700006DA0121CDE9011015E0AAF10101E9E70A
:104B8000002805DC049901440491AAEB000102E02D
:104B9000411C514500DD8A460499401A401C019091
:104BA0004FF000400290200704D40198504501DBEB
:104BB000CDF8048000208DF84F0002980DF14F07CA
:104BC000B0F1004F25D02B200E9002984FF0020834
:104BD00000280CDA404202902D200E9007E00A21B6
:104BE0000298FBF7BBFB3031029007F8011DB8F1CA
:104BF0000001A8F10108F2DC02980028EFD1791E2B
:104C00000E980870307800F0200040F0450007F85A
:104C1000020D12A8C01B00F107081498007800B11B
:104C2000012000EB0A01019801EBE0710598414475
:104C3000401A401E0590E00306D45B462146179AB1
:104C4000059800F05DF805441498007818B15A46AC
:104C5000179990476D1CE00324D55B462146179AAF
:104C6000059800F04DF805441CE00498002807DB87
:104C7000DDE90301884203DD0098405C179901E0FB
:104C8000179930205A469047049805F10105401CB9
:104C900004900198401E019004D12E205A46179985
:104CA00090476D1CBAF10001AAF1010ADDDC05E0B4
:104CB00017F8010B5A46179990476D1CB8F100017F
:104CC000A8F10108F4DC5B462146179A0598ABE68B
:104CD0002D0000002B000000200000002DE9F04115
:104CE000044600251E461746880404D405E03946CC
:104CF0002020B0476D1C641EF9D52846BDE8F08120
:104D00002DE9F041044600251E469046C80301D512
:104D1000302700E02027880404D505E041463846C6
:104D2000B0476D1C641EF9D52846BDE8F0810A68BD
:104D3000531C0B6010707047000000000000000062
:104D40000102030406070809000000000102030431
:104D50003D3D3D3D3D3D20496E697420436F6D7082
:104D60006C657465203D3D3D3D3D3D0D0A0A0044A6
:104D70004854313120496E697420537563636573FB
:104D800073210D0A004D513220496E69742053750C
:104D90006363657373210D0A00444854313120491F
:104DA0006E6974204661696C65642C20526574726A
:104DB00079696E672E2E2E0D0A000D0A3D3D3D3D90
:104DC0003D3D2053656E736F7220496E6974696151
:104DD0006C697A6174696F6E203D3D3D3D3D3D0DCE
:104DE0000A0041542B4D51545455534552434647A4
:104DF0003D302C312C226431222C2266303459680B
:104E00007252633954222C2276657273696F6E3D3B
:104E1000323031382D31302D3331267265733D708B
:104E2000726F6475637473253246663034596872E4
:104E30005263395425324664657669636573253259
:104E40004664312665743D32303432363238383873
:104E500035266D6574686F643D6D643526736967CA
:104E60006E3D495379626A532532422532463048B5
:104E7000563350357375767261704751253344252A
:104E80003344222C302C302C22220D0A005B524558
:104E90005345545D2057616974696E6720666F726F
:104EA000204553503832363620746F2066756C6C4E
:104EB00079207265737461727420283130207365B3
:104EC000636F6E6473292E2E2E0D0A000D0A5B523D
:104ED000455345545D20526573657474696E67204F
:104EE000455350383236362E2E2E0D0A005B455271
:104EF000524F525D204D6178207265747279206343
:104F00006F756E7420726561636865642C207265CC
:104F100073657474696E6720455350383236362E87
:104F20002E2E0D0A005B4D5154545D2053656E6466
:104F3000696E67204D51545420636F6E66696775C2
:104F4000726174696F6E20636F6D6D616E642E2E79
:104F50002E0D0A005B4D5154545D2053656E6469FB
:104F60006E67204D51545420636F6E6E6563746993
:104F70006F6E20636F6D6D616E642E2E2E0D0A00B4
:104F80005B4D5154545D2053656E64696E672063B8
:104F90006F6E6E656374696F6E20636F6D6D616EA9
:104FA000642E2E2E0D0A005B4552524F525D204357
:104FB0006F6E6E656374696F6E206661696C65649F
:104FC0002C207265747279696E672E2E2E0D0A0080
:104FD00041542B4D515454434F4E4E3D302C226D75
:104FE000717474732E6865636C6F7564732E636F70
:104FF0006D222C313838332C310D0A0041540D0A02
:105000000041542B5253540D0A005B44454255470E
:105010005D205374617475733A2025640D0A002570
:105020007325640D0A005B4552524F525D20436F59
:105030006D6D616E64206661696C65640D0A005B6C
:1050400052455345545D2045535038323636207210
:105050006573657420636F6D706C6574652C207268
:10506000657374617274696E6720636F6E6E6563D9
:1050700074696F6E2070726F636573730D0A005BE5
:105080004D5154545D2044617461207075626C69A7
:1050900073686564207375636365737366756C6CA0
:1050A000790D0A005B4D5154545D20436F6E6E655F
:1050B00063746564207375636365737366756C6C84
:1050C000790D0A0041542B4D5154545055425241D0
:1050D000573D302C22247379732F6630345968720F
:1050E000526339542F64312F7468696E672F707260
:1050F0006F70657274792F706F7374222C00313168
:105100003131313131313131313131313131003EB3
:10511000002B4D515454434F4E4E4543544544008B
:105120002B4D5154545055423A4F4B004641494C37
:10513000004552524F5200444953434F4E4E45434F
:1051400054007B226964223A222575222C2276653E
:105150007273696F6E223A22312E30222C227061D6
:1051600072616D73223A7B2274656D70223A7B22E4
:1051700076616C7565223A25647D2C2268756D69AF
:10518000223A7B2276616C7565223A25647D7D7DAD
:1051900000000000B85100080000002020000000BE
:1051A0005C440008D85100082000002038090000A5
:1051B0006C44000800000000000000000024F4001F
:1051C00028000000010000001400000001000000A1
:0851D0001000000000000000C7
:040000050800018965
:00000001FF
