:020000040800F2
:1000000088F801202902000861160008E7090008A5
:1000100031150008DB020008572500080000000029
:10002000000000000000000000000000F71C0008B5
:100030008906000800000000C918000825200008F3
:10004000430200084302000843020008430200087C
:10005000430200084302000843020008430200086C
:10006000430200084302000843020008430200085C
:10007000430200084302000843020008430200084C
:10008000430200084302000843020008430200083C
:100090004302000843020008430200088D060008DE
:1000A000430200084302000843020008430200081C
:1000B0004302000843020008CD2000084302000864
:1000C00043020008430200084302000843020008FC
:1000D00043020008430200084302000839220008D6
:1000E00043020008430200084302000843020008DC
:1000F00043020008430200084302000843020008CC
:1001000043020008430200084302000843020008BB
:100110004D21000843020008430200084302000882
:10012000430200084302000843020008430200089B
:10013000430200084302000843020008430200088B
:10014000430200084302000843020008430200087B
:10015000430200084302000843020008430200086B
:10016000430200084302000843020008430200085B
:100170004302000843020008DD03000843020008B0
:10018000430200084302000800F002F800F03CF8C7
:100190000AA090E8000C82448344AAF10107DA45E2
:1001A00001D100F031F8AFF2090EBAE80F0013F0F8
:1001B000010F18BFFB1A43F001031847DC4600008B
:1001C000FC460000103A24BF78C878C1FAD852071C
:1001D00024BF30C830C144BF04680C6070470000C1
:1001E0000023002400250026103A28BF78C1FBD840
:1001F000520728BF30C148BF0B6070471FB502F0DF
:1002000047FB1FBD10B510BD00F031F81146FFF7D8
:10021000F5FF02F0F1FA00F04FF803B4FFF7F2FF38
:1002200003BC00F053F80000094880470948004724
:10023000FEE7FEE7FEE7FEE7FEE7FEE7FEE7FEE796
:10024000FEE7FEE704480549054A064B70470000F3
:10025000652000088901000888F2012088F8012043
:1002600088F4012088F40120704770477047754674
:1002700000F028F8AE4605006946534620F0070016
:10028000854618B020B5FFF7DDFFBDE820404FF0F0
:1002900000064FF000074FF000084FF0000B21F070
:1002A0000701AC46ACE8C009ACE8C009ACE8C0093D
:1002B000ACE8C0098D4670470446AFF30080204685
:1002C000FFF7ABFF0048704724F2012001491820D6
:1002D000ABBEFEE726000200704700BFFEE700004D
:1002E00030B10749096841F00101054A116005E094
:1002F0000349096821F00101014A116070470000BB
:100300000000055001494861704700000000055099
:1003100030B10749096841F48041054A116005E0A0
:100320000349096821F48041014A116070470000C7
:1003300000000550F0B58FB004460D4616461F4626
:100340000121880501F0C2FA144800F0B5F800BF99
:10035000124800F05DF90028FAD14FF000700090CB
:100360000F48019002940020039004950590069791
:100370004FF48050079008960011099040020A90AF
:1003800004200B9003200C9000200D900E906946E5
:10039000024800F04BF90FB0F0BD000028640240A5
:1003A00028000550002005490860C8601F204861EA
:1003B00000208861C86108624862704700000550EB
:1003C000014600200022044B1B6903EA01020AB126
:1003D000012000E0002070470000055010B501200A
:1003E000FFF7EEFF012811D102F020F90120FFF7FD
:1003F00089FF0748006808B9012000E0002004498F
:10040000086004480078401C0249087010BD0000D4
:10041000900242426C00002029B1074AD268024390
:10042000054BDA6006E0044AD268C3439BB21A4027
:10043000014BDA60704700000000055000210E4AB1
:10044000126844F201039A430B4B1A601A46116872
:1004500040F6F2729143028843881A4383881A4314
:10046000C3881A4303891A4343891A4383891A4369
:100470001143014A116070470000055010B500217A
:10048000084600F041FF00F0A1FF0121034800F001
:1004900007F80120FFF724FF10BD00002864024088
:1004A00021B1026842F00102026003E0026822F01A
:1004B0000102026070470000016821F00101016043
:1004C0000021016041608160C160016121214161C1
:1004D0004A49884204D13D21484A103A91608CE053
:1004E00046491831884205D14FF47461434A103AA5
:1004F000916082E041493031884205D14FF4741156
:100500003E4A103A916078E03C494831884205D132
:100510004FF07461394A103A91606EE037496031AA
:10052000884204D13649354A103AD16065E03349F2
:100530007831884204D13349304A103AD1605CE0C6
:100540002E499031884204D12F492C4A103AD1606B
:1005500053E02A49A831884205D14FF03D51274A3E
:10056000103AD16049E02949884204D13D21274A07
:10057000083A116041E025491831884205D14FF40D
:100580007461224A083A116037E0204930318842CC
:1005900005D14FF474111D4A083A11602DE01B4932
:1005A0004831884205D14FF07461184A083A116009
:1005B00023E016496031884204D11149134A121FC1
:1005C00011601AE011497831884204D10D490F4A6F
:1005D000121F116011E00D499031884204D10A497F
:1005E0000A4A121F116008E00849A831884204D164
:1005F0004FF03D51054A121F1160704710600240D4
:100600003D000020400F002000003D20106402400B
:10061000014600200A6802F001020AB1012000E050
:10062000002070470146486880B2704710B500222C
:100630000268134B1A40CC680B6823434C69234370
:100640008C692343CC6923430C6A23434C6A2343BC
:100650008C6A23434C6B23438C6B23431A43026005
:10066000426922F00702D1E90B3423431A43426165
:100670000B6943604B6883608B68C36010BD0000EA
:100680003F801CF0416070477047000010B54FF488
:10069000007000F035F838B12021154800F0A1F9BC
:1006A0004FF4007000F026F84FF4807000F028F846
:1006B00038B120210E4800F092F94FF4807000F01C
:1006C00019F8802000F01CF830B12021084800F013
:1006D00088F9802000F00EF8402000F011F830B1C9
:1006E0002021034800F07BF9402000F003F810BD02
:1006F000000002400149086070470000143C0140BE
:1007000001460020034A12680A400AB1012000E0B5
:1007100000207047143C0140002123498279002ABF
:100720003AD00A46126803689A430B461A600A1DBB
:10073000126803689A430B1D1A60027911440A6813
:1007400003681A430A60184A0832126803689A4319
:10075000154B08331A601A1D126803689A43124B2E
:100760000C331A604279102A0ED11A1F12680368DE
:100770001A430D4B08331A601A1D126803681A4396
:10078000094B0C331A600DE00749427911440A689D
:1007900003681A430A6005E0027911440A68036895
:1007A0009A430A6070470000003C014051B182004A
:1007B000A2F1C042126842F001038200A2F1C042DD
:1007C000136009E08200A2F1C0421268034B1A4094
:1007D0008300A3F1C0431A6070470000FEFF0F00C2
:1007E00030B50021002200230468A400A4F1C04415
:1007F0002168444C2140D0E901452C43C5682C4375
:1008000005692C4345692C4385692C43C5692C43F4
:10081000056A2C43456A2C43856A2C43C56A2C43E0
:10082000056B2C4321430468A400A4F1C04421605B
:100830008468082C0BD10468A400A4F1C044246887
:1008400044F040050468A400A4F1C0442560046895
:10085000641CA400A4F1C044226802F04042446B2E
:100860002468456B6D6844EA0514456BAD6844EA3D
:100870000524456BAD8944EA0544456B2D8A44EA5D
:100880000554456B2D7D44EA0564456BAD692C43E9
:1008900022430468641CA400A4F1C0442260C46A1A
:1008A000B4F5804F24D10468A400A4F1C044D4F866
:1008B000043103F04043846B2468856B6D6844EA1F
:1008C0000514856BAD6844EA0524856B2D8A44EADE
:1008D0000554856B2D7D44EA0564856BAD692C4319
:1008E00023430468A400A4F1C044C4F8043107E021
:1008F0006FF070450468A400A4F1C044C4F804512A
:1009000030BD00008000F7FFF0B50A46002100234B
:10091000002400BF3DE0012505FA01F3156805EA52
:1009200003049C4234D105684F000326BE40B54302
:10093000056015794E00B5400668354305601579A8
:10094000012D02D01579022D16D185684F0003269E
:10095000BE40B543856055794E00B5408668354345
:100960008560456801268E40B543456045689679A7
:100970008E40B6B235434560C5684F000326BE4081
:10098000B543C560D5794E00B540C6683543C560EE
:10099000491C1029BFD3F0BDF0B5002300244D073A
:1009A000ED0E02FA05F3CE1000F1200555F82650A1
:1009B0004E07F70E0F26BE40B543CF1000F12006BC
:1009C00046F82750CE1000F1200555F8265045EA8C
:1009D0000304CE1000F1200545F82640F0BD418308
:1009E00070470183704700BFFEE70000D321074A2C
:1009F0001180911C0888088808884FF6FF7101EA69
:100A00000020911C0988084370470000FE1F006CFD
:100A100000B585B00121212000F058FF4FF470701F
:100A2000009000208DF8040003208DF805000120BF
:100A30008DF8070069462048FFF766FF20200090E8
:100A400001208DF8040069461C48FFF75DFF012175
:100A5000880300F07BFF0921052001F04DF90821F2
:100A6000052001F049F90721052001F045F906218B
:100A7000052001F041F917208DF8100002208DF8B3
:100A8000110003208DF8120001208DF8130004A836
:100A900000F0E8FD4FF47070029000208DF80C001B
:100AA0000C208DF80D0001208DF80E0002A8FFF734
:100AB00033FE05B000BD00000014024000000240FB
:100AC00070B5044600250026094800880849498871
:100AD00000FB01F60021084600F016FC00F076FC51
:100AE00000BF02E0034804806D1CB542FAD370BD1C
:100AF00040F101200020006C70B505460E461446FA
:100B00003146284600F0A0F80348008903490880D0
:100B1000881C048070BD000040F10120FE1F006CA5
:100B20002DE9FF4F074616461C46BB460C2C01D14B
:100B300098460AE0102C01D1A04606E0182C02D1FC
:100B40004FF0300801E0BDE8FF8FA6F12000C6B2EB
:100B5000002548E00C2C07D106EB4600244901EBA8
:100B6000800010F8059010E0102C05D1214800EB12
:100B7000061010F8059008E0182C06D106EB460088
:100B80001D4901EB001010F805904FF0000A24E019
:100B900009F0010030B11948028838460199FFF781
:100BA000ABFF05E01648028838460199FFF7A4FF1D
:100BB0004FEA6909781C87B2A7EB0B0104EBD472EA
:100BC000B1EB620F05D15F460198401C80B20190E5
:100BD00006E00AF1010000F0FF0ABAF1080FD7DBC6
:100BE00000BF681CC5B24545B4DB00BFABE70000E1
:100BF000EA2B00085E3000084E360008680000202E
:100C00006A000020F0B506460F4615461C4611E066
:100C100022782B4639463046FFF782FF284605EBFF
:100C2000D07106EB61018EB206480088B04200DC4C
:100C300006E0641C2078202802DB20787E28E7DD8F
:100C400000BFF0BD40F1012030B504460D462946F5
:100C5000204600F059FB00F0B9FB02480088024929
:100C6000088030BD680000200020006C00B59FB0F7
:100C70000121782000F02AFE0121084600F046FEFE
:100C80004FF480601D9001208DF8780000208DF8D1
:100C90007A0002208DF8790001208DF87B001DA9D3
:100CA0007748FFF731FE4CF233701D9002208DF82B
:100CB000780000208DF87A0003208DF8790001205B
:100CC0008DF87B001DA96F48FFF71EFE4FF6807060
:100CD0001D9002208DF8780000208DF87A00032006
:100CE0008DF8790001208DF87B001DA96648FFF77B
:100CF0000BFE04201D9002208DF8780000208DF856
:100D00007A0003208DF8790001208DF87B001DA961
:100D10005E48FFF7F9FD4FF480501D9002208DF8DA
:100D2000780000208DF87A0003208DF879000120EA
:100D30008DF87B001DA95548FFF7E6FD0C22002128
:100D40005048FFF729FE0C2201214E48FFF724FEF0
:100D50000C2204214B48FFF71FFE0C2205214948B5
:100D6000FFF71AFE0C2208214648FFF715FE0C2259
:100D700009214448FFF710FE0C220A214148FFF7E1
:100D80000BFE0C220E213F48FFF706FE0C220F211E
:100D90003C48FFF701FE0C2207213B48FFF7FCFD12
:100DA0000C2208213848FFF7F7FD0C2209213648AC
:100DB000FFF7F2FD0C220A213348FFF7EDFD0C226C
:100DC0000B213148FFF7E8FD0C2211462E48FFF7B2
:100DD000E3FD0C220D212C48FFF7DEFD0C220E2135
:100DE0002948FFF7D9FD0C220F212748FFF7D4FD32
:100DF0000C2202212548FFF7CFFD0C221146234883
:100E0000FFF7CAFD0F200790002008903C200990B2
:100E100000200A900B900C900D900820009000206C
:100E20000190072002900020039004900590069006
:100E300006200E9000200F9010901020119000209E
:100E4000129014901390159016904FF480501790B4
:100E5000002018904FF48040199000201A9007A8A5
:100E60001B90CDF870D00EA8FFF7BAFC0121062028
:100E7000FFF79CFC322001F070FB1FB000BD0000AA
:100E800000140240000C0240001002400018024012
:100E900010B5FFF7EBFEFFF7A9FDEB498880084688
:100EA000808849F24131884224D0A120E749088056
:100EB000881C0088E4498880E448801C0088888079
:100EC000084680884FF6FF7101EA0020DE498880DD
:100ED00008468088DD49891C09880843DA498880EA
:100EE0000846808845F26171884203D141F663105B
:100EF000D5498880D448808849F2413188421CD144
:100F0000D348006820F00F004FF02041C1F81C01C9
:100F10000846D0F81C0120F47060C1F81C01084696
:100F2000D0F81C0140F00300C1F81C010846D0F8BD
:100F30001C0140F40070C1F81C01C348808849F2CC
:100F4000413188427ED1CF20C04908800020891CD1
:100F50000880C120088030200880ED20891E08808C
:100F60006420891C088003200880122008808120CA
:100F70000880E820891E08808520891C08801020B0
:100F800008807A200880CB20891E08803920891C9F
:100F900008802C200880002008803420088002204F
:100FA0000880F720891E08802020891C0880EA20FC
:100FB000891E08800020891C08800880C020891EA6
:100FC00008801B20891C0880C120891E0880012000
:100FD000891C0880C520891E08803020891C088053
:100FE0000880C720891E0880B720891C0880362009
:100FF000891E08804820891C08803A20891E0880A4
:101000005520891C0880B120891E08800020891C79
:1010100008801A200880B620891E08800A20891CB2
:101020000880A2200880F220891E08800020891CE8
:1010300008802620891E08800120891C0880E02065
:10104000891E00E05FE008800F20891C08802A20AC
:10105000088028200880082008800E2008800820AA
:10106000088054200880A9200880432008800A2096
:1010700008800F20088000200880088008800880F1
:10108000E120891E08800020891C08801520088026
:10109000172008800720088011200880062008807B
:1010A0002B200880562008803C20088005200880DE
:1010B000102008800F2008803F20088008800F2023
:1010C00008802B20891E08800020891C0880088049
:1010D000012008803F2008802A20891E08800020E7
:1010E000891C088008800880EF2008801120891E54
:1010F0000880782001F031FA292054490880012025
:101100005449086098E05048808841F6631188424D
:10111000F8D1E2204D4908801D20891C088002205A
:10112000088004200880642001F05AFAE020474932
:1011300008800120891C08800A2001F00EFAE020B6
:10114000424908800320891C08800C2001F005FA20
:1011500001203E4908800A2001F0FFF9E6203B49C2
:1011600008802F20891C0880FF2008800880B0207C
:10117000891E08802020891C088000200880032008
:10118000088040F21F3008800120088040F2DF1004
:10119000088000200880B420891E08800420891C53
:1011A000088040F21F400880002008802E20088020
:1011B00000200880088008800880B620891E0880EA
:1011C0000220891C08804FF40370088000200880EA
:1011D0001720088015200880002008800880F02053
:1011E000891E08800320891C08802920891E088008
:1011F000D02008800020891C0880BE20891E08801D
:101200000520891C0880FE2008800120088000201D
:10121000088008800880B820891E08800320891C67
:10122000088001200880BA20891E08800120891CBE
:101230000880FF2000F0D0FE002000F009FE4FF6ED
:10124000FF70FFF73DFC10BD40F10120FE1F006C58
:101250001C0100A0A882424230B58418641EA2B2CC
:10126000CC18641EA3B2264CA4796CBB244CA48871
:1012700041F66315AC4227D1214C2488A41A241AC4
:10128000A0B2CC18641EA3B21D4C64891D4D2C80E5
:101290000412AD1C2C80C4B22C808418641EC4F3CC
:1012A0000F242C808418641EE4B22C80144CA48972
:1012B000AD1E2C800C12AD1C2C80CCB22C801C12CC
:1012C0002C80DCB22C8019E00D4C64890D4D2C80F3
:1012D0000412AD1C2C80C4B22C8014122C80D4B209
:1012E0002C80074CA489AD1E2C800C12AD1C2C80C8
:1012F000CCB22C801C122C80DCB22C8030BD0000C3
:1013000040F10120FE1F006C2E4A928849F24133C1
:101310009A4212D12B4A52892B4B1A8002129B1CE3
:101320001A80C2B21A80274A92899B1E1A800A121A
:101330009B1C1A80CAB21A8042E0224A928841F667
:1013400063139A423CD11F4A92798AB91D4A128886
:10135000521E121A90B21B4A52891B4B1A8000224D
:101360009B1C1A801A8002121A80C2B21A8013E0E3
:10137000144A5289144B1A8002129B1C1A80C2B262
:101380001A80104A1288521EC2F30F221A800D4A88
:101390001278521ED2B21A800A4A92890A4B1A80D7
:1013A0000A129B1C1A80CAB21A80064A5288521E20
:1013B000C2F30F221A80034A9278521ED2B21A80C8
:1013C0007047000040F10120FE1F006C02480089B8
:1013D000024908807047000040F10120FE1F006CA8
:1013E000024A1080921C118070470000FE1F006CA2
:1013F0001CB50121102000F069FA0121402000F005
:1014000065FA1820009001208DF8040003208DF863
:10141000050000208DF8060001208DF807006946C0
:101420000948FFF771FA4FF40070009069460748C9
:10143000FFF76AFA18210448FFF7D3FA4FF4007156
:101440000248FFF7CEFA1CBD00100240001802400F
:1014500010B588B004460121022000F037FA0121BE
:10146000880400F063FA0121202000F02FFA0722FF
:101470000A212C48FFF790FA07220B212948FFF791
:101480008BFA4FF44060069002208DF81C008DF816
:101490001D0000208DF81E0001208DF81F0006A9F8
:1014A0002048FFF731FA02940020ADF80C00ADF8A7
:1014B0000E00ADF81000ADF814000C20ADF81200CD
:1014C00002A9194800F0D4FF0121174800F068FF75
:1014D0004021154800F04CFF012240F225511248EE
:1014E00000F0A1FF27208DF8040003208DF80500EF
:1014F0008DF8060001208DF8070001A800F0B2F871
:101500004FF40050069000208DF81C0003208DF849
:101510001D0000208DF81F0006A90448FFF7F4F90C
:1015200008B010BD00040240004800400014024012
:1015300000BFFEE70EB50121172000F0C7F9012119
:10154000084600F0D3F95020019002208DF80800E1
:1015500000208DF80A0003208DF8090001208DF885
:101560000B0001A93948FFF7CFF9C020019001A96C
:101570003748FFF7C9F94FF43C60019001A935489D
:10158000FFF7C2F96020019001A93348FFF7BCF9C9
:101590000D2204212D48FFF7FFF90D2206212B48CB
:1015A000FFF7FAF90D2207212948FFF7F5F90D2277
:1015B00006212848FFF7F0F90D2207212548FFF7FB
:1015C000EBF90D2208212348FFF7E6F90D22092146
:1015D0002048FFF7E1F90D220B211E48FFF7DCF947
:1015E0000D2206211A48FFF7D7F90D2205211A48C6
:1015F000FFF7D2F90D2206211748FFF7CDF9FEF7C4
:10160000D1FE00201549088048818881088120206A
:10161000888000204880C8800846FEF70FFF01211F
:101620000846FEF7F9FE0120FEF772FE4E208DF807
:10163000000001208DF8010002208DF80200012039
:101640008DF80300684600F00DF80EBD0000024062
:101650000004024000080240001002404EF1012048
:101660007047000070B5002100230F22C4781CB31E
:10167000174C246804F4E064C4F5E064C4F3072163
:10168000C1F10404E3B20A4144789C40E1B2847899
:10169000144021430C07210E0E4C05786155047847
:1016A00004F01F050124AC4005786D11AD0005F173
:1016B000E025C5F8004109E0047804F01F05012485
:1016C000AC40054D0678761145F8264070BD000007
:1016D0000CED00E000E400E080E100E0024901439D
:1016E000024A1160704700000000FA050CED00E0AE
:1016F0007CB500250121482000F0E8F84FF40040B7
:10170000009001208DF8040000208DF806000220D2
:101710008DF8050001208DF8070069462F48FFF776
:10172000F3F80820009069462D48FFF7EDF80020F7
:101730002C4908600A2000F010FF00202A49C1F857
:10174000BC020A2000F009FF01202849086000F0CF
:1017500081F90121FF2000F0AFFA8021122000F072
:10176000ABFA322000F0F9FE1C2000F0F5F9044637
:101770004FF6FF7000EA04241D2000F0EDF9044349
:1017800047F6A270844201D001207CBD0A2000F0FF
:10179000E3F904464FF6FF7000EA04240B2000F042
:1017A000DBF9044342F24260844201D00220ECE7BC
:1017B00000250FE00E4A02EB450251780C4A12F860
:1017C000150000F079FA0A2D02DA052000F0C5FEB6
:1017D000681C85B2B42DEDD30020D6E70018024076
:1017E000000C02408C82414200004342BC02434252
:1017F000BE28000810B5002400BF0AE00E4A02EB24
:10180000440251780C4A12F8140000F055FA601C9A
:1018100084B2082CF2D300240AE0084A02EB440206
:101820005178064A12F8140000F046FA601C84B29F
:10183000072CF2D310BD0000B22B0008882B000843
:101840002DE9F04104460D46E11704EB9171891032
:10185000A4EB810111B10120BDE8F081E91705EB8E
:1018600091718910A5EB810109B10220F4E72046AE
:10187000E11704EB9171C1F38F072846E91705EBD7
:101880009171C1F38F060021FF2000F015FA0421A9
:10189000E02000F011FAF9B25A2000F00DFAF1B28E
:1018A0005B2000F009FAC7F30128042000EAA61023
:1018B00040EA080841465C2000F0FEF90021E020E3
:1018C00000F0FAF90020C7E77047000029B1064A86
:1018D00012680243044B1A6004E0034A1268824310
:1018E000014B1A60704700003038024029B1064AA7
:1018F00012680243044B1A6004E0034A12688243F0
:10190000014B1A60704700003438024029B1064A82
:1019100012680243044B1A6004E0034A12688243CF
:10192000014B1A60704700003838024029B1064A5E
:1019300012680243044B1A6004E0034A12688243AF
:10194000014B1A60704700004038024029B1064A36
:1019500012680243044B1A6004E0034A126882438F
:10196000014B1A607047000044380240F0B5002176
:1019700000220024022500260223324F3F6807F090
:101980000C0121B1042905D0082937D105E02E4FDB
:10199000076036E02D4F076033E02A4F3F1F3F6856
:1019A000C7F38056274F3F1F3F6807F03F036EB1D4
:1019B000264FB7FBF3F7DFF88CC0ACF1040CDCF872
:1019C00000C0CCF3881C07FB0CF40CE01E4FB7FBE7
:1019D000F3F7DFF870C0ACF1040CDCF800C0CCF316
:1019E000881C07FB0CF4174F3F1F3F68C7F30147E4
:1019F0007F1C7D00B4FBF5F7076002E0124F076023
:101A000000BF00BF0F4F3F6807F0F0010909104FFA
:101A10007A5C0768D74047600A4F3F6807F4E05197
:101A2000890A0B4F7A5C4768D7408760054F3F684B
:101A300007F46041490B064F7A5C4768D740C7609E
:101A4000F0BD0000083802400024F40000127A00C3
:101A50004C0000201CB501210820FFF737FFC020F3
:101A6000009001208DF8040000208DF8060002206F
:101A70008DF8050001208DF8070069460948FEF73A
:101A800043FFC0210748FEF7ACFF0648006820F47A
:101A90004040044908600846006840F480400860FF
:101AA0001CBD0000000C024010B5322000F098FD73
:101AB00001200B4908600B49C1F89802322000F060
:101AC0008FFD00200649091F0860322000F088FDC4
:101AD00000200449C1F89C02322000F081FD10BDB5
:101AE0009C8241420080414270B500241748006842
:101AF00020F4404015490860084600680860082541
:101B000015E0322000F06CFD0120114908606006EC
:101B1000040E1048D0F81C0208B1601CC4B2322078
:101B200000F05EFD00200A490860681EC5B2002D65
:101B3000E7DC0648006820F4404004490860084695
:101B4000006840F480400860204670BD000C0240F0
:101B5000988241420080414270B50446002500F061
:101B600023F8602000F054F8642000F039FD20468E
:101B700000F04EF8642000F033FD00F02FF86420F0
:101B800000F02EFD00F010F8612000F041F8642014
:101B900000F026FDFFF7A8FF0546FFF785FF00F0E0
:101BA0001DF8284670BD000010B5012009490860E5
:101BB0000949C1F89802322000F012FD00200549C1
:101BC0000860322000F00CFD00200349C1F89802A3
:101BD00010BD00009C8241420080414210B50020AF
:101BE00009490860322000F0FBFC01200749C1F8D8
:101BF0009802322000F0F4FC0120034908603220F2
:101C000000F0EEFC10BD00009C8241420080414289
:101C100070B5044600261BE004F0800018B10120D6
:101C20002249086002E00020204908606006040E96
:101C3000322000F0D5FC01201C49091F0860322029
:101C400000F0CEFC00201A49C1F89802701CC6B200
:101C5000082EE1DB1748006820F440401549086071
:101C6000084600680860322000F0BAFC01200F49E5
:101C7000091F0860322000F0B3FC0D48D0F81C02A8
:101C800008B1012500E0002500200849091F08606F
:101C90000848006820F4404006490860084600688B
:101CA00040F480400860284670BD00009C8241429C
:101CB00000804142000C024070B505460C460026EB
:101CC000FFF772FF6020FFF7A3FF00B10126642039
:101CD00000F086FC2846FFF79BFF00B10126642038
:101CE00000F07EFC2046FFF793FF00B10126FFF7CE
:101CF00075FF304670BD704730B500228B071C0F52
:101D00000F2303FA04F20B4B8C1053F82430934347
:101D1000084C8D1044F8253023468C1053F824309D
:101D20008C07240F00FA04F42343024C8D1044F86E
:101D3000253030BD0838014010B504460BE000BF27
:101D40004021074800F038FB0028F9D021780448EA
:101D500000F0FDFB641C20780028F0D110BD0000CD
:101D6000004800400CB50020019000903448006805
:101D700040F480303249086000BF3148006800F408
:101D8000003000900198401C0190009818B901980B
:101D9000B0F5A04FF1D12A48006800F4003010B12E
:101DA0000120009001E0002000900098012846D119
:101DB00023484030006840F080502149403108609D
:101DC0002048006840F440401E4908601C48083024
:101DD00000681B49083108600846006840F400406C
:101DE00008600846006840F4A05008601648091FC3
:101DF0000860081F006840F08070091F086000BF7D
:101E00000F48006800F000700028F9D040F205701B
:101E10000E4908600A480830006820F003000849AD
:101E2000083108600846006840F00200086000BF02
:101E300003480830006800F00C000828F8D10CBDF9
:101E4000003802400070004008544007003C024047
:101E500010B504464CBB00202A498871084680888A
:101E600049F2413188420CD12C20264908812A2090
:101E700048812B208881F02008804FF4A070488092
:101E80003CE02048808841F66311884236D12C20FE
:101E90001C4908812B2048812A2088814FF4F0704A
:101EA00008804FF44870488028E001201549887167
:101EB0000846808849F2413188420CD12C201149D2
:101EC00008812A2048812B208881F02008804FF447
:101ED000A070488012E00B48808841F66311884268
:101EE0000CD12C20074908812B2048812A20888189
:101EF0004FF4F07008804FF448704880002000F0E4
:101F000003F810BD40F1012070B5054600240026FD
:101F100030488079012805D12E48808849F2413126
:101F2000884208D02B488079F0B92A48808841F649
:101F30006311884218D1082D15D2DFE805F0040698
:101F4000080A0C0E101206250DE007250BE00425EB
:101F500009E0052507E0012505E0002503E003254C
:101F600001E0022500BF00BF082D1CD2DFE805F00C
:101F70000406090C0F12151800BF14E044F0800489
:101F800011E044F040040EE044F0C0040BE044F0E3
:101F9000200408E044F0600405E044F0A00402E0FE
:101FA00044F0E00400BF00BF36260A48808849F2AA
:101FB0004131884201D144F0080421463046FFF700
:101FC0000FFA04484388028800210846FFF744F9C5
:101FD00070BD000040F10120BE21074A118005219B
:101FE000921C11801146088001211180FF2111806F
:101FF0000021118011807047FE1F006C042808D159
:102000004FF0E021096941F004014FF0E022116135
:1020100007E04FF0E021096921F004014FF0E022D0
:10202000116170477047000010B504466FF004005E
:10203000FFF7E4FFE11704EB5171C1F3C701074A51
:1020400011701046007800EB4001C1EBC0104FF654
:10205000FF7101EAC0000249088010BD7200002033
:102060007400002010B51548006840F47000134952
:1020700008601348006840F0010011490860002022
:102080000F49083108600E4800680E4908400C49A5
:1020900008600D48091D0860081F006820F48020B2
:1020A000091F0860002006490C310860FFF75AFE3E
:1020B0004FF0006001498039086010BD88ED00E0F4
:1020C00000380240FFFFF6FE1030002410B5012159
:1020D0000C4800F02AF878B180210B48FEF781FC0B
:1020E0004FF4FA7000F039FA80210748FEF777FCC8
:1020F0004FF4FA7000F031FA0121024800F006F8BE
:1021000010BD00000008004000180240CA430282CF
:10211000704721B1028842F00102028004E0028887
:102120004FF6FE731A400280704730B50246002019
:1021300000230024158A05EA0103958905EA0104B4
:1021400013B10CB1012000E0002030BD10B54FF6F6
:10215000E070FEF7B5FC33A3182250211E20FEF7D5
:1021600051FD40F22551304800F033F9002858D095
:1021700040F225512C4800F004F92B4800F0E2F918
:102180002A492B4A1288885429480088401C28492B
:10219000088008460088401E2449085C0A2809D0A7
:1021A00023480088401E085C232803D0204800886C
:1021B000C82836D14FF6FF70FEF782FC1C48008815
:1021C000401E1A49085C23280CD1002118480088B9
:1021D000401E164A115410460078732802D101207F
:1021E00014490870114B182250211E20FEF70AFDD9
:1021F0004FF4FA6000F0B1F900BF40210A4800F046
:10220000DBF80128F9D1002404E000200749085533
:10221000601CC4B2064800888442F6DB00200449F2
:10222000088010BD77796600004C00405CF1012009
:102230006E0000207000002010B540F22551454886
:1022400000F0C7F8002877D040F22551414800F04F
:1022500098F8404800F076F93F49404A128888547F
:102260003E480088401C3D49088008460088401EC2
:102270003949085C0A2809D038480088401E085CA3
:10228000232803D035480088C8281FD13348008848
:10229000401E3149085C232809D100213048FFF74E
:1022A00038FF3048FFF748FD00202C490880002403
:1022B00004E0002028490855601CC4B22748008863
:1022C0008442F6DB0020254908802FE0234800885F
:1022D000401E2149085C0A2809D020480088401E79
:1022E000085C402803D01D480088C8281ED11B4820
:1022F0000088401E1849085C402809D100211A486E
:10230000FFF707FF1948FFF717FD00201349088062
:10231000002404E0002010490855601CC4B20F4896
:1023200000888442F6DB00200C4908800B480088B6
:1023300002280EDD002405E00BE0002006490855C8
:10234000601CC4B2054800888442F6DB00200349C3
:10235000088010BD0048004078F001205C0000209B
:1023600000040040630000200008004060000020DE
:1023700001F40072B2F5007F00D100BFCA430280B1
:10238000704710B50022002340F66A14A14200D124
:1023900000BF0A1201249440A3B2DC43048010BDA4
:1023A00021B1828942F40052828104E082894DF693
:1023B000FF731A408281704702460020B1F5007F0A
:1023C00000D100BF13880B400BB1012000E00020BA
:1023D000704770B50246002400230025002040F617
:1023E0006A16B14200D100BFC1F3421501F01F03CC
:1023F000012606FA03F3012D02D19689334006E047
:10240000022D02D1168A334001E0968A33400C1225
:10241000012606FA04F41688344013B10CB10120E9
:1024200000E0002070BDF0B5034600240026002522
:10243000002040F66A17B94200D100BF1846C1F328
:10244000421401F01F06012707FA06F5012C01D1FD
:102450000C3004E0022C01D1103000E014301AB12D
:1024600007682F43076002E00768AF430760F0BDCD
:102470002DE9FF4705460E460024A14600BFA046B1
:10248000B08900B100BF2C8A24F44054F088044382
:102490002C82AC8941F20C608443B08831890843B6
:1024A000718908430443AC81AC8A24F44074B08938
:1024B0000443AC826846FFF759FA2048854202D0AF
:1024C0001F48854202D1DDF80C9001E0DDF808904C
:1024D000A88900F4004040B109EBC90000EB0910E5
:1024E00031684900B0FBF1F707E009EBC90000EBE8
:1024F000091031688900B0FBF1F76420B7FBF0F0F8
:1025000004012009642101FB1078A88900F400402F
:1025100040B1322000EBC800B0FBF1F000F0070042
:10252000044308E0322000EB08106421B0FBF1F016
:1025300000F00F0004432C81BDE8FF87001001402C
:102540000014014001468888C0F308007047C1F3B9
:1025500008028280704700BFFEE770B504464FF462
:10256000077094FBF0F0C6B24FF4077094FBF0F1E3
:1025700000FB114085B205E04FF4077000F00AF847
:10258000701EC6B2002EF7D115B1284600F002F831
:1025900070BD00000146114A12884A434FF0E02303
:1025A0005A6100229A611A46126942F001021A61C8
:1025B00000BF4FF0E022106900F001021AB100F4F0
:1025C0008032002AF5D04FF0E022126922F0010299
:1025D0004FF0E0231A6100229A61704774000020D6
:1025E0000146114A12784A434FF0E0235A61002213
:1025F0009A611A46126942F001021A6100BF4FF057
:10260000E022106900F001021AB100F48032002AC1
:10261000F5D04FF0E022126922F001024FF0E023E2
:102620001A6100229A6170477200002010B51748A5
:10263000007850B31648007898B900211548FDF786
:102640002FFF00BF1348FDF7E3FF0028FAD1114820
:10265000FDF7E8FFC0F5F8400F49086001200C497C
:1026600008700B48007802280FD14FF4F840094950
:10267000091D086001460748FEF704F801210548D6
:10268000FDF70EFF00200249087010BD0100002078
:102690000800002028640240040000204FF00009D8
:1026A00000BF00BF00BF4FF003084FF4E130FEF75A
:1026B000CFFE4FF6FF70FEF703FA4FF4784038492B
:1026C000088038A318223C211E20FEF79BFA3AA36B
:1026D00018225A211E20FEF795FAFFF78BF8FEF715
:1026E00029FF4FF480631A014FF4F8413748FDF792
:1026F00021FE374A02EB88025188354A32F8280019
:10270000FFF79EF8FDF7BAFE4FF4FA70FFF725FFCA
:1027100045E030480078012841D12C4D2EA31822E5
:1027200096211E20FEF76EFA0027B946002417E016
:10273000285DFF2806D1601C285CD82802D12646D7
:102740004FF00109285DFF2809D1601C285CD928B9
:1027500005D1B9F1000F02D0A01B871C05E0641C55
:1027600023480068B4EB800FE2D300BF87B1354443
:1027700000240BE000BF40211E48FFF71DFE00288B
:10278000F9D0295D1B48FFF7E2FE641CBC42F1D37F
:102790000220104908704FF4FA60FFF7DEFEB8E738
:1027A00068000020414C49454E54454B2053544D40
:1027B00033324634000000004F5632363430204A5F
:1027C000504547204D6F64650000000078000020F0
:1027D0009A2800080800002053656E64696E67201F
:1027E0004A50454720646174612E2E2E000000007F
:1027F00004000020004800404FF4A060FEF76EFF88
:10280000A820FFF711FCFEF7F3FDFEF701F9FEF734
:102810003FFB4FF478401249088012A318220A2186
:102820000846FEF7EFF908E012A3182282211E20C5
:10283000FEF7E8F9C820FFF790FEFEF759FF0028E1
:10284000F2D10FA3182282211E20FEF7DBF9C82047
:10285000FFF783FE01200D490870FFF71FFF0000FE
:10286000680000204F563236343020537461727441
:10287000210000004F5632363430204552520000BD
:102880004F5632363430204F4B00000001000020FC
:102890004FF04070E1EE100A7047B0009000A000C9
:1028A0007800600120014001F0008002E001200377
:1028B000580200040003000500044006B004FF01B4
:1028C0001280FF002CFF2EDFFF013C3211000902B5
:1028D000042013E514482C0C33783A333BFB3E00BC
:1028E00043111610399235DA221A37C3230034C047
:1028F000361A068807C00D870E414C0048005B0061
:1029000042034A8121992440253826825C006300D5
:1029100046000C3C617062807C05208028306C0091
:102920006D806E007002719473C13D345A5712006D
:102930001711187519011A973236030F37404FCA0D
:1029400050A85A236D006D38FF00E57FF9C041247F
:10295000E01476FF33A0422043184C0087D5883F0F
:10296000D703D910D382C808C9807C007D007C03BE
:102970007D487D487C087D207D107D0E9000910E65
:10298000911A9131915A91699175917E9188918FA7
:10299000919691A391AF91C491D791E89120920023
:1029A000930693E393059305930093049300930098
:1029B0009300930093009300930096009708971953
:1029C0009702970C97249730972897269702979805
:1029D000978097009700C3EFA400A800C511C651C7
:1029E000BF80C710B666B8A5B764B97CB3AFB4975B
:1029F000B5FFB0C5B194B20FC45CC0C8C1968C001D
:102A0000863D50005190522C5300540055885A90E6
:102A10005B2C5C05D302C3ED7F00DA09E51FE1679B
:102A2000E000DD7F0500FF002CFF2EDFFF013C32C0
:102A300011000902042013E514482C0C33783A33B2
:102A40003BFB3E0043111610399235DA221A37C388
:102A5000230034C0361A068807C00D870E414C008B
:102A600048005B0042034A81219924402538268290
:102A70005C00630046220C3C617062807C05208013
:102A800028306C006D806E007002719473C13D340B
:102A90005A5712401711184319001A4B320937C000
:102AA0004FCA50A85A236D003D38FF00E57FF9C09A
:102AB0004124E01476FF33A0422043184C0087D510
:102AC000883FD703D910D382C808C9807C007D0015
:102AD0007C037D487D487C087D207D107D0E900024
:102AE000910E911A9131915A91699175917E9188C7
:102AF000918F919691A391AF91C491D791E8912034
:102B00009200930693E39305930593009304930037
:102B1000930093009300930093009300960097080E
:102B200097199702970C9724973097289726970222
:102B30009798978097009700C3EDA400A800C5114F
:102B4000C651BF80C710B666B8A5B764B97CB3AF2D
:102B5000B497B5FFB0C5B194B20FC45CC064C14BAB
:102B60008C00863D500051C85296530054005500C9
:102B70005AC85B965C00D302C3ED7F00DA09E51FFB
:102B8000E167E000DD7F0500FF01E014E177E51F6C
:102B9000D703DA10E000FF00DA09D703DF0233A021
:102BA0003C00E167FF01E000E100E500D700DA004A
:102BB000E000FF00DA10D703DF0033803C40E1770C
:102BC0000000FF01242025182660FF012434251C65
:102BD0002600FF01243E25382681FF012448254098
:102BE0002681FF0124582550269200000000000095
:102BF00000000000000000000404040404040004B9
:102C0000000000140A0A000000000000000000009C
:102C100014143F140A3F0A0A000000041E1505069A
:102C20000C14150F0400000012150D0A142C2A12A2
:102C300000000000040A0A1E1515093600000002F3
:102C40000201000000000000000000201008080839
:102C500008080810200000020408080808080804F2
:102C6000020000000004150E0E1504000000000014
:102C70000404041F0404040000000000000000001D
:102C800000000002020100000000001F0000000020
:102C90000000000000000000000000020000001022
:102CA0000808080404020202010000000E111111BC
:102CB0001111110E00000000040604040404040EA7
:102CC000000000000E1111080402011F00000000A6
:102CD0000E11100C1010110E00000000080C0A0A52
:102CE000091E0818000000001F01010F1010110E2E
:102CF000000000000E09010F1111110E000000006C
:102D00001F09080404040404000000000E11110E41
:102D10001111110E000000000E1111111E10120EE3
:102D2000000000000000040000000004000000009B
:102D30000000000400000004040000201008040249
:102D4000040810200000000000001F00001F000009
:102D50000000000204081020100804020000000017
:102D60000E11110804040004000000000E111915D2
:102D7000151D011E0000000004040C0A0A1E123377
:102D8000000000000F12120E1212120F00000000BD
:102D90001E1101010101110E000000000F1212129C
:102DA0001212120F000000001F120A0E0A02121F58
:102DB000000000001F120A0E0A02020700000000B5
:102DC0001C1201013911120C000000003312121EF6
:102DD00012121233000000001F0404040404041F34
:102DE000000000003E080808080808090700000065
:102DF00037120A060A0A1237000000000702020210
:102E00000202223F000000001B1B1B1B151515159D
:102E1000000000003B1216161A1A121700000000DC
:102E20000E1111111111110E000000000F12120EDF
:102E300002020207000000000E1111111117190EF5
:102E4000180000000F12120E0A12123700000000C4
:102E50001E1101060810110F000000001F150404C8
:102E60000404040E00000000331212121212120C9D
:102E7000000000003312120A0A0C040400000000D3
:102E80001515150E0A0A0A0A000000001B0A0A049A
:102E9000040A0A1B000000001B0A0A040404040EB2
:102EA000000000001F0908040402121F0000001C9B
:102EB00004040404040404041C00000202020404C8
:102EC000080808100000000E08080808080808088C
:102ED0000E0000040A0000000000000000000000D6
:102EE0000000000000000000003F0004000000009F
:102EF00000000000000000000000000C121C123C4A
:102F0000000000000302020E1212120E0000000068
:102F10000000001C1202021C000000001810101C0F
:102F20001212123C000000000000000C121E021CD5
:102F3000000000003804041E0404041E0000000009
:102F40000000003C120C021E221C00000302020EB4
:102F50001212123700000000040000060404040EE0
:102F6000000000000800000C08080808080700001E
:102F70000302023A0A0E123700000000070404049C
:102F80000404041F000000000000000F15151515B3
:102F9000000000000000000F1212123700000000B5
:102FA0000000000C1212120C000000000000000FC4
:102FB0001212120E020700000000001C1212121C56
:102FC000103800000000001B06020207000000008D
:102FD0000000001E020C101E000000000004040E81
:102FE00004040418000000000000001B1212123C30
:102FF0000000000000000037120A0C04000000006E
:1030000000000015150E0A0A000000000000001B59
:103010000A040A1B0000000000000037120A0C041A
:10302000040300000000001E0804041E0000001835
:10303000080808040808080818000808080808080C
:103040000808080808080006040404080404040426
:10305000060002251800000000000000000000002B
:103060000000000000000000000000000000000060
:1030700000080808080808080000181800000048A0
:103080006C2412000000000000000000000000009E
:10309000002424247F1212127F121212000000005A
:1030A000081C2A2A0A0C1828282A2A1C08080000AA
:1030B0000022251515152A585454542200000000EA
:1030C000000C1212120A76252911916E00000006DA
:1030D00006040300000000000000000000000040A3
:1030E00020101008080808080810102040000002EE
:1030F0000408081010101010100808040200000046
:10310000000008086B1C1C6B080800000000000091
:103110000000080808087F080808080000000000F0
:10312000000000000000000000000606040300008C
:10313000000000000000FE00000000000000000091
:103140000000000000000000000006060000000073
:1031500080404020201010080804040202000000F3
:103160000018244242424242424224180000000019
:1031700000080E08080808080808083E00000000BB
:10318000003C4242422020100804427E0000000021
:10319000003C4242201820404042221C0000000017
:1031A00000203028242422227E20207800000000E5
:1031B000007E0202021A26404042221C000000004B
:1031C00000382402021A264242422418000000005D
:1031D000007E2222101008080808080800000000DD
:1031E000003C4242422418244242423C000000007B
:1031F00000182442424264584040241C0000000051
:10320000000000001818000000001818000000005E
:103210000000000000080000000000080804000092
:1032200000402010080402040810204000000000A4
:10323000000000007F0000007F0000000000000090
:1032400000020408102040201008040200000000C2
:10325000003C4242464020101000181800000000B8
:10326000001C225A555555552D42221C00000000C5
:10327000000808181414243C224242E70000000011
:10328000001F2222221E22424242221F0000000072
:10329000007C4242010101010142221C00000000A9
:1032A000001F2242424242424242221F00000000CE
:1032B000003F4212121E12120242423F0000000062
:1032C000003F4212121E121202020207000000000A
:1032D000003C2222010101712122221C0000000079
:1032E00000E7424242427E42424242E70000000082
:1032F000003E0808080808080808083E000000000A
:10330000007C10101010101010101010110F000081
:10331000007722120A0E0A12122222770000000001
:1033200000070202020202020202427F00000000C5
:103330000077363636362A2A2A2A2A6B0000000001
:1033400000E346464A4A5252526262470000000079
:10335000001C2241414141414141221C000000002A
:10336000003F424242423E020202020700000000C9
:10337000001C2241414141414D53321C600000007C
:10338000003F4242423E1212222242C70000000089
:10339000007C4242020418204042423E00000000ED
:1033A000007F4908080808080808081C00000000F9
:1033B00000E74242424242424242423C0000000098
:1033C00000E74242222424141418080800000000D8
:1033D000006B494949495555362222220000000018
:1033E00000E7422424181818242442E700000000B3
:1033F00000772222141408080808081C00000000A6
:10340000007E2120101008040442423F0000007892
:1034100008080808080808080808080878000000D4
:103420000202040408080810102020204040001E5A
:103430001010101010101010101010101E00003876
:103440004400000000000000000000000000000038
:1034500000000000000000000000000000FF000667
:103460000800000000000000000000000000000054
:1034700000000000003C4278444242FC0000000092
:1034800000030202021A26424242261A00000000ED
:10349000000000000038440202024438000000002E
:1034A0000060404040784442424264D8000000003E
:1034B00000000000003C427E0202423C000000008E
:1034C00000F08808087E08080808083E0000000090
:1034D00000000000007C22221C023C42423C000012
:1034E00000030202023A4642424242E70000000064
:1034F000000C0C00000E08080808083E0000000040
:10350000003030000038202020202020221E000023
:10351000000302020272120A161222770000000053
:10352000000E0808080808080808083E0000000007
:1035300000000000007F9292929292B7000000007B
:1035400000000000003B4642424242E7000000000B
:1035500000000000003C42424242423C00000000A9
:1035600000000000001B26424242221E020700000B
:1035700000000000007844424242447840E00000ED
:103580000000000000774C040404041F0000000049
:1035900000000000007C42023C40423E000000006F
:1035A00000000008083E0808080808300000000075
:1035B0000000000000634242424262DC0000000062
:1035C0000000000000E74224241408080000000066
:1035D0000000000000EB4949555522220000000080
:1035E00000000000007624181818246E0000000067
:1035F0000000000000E74224241418080807000017
:1036000000000000007E22100808447E000000C078
:10361000202020202010202020202020C00010105A
:1036200010101010101010101010101010100006B4
:1036300008080808081008080808080806000C32DE
:10364000C2000000000000000000000000000000B8
:10365000000000000000000000000000000000006A
:10366000000000000000000000000000000000005A
:10367000000000000000000000000000000000004A
:10368000000000000000E000E000E000E000E000DA
:1036900040004000400040004000400000000000AA
:1036A0000000E000E000E00000000000000000007A
:1036B00000006006600630039801880044000000A6
:1036C00000000000000000000000000000000000FA
:1036D00000000000000000000000000000000000EA
:1036E00000000000000000000802080208020802B2
:1036F000FE07FE070802080204010401FE07FE0798
:1037000004010401040104010000000000000000A5
:103710000000000040004000F00158034C034C033F
:103720004C0058007000E000C001C00140034C0391
:103730004C034C034801F000400040000000000032
:1037400000000000000000000E030A0111019100BA
:103750009100D1005100FA03AE02600450045004FD
:1037600058044804880284030000000000000000A0
:1037700000000000000000003800640064006400E5
:103780006400A4031C010C011A019200B300E300C1
:103790006300C300A6041C0300000000000000003A
:1037A00000000C001C0010001000080006000000C3
:1037B0000000000000000000000000000000000009
:1037C00000000000000000000000000000000000F9
:1037D000000000040002000180018000C000C00061
:1037E0006000600060006000600060006000C00079
:1037F000C000800080010001000200040000000001
:103800000000020004000800180010003000300022
:1038100060006000600060006000600060003000D8
:103820003000100018000800040002000000000032
:1038300000000000000000000000400040004000C8
:103840004E0E5C07F001F0015C074E0E4000400098
:103850004000000000000000000000000000000028
:1038600000000000000000000000000040004000D8
:10387000400040004000FE0F40004000400040007B
:1038800040000000000000000000000000000000F8
:103890000000000000000000000000000000000028
:1038A0000000000000000000000000000000000018
:1038B00000000C001C0010001000080006000000B2
:1038C00000000000000000000000000000000000F8
:1038D000000000000000FE070000000000000000E3
:1038E00000000000000000000000000000000000D8
:1038F00000000000000000000000000000000000C8
:1039000000000000000000000000000000000000B7
:1039100000001C001C001C00000000000000000053
:103920000000000400060002000300010001800006
:1039300080004000400060002000200010001000C7
:10394000080008000C00040006000200000000004F
:103950000000000000000000F00098010C030C03C0
:1039600006060606060606060606060606060606F7
:103970000C030C039801F0000000000000000000A0
:103980000000000000000000400060007C006000BB
:103990006000600060006000600060006000600027
:1039A000600060006000FC030000000000000000F8
:1039B0000000000000000000F8008401020306037C
:1039C0000603000380018001C000200010000802EF
:1039D00004020202FE03FE030000000000000000DB
:1039E00000000000000000007800C400860186018D
:1039F00086018001C0007000800100010003060301
:103A0000060306038401F800000000000000000027
:103A100000000000000000018001C001C001A00101
:103A2000900190018801840184018201FE078001D8
:103A3000800180018001E00700000000000000001C
:103A40000000000000000000FC03FC030400040070
:103A500004000400F4008C010403000300030603C7
:103A6000060382018401F80000000000000000004D
:103A70000000000000000000E00118030C030C002F
:103A800004000600E60116030E06060606060606F4
:103A900004060C021803F000000000000000000003
:103AA0000000000000000000F807FC070C02040101
:103AB00004010001800080004000400040006000E0
:103AC0006000600060006000000000000000000076
:103AD0000000000000000000F8010C0306060606C6
:103AE00006060E023C03F000CC010403060606069F
:103AF000060606060C03F0010000000000000000AE
:103B00000000000000000000F0000C010C030602A1
:103B100006060606060606078C067806000600035B
:103B200000030C018C017800000000000000000080
:103B30000000000000000000000000000000000085
:103B4000E000E000E00000000000000000000000D5
:103B50000000E000E000E0000000000000000000C5
:103B60000000000000000000000000000000000055
:103B70000000600060000000000000000000000085
:103B80000000000060006000400020000000000015
:103B9000000000000000000400020001800040005E
:103BA0002000100008000400080010002000400061
:103BB000800000010002000400000000000000007E
:103BC00000000000000000000000000000000000F5
:103BD0000000FE070000000000000000FE070000DB
:103BE00000000000000000000000000000000000D5
:103BF0000000000000000400080010002000400049
:103C0000800000010002000400020001800040006A
:103C10002000100008000400000000000000000068
:103C2000000000000000F0010C0302060206060678
:103C30000606000380016000200020002000000034
:103C40000000700070007000000000000000000024
:103C50000000000000000000E00138060804CC0A63
:103C6000640B2609260916091609960996056603A6
:103C70000C080C041802E001000000000000000025
:103C80000000000000000000600060007000D00034
:103C9000D000C800880188018801F80104030403EA
:103CA0000403040606060F0F0000000000000000D9
:103CB0000000000000000000FF008601060306036C
:103CC000060306038601FE00060306020606060634
:103CD000060606060603FF010000000000000000C3
:103CE0000000000000000000E00718060C040C04AF
:103CF0000400060006000600060006000600060492
:103D00000C040C021801F00000000000000000008C
:103D100000000000000000007F008601060306038B
:103D20000606060606060606060606060606060633
:103D300006030603C6017F0000000000000000002B
:103D40000000000000000000FF0306020604060059
:103D5000060086008600FE0086008600060006003B
:103D6000060406040602FF03000000000000000035
:103D70000000000000000000FF0306030604060424
:103D8000060086008600FE0086008600060006000B
:103D90000600060006000F00000000000000000002
:103DA0000000000000000000F00218030C020C02EA
:103DB00004000600060006000600C60F0603060300
:103DC0000C030C031803F0000000000000000000CA
:103DD00000000000000000000F0F060606060606A1
:103DE000060606060606FE0706060606060606067A
:103DF0000606060606060F0F000000000000000081
:103E00000000000000000000FC0360006000600093
:103E100060006000600060006000600060006000A2
:103E2000600060006000FC03000000000000000073
:103E30000000000000000000F00F80018001800100
:103E4000800180018001800180018001800180016A
:103E500080018001800180018601C6007C00000095
:103E60000000000000000000CF07060186004600A9
:103E70004600260036003E006E00E600C600C60181
:103E80008601060306078F0F0000000000000000F7
:103E900000000000000000000F0006000600060001
:103EA00006000600060006000600060006000600E2
:103EB000060406040602FF030000000000000000E4
:103EC00000000000000000000F0F0E070E070E0795
:103ED0009A069A069A069A065A067206720672069A
:103EE000720622062206270F0000000000000000D4
:103EF0000000000000000000070E0E040E041A046B
:103F00001A04320462046204C204C2048205020775
:103F1000020702060206070400000000000000007D
:103F20000000000000000000F00098010C030C02EB
:103F30000606060606060606060606060606060621
:103F40000C020C039801F0000000000000000000CB
:103F50000000000000000000FF0106030606060640
:103F60000606060606060603FE0106000600060013
:103F70000600060006000F00000000000000000020
:103F80000000000000000000F00098010C030C028B
:103F90000606060606060606060606060606760651
:103FA0004C028C038801F001800700030000000030
:103FB0000000000000000000FF01060306060606E0
:103FC000060606060603FE006600C600C600860159
:103FD0008601060306030F0E00000000000000002B
:103FE0000000000000000000F8040C0706040604AE
:103FF00006000E003C00F000C003000300060206AD
:10400000020606060E03F201000000000000000098
:104010000000000000000000FE0762046108610863
:104020006000600060006000600060006000600090
:10403000600060006000F000000000000000000070
:1040400000000000000000000F0E06040604060435
:104050000604060406040604060406040604060410
:10406000060406040C02F801000000000000000035
:1040700000000000000000001F0F0E060C020C02E2
:104080000C020C011801180118011801B000B00051
:10409000B000F000600060000000000000000000C0
:1040A0000000000000000000EF0E660466046602D7
:1040B0006602E602EC02EC02DC01DC01DC01DC0160
:1040C0009C018800880088000000000000000000BB
:1040D00000000000000000009E070C0318011801FA
:1040E0009800B000700060006000E000D000D001D7
:1040F000980188010C039E070000000000000000EA
:1041000000000000000000001F0F0E060C020C0152
:1041100018011801B000B00070006000600060007D
:10412000600060006000F801000000000000000076
:104130000000000000000000FC070403820380016F
:10414000C001C000C00060006000300030001800F6
:1041500018041C040C02FE03000000000000000014
:104160000000E007200020002000200020002000A8
:10417000200020002000200020002000200020003F
:1041800020002000200020002000E00700000000A8
:1041900000000000000004000800080008001000F3
:1041A000100020002000200040004000800080001F
:1041B0008000000100010002000200020004000073
:1041C0000000FC00800080008000800080008000F3
:1041D00080008000800080008000800080008000DF
:1041E00080008000800080008000FC000000000053
:1041F0000000E000B0010802000000000000000024
:1042000000000000000000000000000000000000AE
:10421000000000000000000000000000000000009E
:10422000000000000000000000000000000000008E
:10423000000000000000000000000000000000007E
:10424000000000000000000000000000FF0F000060
:1042500000001800600000000000000000000000E6
:10426000000000000000000000000000000000004E
:10427000000000000000000000000000000000003E
:10428000000000000000000000000000000000002E
:104290000000F0010C030C03E00338030C030603D9
:1042A000060306038E0B7C0F0000000000000000D8
:1042B00000000000000008000E000C000C000C00C4
:1042C0000C00CC013C031C060C060C060C060C066C
:1042D0000C060C021C03F4010000000000000000AA
:1042E00000000000000000000000000000000000CE
:1042F0000000F0008C018C0186010600060006001B
:1043000006020C020C01F00000000000000000009A
:10431000000000000000000280030003000300030F
:10432000000378038C030C0306030603060306034D
:10433000060304038C077801000000000000000061
:10434000000000000000000000000000000000006D
:104350000000E001180308060C06FC070C000C0026
:104360000C0018043802E00100000000000000000A
:104370000000000000000000C003600630063000AE
:104380003000FE03300030003000300030003000DC
:10439000300030003000FC01000000000000000090
:1043A000000000000000000000000000000000000D
:1043B0000000F00E98090C030C030C039801F800A0
:1043C0000C007C00F803060606060E07F801000044
:1043D00000000000000008000E000C000C000C00A3
:1043E0000C00EC011C030C030C030C030C030C036A
:1043F0000C030C030C039E070000000000000000EB
:1044000000000000000000006000600000000000EC
:1044100000007C00600060006000600060006000E0
:10442000600060006000FC0300000000000000006D
:10443000000000000000000080018001000000007A
:104440000000F00180018001800180018001800175
:1044500080018001800180018001CC007C0000008F
:1044600000000000000008000E000C000C000C0012
:104470000C00CC038C00CC004C006C007C00DC00F9
:10448000CC008C018C019E070000000000000000A1
:1044900000000000000040007C0060006000600040
:1044A000600060006000600060006000600060000C
:1044B000600060006000FC030000000000000000DD
:1044C00000000000000000000000000000000000EC
:1044D00000007707EE06660666066606660666064E
:1044E000660666066606EF0E00000000000000008B
:1044F00000000000000000000000000000000000BC
:104500000000CE013C030C030C030C030C030C0352
:104510000C030C030C039E070000000000000000C9
:10452000000000000000000000000000000000008B
:104530000000F00098010C030606060606060606B3
:1045400006060C030C03F000000000000000000051
:10455000000000000000000000000000000000005B
:104560000000EE011C030C060C060C060C060C06E3
:104570000C060C031C03EC010C000C003E000000B8
:10458000000000000000000000000000000000002B
:10459000000078028C030C030603060306030603DF
:1045A000060304038C03780300030003C007000024
:1045B00000000000000000000000000000000000FB
:1045C00000009F075806380018001800180018004F
:1045D000180018001800FF00000000000000000094
:1045E00000000000000000000000000000000000CB
:1045F0000000F00718060C040C003800F0018003DE
:10460000040604060C03FC0100000000000000008A
:10461000000000000000000000002000200030002A
:104620003000FE013000300030003000300030003B
:10463000300030023002E001000000000000000005
:10464000000000000000000000000000000000006A
:1046500008028E030C030C030C030C030C030C0365
:104660000C030C039C077801000000000000000010
:10467000000000000000000000000000000000003A
:1046800000003E0F1C0618021802300130013001F4
:10469000E000E000E000400000000000000000003A
:1046A000000000000000000000000000000000000A
:1046B0000000EF0DC604C604E604EC04AC039C0342
:1046C0009C039C030801080100000000000000009A
:1046D00000000000000000000000000000000000DA
:1046E0000000BE0718019801B00070006000E000F3
:1046F000D00098018803DE070000000000000000E1
:1047000000000000000000000000000000000000A9
:104710000000BE071C0118011801B000B000B00075
:104720006000600040002000200014001C00000019
:104730000000000000000000000000000000000079
:104740000000FC038401C401C000E00060007000B0
:10475000300438041806FC030000000000000000CC
:104760000000000380018000800080008000800045
:1047700080008000C0002000C00080008000800019
:104780008000800080008000800100030000400065
:104790004000400040004000400040004000400019
:1047A0004000400040004000400040004000400009
:1047B0004000400040004000400040004000000039
:1047C00000000C0018001000100010001000100075
:1047D00010001000300040003000100010001000E9
:1047E000100010001000100018000C000000000065
:1047F0001C002400420882040007000000000000A2
:1048000000000000000000000000000000000000A8
:104810000000000000000000000000000000000098
:1048200051515647410000005156474100000000D9
:104830005356474100000000564741005358474136
:104840000000000055584741000000005847410053
:1048500051434946000000004349460042265700A4
:10486000416E7469717565004E656761746976653E
:104870000000000052656469736800004772656556
:104880006E69736800000000426C7569736800000F
:104890004E6F726D616C0000B84800080000002087
:1048A00078000000C40100083049000878000020AA
:1048B00010F80100E0010008000000000000000006
:1048C0000000000090480008684800085C480008A4
:1048D000744800087C4800088848000860480008C0
:1048E0005048000820480008584800082848000898
:1048F00038480008304800084C4800083C48000888
:1049000044480008000000000102030401020304FF
:104910000607080900004F4B555000444F574E0002
:104920000000FFFF00000000000000000000000089
:040000050800018965
:00000001FF
