:020000040800F2
:10000000F00C00242104000889840008C975000848
:100010008184000899220008E9A50008000000007A
:10002000000000000000000000000000918B0008AC
:10003000D92300080000000039890008998B0008C6
:100040003B0400083B0400083B0400083B04000894
:100050003B0400083B0400083B0400083B04000884
:100060003B0400083B0400083B0400083B04000874
:100070003B0400083B0400083B0400083B04000864
:100080003B0400083B0400083B0400083B04000854
:100090003B0400083B0400083B0400083B04000844
:1000A0003B0400083B0400083B0400083B04000834
:1000B0003B0400083B0400083B0400083B04000824
:1000C0003B0400083B0400083B0400083B04000814
:1000D0003B0400083B040008C9A50008D9A5000896
:1000E0003B0400083B040008000000003B0400083B
:1000F0003B0400083B0400083B0400083B040008E4
:100100003B0400083B0400083B0400083B040008D3
:100110003B0400083B0400083B0400083B040008C3
:100120003B0400083B0400083B0400083B040008B3
:100130003B0400083B0400083B0400083B040008A3
:1001400000000000000000000000000000000000AF
:100150003B0400083B0400083B0400083B04000883
:100160003B0400083B0400083B0400083B04000873
:100170003B0400083B0400083B04000800000000AA
:100180003B0400083B0400083B0400083B04000853
:100190003B0400083B0400083B0400083B04000843
:1001A0003B0400083B0400083B040008000000007A
:1001B0003B0400083B0400083B0400083B04000823
:1001C0003B0400083B0400080000000000000000A1
:1001D00000000000000000003B04000800000000D8
:1001E000000000000000000000000000000000000F
:1001F00000000000000000003B0400083B04000871
:100200003B0400083B040008000000003B04000819
:100210003B0400083B0400083B0400083B040008C2
:100220003B040008000000003B0400080000000040
:100230003B0400083B040008000000003B040008E9
:100240003B0400083B0400083B0400083B04000892
:100250003B0400083B0400083B0400083B04000882
:100260003B0400083B0400083B0400083B04000872
:100270003B0400083B0400083B04000800000000A9
:100280003B0400083B0400083B0400083B04000852
:10029000000000003B0400083B04000800000000D0
:1002A000000000003B0400083B040008A98E000881
:1002B0003B0400083B0400083B0400083B04000822
:1002C0003B0400083B0400083B04000800F002F86F
:1002D00000F096F80AA090E8000C82448344AAF14A
:1002E0000107DA4501D100F08BF8AFF2090EBAE848
:1002F0000F0013F0010F18BFFB1A43F0010318475A
:10030000C4CD0000E4CD0000103A24BF78C878C105
:10031000FAD8520724BF30C830C144BF04680C600B
:10032000704700000023002400250026103A28BF53
:1003300078C1FBD8520728BF30C148BF0B60704757
:100340006E2900F07386702900F0858266290CF012
:10035000C88465290CF0C58467290CF0C284612922
:100360000CF0C18403681B0A28BF41F08001692991
:1003700000F0F681642900F0F381752900F0F08126
:100380006F2901F06F81782900F05182E92901F08D
:100390000981E42901F00681F52901F00381EF29A3
:1003A00001F06C81F82900F050820368DB0928BF56
:1003B00041F08001632901F08A80732901F08F8068
:1003C000E32901F0D983F32901F0DE83002070478F
:1003D0001FB50CF079FC9DE8030000F07BFD01F0F7
:1003E0009BF90400002000210CF03AFC401C6060E6
:1003F000002000210CF04AFCE0601FBD10B510BDCC
:1004000001F064FC1146FFF7E3FF0AF015FA01F072
:1004100082FC03B4FFF7F2FF03BC01F0F3FC000021
:100420000948804709480047FEE7FEE7FEE7FEE788
:10043000FEE7FEE7FEE7FEE7FEE7FEE704480549C4
:10044000054A064B70470000798C0008CD02000871
:10045000F0060024F00C0024F0080024F00800242A
:1004600070B5064600F01AFD056806F10B0020F095
:100470000704B4429CBF002070BD2B466A68BAB125
:100480001068A04210D304F1080188423CBF5068B4
:10049000586007D35168101941601168091B016049
:1004A00058601460101D70BD13465268002AE7D1D1
:1004B0002146284600F0FAFC0028DED170BD70B558
:1004C0000446051F00F0EAFC0068002C14BF4468D5
:1004D00070BD002C18BFAC423CBF20466468F8D306
:1004E00001680A18AA4218BF456003D12A68054668
:1004F0001144016028684119A1421CBF6C6070BDA5
:100500006168696021680844286070BD53EA020C84
:1005100000F069802DE9F04B4FF00006002B1FBF63
:10052000B3FA83F503FA05F424FA05F65E4012BF28
:100530001643B2FA82F502FA05F4C5F120051EBF92
:1005400022FA05FC44EA0C04203556EA044C4FEA32
:10055000144418BF641C4FF000084FF0000990428B
:1005600071EB030C39D3002919BFB1FA81F701FAF5
:1005700007F6B0FA80F700FA07F6C7F120071EBFAA
:1005800020FA07FC46EA0C062037B6FBF4FCA7EB82
:100590000507103F07F01F0BCBF120062CFA06F6DB
:1005A0000CFA0BFB44BFB3460026202FA4BF5E46C7
:1005B0004FF0000B5BEA060C08BF4FF0010B19EB84
:1005C0000B0948EB0608ABFB027C06FB02CC0BFBDD
:1005D00003CCC01B71EB0C01C1E70B460246414640
:1005E0004846BDE8F08B13B5084318BF4FF0FF3005
:1005F0000146AFF30080BDE81C40704710B50446CB
:1006000000F044FC0068005DC00602D504F1200043
:1006100010BD204610BD00007CB51D4616460C00DE
:10062000009007D04142A14202D32044401E01E085
:100630004FF0FF30064B7B442A4669460190304616
:1006400000F01BFF002C02D0009A002111707CBD2D
:10065000710E00000FB41CB5084B06AA7B44694616
:100660000090059800F009FF04460020694600F05C
:1006700017FF20461CBC5DF814FB0000410E000073
:100680000FB41CB50C0007AA009007D04142A1424C
:1006900002D32044401E01E04FF0FF30074B7B4463
:1006A00069460190069800F0E8FE0021002C01D078
:1006B000009A11701CBC5DF814FB0000090E0000CC
:1006C00070B5044685690068C10601D5302600E092
:1006D0002026C00707D070BDD4E9012130469047DD
:1006E000206A401C20626D1EF6D570BD70B50446B0
:1006F00085690078C00707D170BDD4E901212020A9
:100700009047206A401C20626D1EF6D570BD70B502
:100710000C460546012A05D02878800600D5EA69EE
:10072000002302E0012305E05B1C934202D2E05C5F
:100730000028F9D1A869E618C01AA861286A1844E7
:1007400028622846FFF7BCFF04E0D5E9012114F830
:10075000010B9047B442F8D32846FFF7C7FF70BD9E
:100760002DE9F0410646002410687529314616A58A
:1007700010D000F0F0FB002802DA404213A507E099
:1007800031688A0701D512A502E0490704D511A5F1
:10079000012401E000F0E8FB00210A2206F1240711
:1007A00009E0B0FBF2FCB0FBF2F302FB1C003030BE
:1007B00078541846491C0028F3D123462A4630466F
:1007C000BDE8F04100F0D9BB000000002D000000A2
:1007D0002B00000020000000F0B40D460188090540
:1007E00002D5214C7C4402E01F4C7C440E34002195
:1007F00000F1240608E002F00F071209E75D42EA63
:1008000003721B097754491C52EA0307F3D102789B
:100810000023120704D5702D06D009B1022311342C
:100820002246F0BC00F0A9BB01231034F8E770B5F4
:1008300004460D462146106800F096FB0246294604
:100840002046BDE870400023C6E7D21D22F0070312
:10085000D3E90023C0E70368126843F02003036074
:100860000823C3610023B7E7F2C500002DE9F05F5C
:10087000894604464FF0000ADFF874B1FB44C0F823
:1008800020A02046E1688847002874D0252806D09B
:10089000D4E901219047206A401C2062F1E700263C
:1008A0005F462046E16888472028054607DB312D52
:1008B00005D2781910F8200C08B10643F1E7B0070B
:1008C00001D526F00406C4F81CA00027C4F818A01F
:1008D0002A2D09D028460CF07BF938B304EB8708A1
:1008E000303DC8F8185019E059F8041B204604EBB5
:1008F00087029161E1688847012F054618D1E069B8
:10090000002820DA26F020061DE0D8F8180000EBB9
:10091000800005EB40003038C8F818002046E16838
:10092000884705460CF054F90028EED1012F0AD073
:100930002E2D08D12046E16888477F1C0546022FEE
:1009400046F02006C4DBA069002803DA404246F0E6
:100950000106A061F00701D026F010066C2D0BD027
:10096000682D09D04C2D39D06A2D35D0742D35D055
:100970007A2D33D016E038E0E1682F4620468847CC
:10098000B842054609D16C2F26D04FF48060E1684B
:10099000064320468847054604E06C2F1AD04FF4E2
:1009A000807006430DB3A5F14100192802D8203507
:1009B00046F400664A462946204626604E46FFF722
:1009C000BFFC80B101280BD0F61D26F0070000F116
:1009D000080956E74020E4E78020D8E70020D6E762
:1009E00006F104094DE7284652E7206ABDE8F09F6A
:1009F00082C500002DE9FF5F1D464FF0FF3B914689
:100A00004FF000085F46D5E90146A96901987F1CAF
:100A10008847296A824688470028F6D1BAF1FF3F05
:100A20000CD0002E24F4C06419DD600614D5BAF190
:100A30002B0F09D0BAF12D0F0ED103E0584604B0A8
:100A4000BDE8F09F44F48064A96901987F1C884741
:100A5000761E8246002E02DDBAF1300F03D0B9F1C6
:100A6000000F26D032E0A969761E01987F1C44F45D
:100A700000748847002E824605DDBAF1780F06D053
:100A8000BAF1580F03D0B9F1000F10D01EE0B9F140
:100A9000000F02D0B9F1100F18D1A969761E019884
:100AA0007F1C24F4007488478246102002E008204E
:100AB00000E00A20814609E0A96908FB0908761EC2
:100AC00001987F1C44F4007488478246002E05DD9F
:100AD0004946504600F0DCFD0028EDDAE96901984E
:100AE0008847A00502D46FF00100A8E7E00725D1F0
:100AF000600613D5600502D5C8F1000000E040464D
:100B000029680A1D2A600968220501D5087015E0C8
:100B1000220701D5088011E008600FE02868011D58
:100B200029600068210502D580F8008006E02107D1
:100B300002D5A0F8008001E0C0F8008038467EE7CA
:100B40002DE9FF5F4FF0000899461446464691692B
:100B5000D2E901A7DDF838B001988847054659EA7F
:100B60000B0005D009E0A1690198761C884705466D
:100B7000216A284688470028F5D1681C03D05FEA1F
:100B8000CA7005D015E04FF0FF3004B0BDE8F09F0B
:100B90002068011D2160D0F800800AE05FEACA7079
:100BA00001D108F8015BA169761C01987F1E884776
:100BB0000546002F1ADD681C18D0B9F1000F0DD0C2
:100BC000E81705EBD060421120F01F0059F8221001
:100BD0002A1A012090400142E0D107E0BBF1000F4A
:100BE000DCD12846216A88470028D7D0E1690198DE
:100BF0008847BBF1000F07D1002E05DD5FEACA7000
:100C000002D1002188F80010A068B84203DDBBF1D2
:100C1000000F03D017B16FF00100B6E73046B4E71C
:100C2000401ECAB210F8011F8A4202D00029F9D131
:100C30000020704710B5431E13F8014F002CFBD164
:100C400005E011F8014B002C03F8014B03D0521EB4
:100C5000F7D20021197010BD30B505460B462A4663
:100C600013F8014B12F8010B08B1A042F8D01CB1E7
:100C7000002802D06D1CF1E7284630BD10B5431C9A
:100C800002E010F8011B71B18107FAD14FF0013277
:100C900002C88C1A8C4314EAC211F9D0C01A0A0691
:100CA00003D0C01E10BDC01A10BD0A0401D0801EA2
:100CB00010BD0902FCD0401E10BD40EA010370B512
:100CC0009B072ED14FF00136042A2AD308C810C939
:100CD0009D1B9D43121F15EAC61517D0D8B2E1B26D
:100CE000401A50EA056110D198B2A1B2401A50EAF8
:100CF00005410AD123F07F4024F07F41401A50EA99
:100D0000052102D1180EA0EB146070BDA342DBD008
:100D100018BA21BA884201D9012070BD4FF0FF30C6
:100D200070BD0AB9002070BD10F8013B11F8014BED
:100D300063B1A3420AD1521E08D010F8013B11F84A
:100D4000014B1BB1A34201D1521EEDD1181B70BD46
:100D5000421E12F8013F002BFBD111F8013B002B82
:100D600002F8013BF9D17047032A40F2308010F0BD
:100D7000030C00F0158011F8013BBCF1020F624436
:100D800098BF11F801CB00F8013B38BF11F8013BC7
:100D9000A2F1040298BF00F801CB38BF00F8013B74
:100DA00011F0030300F08284083AC0F0088051F883
:100DB000043B083A51F804CBA0E80810F5E7121DEF
:100DC0005CBF51F8043B40F8043BAFF30080D2070E
:100DD00024BF11F8013B11F801CB48BF11F8012BDA
:100DE00024BF00F8013B00F801CB48BF00F8012BFD
:100DF00070474FF000020429C0F0128010F0030C7D
:100E000000F01B80CCF1040CBCF1020F18BF00F8FD
:100E1000012BA8BF20F8022BA1EB0C0100F00DB8AC
:100E20005FEAC17C24BF00F8012B00F8012B48BF0A
:100E300000F8012B70474FF0000200B513469446AE
:100E40009646203922BFA0E80C50A0E80C50B1F122
:100E50002001BFF4F7AF090728BFA0E80C5048BF36
:100E60000CC05DF804EB890028BF40F8042B08BFD4
:100E7000704748BF20F8022B11F0804F18BF00F8D0
:100E8000012B7047704770477047000010B500F0A5
:100E900043FC001D10BD00BFC9BD000000487047E5
:100EA00080000024704770477047704738B504468B
:100EB0000A4600206946AFF30080002808BF38BD0D
:100EC00002460099204600F02FFC012038BD012089
:100ED00000F0F4BEF8B5AFF30080054600200C46E4
:100EE000102000BF0646A819A0420DD93246694617
:100EF0000020AFF30080070008BF00F0DFFE00987D
:100F0000A04218BF0546C419FFF7C8FF0560074691
:100F1000F01D20F007004619284600F00AF8B442F8
:100F200008BFF8BDA21B31463868BDE8F84000F0A4
:100F3000FBBB00210160C0E9011070471020704721
:100F400010B500F0EDFB006810BD10B5044600F0D0
:100F5000E7FB046010BD09684A0501D540B270473F
:100F6000C905FCD500B2704709684A0501D5C0B271
:100F70007047C905FCD580B270472DE9F0470D4692
:100F800099469246044600F124080168880604D573
:100F9000E06921F01001216000E00120A84201DD9C
:100FA000471B00E00027A1697A1902EB0900081A23
:100FB000A0612078C00602D42046FFF781FB0026FE
:100FC00008E0D4E901211AF806009047206A401C85
:100FD000761C20624E45F4DB2078C0060AD52046F8
:100FE000FFF76EFB06E0D4E9012130209047206A2C
:100FF000401C2062381EA7F10107F4DC07E0D4E9A9
:10100000012118F805009047206A401C2062281E24
:10101000A5F10105F3DC2046FFF768FB2078000608
:1010200002D50220BDE8F0870120FBE711680268C5
:10103000006A530501D508700AE0D30501D5088080
:1010400006E0130603D5C217C1E9000200E00860FC
:10105000012070472DE9FF4F0C461E464FF0FF3729
:101060008BB0D2E90001DDF860800A908A46C1F3B6
:101070000A5505B93D46002108464FF00000BAF177
:10108000000F00F4400005DA00EB80004FF440014F
:1010900001EA50004FEA9059B9F1010F00DDB9465D
:1010A0000A9850EA4A000ED044F61050A5F2FF35D7
:1010B00045432F14B8F1000F1ED07542291E1EDDC6
:1010C000C9F100021CE0B8F1010F4FF0000001D09F
:1010D000302103E0F24305E02154401CB042FBDB29
:1010E00030460022002121540B99C1F80880C1E943
:1010F00000200FB0BDE8F08FBD1B6D1CDEE74A4637
:1011000000DA694206A800F043FD06AB93E8070049
:1011100003AB83E8070050460A990AF0A7FC8DE864
:101120000700A0F500501F3800900398002D0ADD3D
:1011300042F21F014A460844002303A9039068466F
:101140000AF010FF09E0A0F500504A461F380023BE
:1011500003A9039068460AF01AFF8DE8070000040F
:10116000000C03D04FF0FF30410800E01046B8F10A
:10117000000F03D00022009215461EE0751E05D414
:1011800000F0ECFA303262556D1EF9D5B3460122FB
:10119000084302D000227F1C04E02078302801D1CF
:1011A00000227F1E002A099784D01DE0112D07DA46
:1011B00000F0D4FA303262556D1C50EA0102F5D1CC
:1011C000084302D00098C8B10EE00021681E05E077
:1011D000235C625C63542254401E491C8142F7DB4D
:1011E000AB46A81B401E0990002004F80B000B988A
:1011F000099AC0F80880C0E9002B7AE711264FF061
:10120000000857E72DE9F04F88460446D21D22F02A
:10121000070191B0D1E90001CDE90A010AF0EEFF22
:1012200002460B98C00F01D02D2007E020688107EF
:1012300001D52B2002E0202101EAC000032A0990F9
:1012400001D0072A05DB03464146204600F04AFC50
:101250000BE12078800601D5E06900E00620B8F1B6
:10126000650F814606D0B8F1660F18D0B8F1670F48
:1012700070D131E00020B9F1110F009001DB112392
:1012800001E009F101030AAA01A90CA8FFF7E2FE97
:10129000DDE90C70002609F10105834647E00120D5
:1012A0004B4600904FF000470AAA01A90CA8FFF78F
:1012B000D1FEDDE90DB00C995D46002610B909F1AB
:1012C00001000D18B9EB050003D4C0F1FF3609F198
:1012D0000105A5EB09002BE0B9F1010F01DA4FF090
:1012E00001090020B9F1110F0090484601DD1123DA
:1012F00000E003460AAA01A90CA8FFF7ABFEDDE94E
:101300000C704D4600268346207800070AD4AB4572
:1013100000DA5D4601A8012D04DD411911F8011C18
:10132000302907D04F4502DA17F1040F04DA012003
:1013300082460FE06D1EEEE7002F02DCED1B3E44FF
:1013400003E0781CA84200DD7D1CB81B00F1010AF7
:101350004FF000472078000703D4AA4501DB4FF087
:10136000FF3A0021B7F1004F0DF143088DF843100B
:1013700024D002202B23002F01DA7F422D230A21C3
:10138000021EA0F1010000DC5FB197FBF1FC97FBAE
:10139000F1F201FB1C7C17460CF1300C08F801CD72
:1013A000EEE7A8F1010003702188090501D5452168
:1013B00000E06521A0F1010800F8011C09980FA9BF
:1013C000A1EB0807FF1D00B10120411901EBEA70F4
:1013D000A1693844081A401EA0612078C00602D4D2
:1013E0002046FFF76DF9099828B1D4E9012190470B
:1013F000206A401C20622078C00622D52046FFF7D4
:101400005FF91EE0002E04DBB34502DD01A8805D1C
:1014100000E03020D4E901219047206A401C20627E
:10142000761CAAF101005FEA000A0AD100F074F903
:10143000C0680168405CD4E901219047206A401CE3
:101440002062281EA5F10105DCDC07E0D4E90121BA
:1014500018F8010B9047206A401C2062381EA7F143
:101460000107F3DC2046FFF741F9032011B041E604
:1014700001694A1C02610878704700B58FB0CDE958
:1014800001310021059105497944CDE90310114648
:101490006846FFF7EBF90FB000BD0000E5FFFFFF66
:1014A0000A6802F8010B0A607047D1E900239A42EA
:1014B00002D2531C0B601070704710B5436913B112
:1014C000AFF3008001E0FFF722F9012010BD127890
:1014D00000F124010A7000224A700122EDE7116830
:1014E0004FF0FF32E9E700002DE9FF5F15468A461D
:1014F0000446DFF8AC80F8440027D8E900103E46E7
:10150000CDE9001010E03AF816106A4602A800F083
:10151000B1FB411C07D02178890603D5E26939184F
:1015200091420DD80744761C2078800602D5E069E8
:10153000B84205DDAE42E6DB3AF816000028E2D1FB
:10154000A069C01BA0612046FFF7BAF8D8E90010D7
:10155000CDE90010002017E03AF818106A4602A8FA
:1015600000F088FBB0F1FF3F81460BD000250DF164
:10157000080B05E0D4E901211BF8050090476D1C1C
:101580004D45F7D308F10100B0428046E4DB206A04
:10159000384420622046FFF7A9F8BDE8FF9F00000D
:1015A000A6B900002DE9F0418046D21D22F00702C5
:1015B0000025D2E90002F52915A614D0011E72F10A
:1015C000000106DA0023D0EB030063EB020211A650
:1015D00008E0D8F800108B0701D50FA602E04907F4
:1015E00001D50EA601251146002408F1240704E0C8
:1015F00000F0B4F830323A55641C50EA0102F7D1D9
:101600002B46324621464046BDE8F041FFF7B5BCC7
:10161000000000002D0000002B0000002000000052
:1016200030B4002100F1240408E002F00705D208DC
:10163000303542EA4372DB086554491C52EA03051F
:10164000F3D10468002310A2250708D504F0200474
:101650000C4304D0C46901230CA2641EC46130BCD5
:10166000FFF78BBC10B5044621461068FFF77CFCE1
:1016700002462046BDE810400023D1E7D21D22F0EB
:101680000701D1E90023CBE7000000003000000093
:101690003A2800D2303820F02002412A01D3A2F1AA
:1016A0003700884201D34FF0FF30704710B5203A21
:1016B000C0F00B80B1E81850A0E81850B1E81850FD
:1016C000A0E81850203ABFF4F5AF5FEA027C24BFCF
:1016D000B1E81850A0E8185044BF18C918C0BDE8B8
:1016E00010405FEA827C24BF51F8043B40F8043B81
:1016F00008BF7047D20728BF31F8023B48BF11F836
:10170000012B28BF20F8023B48BF00F8012B70478F
:101710000048704778000024004870479800002473
:101720000048704778000024034640688C46002833
:1017300018BF88423CBF03464068F8D31868184475
:10174000884207D00CF1030020F00700001D411A69
:10175000521A0146081D0A60FEF7B1BE30B5B0F15D
:101760000A0271F100034FEA900E4EEA817EB0EB5F
:101770000E0061EB91014FEA101E4EEA017E10EB64
:101780000E0041EB11114FEA102E4EEA016E10EBE4
:101790000E0041EB11214FEA104E4EEA014E10EBC4
:1017A0000E0041EB1141401841F100014FEAD00019
:1017B00040EA41704FEAD1014FEA810444EA907453
:1017C00010EB800544EB01046D1944EB0404521B3B
:1017D000A3414FF0000348BF0A3200D530BD401C82
:1017E00041F1000130BD00002DE9F04F04460D46E7
:1017F000D21D22F0070089B0D0E90097484639464B
:101800000AF0FCFC0246F80F01D02D2307E0206807
:10181000810701D52B2302E0202101EAC0038DF8C6
:1018200020300BB1012000E00020032A824601D0C5
:10183000072A04DB2946204600F054F93FE12078CE
:10184000800601D40D2500E0E569C7F30A560D2D89
:1018500049DA00214FEA175B08464FF00000002FDD
:1018600000F4400007DA00EB80004FF4400100EB89
:10187000D07001EA60008115012901DD4FF0FF31D0
:1018800000224FEA850CBCF1180F06D31346ACF1C9
:1018900018004FF08052C24003E04FF4801323FA47
:1018A0000CF30CF10C0CBCF1200F04D3ACF1200CA8
:1018B00009FA0CF001E007FA0CF000294FF000489B
:1018C00001DD18B90FE00ED140450CD319EB020928
:1018D0005F4121B9404502D19F4329EA0209BBEB90
:1018E000175F00D0761C2088000502D57B4878441D
:1018F00002E07A487844193808AA302302F80A30FE
:10190000037C0AF10101002E0AF1020A53546A46CF
:1019100002DC4FF0300101E04FF031014FF00108DF
:101920008DF8001002D0A6F2FF3603E059EA470115
:1019300000D06B4E002D02DC2178090704D54FF052
:1019400002082E218DF80110C44600210BE0C7F3D8
:1019500003433F01C35C491C6D1E02F80830052992
:1019600008F1010801DA002DF1DC00210CE000EBA8
:101970001973491C1B786D1E082902F808304FEABC
:10198000091908F1010801DA002DF0DC21688B0645
:1019900002D516E0A8F10108E04505DD02EB0803D9
:1019A00013F8013C302BF5D0B8F1000F09DD02EB44
:1019B000080313F8013C2E2B03D1090701D4A8F129
:1019C0000108002D05DD3E2102F808106D1E08F10A
:1019D0000108407C002E02F8080008F1010804DA32
:1019E0002D20764202F8080002E02B2002F80800C1
:1019F0000A214FF47A70864208F101080BDB96FB4E
:101A0000F0F3303302F8083096FBF0F308F10108E8
:101A100000FB136601E0642E0CDB642096FBF0F300
:101A2000303302F8083096FBF0F308F1010800FBB0
:101A3000136601E00A2E06DB96FBF1F0303002F867
:101A4000080008F1010896FBF1F001FB106030304E
:101A500002F80800A16908F1010808EB050202EB91
:101A60000A00081AA0612078C00602D42046FEF7BA
:101A700027FE216A08AE01EB0A00206204E0D4E9E7
:101A8000012116F8010B9047BAF1010AF7D220782C
:101A9000C00602D52046FEF713FE6E4609E016F892
:101AA000010B3E280FD0D4E901219047206A401C49
:101AB0002062B8F10108F2D22046FEF717FE09B005
:101AC0000320BDE8F08F206A2844206203E0D4E9B7
:101AD0000121302090476D1EEBD3F8E7D1B500000F
:101AE00002FCFFFF2DE9F0411F4604460326016872
:101AF000072A01F4006004DB08B116A505E016A56D
:101B000003E008B115A500E015A521F01000206044
:101B1000A069C01EA0610FB1401EA0612046FEF763
:101B2000CFFD4FB1D4E9012138469047206A401CCF
:101B30002062C01C206206E0206AFAE7D4E9012195
:101B400015F8010B9047761EF8D22046FEF7CEFD21
:101B5000BDE8F0814E414E006E616E00494E460078
:101B6000696E660010B5436913B1AFF3008001E000
:101B7000FFF7BAFC012010BD128800F12401828415
:101B80000022C2840122EDE711684FF0FF32E9E73D
:101B90002DE9F047814616468AB0354878440DC88D
:101BA0008DE80D0032487844801C03AC0DC884E8F1
:101BB0000D0041F69B300844372190FBF1F290FB79
:101BC000F1F5A5F1800501FB12041B3C02D564422E
:101BD000012000E00020DFF898A080460027FA44AA
:101BE000AAF1BE0A0EE0E0070AD03246684607EBCB
:101BF000470101230AEB81010AF0C9F98DE80700CA
:101C000064107F1C002CEED1194F7F44AE3F19E0C9
:101C1000E80715D007EB04100DF1180A90E80E0044
:101C20008AE80E00C068F04201D198190890324647
:101C3000012306A903A80AF0AAF903AB83E8070069
:101C40006D10641C002DE3D14FF00103324669464C
:101C5000B8F1000F03A802D00AF084F901E00AF0FD
:101C600096F9C9E90001C9F808200AB0BDE8F08773
:101C7000B4B300002DE9F04116460C460546FFF7C7
:101C800005F9036893F80101012807D0FF2C12D849
:101C9000185D80B101202C70BDE8F081D3F80701F8
:101CA0003246214603F20713C7182846BC46BDE852
:101CB000F041002360474FF0FF30EDE710B500F032
:101CC00039F8BDE8104000F02FB870477546FFF7AF
:101CD0001FFDAE4605006946534620F007008546C5
:101CE00018B020B5FEF7AAFBBDE820404FF0000673
:101CF0004FF000074FF000084FF0000BAC46ACE887
:101D0000C009ACE8C009ACE8C009ACE8C00921F0E2
:101D100007018D46704710B50446AFF3008020469A
:101D2000BDE81040FEF775BB002801D000F06AB88E
:101D30007047000010B5012805D0002103A000F075
:101D400067F8012010BD09A1F8E700005349475288
:101D5000544D454D3A204F7574206F66206865617B
:101D600070206D656D6F7279000000003A20486543
:101D70006170206D656D6F727920636F727275701E
:101D8000746564000000000030B44FF0013C50F86E
:101D9000042BCCFA52F451F8043BD51A20D1FCB9EB
:101DA00050F8042BCCFA52F451F8043BD51A17D151
:101DB000B4B950F8042BCCFA52F451F8043BD51ABC
:101DC0000ED16CB950F8042BCCFA52F451F8043B04
:101DD000D51A05D1002CDAD030BC4FF00000704786
:101DE00029BAB1FA81F111F01801D1F12000844033
:101DF000F2D1CA40CB4012F0FF0213F0FF0330BC17
:101E0000D01A704701491820ABBEFEE72600020039
:101E100070B505460C460A2000E06D1C00F011F874
:101E200035B128780028F8D102E0641C00F009F8E8
:101E300014B120780028F8D1BDE870400A20AFF333
:101E4000008008B569468DF800000320ABBE08BDD0
:101E500010B50446006842F2001140F48070C4F2EC
:101E60000201884218D142F20830C4F20200006830
:101E700010F4403F18D003F01BFA6168B1F5803FC1
:101E800005D0B1F5403F2BD0B1F5003F29D1090C69
:101E9000B0FBF1F025E000BF46F20830C5F60200C5
:101EA000006810F4403FE6D14FF40020002102F01A
:101EB00073F96168A1F580224FEAB2420A2A10D86C
:101EC000DFE802F00606060606063C3E40424400F5
:101ED0006FF0010202EA5141B0FBF1F001E000BFF6
:101EE00080084BF62141C0F2BE01884206D8206826
:101EF000816821F44071816010BD00BF47F6410147
:101F0000C0F27D11884207D820680122816862F3FF
:101F10000921816010BD00BF21684FF28102C0F22B
:101F2000FA229042886805D8022262F3092088606C
:101F300010BD00BF40F44070886010BD0009D0E7BC
:101F40004009CEE78009CCE7C009CAE7000AC8E724
:101F5000F0B581B0044600688168C9074CD14FF6DE
:101F6000C0778168C7F6FF7707F17F0211420BD077
:101F7000206E40F010002066606E40F00100606648
:101F8000012001B0F0BD00BF8168394041F001017E
:101F9000816001F0D1FD42F2000346F20836C4F23E
:101FA0000203216803F5807203F54275C5F6020647
:101FB000914208BF2E46994208BF2E4699420546D7
:101FC000306816D0914214D110F01F0014D110E0E7
:101FD0008868C00704D18868384040F001008860F4
:101FE00001F0AAFD401B2168032802D30868C0073E
:101FF000BED00868C007EBD0002001B0F0BD0000E3
:1020000010B540F23834C2F20044204601F024F802
:102010003221204600F06CFF00281CBF002010BDBC
:1020200040F23830C2F2004000F086FD80B210BDB0
:1020300010B5044609F0DCFA20783038092815D8A4
:10204000DFE800F006162A3E5266747A8A8600BFE0
:1020500040F224500422C2F200404FF0FF332146E8
:1020600005F0E2F9BDE8104009F0D2BB10BD00BF99
:1020700040F224500422C2F200404FF0FF332146C8
:1020800005F0D2F940F2E460C2F200400088BDE8F9
:10209000104009F0FDBA00BF40F224500422C2F201
:1020A00000404FF0FF33214605F0BEF940F2E460F6
:1020B000C2F200400088BDE8104009F0A9BA00BF94
:1020C00040F224500422C2F200404FF0FF33214678
:1020D00005F0AAF940F2E460C2F200400088BDE8D1
:1020E000104009F015BB00BF40F224500422C2F298
:1020F00000404FF0FF33214605F096F940F2E460CE
:10210000C2F200400088BDE8104009F041BB00BFAA
:1021100040F224500422C2F200404FF0FF33214627
:1021200005F082F9BDE8104009F0F6B909F004FAAB
:10213000BDE8104009F014BA40F2F430C2F2004099
:1021400003F042FD4FF4FA70BDE8104009F0A0BA68
:10215000BDE8104009F0C8B9BDE8104009F014BA54
:1021600010B5044609F04CFA20783038092815D803
:10217000DFE800F006162A3E5266747A8E8A00BFA7
:1021800040F224500422C2F200404FF0FF332146B7
:1021900005F04AF9BDE8104009F03ABB10BD00BF98
:1021A00040F224500422C2F200404FF0FF33214697
:1021B00005F03AF940F2E460C2F200400088BDE860
:1021C000104009F065BA00BF40F224500422C2F268
:1021D00000404FF0FF33214605F026F940F2E4605D
:1021E000C2F200400088BDE8104009F011BA00BFFB
:1021F00040F224500422C2F200404FF0FF33214647
:1022000005F012F940F2E460C2F200400088BDE837
:10221000104009F07DBA00BF40F224500422C2F2FF
:1022200000404FF0FF33214605F0FEF840F2E46035
:10223000C2F200400088BDE8104009F0A9BA00BF12
:1022400040F224500422C2F200404FF0FF332146F6
:1022500005F0EAF8BDE8104009F05EB909F06CF944
:10226000BDE8104009F07CB909F03EF94FF47A70EE
:1022700001F06EFB09F0CCFA4FF47A7001F068FBC4
:10228000BDE8104009F048B9BDE8104009F02CB98C
:10229000BDE8104009F078B9FEE70000000000003A
:1022A00010B5044609F09CF920783038092815D873
:1022B000DFE800F006162A3E5266747A8E8A00BF66
:1022C00040F224500422C2F200404FF0FF33214676
:1022D00005F0AAF8BDE8104009F09ABA10BD00BF99
:1022E00040F224500422C2F200404FF0FF33214656
:1022F00005F09AF840F2E460C2F200400088BDE8C0
:10230000104009F0C5B900BF40F224500422C2F2C7
:1023100000404FF0FF33214605F086F840F2E460BC
:10232000C2F200400088BDE8104009F071B900BF5A
:1023300040F224500422C2F200404FF0FF33214605
:1023400005F072F840F2E460C2F200400088BDE897
:10235000104009F0DDB900BF40F224500422C2F25F
:1023600000404FF0FF33214605F05EF840F2E46094
:10237000C2F200400088BDE8104009F009BA00BF71
:1023800040F224500422C2F200404FF0FF332146B5
:1023900005F04AF8BDE8104009F0BEB809F0CCF8E5
:1023A000BDE8104009F0DCB809F09EF84FF47A70EF
:1023B00001F0CEFA09F02CFA4FF47A7001F0C8FA65
:1023C000BDE8104009F0A8B8BDE8104009F08CB88D
:1023D000BDE8104009F0D8B87047000000000000C8
:1023E00080B540F238104FF40071C2F20040FEF7A1
:1023F00022FD40F2E0000021C2F20040818080BD59
:102400002DE9F04140F2E00740F238150446C2F2EF
:1024100000474FF00008C2F2004512A608E000BFD6
:10242000F8800A2001F094FA2004A4F1010415D0E8
:10243000B8880028F5D0F9888842F1D1284631467D
:10244000A7F80480FEF708FC0028EAD03A21FEF73E
:10245000E7FB002818BF0130BDE8F0810020BDE88F
:10246000F08100BF4950442C000000000000000033
:102470002DE9F04389B040F238168946C2F2004691
:1024800080464FF400713046FEF7D5FC40F2E0057F
:1024900001AFC2F2004520A138464A460024AC8074
:1024A000FEF7D8F840F26C00C2F2004004603846F3
:1024B000FEF7E4FB82B240F24C60C2F200403946C3
:1024C00008F096F8C72707E0E8800A2001F040FAF4
:1024D0003806A7F101071CD0A8880028F5D0E988A4
:1024E0008842F1D13E213046AC80FEF799FB0028AE
:1024F000EBD040F238104FF40071C2F20040FEF70A
:102500009AFC40F24C604146C2F200404A4608F054
:102510006FF809B0BDE8F08341542B43495053454F
:102520004E443D25640D0A00EFF3108072B600BFE3
:10253000FEE7000000000000B0B582B090F85C201B
:10254000012A03D10221084602B0B0BD42F208328E
:1025500000230193C4F202020093A2F542740368BF
:10256000A34227D14FF6006E4FF60055CFF6FF7EFF
:10257000CFF6FF7552F80E40535923435B0719D429
:10258000D1F800C01368BCF1000F23F440441DD003
:102590004B6823431360535952F80E502B43DB070B
:1025A00022D1136840F61F75AB438968194341EA8D
:1025B0000C0116E0016E41F02001016601210022AC
:1025C00080F85C20084602B0B0BD00BF14605159CD
:1025D00052F80E301943C90708D1116840F61F732D
:1025E000994311600021EAE70021E8E70021E6E7CE
:1025F0002DE9F04381B00022009290F85C20012A7E
:1026000004D10221084601B0BDE8F083036801222D
:1026100080F85C209A68520700F1328246F2083C4A
:102620000C68C5F6020C4FF6FF7E002CC0F20F0EB0
:10263000ACF5427814D4434512D094FAA4F514EAC8
:102640000E0FB5FA85F54FF0010608BFA50EA40ED2
:1026500005F01F0506FA05F5DE693543DD6100E08A
:10266000A40E4D681F2204F01F04C5F3012605F0D7
:102670001F05AA4003EB8606AC40376B27EA02022F
:10268000224332639A689C6802F0040204F0080452
:10269000121940F000810A6807268D684345C2F38D
:1026A0004064C2F3045203EB840406FA02F667693D
:1026B00005FA02F227EA060642EA0602626117D02C
:1026C00041F20002C5F60042126802F07042B2F117
:1026D000805F73D14A69DC680E2505EA540402FA6A
:1026E00004F90C694F46042C00F08280A4E000BF7E
:1026F0004FF604520C69CFF6FF72042C4D695CF85A
:10270000026065D14FF65852CFF6FF725CF8022096
:102710001A6E0E68C2F3846216EA0E04C6F384656C
:1027200096FAA6F6B6FA86F6374608BF2F46BA429C
:102730000CD11A6E22F000421A660A6802EA0E04F0
:10274000C2F3846592FAA2F2B2FA82F65A6E374662
:102750005A6E002C08BF2F46C2F38462BA420CD1D5
:102760005A6E22F000425A660A6802EA0E04C2F368
:10277000846592FAA2F2B2FA82F69A6E37469A6E9F
:10278000002C08BF2F46C2F38462BA420CD19A6E65
:1027900022F000429A660A6802EA0E04C2F38465D7
:1027A00092FAA2F2B2FA82F6DA6E002CDA6E08BF62
:1027B0002E46C2F38462B24236D06CE0DA684C69CD
:1027C000DD68D2064FEA55050AD405F00E0209E08D
:1027D00006224FF0004902EA960205FA02F72BE0C2
:1027E00005F0080204FA02F90C694F46042C23D1C3
:1027F0001A6E0C6802F0F842A406A24200F0228190
:102800005A6E02F0F842A24200F026819A6E02F05F
:10281000F842A24203D19A6E22F000429A66DA6E22
:1028200002F0F842A24236D1DA6E22F00042DA66B5
:102830009A68D20732D095E003F160060A684345F2
:1028400002F0F84256F8245042EA090218BF05F097
:102850000047434542EA070246F824200C6967D046
:1028600091F821200D7E56F8247027F00047012AA8
:1028700008BF07F100476A1EB2FA82F246F82470D8
:1028800052090C69D2021D6904F01F0425F4F045B9
:10289000A2402A431A619A68D20763D143450C6863
:1028A000CD6817D005F01806D3F8C02004EA0E074B
:1028B0002EFA06F6BA4326403243C3F8C02000225F
:1028C000C4F2FF7295421DD0B4F1FF3F76DD0021C6
:1028D000DBE000BF4FF6A85905F01807CFF6FF79E7
:1028E00004EA0E022EFA07F75CF8096026EA0202F3
:1028F00007EA040632434CF809200022C4F2FF72B2
:102900009542E1D114EA0E0F2ED094FAA4F2B2FA55
:1029100082F2013202F01E07092F02F01F072CD8A5
:10292000012207EB4706BA4042EA065731E000BFF2
:10293000ACF52A72CD6952F8246026F080763543D2
:1029400042F824500C6991F8205052F82460012D6F
:1029500026F0007608BF06F1007642F824609A68F7
:10296000D2079BD0002190E0012202EB946202F09A
:102970001E070A2F02F01F07D2D3012207EB4706DA
:10298000BA400027CFF6206707EB06573A4342F0DC
:102990000077C7F340620725C7F304578E6803EB3F
:1029A0008202BD40546906FA07F724EA05052F4361
:1029B00057610C68B4F1FF3F3FF789AF42F2000165
:1029C00042F20016C4F20201C4F2020601F580725E
:1029D00001F542779342624608BF3A468B4208BFF0
:1029E0003A4643F48077B742156841D18A68D1F8F6
:1029F00008111143C90743D1002105F0E076CCF25C
:102A000052718C4208BF15F4000145D00021CCF270
:102A100021318C4208BF15F0807141D00021CCF6E5
:102A200084318C424FF000012FD115F4800208BF91
:102A300043452AD1DCF8001021F0E071314341F424
:102A400080016CE01A6E22F000421A665A6E02F0A3
:102A5000F842A2427FF4DAAE5A6E22F000425A6681
:102A60009A6E02F0F842A2423FF4D5AED7E600BF1C
:102A70004FF60051CFF6FF715CF80110C907BBD0CB
:102A8000016E41F0200101660121002280F85C20E6
:102A9000084601B0BDE8F083434505D00021F4E7C6
:102AA000434535D00021F0E7DCF8001042F66352D0
:102AB00021F0E071C0F23E52314341F40001CCF804
:102AC000001040F20801C2F2004109688909A1FB27
:102AD00002129109022202EB41010091009919B3FF
:102AE000009901390091009901B3009901390091D1
:102AF0000099E9B10099013900910099D1B100998B
:102B000001390091009900294FF00001E8D1BCE79C
:102B1000DCF8001021F0E071314341F08071CCF815
:102B200000100021B1E700BF0021AEE70021ACE7B3
:102B30000021AAE70021A8E70068006C70470000A8
:102B4000F0B581B0044600284FF0000000902DD071
:102B5000206E30B9204600F07BF90020606684F8D2
:102B60005C002068816889004FF6C071C5F6FF716E
:102B700002D582680A4082608268D20031D48268BD
:102B800001F18051114042F6635241F08051816061
:102B900040F20801C0F23E52C2F2004109688909C0
:102BA000A1FB0212012101EB921105E0012528464B
:102BB00001B0F0BD009901390091009989B10099E7
:102BC00001390091009961B1009901390091009992
:102BD00000291FBF009901390091009918BF0029F1
:102BE000E8D18168C90009D4216E012541F01001A6
:102BF0002166616E41F00101616600E00025816897
:102C0000226E02F0100201F004018918216E59D1E0
:102C100021F4817146F2100C023121668168C5F6FB
:102C2000020CC90724D142F2001240F48071C4F2B0
:102C30000202914242F20001C4F2020140F0F0802F
:102C40008A68D1F808311A43D20711D101F5807290
:102C500001F5427390421A4618BF0CF53E72884245
:102C600008BF1A466168136823F47C131943116086
:102C7000617EE36BACF11006B04243EA413329D0E8
:102C8000A168194394F82030012B41EA034306D18F
:102C9000616A0022CFF6FE7202EB41410B43A16A4A
:102CA00021B101F47871E26A11430B43B0421FD0A5
:102CB0004CF20302C168CFF6F07211401943C160B3
:102CC00028E000BF41F0100001252066284601B031
:102CD000F0BD00BFA168D4F80CE0082900F0A68080
:102CE0000C2900F0A5801C2940F0A4801021A4E04C
:102CF00044F207025CF8041CCFF6F072114019434D
:102D00004CF8041CDCF80010626B21F040611143A8
:102D1000CCF800108168826801F0040102F008021A
:102D2000891869D1217EB0424FEA813126D0226BC9
:102D3000C36844F20307BB431A431143C16094F8CC
:102D40004410012948D14FF61E020169CFF6004216
:102D50000126D4E912371140CFF6FF7606EB034384
:102D60003943276D1943636D3943226C194301615F
:102D7000016921F07041114301613AE05CF8042CD3
:102D800094F8383044F2030E94F8447022EA0E02AC
:102D900042EA4302012F41EA02014CF8041C1BD114
:102DA0004FF61E01DCF80000CFF600410840D4E9E0
:102DB00012120843216D1043626D0843216C1043C9
:102DC00040F00100CCF80000DCF8000020F070407A
:102DD0000843CCF800000FE00169B04221F0010186
:102DE00001610169226C21F0704141EA0201016137
:102DF00002D02046FFF72CF820682169026B0129D8
:102E000022F00F0102D1E269013A1143016301216D
:102E1000206E61F301002066284601B0F0BD00BFBE
:102E20005CF8082CD2073FF411AF21E7002104E041
:102E3000082102E0182918BF002141EA0E011943B8
:102E400094F82030012B41EA03433FF421AF26E7F9
:102E5000B0B5B6B0044602A82830902100253595BB
:102E60003495FDF7E8FF42F200012068C4F2020148
:102E7000884201D036B0B0BD4FF4002002908120CE
:102E8000059002200890CDE9060040200395CDE989
:102E9000090502A8202404940B9501F081FB08B1D8
:102EA000FFF742FB44F2D840C5F60200016841F04A
:102EB00020010160016801F0200101910199816800
:102EC00041F004018160806831A900F004000190A4
:102ED0000198032032900020339040F60000C5F6A0
:102EE0000200319400F048FD36B0B0BD0000000093
:102EF0002DE9F04F81B042F2000746F20832C4F2E9
:102F000002070446006807F5807907F54273C5F6A5
:102F1000020248458B4608BF1A46B84208BF1A4607
:102F2000D4F814801368B8F1080F03F01F0A01D118
:102F300008250DE0BAF1090F3AD8012140F221230A
:102F400001FA0AF1194233D0C068C00734D1042510
:102F500000F0F2FD21680A682A4241D106461BF1C1
:102F6000010034D0BBF1000F0DD100BF00F0E4FD33
:102F70002168086828420FD008682842F6D02FE060
:102F8000086828422CD100F0D7FD801B21685845E5
:102F9000F6D908682842F3D1206E40F0040020667C
:102FA000002084F85C00032001B0BDE8F08F00BF72
:102FB000106810F4404FCAD0206E40F02000206608
:102FC000012001B0BDE8F08F0868284208D10868E8
:102FD000284205D10868284204BF08682842F3D077
:102FE000206E40F400702066C86810F4406F0FD166
:102FF000607E68B9086800070AD5206E20F48070EA
:103000002066206EC00403D4206E40F001002066CC
:10301000494518BF0F46BAF1090F384608BF0846A0
:10302000BAF1050F08BF0846BAF1000F08BF0846FD
:103030008F4208BF3846B8F1080FC06802D1082097
:1030400003E000BF400401D40C200860002001B060
:10305000BDE8F08F00000000F0B581B042F200053D
:1030600046F20832C4F202050446006805F580768F
:1030700005F54271C5F60202B04208BF0A46A842F1
:1030800008BF0A4617688068400703D494F85C00BC
:10309000012803D1022001B0F0BD00BF012084F857
:1030A0005C002046FEF754FF20B1002184F85C103C
:1030B00001B0F0BD206807F01F01B04240F6017377
:1030C00018BF0546226E2F1A22EA0303B7FA87F7C4
:1030D00003F580737A09236600D119B9236E23F4AE
:1030E00080132366236E0027DB044FF0000344BFE8
:1030F000676E27F0060767664FF01C07076084F8C5
:103100005C3042B9092919D8012202FA01F140F2D2
:103110002122114212D0C168890104D5216E0122F9
:1031200062F30D3121664FF6C0728168C7F6FF72F7
:10313000114004318160002001B0F0BD206E40F4E8
:1031400080102066E8688001F5D5206E012161F3CA
:103150000D302066002001B0F0BD0000000000002E
:103160002DE9F041044600F0E7FC1CB3054694F855
:103170003500022822D140F20F462768C4F2020629
:1031800040F26F48B7426FF00E00C4F202081DDC37
:103190006F21C4F202018F422ADC3F21C4F20201F6
:1031A0008F4241DC1021C4F202018F4263D02821FA
:1031B0005CE000BF0120BDE8F08100BF80206065B9
:1031C0000120002184F83410BDE8F08147451BDC64
:1031D00040F23F41C4F202018F422DDC40F2104127
:1031E000C4F202018F4246D040F228413EE000BFC7
:1031F0009F21C4F202018F4228DC7021C4F2020137
:103200008F4238D0882131E040F29F41C4F2020160
:103210008F4223DC40F27041C4F202018F422AD077
:1032200040F2884122E000BF4021C4F202018F42F7
:1032300021D058211AE000BF40F24041C4F20201FF
:103240008F4218D040F2584110E000BFA021C4F2D4
:1032500002018F420FD0B82108E000BF40F2B84110
:10326000C4F202018F4206D040F2A041C4F2020132
:103270008F42394607D13946386820F01E0041F8A0
:10328000140B6FF080000A68474500EA02000860EE
:103290001ADC9F20C4F20200874233DC5720C4F2BC
:1032A000020087425ADC1020C4F20200874200F07C
:1032B00097802820C4F20200874200F091804020CD
:1032C000C4F202008AE000BF45F22F40C5F60200BA
:1032D00087422DDC40F2B740C4F2020087424BDC4B
:1032E00040F27040C4F20200874279D040F2884038
:1032F000C4F20200874273D040F2A040C4F2020040
:103300006CE000BF40F22740C4F20200874243DC79
:10331000A020C4F20200874262D0B820C4F20200AA
:1033200087425DD040F21040C4F2020056E000BF78
:1033300045F26B40C5F6020087423FDC45F2304063
:10334000C5F6020087424BD045F24440C5F6020064
:10335000874245D045F258403EE000BF5820C4F2B5
:10336000020087423CD07020C4F20200874237D06E
:103370008820C4F2020031E040F2B840C4F20200FA
:1033800087422DD045F20840C5F60200874227D07B
:1033900045F21C4020E000BF40F22840C4F2020089
:1033A00087421DD040F24040C4F20200874217D04D
:1033B00040F25840C4F2020010E000BF45F26C40F9
:1033C000C5F6020087420BD045F29440C5F60200D4
:1033D000874205D045F28040C5F60200874204D1FD
:1033E000206E016821F480710160386820F00100CE
:1033F000386000BF3868C00710D000F09DFB401B4C
:103400000628F7D320206065032084F835000120CA
:10341000002184F83410BDE8F08100BF2068B0427C
:1034200010DC6F21C4F2020188421DDC3F21C4F28E
:103430000201884234DC1021C4F20201884255D0D6
:1034400028214FE040451BDC40F23F41C4F202011D
:1034500088422DDC40F21041C4F20201884245D07E
:1034600040F228413EE000BF9F21C4F202018842A1
:1034700028DC7021C4F20201884237D0882131E073
:1034800040F29F41C4F20201884223DC40F27041C5
:10349000C4F20201884229D040F2884122E000BFF4
:1034A0004021C4F20201884220D058211AE000BF16
:1034B00040F24041C4F20201884217D040F2584124
:1034C00010E000BFA021C4F2020188420ED0B82152
:1034D00008E000BF40F2B841C4F20201884205D0C2
:1034E00040F2A041C4F2020188425BD1D4E9161235
:1034F00002F01F023F2303FA02F28A6040455BDCC0
:103500009F21C4F20201884214DC5721C4F2020157
:10351000884227DC1021C4F20201884200F0A28018
:103520002821C4F20201884200F09C804021C4F2AC
:10353000020195E040F22741C4F2020188421FDCFB
:10354000A021C4F20201884200F08C80B821C4F2AC
:103550000201884200F0868040F21041C4F202016C
:103560007EE000BF5821C4F2020188427AD0702167
:10357000C4F20201884275D08821C4F202016FE0D2
:1035800040F22841C4F2020188426BD040F240412F
:10359000C4F20201884265D040F25841C4F20201EF
:1035A0005EE000BFD4E9161202F01F02012303FA05
:1035B00002F24A604045A3DD45F22F41C5F6020103
:1035C000884217DC40F2B741C4F20201884227DC8E
:1035D00040F27041C4F20201884243D040F2884177
:1035E000C4F2020188423DD040F2A041C4F202017F
:1035F00036E000BF45F26B41C5F6020188421FDC90
:1036000045F23041C5F6020188422BD045F24441D3
:10361000C5F60201884225D045F258411EE000BFA0
:1036200040F2B841C4F2020188421BD045F2084181
:10363000C5F60201884215D045F21C410EE000BFDC
:1036400045F26C41C5F6020188420BD045F2944127
:10365000C5F60201884205D045F28041C5F6020157
:1036600088420BD1616EA26EE06E4A6030B1016893
:1036700021F480710160D4E91C014160012084F8CB
:1036800035000020002184F83410BDE8F0810000EE
:1036900080B5D8B190F83510022919D140F20F4207
:1036A0000168C4F20202914216DC6F23C4F20203E5
:1036B000994227DC3F23C4F2020399423EDC1023E7
:1036C000C4F2020399425FD0282359E0012080BD53
:1036D00080214165012080BD40F26F43C4F20203A6
:1036E00099421BDC40F23F43C4F2020399422DDCB5
:1036F00040F21043C4F20203994245D040F22843FD
:103700003EE000BF9F23C4F20203994228DC7023ED
:10371000C4F20203994237D0882331E040F29F433C
:10372000C4F20203994223DC40F27043C4F2020364
:10373000994229D040F2884322E000BF4023C4F2DE
:103740000203994220D058231AE000BF40F24043C0
:10375000C4F20203994217D040F2584310E000BF70
:10376000A023C4F2020399420ED0B82308E000BFA0
:1037700040F2B843C4F20203994205D040F2A0439C
:10378000C4F20203994275D191424FF0040280F8CD
:10379000352011DC6F20C4F20200814222DC3F2080
:1037A000C4F20200814239DC1020C4F202008142DE
:1037B00059D0282054E000BF40F26F40C4F202000C
:1037C00081421BDC40F23F40C4F2020081422DDC0A
:1037D00040F21040C4F20200814244D040F228403E
:1037E0003EE000BF9F20C4F20200814228DC70202E
:1037F000C4F20200814236D0882031E040F29F407E
:10380000C4F20200814223DC40F27040C4F20200A4
:10381000814228D040F2884022E000BF4020C4F21C
:10382000020081421FD058201AE000BF40F2404001
:10383000C4F20200814216D040F2584010E000BFAE
:10384000A020C4F2020081420DD0B82008E000BFE1
:1038500040F2B840C4F20200814204D040F2A040DD
:10386000C4F202008142086820F0010008600020D4
:1038700080BD00BF0A6822F00E020A6045F257427E
:10388000C5F6020291420A6822F001020A600FDCCA
:1038900045F22F42C5F60202914219DC45F2084278
:1038A000C5F60202914229D045F21C4222E000BF37
:1038B00045F27F42C5F60202914213DC45F25842BE
:1038C000C5F60202914219D045F26C4212E000BFE7
:1038D00045F23042C5F6020291420FD045F2444211
:1038E00008E000BF45F29442C5F60202914205D0BD
:1038F00045F28042C5F6020291421AD1D0E9181C65
:10390000D0E916E30A6822F480720A6003F01F010E
:10391000012202FA01F1CEF80410816ECCF80410F5
:10392000C16E31B10A6822F480720A60D0E91C12BB
:103930004A60012180F83510026D002180F83410B2
:103940000AB190470021084680BD00000000000039
:10395000B0B5044600F0F0F840F200010546C2F2AE
:103960000041621C097818BF0C4400BF00F0E4F865
:10397000401BA042FAD3B0BD2DE9F04F82B00D68D4
:10398000002D00F0CB8000F1264242F2004302F10C
:10399000FF72C5F602030A2698424FEAB22444F2A7
:1039A000F44E08BF0926082C40F2040C38BF4FEA39
:1039B000B226C5F6020EC5F6000C009600220027BE
:1039C000002609E001360D6835FA06F307F1040711
:1039D00002F1020200F0A280012303FA06F415EAC4
:1039E0000408EFD0D1F804A003230AF0030B93409E
:1039F000ABF101056FEA0309012D0FD88368CD688B
:103A000003EA090395402B438360CAF3001543681A
:103A1000A34305FA06F42343436005E0BBF1030F1B
:103A200002D14FF0030B21E0C3688C6803EA09035D
:103A30009440BBF1020F43EA0403C36016D16FF058
:103A4000030307F01C0503EA56030F24034404FA9A
:103A500005FBD3F820A00C692AEA0B0AAC4044EA23
:103A60000A041C62D1F804A00AF0030B03680BFAE5
:103A700002F403EA09031AF4403F43EA0403036033
:103A8000A0D0DEF8003040F2084A43F00203CEF83E
:103A90000030DEF80030C5F6000A03F0020301939F
:103AA00026F00303019C07F00C040F2553F80A903D
:103AB000A54029EA0509009D05FA04F444EA090431
:103AC00043F80A404FF0B04ADAF800904C6849EAEF
:103AD0000805E30258BF29EA0805A302CAF8005006
:103AE000DCF8009049EA080558BF29EA0805A30355
:103AF000CCF80050DCF8809049EA080558BF29EA64
:103B00000805E403CCF88050DCF87C3043EA080573
:103B100058BF23EA0805CCF87C5053E702B0BDE853
:103B2000F08F000000000000002A08BF0904816136
:103B3000704700000000000040F2E860C2F2004060
:103B4000006870470000000040F2000040F2E861A9
:103B5000C2F20040C2F2004100780A6810440860D6
:103B6000704700000000000080B5032000F0FCF862
:103B700001F026FC44F218414CF67873C5F60201B8
:103B8000C0F600030A68096801F00F01C2F30322BE
:103B9000595C9A5C01F01F0102F01F02D04040F214
:103BA0000C02C2F2004220FA01F1116040F2080159
:103BB000C2F2004108600F2000F00AF800281CBF84
:103BC000012080BD00F07CF8002080BD00000000D6
:103BD00070B540F20006C2F200463178E1B1044609
:103BE00040F20800C2F200404FF47A72B2FBF1F1E9
:103BF0000068B0FBF1F001F0FBFE0F2C4FF0010567
:103C000008D838B94FF0FF3000222146002500F0D7
:103C10007BF87460284670BD012070BD0000000074
:103C200010B54EF6A05E4178CEF2000E90F800C0BE
:103C30004EF8081CDEF8001021F00101CEF800104B
:103C400041684EF8041C017BC37A827A447B1B06D0
:103C500043EA0171837B41EAC241C27B41EA84416C
:103C6000447A41EA4341007A41EA024141EA0421AF
:103C700041EA400040EA0C00CEF8000010BD000010
:103C80004EF62450CEF20000BFF35F8F016821F49E
:103C900080310160002101677047000000000000D2
:103CA0004EF6245140F00100CEF20001086708688A
:103CB00040F480300860BFF34F8FBFF36F8F7047C1
:103CC00081B044F2F440C5F60200016841F00201FF
:103CD0000160006800F002000090009801B0704799
:103CE000002848BF704781B200F01F000122490937
:103CF00002FA00F04EF20012CEF2000242F8210069
:103D0000704700000000000070B54EF60C5C4FF0EC
:103D1000FF36CEF2000C00F1604505F56445DCF895
:103D20000030C3F3022E8EF00703042B28BF0423B8
:103D3000BEF1030406FA03F321EA030100F00F03C6
:103D400038BF0024043B0028634406FA04F048BF4F
:103D500003F10C05A14022EA00000843000128708D
:103D600070BD0000000000004EF60C514FF6FF033E
:103D7000CEF200010A681A4060F30A2242F0806025
:103D800040F0FD7008607047B0B544F60C05C5F60C
:103D9000020529684907296806D401F00701081AB5
:103DA00018BF0120B0BD00BF21F007010843286003
:103DB000FFF7C2FE044600BF55F8080C800407D484
:103DC000FFF7BAFE001BB0F57A7FF5D90120B0BD30
:103DD0000020B0BD0000000080B501F069FA44F297
:103DE00020414CF67872C5F60201C0F6000209685F
:103DF000C1F30211515C01F01F01C84080BD0000F9
:103E000080B544F2304EC5F6020E5EF8083C5EF80E
:103E1000081CC1F3051C5EF8041CBCF1000FDEF8A1
:103E2000042019D001F0010103F003034942022BE1
:103E300001EAD2016FF35F3100EE101AB8EE400ACA
:103E400010D0012B12D01BB95EF8301C890611D49A
:103E50009FED361A1CE000BF00218160C0E900110F
:103E600080BD00BF9FED301A12E000BF9FED2D1AFC
:103E70000EE000BF5EF8301C49F20002C0F2D03202
:103E8000C1F3C10122FA01F101EE101AB8EE411A94
:103E9000DEF800109FED263A6FF35F2102EE101A54
:103EA000DEF80010C1F34621B8EE422A00EE032AE4
:103EB00000EE10CAB7EE003AB8EE400A81EE000AF2
:103EC00032EE031A02EE101AB8EE422A20EE010A70
:103ED00032EE031A80EE011ABCEEC11A80ED001A10
:103EE000DEF80010C1F3064101EE101AB8EE411AD7
:103EF00031EE031A80EE011ABCEEC11A80ED011AF0
:103F0000DEF80010C1F3066101EE101AB8EE411A96
:103F100031EE031A80EE010ABCEEC00A10EE101A50
:103F2000816080BD0024744A20BCBE4B0024744CC8
:103F3000000000390000000080B544F2384EC5F69C
:103F4000020E5EF8103C5EF8101C5EF80C2CC1F3FB
:103F5000053CDEF80410BCF1000F15D0C908D206EC
:103F600001EAE2716FF35F3100EE101A03F0030112
:103F70000229B8EE400A0DD081B95EF8381C8906D6
:103F800010D49FED361A1BE000218160C0E90011BA
:103F900080BD00BF9FED301A12E000BF9FED2D1ACB
:103FA0000EE000BF5EF8381C49F20002C0F2D032C9
:103FB000C1F3C10122FA01F101EE101AB8EE411A63
:103FC000DEF800109FED263A6FF35F2102EE101A23
:103FD000DEF80010C1F34621B8EE422A00EE032AB3
:103FE00000EE10CAB7EE003AB8EE400A81EE000AC1
:103FF00032EE031A02EE101AB8EE422A20EE010A3F
:1040000032EE031A80EE011ABCEEC11A80ED001ADE
:10401000DEF80010C1F3064101EE101AB8EE411AA5
:1040200031EE031A80EE011ABCEEC11A80ED011ABE
:10403000DEF80010C1F3066101EE101AB8EE411A65
:1040400031EE031A80EE010ABCEEC00A10EE101A1F
:10405000816080BD0024744A20BCBE4B0024744C97
:10406000000000390000000080B544F2404EC5F663
:10407000020E5EF8183C5EF8181C5EF8142CC1F3B2
:10408000055CDEF80410BCF1000F15D0C908D2059C
:1040900001EAE2716FF35F3100EE101A03F00301E1
:1040A0000229B8EE400A0DD081B95EF8401C89069D
:1040B00010D49FED361A1BE000218160C0E9001189
:1040C00080BD00BF9FED301A12E000BF9FED2D1A9A
:1040D0000EE000BF5EF8401C49F20002C0F2D03290
:1040E000C1F3C10122FA01F101EE101AB8EE411A32
:1040F000DEF800109FED263A6FF35F2102EE101AF2
:10410000DEF80010C1F34621B8EE422A00EE032A81
:1041100000EE10CAB7EE003AB8EE400A81EE000A8F
:1041200032EE031A02EE101AB8EE422A20EE010A0D
:1041300032EE031A80EE011ABCEEC11A80ED001AAD
:10414000DEF80010C1F3064101EE101AB8EE411A74
:1041500031EE031A80EE011ABCEEC11A80ED011A8D
:10416000DEF80010C1F3066101EE101AB8EE411A34
:1041700031EE031A80EE010ABCEEC00A10EE101AEE
:10418000816080BD0024744A20BCBE4B0024744C66
:10419000000000390000000010B584B0024641F66E
:1041A000FF7300209B1A70EB01032DDA47F6FF73B3
:1041B0009B1A70EB010380F2918082F400430B4361
:1041C00000F0B88082F480330B4300F0018182F468
:1041D0000022114340F0478144F20040C5F602003E
:1041E000816D01F44031B1F5003F00F04B81B1F534
:1041F000803F00F02781002940F03B8100680001EA
:1042000040F137810BE100BF40F2FF739B1A70EB66
:10421000010331DB82F480730B4300F09F8082F452
:104220008062114340F01F8144F20041C5F6020153
:10423000886DC0F34252042A00F21B8148F200004C
:10424000C0F2BB00DFE812F0C200E800F2000F018C
:10425000060000BFC86C0A68520700F040520868A8
:1042600002D5002A00F06881C00540F12581B2F135
:10427000805F00F07A811FE182F400630B4300F05D
:10428000938082F48052114340F0ED8044F200416B
:10429000C5F60201086DC0F30232042A00F2E9807B
:1042A00048F20000C0F2BB00DFE812F09000B60058
:1042B000C000DD00060000BFC86C0A68520700F0AD
:1042C0004052086802D5002A00F03681C00540F14E
:1042D000F380B2F1805F00F04881EDE082F400539A
:1042E0000B4300F0858082F48042114340F0BB8094
:1042F00044F20044C5F60204A06DC0F30270052824
:1043000000F2B780DFE810F00600EA00EC00EE00F3
:10431000F400F60000F0CCFF216A4CF67872C0F68B
:104320000002C1F30211515C01F01F01C84004B04A
:1043300010BD00BF44F20040C5F60200016D01F05F
:104340004051B1F1005F00F08780B1F1805F00F073
:104350008D80002940F08D8072E000BF44F2004162
:10436000C5F60201086D00F00702042A00F2818000
:1043700048F20000C0F2BB00DFE802F0284E58759A
:10438000040000BFC86C0A68520700F04052086879
:1043900002D5002A00F0D080C00540F18D80B2F136
:1043A000805F00F0E28087E044F20041C5F6020140
:1043B000886DC0F30262042A5BD848F20000C0F2A4
:1043C000BB00DFE802F0032933506B0008684EE0C1
:1043D00044F20040C5F60200C16C0068C90346D52E
:1043E000000146D501A8FFF7A7FD039804B010BD52
:1043F00044F20040C5F60200016DC1F302410529F7
:1044000037D8DFE801F003818B95A31D04B0BDE828
:10441000104000F075BF00BF0868000129D501A851
:10442000FFF78AFD019804B010BD00BF0868800046
:104430001FD501A8FFF718FE019804B010BD00BFFA
:10444000006858E00068800013D501A8FFF70CFE53
:10445000039804B010BD00BF0068000109D501A891
:10446000FFF76AFD029804B010BD00BF006880012C
:1044700002D4002004B010BD01A8FFF7C1FC0298CF
:1044800004B010BDC16C0268520701F040510268CF
:1044900066D5002964D1C2F3C1004FE0C86C0A6838
:1044A000520700F04052086801D5002A44D0C005E8
:1044B00002D5B2F1805F58D00868B2F1005F00F415
:1044C00000314FF0000004BF47F64000C0F27D10FD
:1044D000002908BF084604B010BD00BF206814E0E2
:1044E00020681CE020684007C3D5206824E000BF96
:1044F00020682CE0206847F640018003C0F27D115F
:1045000001EAE07004B010BD00680001B1D501A857
:10451000FFF712FD029804B010BD00BF00688000D4
:10452000A7D501A8FFF7A0FD029804B010BD00BFF9
:10453000016849079DD50068C0F3C10049F2000138
:10454000C0F2D03121FA00F004B010BD006840F68E
:104550000011C005C0F23D0101EAE07004B010BDD9
:10456000D20509D5B1F1805F06D140F60010C0F246
:104570003D0004B010BD00BF0068B1F1005F00F461
:1045800000324FF0000004BF47F64000C0F27D103B
:10459000002A08BF104604B010BD00000000000053
:1045A0002DE9F0470446C07844F22C480007C5F6D0
:1045B000020833D5606E4FEA305103290CD8DFE88A
:1045C00001F003111D2600BFD8F8001041F400319E
:1045D000C8F800101BE000BF01266078C0070BD0B0
:1045E00020E000BF04F10800022104F0A9F906460A
:1045F00060B16078C00715D1354646E004F1280067
:10460000022104F031FA06460028F2D1606ED8F893
:10461000241021F440110843C8F8240000266078D3
:10462000C007E9D0A06D04280ED83546DFE800F0B9
:104630000412181E1E0000BFD8F80000354640F4D2
:104640000030C8F8000011E001250127607840071C
:104650001FD453E004F10800002104F071F904E0D4
:1046600004F12800002104F0FFF905462F461DB192
:10467000607840070DD441E0D8F82400A16D20F007
:10468000070000250843C8F8240037466078400733
:1046900034D5D4F8A4004FEA705005280CD8DFE8D0
:1046A00000F00311171D1D1DD8F8000040F4003064
:1046B000C8F8000012E000BF01250126607800075D
:1046C00020D455E004F10800002104F039F904E099
:1046D00004F12800002104F0C7F905462E461DB15B
:1046E000607800070ED443E0D8F82C00D4F8A4106A
:1046F00020F4600000250843C8F82C003E4660788E
:10470000000735D5D4F8A8004FEA306005280DD849
:10471000DFE800F00412181E1E1E00BFD8F80000CB
:1047200040F40030C8F8000012E000BF0125012766
:10473000E078800720D44EE004F10800002104F066
:10474000FFF804E004F12800002104F08DF905468B
:104750002F461DB1E07880070ED43CE0D8F82C003D
:10476000D4F8A81020F0E06000250843C8F82C0019
:104770003746E07880072ED5E06C4FEA30100328EA
:104780000ED8DFE800F00903130900BFD8F80000D5
:1047900040F40030C8F800002E467DB912E000BF9A
:1047A000012501266078C00619D44CE004F1080008
:1047B000022104F0C5F805462E461DB16078C006FA
:1047C0000DD440E0D8F82000E16C20F03000002546
:1047D0000843C8F820003E466078C00633D5E06D37
:1047E0004FEA303004280DD8DFE800F00412181E1C
:1047F0001E0000BFD8F8000040F40030C8F80000E8
:1048000012E000BF01250127607880061FD44EE02A
:1048100004F10800002104F093F804E004F12800FA
:10482000002104F021F905462F461DB1607880066D
:104830000DD43CE0D8F82400E16D20F4E0400025E0
:104840000843C8F824003746607880062FD5206ECC
:104850004FEA3040052809D8DFE800F0040E1404C0
:10486000040400BF2E46ADB918E000BF01250126A3
:10487000607840061FD44FE004F10800012104F0E5
:104880005FF804E004F12800012104F0EDF805468A
:104890002E461DB1607840060DD43DE0D8F82400C6
:1048A000216E20F4E02000250843C8F824003E468D
:1048B0006078400630D5D4F8AC004FEA3070052857
:1048C00008D8DFE800F0030D130303032F46ADB94A
:1048D00018E000BF012501276078000620D442E0DF
:1048E00004F10800012104F02BF804E004F1280091
:1048F000012104F0B9F805462F461DB16078000685
:104900000ED430E0D8F82C00D4F8AC1020F0E04001
:1049100000250843C8F82C0037466078000622D5E9
:10492000E06E58B1B0F1005F0CD0B0F1805F2FD1D4
:10493000D8F8000040F40030C8F800002E469DB9B9
:1049400008E000BF04F10800012103F0F9FF05466B
:104950002E464DB9D8F82400E16E20F040500025D5
:104960000843C8F824003E46E078C00733D0A06C66
:10497000032813D8DFE800F008021A08D8F800006E
:1049800040F40030C8F80000A946BDB91AE000BFE5
:1049900001250126E078C007E9D11CE001254FF090
:1049A0000109A07840061AD51CE000BF04F10800F8
:1049B000022103F0C5FF0546A9461DB1A0784006B7
:1049C0000DD50FE0D8F82000A16C20F003000025E1
:1049D0000843C8F82000B146A078400602D44F46EC
:1049E00018E000BFD8F8D40340F48070C8F8D403AE
:1049F000FFF7A2F8064600BFD8F8D403C00507D4D5
:104A0000FFF79AF8801B6428F6D90325032701E0F5
:104A10002F468DB12078C00761D0A06F4FEAF0001B
:104A200005283BD8DFE800F004404604040400BF3A
:104A3000002D2E4646D149E0D8F84410D4F8B000F5
:104A4000414011F4407F11D0D8F84410D8F84420E8
:104A500042F48032C8F84420D8F8442021F4407150
:104A600022F48032C8F84420C8F84410B0F5807FA2
:104A700040F0CE82FFF760F8064641F2883A0325FF
:104A8000032700BFD8F84400800700F1BF82FFF77A
:104A900053F8801B5045F5D9BCE700BF012501261E
:104AA000207880071FD44CE004F10800012103F0B6
:104AB00047FF04E004F12800012103F0D5FF05467B
:104AC0002E461DB1207880070DD43AE0D8F8280092
:104AD000A16F20F0380000250843C8F828003E46A2
:104AE000207880072DD5606F052809D8DFE800F011
:104AF000040E1404040400BF2F46ADB918E000BF33
:104B000001250127207840071FD44DE004F108005B
:104B1000012103F015FF04E004F12800012103F056
:104B2000A3FF05462F461DB1207840070DD43BE07A
:104B3000D8F82800616F20F0070000250843C8F866
:104B400028003746207840072ED5D4F89000052855
:104B500008D8DFE800F0030D130303032E46ADB9B8
:104B600018E000BF012601252078800620D451E0FE
:104B700004F10800012103F0E3FE04E004F1280041
:104B8000012103F071FF05462E461DB120788006F5
:104B90000ED43FE0D8F82C00D4F8901020F0070095
:104BA00000250843C8F82C003E462078800631D501
:104BB000D4F88C004FEA3070052809D8DFE800F0FF
:104BC000040E1404040400BF2F46ADB918E000BF62
:104BD000012701252078400620D451E004F1080087
:104BE000002103F0ADFE04E004F12800022103F0EF
:104BF0003BFF05462F461DB1207840060ED43FE00E
:104C0000D8F82800D4F88C1020F0E04000250843A4
:104C1000C8F8280037462078400631D5D4F89800E7
:104C20004FEAB020052809D8DFE800F0040E14048C
:104C3000040400BF2E46ADB918E000BF01260125CF
:104C40002078000620D454E004F10800002103F08D
:104C500077FE04E004F12800022103F005FF054679
:104C60002E461DB1207800060ED442E0D8F82C0064
:104C7000D4F8981020F4E05000250843C8F82C0020
:104C80003E462078000634D5D4F89C004FEA7030B8
:104C900005280FD8DFE800F004141A04040400BF4C
:104CA0002F46E5B12068010727D4C1063ED4000392
:104CB00055D475E00127012520680107F5D51CE0D2
:104CC00004F10800002103F03BFE04E004F1280099
:104CD000022103F0C9FE0546002D2F46E2D1D8F887
:104CE0002C00D4F89C1020F4604000250843C8F83C
:104CF0002C00374620680107D7D5D4F88000B0F5DE
:104D0000805F09D104F12800022103F0ADFE0028E4
:104D100018BF0127D4F88000D8F8281021F440519A
:104D20000843C8F828002068C106C0D5D4F894000C
:104D3000B0F5807F09D104F12800022103F094FE30
:104D4000002818BF0127D4F89400D8F82C1021F4BB
:104D500040710843C8F82C002068000320D5D4F81F
:104D6000A000B0F5003F0FD0B0F5803F06D078BB73
:104D700004F10800002103F0E3FD04E004F1280041
:104D8000022103F071FE05462E4655B9D8F82C00D5
:104D9000D4F8A01020F4403000250843C8F82C00B7
:104DA0003E46A07840072BD5D4F88400B0F5401FCC
:104DB0000BD0B0F5001F11D0B0F5801F2AD1D8F864
:104DC000000040F40030C8F800002F46CDB90DE0D7
:104DD00001260125A0784007E6D411E004F128005F
:104DE000012103F041FE05462F4655B9D8F82800A9
:104DF000D4F8841020F4401000250843C8F8280097
:104E00003746A078C0070AD13E462168880016D5EB
:104E100033E000BF01270125A078C007F4D0206D42
:104E2000B0F5803F10D018BBD8F8000040F4003037
:104E3000C8F800002E4685B1216888001DD460683E
:104E40008A0326D465E000BF04F10800022103F0C4
:104E500077FD0546002D2E46EED1D8F82000216DB5
:104E600020F4803000250843C8F82000CCE700BFBC
:104E70000126012521688800E1D504F128000221DE
:104E800003F0F2FD002818BF0126D4E900108A03C0
:104E90003FD5E26F6FF0010303EB3223022B0BD3FC
:104EA0004FEA322343B1012B40F0AA80D8F80030FA
:104EB00043F40033C8F8003025B3CA022CD48A0268
:104EC00034D44A003CD4CA0F49D1090251D4C10795
:104ED0005AD1810763D441076CD4010776D4C10647
:104EE00000F18080800607D504F12800022103F03C
:104EF000BBFD002818BF0125002D18BF012528463D
:104F0000BDE8F087D8F8283023F440731A43C8F876
:104F100028203546CA02D2D5D8F82420236F22F0A3
:104F200000421A43C8F824208A02CAD5D8F824209F
:104F3000A36E22F080721A43C8F824204A00C2D51A
:104F400058F81C2C22F4004248F81C2CD4F8B42049
:104F500058F81C3C1A4348F81C2CCA0FB5D0D8F896
:104F60002020636D22F040521A43C8F82020090225
:104F7000ADD5D8F82810D4F8882021F44001114389
:104F8000C8F82810C107A4D004F10800002103F0DC
:104F9000D7FC002818BF0546606881079BD504F13F
:104FA0000800012103F0CCFC002818BF054660680A
:104FB000410792D504F10800022103F0C1FC00284A
:104FC00018BF0546606801077FF589AF04F1280026
:104FD000002103F049FD002818BF05466068C1069E
:104FE0007FF580AF04F12800012103F03DFD00288A
:104FF00018BF0546606880067FF57EAF74E700BF86
:105000000125CA027FF55BAF86E700BFD4F8B00088
:105010004FF6CF7358F81C2CC0F2FF0300F4407118
:1050200022F47C5203EA10136FF31F30B1F5407F76
:1050300008BF1A43002548F81C2CD8F84410084330
:10504000C8F84400FFF7CBBC2DE9F04381B000283D
:1050500000F02A8142F200080446C5F20028894681
:10506000D8F8000000F00F0088420ED2D8F80000F7
:1050700020F00F0040EA0900C8F80000D8F800004E
:1050800000F00F00484540F00F81206844F21847B7
:105090004107C5F602070AD521693A6802F0700295
:1050A000914204D93A6822F0700211433960010735
:1050B0000AD561697A6802F07002914204D97A686F
:1050C00022F0700211437960C1060AD5A1697A689D
:1050D00002F4E062914204D97A6822F4E06211435A
:1050E000796081060AD5E169BA6802F070029142DE
:1050F00004D9BA6822F070021143B96010F00201BD
:105100000AD0E2683B6803F00F039A4204D93B6877
:1051100023F00F031A433A60C20746D0386820F4E0
:105120007061D4E90102012841EA0201396009D025
:1051300003280DD0022811D157F8181C890340F11B
:10514000B38010E057F8181CC90540F1AD800AE0A3
:1051500057F8181C890140F1A78004E057F8181C83
:10516000490740F1A18057F8081C21F007010843C6
:1051700047F8080CFEF7E0FC064641F2883500BF10
:1051800057F8080C616800F03800B0EBC10F09D087
:10519000FEF7D2FC801BA842F2D9032001B0BDE883
:1051A000F08300BF206800F0020151B1E1683A6865
:1051B00002F00F02914204D23A6822F00F0211432A
:1051C0003960D8F8001001F00F0149450DD9D8F821
:1051D000001021F00F0141EA0901C8F80010D8F8C9
:1051E000001001F00F0149455ED141070AD5216940
:1051F0003A6802F07002914204D23A6822F07002DA
:105200001143396001070AD561697A6802F07002BA
:10521000914204D27A6822F0700211437960C1068B
:105220000AD5A1697A6802F4E062914204D27A68F0
:1052300022F4E0621143796080060AD5E069B9681A
:1052400001F07001884204D2B96821F0700108436E
:10525000B86000F0B5F839684CF678733A68C0F673
:105260000003C1F3032102F00F02595C9A5C01F0C4
:105270001F0120FA01F102F01F0040F20C0221FA96
:1052800000F0C2F20042106040F2040040F2080256
:10529000C2F20040C2F200420068116001B0BDE8F5
:1052A000F043FEF795BC00BF012001B0BDE8F083DC
:1052B00080B500F085F844F218414CF67873C5F6D5
:1052C0000201C0F600030A68096801F00F01C2F389
:1052D0000322595C9A5C02F01F0220FA02F201F0EC
:1052E0001F0040F20C0122FA00F0C2F200410860F7
:1052F00040F20801C2F200410A6080BD00000000D7
:1053000080B500F05DF844F2184C4CF67871C5F6A3
:10531000020CC0F60001DCF80020DCF8003003F0DD
:105320000F03C2F30322CB5C8A5C02F01F02D04061
:1053300003F01F0240F20C0320FA02F2C2F2004313
:105340001A6040F20803C2F200431860DCF804005F
:10535000C0F30210085C00F01F0022FA00F080BDCC
:1053600080B500F02DF844F2184C4CF67871C5F673
:10537000020CC0F60001DCF80020DCF8003003F07D
:105380000F03C2F30322CB5C8A5C02F01F02D04001
:1053900003F01F0240F20C0320FA02F2C2F20043B3
:1053A0001A6040F20803C2F200431860DCF80400FF
:1053B000C0F30220085C00F01F0022FA00F080BD5C
:1053C00044F20041C5F602010869C0F3C200032897
:1053D00010D002282ED098BB0868800649F2000041
:1053E000C0F2D03058BF70470968C1F3C101C8404E
:1053F000704700BF8A6A886AC0F3051CC86ABCF19E
:10540000000F4B6B22D000F0010002F0030240427B
:10541000022A00EAD3006FF35F3000EE100AB8EE04
:10542000400A15D0C2B90868800619D49FED281A21
:1054300023E000BF47F64000C0F27D10704700BF78
:1054400040F60010C0F23D00704700BF00207047DA
:105450009FED1E1A11E000BF9FED1B1A0DE000BF6B
:10546000086849F20002C0F2D032C0F3C10022FA4B
:1054700000F001EE100AB8EE411A086B9FED153AE4
:105480006FF35F2002EE100A086BC0F34620B8EEFF
:10549000422A013000EE032A00EE10CAB7EE003AAD
:1054A000B8EE400A81EE000A32EE031A20EE010A3D
:1054B00001EE100AB8EE411A80EE010ABCEEC00AF5
:1054C00010EE100A704700BF0024744A20BCBE4B87
:1054D0000024744C00000039F0B581B0002800F0C1
:1054E000D5800446007844F20046C007C5F602069F
:1054F00022D12078800768D5306910F03801B06A71
:1055000042D0182908BF5FEA80703DD0E06831685A
:10551000002800F0258121F0190108433060FEF7D2
:105520000BFB05463068400748D4FEF705FB401BDF
:105530000228F7D977E100BF306900F03801B06A7E
:10554000102905D018290BD100F00300022807D13B
:1055500030688003CDD560680028CAD196E000BFCE
:105560006068002800F03281B0F5A02F00F046817D
:10557000B0F5803F00F04681306820F48030306024
:10558000306820F4802040E130684007E06801D5B1
:1055900000287BD0316821F0190108433060FEF704
:1055A000CBFA05463068400708D4FEF7C5FA401B21
:1055B00002284FF00300F5D901B0F0BD70682169F1
:1055C00020F0FE4040EA016070602078C00619D5E6
:1055D000306900F03801B06A082906D0182940F077
:1055E000818000F0030001287CD13068C00502D51D
:1055F000E06980284AD1F068216A20F07C5040EAB6
:105600000160F0602078000744D42078800655D4EB
:105610002078400700F17E80656A9DB3306900F014
:105620003800182840F01481012DB16A306B2DD05C
:1056300001F00302A36A9A4228D1C1F30511E26A7C
:10564000914223D10146226B6FF35F21013A9142CF
:105650001CD1C0F34622616B01398A4216D1C0F3D6
:105660000642A16B01398A4210D1C0F30660E16B9A
:10567000013988420AD1706BA16CC0F3CC00814221
:1056800040F09C81002001B0F0BD00BF012001B0BE
:10569000F0BD00BF60690028706F4FD040F001007E
:1056A0007067FEF749FA0546706F8007ADD4FEF7C4
:1056B00043FA401B0228F7D9B5E000BFA0690028D3
:1056C000306871D040F480503060FEF735FA0546FE
:1056D000306880049CD4FEF72FFA401B0228F7D9CB
:1056E000A1E000BFE0690028306800F09F8040F032
:1056F00080003060FEF720FA054600BF3068C00524
:105700003FF579AFFEF718FA401B02284FF003006F
:10571000F4D951E7D6F8000440F48070C6F80004CC
:10572000FEF70AFA054600BFD6F80004C00529D4E2
:10573000FEF702FA401B6428F6D974E020F001005D
:105740007067FEF7F9F90546706F80077FF55DAF6A
:10575000FEF7F2F9401B02284FF00300F4D92BE7C3
:1057600021F001003060FEF7E7F905463068400798
:105770007FF52BAFFEF7E0F9401B02284FF0030046
:10578000F4D919E7A068002800F08480052800F00B
:105790009B80012800F09C80306F20F00100306772
:1057A000306F20F0040096E020F480503060FEF767
:1057B000C3F90546306880047FF52AAFFEF7BCF9CF
:1057C000401B02284FF00300F4D9F5E6306820F4BE
:1057D00080303060306820F480203060FEF7ACF913
:1057E000054600BF306880037FF583AEFEF7A4F95D
:1057F000401B64284FF00300F4D9DDE6306840F424
:1058000080203060306840F480303060FEF794F9DA
:10581000054600BF306880033FF56BAEFEF78CF99C
:10582000401B6428F6D9032001B0F0BD20F08000B1
:105830003060FEF781F905463068C0057FF5E2AEBD
:10584000FEF77AF9401B02284FF00300F4D9B3E6C3
:10585000306820F080703060FEF76EF9022D05464A
:105860000CD100BF3068800148D5FEF765F9401BB8
:1058700002284FF00300F5D99EE600BF3068800192
:105880007FF500AFFEF758F9401B02284FF00300E8
:10589000F4D991E6306F20F001003067306F20F0CE
:1058A00004003067FEF748F9054641F28837306F4B
:1058B00080077FF5B1AEFEF73FF9401BB8424FF0CD
:1058C0000300F4D978E600BF306F40F00400306781
:1058D000306F40F001003067FEF72EF9054641F2C7
:1058E000883700BF306F80073FF596AEFEF724F98A
:1058F000401BB8424FF00300F4D95DE604F12807DD
:10590000B06A40F2F33188438ECF0843591E40EA13
:1059100002104FF47E426FF35F21B06202EB47202A
:105920004FF4FE0280B2E36B0844A16B02EB01412D
:105930004FF0FE4201F4FE0102EB0362084402F064
:10594000FE4108443063F06A4FF6F87120F0010020
:10595000F062706BA26C884340EAC2007063F06A28
:10596000216C20F00C000843F062F06A616C20F0BA
:1059700002000843F062F06A40F48030F062F06A9E
:1059800040F40030F062F06A40F48020F062F06A87
:1059900040F00100F062306840F080703060FEF747
:1059A000CBF80446306880013FF56CAEFEF7C4F8D2
:1059B000001B02284FF00300F4D9FDE5F06A20F047
:1059C0000100F062FEF7B8F80546FEF7B5F8A84208
:1059D000FBD0706B4FF6F871A26C884340EAC200AE
:1059E0007063F06A40F00100F062002001B0F0BD89
:1059F000411E0020B0EB116F02D00120704700BFA4
:105A00004EF21002F023CEF2000251604EF6235106
:105A1000CEF200010B70072190601160704700000A
:105A2000B0B590F83C20012A02D10220B0BD00BFE1
:105A3000D1E9022323F47C5322F4705242EA030595
:105A400048F2FF73D1E900CECEF6F0730EEA0302FE
:105A500003F5006445EA020E0CEA04050C6903F53F
:105A6000C05245EA0E0522402A434D692A4303F5F8
:105A700060550C6B03F5F0432A4023401343026842
:105A800040F2004C42F48065C4F2010C8C6965451B
:105A900040F2000CCEF6FF7CCD690CEA044443EAE8
:105AA000050343EA040318D14FF6FF7540F2000CDA
:105AB000CDF60F458C6ACDF6F04C03EA050E0D6A63
:105AC0000CEA04544B6A44EA0E0425F0085523F00E
:105AD00000532543C96A2B430B430021536480F8CC
