:020000040800F2
:1000000048070020310200082D190008591800087F
:1000100029190008510600080D1C00080000000006
:100020000000000000000000000000003919000876
:100030005506000800000000311900083D190008AD
:100040004B0200084B0200084B0200084B0200085C
:100050004B020008351900084B0200084B0200084B
:100060004B0200084B0200084B0200084B0200083C
:100070004B0200084B0200084B0200084B0200082C
:100080004B0200084B0200084B0200084B0200081C
:100090004B0200084B0200084B0200084B0200080C
:1000A0004B0200084B0200084B0200084B020008FC
:1000B0004B0200084B0200084B0200084B020008EC
:1000C0004B0200084B0200084B0200084B020008DC
:1000D0004B020008F51B0008011C00084B02000839
:1000E0004B0200084B0200084B0200084B020008BC
:1000F0004B0200084B0200084B0200084B020008AC
:100100004B0200084B0200084B0200084B0200089B
:100110004B0200084B0200084B0200084B0200088B
:100120004B0200084B0200084B0200084B0200087B
:100130004B0200084B0200084B0200084B0200086B
:100140004B0200084B0200084B0200084B0200085B
:100150004B0200084B0200084B0200084B0200084B
:100160004B0200084B0200084B0200084B0200083B
:100170004B0200084B0200084B0200080000000080
:100180004B0200084B02000800F002F800F041F8B2
:100190000AA090E8000C82448344AAF10107DA45E2
:1001A00001D100F036F8AFF2090EBAE80F0013F0F3
:1001B000010F18BFFB1A43F001031847041C00008D
:1001C000241C0000103A24BF78C878C1FAD852071E
:1001D00024BF30C830C144BF04680C6070470000C1
:1001E0000023002400250026103A28BF78C1FBD840
:1001F000520728BF30C148BF0B607047732900F019
:10020000B681002070471FB501F0B8FD1FBD10B5C5
:1002100010BD00F0E2F91146FFF7F5FF01F0F8FC20
:1002200000F000FA03B4FFF7F2FF03BC00F008FA95
:100230000948804709480047FEE7FEE7FEE7FEE77A
:10024000FEE7FEE7FEE7FEE7FEE7FEE704480549B6
:10025000054A064B70470000E519000889010008AF
:1002600048010020480700204803002048030020E0
:1002700053EA020C00F069802DE9F04B4FF00006C4
:10028000002B1FBFB3FA83F503FA05F424FA05F631
:100290005E4012BF1643B2FA82F502FA05F4C5F1C8
:1002A00020051EBF22FA05FC44EA0C04203556EA5C
:1002B000044C4FEA144418BF641C4FF000084FF080
:1002C0000009904271EB030C39D3002919BFB1FA30
:1002D00081F701FA07F6B0FA80F700FA07F6C7F1DE
:1002E00020071EBF20FA07FC46EA0C062037B6FBA3
:1002F000F4FCA7EB0507103F07F01F0BCBF120061E
:100300002CFA06F60CFA0BFB44BFB3460026202F4E
:10031000A4BF5E464FF0000B5BEA060C08BF4FF02F
:10032000010B19EB0B0948EB0608ABFB027C06FB43
:1003300002CC0BFB03CCC01B71EB0C01C1E70B46DD
:10034000024641464846BDE8F08B13B5084318BF46
:100350004FF0FF300146AFF30080BDE81C4070470E
:100360000FB41CB5074B06AA7B446946009005985C
:1003700000F0D3F80020694600F0E2F81CBC5DF8FC
:1003800014FB0000D50100002DE9F0410E460446A3
:10039000002020622046E168884730B3252805D038
:1003A000D4E901219047206A401CF2E7E168204629
:1003B00000278847050018D0A5F14100192802D868
:1003C00020354FF400673246294620462760FFF764
:1003D00015FF40B1012804D0F61D26F007060836A7
:1003E000D8E7361DD6E72846DAE7206ABDE8F0816F
:1003F00070B50C460546012A05D02878800600D540
:10040000EA69002302E0012305E05B1C934202D26B
:10041000E05C0028F9D1A869E618C01AA861286A2A
:10042000184428622846AFF3008004E0D5E9012192
:1004300014F8010B9047B442F8D32846AFF300807C
:1004400070BD10B5431C02E010F8011B71B18107AB
:10045000FAD14FF0013202C88C1A8C4314EAC2114F
:10046000F9D0C01A0A0603D0C01E10BDC01A10BDB4
:100470000A0401D0801E10BD0902FCD0401E10BD30
:10048000032A40F2308010F0030C00F0158011F8C0
:10049000013BBCF1020F624498BF11F801CB00F898
:1004A000013B38BF11F8013BA2F1040298BF00F8EC
:1004B00001CB38BF00F8013B11F0030300F05B8073
:1004C000083AC0F0088051F8043B083A51F804CBD0
:1004D000A0E80810F5E7121D5CBF51F8043B40F896
:1004E000043BAFF30080D20724BF11F8013B11F8A1
:1004F00001CB48BF11F8012B24BF00F8013B00F8E5
:1005000001CB48BF00F8012B704770477047704718
:1005100001694A1C02610878704700B58FB0CDE9C7
:1005200001310021059105497944CDE903101146B7
:100530006846FFF729FF0FB000BD0000E5FFFFFF91
:100540000A6802F8010B0A60704710B5436913B1DD
:10055000AFF3008001E0FFF74BFF012010BD1278E0
:1005600000F124010A7000224A700122EDE71168AF
:100570004FF0FF32E9E710B5203AC0F00B80B1E848
:100580001850A0E81850B1E81850A0E81850203AC8
:10059000BFF4F5AF5FEA027C24BFB1E81850A0E8D1
:1005A000185044BF18C918C0BDE810405FEA827CEB
:1005B00024BF51F8043B40F8043B08BF7047D20702
:1005C00028BF31F8023B48BF11F8012B28BF20F8A3
:1005D000023B48BF00F8012B7047754600F02CF82D
:1005E000AE4605006946534620F00700854618B020
:1005F00020B5FFF72BFEBDE820404FF000064FF07E
:1006000000074FF000084FF0000BAC46ACE8C00903
:10061000ACE8C009ACE8C009ACE8C00921F00701AA
:100620008D46704710B50446AFF300802046BDE804
:100630001040FFF7F7BD0000004870471000002091
:1006400001491820ABBEFEE72600020070470000FB
:10065000FEE700007047000072B600BFFEE7000032
:1006600070B5866D044600F043F994F83510022900
:1006700028D105462068216C026822F0160202602B
:10068000426922F08002426109B9A16C19B1016886
:1006900021F008010160016821F00101016000BF43
:1006A00020680068C00715D000F022F9401B06281A
:1006B000F6D320206065032084F83500002184F8FB
:1006C000341070BD802060650120002184F8341052
:1006D00070BD00BFE06D3F2101FA00F0B060012065
:1006E00084F835000020002184F8341070BD00002B
:1006F00090F83510022909D1052180F835100068DD
:10070000016821F0010101600020704780214165EE
:1007100001207047B0B5044600F0EAF8054640F203
:100720000000C2F200000078611C18BF044400BF42
:1007300000F0DEF8401BA042FAD3B0BD2DE9F04F27
:1007400082B000F13E4241F6004502F1FF77C4F26B
:100750000205082243F6004E4FEAB726A84208BF1A
:100760000722C4F2010E072E38BF4FEAB722012537
:10077000002600274FF00008009208E008F1010869
:100780000437B8F1100F06F1020600F0A7800C68DC
:1007900005FA08F914EA090FF0D0D1F804B00322E1
:1007A0000BF0030CACF10104B240012C6FEA020A19
:1007B00010D88268CC6802EA0A02B4402243826000
:1007C0004268CBF3001422EA090204FA08F4224337
:1007D000426005E0BCF1030F02D14FF0030C20E0B2
:1007E000C2688C6802EA0A02B4402243BCF1020FDC
:1007F000C26016D16FF0030202EA58020244D2F836
:1008000020C007F01C050F230C69AB402CEA030342
:1008100004FA05F52B431362D1F804B001250BF05F
:10082000030C02680CFA06F302EA0A021A431BF4EC
:10083000403F0260A2D0002243F644030192C4F27A
:1008400002031A684FF6084C42F480421A601A6894
:10085000CFF6FF7C02F480420192019A28F0030255
:10086000724452F80C3007F00C050F24AC40A3433F
:10087000009C04FA05F52B4342F80C30DEF8082002
:100880004B6842EA090543F60C4CDC0258BF22EAE9
:100890000905CEF80850C4F2010CDCF800209C02D7
:1008A00042EA090558BF22EA0905CCF80050DEF8F3
:1008B00004209C0342EA090558BF22EA0905CEF844
:1008C0000450DEF80020DB0342EA090558BF22EAA3
:1008D0000905CEF80050012550E700BF02B0BDE881
:1008E000F08F00000069084018BF01207047000029
:1008F00040F24410C2F200000068704740F200006D
:1009000040F24411C2F20000C2F2000100780A680D
:10091000104408607047000080B543F60040C4F200
:100920000200016841F400710160016841F48061D6
:100930000160016841F480710160032000F092F8C9
:100940000F2000F005F800F027F8002080BD00001F
:1009500070B540F20006C2F2000640F2080132789B
:10096000C2F200014FF47A730968B3FBF2F2044655
:10097000B1FBF2F1084600F04DFB0F2C4FF00105E2
:1009800008D838B94FF0FF3021460022002500F08A
:100990003DF87460284670BD80B582B0002043F6F3
:1009A00040010190C4F202014A6842F480424A6068
:1009B0004A6802F480420192019A0090086800227D
:1009C00040F0805008600868002100F080500090DE
:1009D0000098052000F01AF8052002B0BDE880401C
:1009E000AFF30080002848BF7047C1B200F01F007D
:1009F000012202FA00F04EF20012CEF2000242EAA8
:100A0000D10121F0030108607047000010B54EF6D7
:100A10000C5CCEF2000CDCF80030C3F3022E8EF03A
:100A20000704042C28BF0424BEF103034FF0FF3E4B
:100A30000EFA04F438BF0023A14399400EFA03F3E1
:100A40009A43114300F00F0200F160430901043A98
:100A500003F564436244002848BF02F10C03197097
:100A600010BD00004EF60C51CEF200010A684FF6A0
:100A7000FF031A4060F30A2242F0806040F0FD70EC
:100A8000086070472DE9F041002800F08B8043F6A4
:100A90000808C4F202080446D8F8F8030D4600F02E
:100AA0000700884207D288F8F853D8F8F80300F016
:100AB0000700A84276D12068810717D5410705D5E0
:100AC000D8F8001041F4E051C8F80010010705D52E
:100AD000D8F8001041F46041C8F80010D8F80010B0
:100AE000A26821F0F0011143C8F80010C0073FD1FF
:100AF000D8F8F80300F00700A84207D988F8F8539F
:100B0000D8F8F80300F00700A8424BD1206841074D
:100B100007D5D8F80010E26821F4E0511143C8F875
:100B20000010000708D5D8F80000216920F46040C3
:100B300040EAC100C8F8000000F07CF8D8F80010C6
:100B400041F69652C1F30311C0F60002515C40F227
:100B5000080220FA01F140F20400C2F2000000682D
:100B6000C2F200021160FFF7F3FE0020BDE8F08141
:100B70006068811E022907D258F8081C89015CBFF1
:100B80000120BDE8F08111E0012807D158F8081CC8
:100B900089035CBF0120BDE8F08107E058F8081C1C
:100BA000890703D40120BDE8F08100BFD8F8001008
:100BB00021F003010843C8F80000FFF799FE06463C
:100BC00041F28837D8F80000616800F00C00B0EB03
:100BD000810F8DD0FFF78CFE801BB842F2D9032025
:100BE000BDE8F08140F2080043F60801C2F20000BF
:100BF000C4F202010068096841F6A652C1F38221DD
:100C0000C0F60002515CC8407047000040F2080086
:100C100043F60801C2F20000C4F20201006809684C
:100C200041F6A652C1F34231C0F60002515CC84001
:100C30007047000010B543F60404C4F20204606873
:100C400000F00C0142F200400829C0F2F40007D085
:100C5000042918BF10BD41F20020C0F27A0010BD77
:100C6000216801F03F02216823684902C3F388111B
:100C700006D4A1FB00010023FFF7FAFA07E000BF4A
:100C800041F20020C0F27A004843B0FBF2F0216844
:100C90000222C1F3014102EB4101B0FBF1F010BDB2
:100CA0002DE9F04182B0002868D00446007843F670
:100CB0000006C007C4F202060BD0B06800F00C00BA
:100CC000042840F09F803068800302D560680028C7
:100CD00054D0207880071AD5B06810F00C0F09D0D6
:100CE000B06800F00C00082840F0A6807068400250
:100CF00000F1A2803068800702D5E06801283DD16C
:100D00003068216920F0F80040EAC10030602078A6
:100D1000000737D4207840074CD4A56955B3B06894
:100D200000F00C00082840F0BB80012D26D0706830
:100D3000E16900F480028A4220D1216A00F03F027A
:100D40008A421BD147F6C071626A0140B1EB821F33
:100D500014D1A16A4FF6FF73C903994300F44032DE
:100D6000A1F580318A4209D1E16A00F07060B0EBF0
:100D7000016F03D1002002B0BDE8F081012002B074
:100D8000BDE8F0816069002840F20000C4F247200D
:100D900076D00121C0F8801EFFF7AAFD054600BFEE
:100DA000706F8007B6D4FFF7A3FD401B0228F7D968
:100DB000DDE000BF306C10F080580AD100200190B7
:100DC000306C40F080503064306C00F08050019006
:100DD000019847F20007C4F200073868C00541D403
:100DE000386840F480703860FFF782FD054600BF28
:100DF0003868C00536D4FFF77BFD401B0228F7D9C1
:100E0000B5E000BFB06800F00C00082803D170689E
:100E100040023FF558AF6068B0F5803F07D0B0F5AD
:100E2000A02F40F08D80306840F480203060306822
:100E300040F4803030608DE0E068002852D000201F
:100E4000C4F2472001210160FFF752FD054600BFB3
:100E5000306880073FF554AFFFF74AFD401B02287A
:100E6000F6D984E0A068012805D005284ED1306F5E
:100E700040F004003067306F40F0010030674FE011
:100E80000021C0F8801EFFF733FD0546706F800714
:100E90007FF540AFFFF72CFD401B0228F6D966E036
:100EA0000027C4F2472700203866FFF721FD022DF6
:100EB00005460BD1306880015ED5FFF719FD401B58
:100EC00002284FF00300F5D955E700BF30688001D4
:100ED0007FF550AFFFF70CFD401B02284FF00300D9
:100EE000F4D948E70020C4F2472000210160FFF751
:100EF000FFFC0546306880077FF509AFFFF7F8FC77
:100F0000401B02284FF00300F4D934E7316F00286A
:100F100021F001013167316F21F0040131674DD0BB
:100F2000FFF7E6FC054641F2883700BF306F8007C7
:100F300056D4FFF7DDFC401BB842F7D917E000BFDD
:100F40003168002821F480313160316821F480213A
:100F500031604FD0FFF7CCFC054600BF30688003FE
:100F60003FF5B7AEFFF7C4FC401B6428F6D9032059
:100F700002B0BDE8F08100BF04F11C052FCD08438D
:100F800040EA8210D9034FF6FF729143A1F58031F8
:100F900040EA05600843706001203866FFF7A8FC4E
:100FA000044600BF306880013FF5E4AEFFF7A0FCC7
:100FB000001B02284FF00300F4D9DCE6FFF798FC91
:100FC000054641F2883700BF306F800708D5FFF72C
:100FD0008FFC401BB8424FF00300F5D9CBE600BFB1
:100FE000B8F1000F7FF499AE306C20F0805030647F
:100FF00093E600BFFFF77CFC054600BF3068800326
:101000007FF567AEFFF774FC401B64284FF00300C8
:10101000F4D9B0E6411E0020B0EB116F1CBF0120D7
:1010200070474EF21002CEF2000251604EF623518C
:10103000CEF20001F0230B70072190601160704721
:101040007047000070470000B0B582B004460068E9
:101050000168C368426901F02F05202D03F02005C7
:1010600006D12DB1204602B0BDE8B04000F0CABCA8
:101070005FEA017C1EBF02F0010E03F4907212EBD6
:101080000E0253D1226B012A05D111F0100218BFB4
:1010900013F0100236D10A0622D513F080021FD0B9
:1010A00094F8411021293FD1A168B1F5805F03D1A7
:1010B0002169002900F07282216A4A1C22620978A3
:1010C0004160E18C01390A04E1842DD1C16821F02D
:1010D0008001C160C16841F04001C16002B0B0BD93
:1010E000490621D513F040011ED0C16821F040010E
:1010F000C1602021204684F8411002B0BDE8B04014
:1011000000F0A8BB002101910168019141680191A3
:1011100001994069400613D4A08DE18DE28D002A2B
:1011200018BF884240F0BC8102B0B0BDCA0718BFEA
:1011300013F4807240F0B8804A0700F1BB80C0E031
:10114000E06B016849688AB2002AEDD0A38D9A420B
:10115000EAD2E185C069B0F5807F00F09C8020680C
:1011600050E8030F216820F4807041E80302DAB1EF
:10117000206850E8030F216820F4807041E80302E2
:1011800092B1206850E8030F216820F4807041E894
:1011900003024AB1206850E8030F216820F48070F0
:1011A00041E80302002ADAD1206850E8050F2168DF
:1011B00020F0010041E80502DAB1206850E8050F8F
:1011C000216820F0010041E8050292B1206850E852
:1011D000050F216820F0010041E805024AB12068AE
:1011E00050E8050F216820F0010041E80502002ABF
:1011F000DAD1206850E8050F216820F0400041E86E
:101200000502DAB1206850E8050F216820F040009F
:1012100041E8050292B1206850E8050F216820F0EE
:10122000400041E805024AB1206850E8050F2168F6
:1012300020F0400041E80502002ADAD1202084F89D
:10124000420000202063206850E8030F216820F04E
:10125000100041E80302DAB1206850E8030F21686A
:1012600020F0100041E8030292B1206850E8030F1B
:10127000216820F0100041E803024AB1206850E8DC
:10128000030F216820F0100041E80302002ADAD1A0
:10129000E06BFFF7E5F902206063A08DE18D401A55
:1012A00081B2204675E100BF626C42F001026264C7
:1012B0004A0706D5BEF1000F03D0626C42F002026D
:1012C00062648A0706D5BEF1000F03D0626C42F05B
:1012D00004026264BCF1000F09D545EA0E02B2FABD
:1012E00082F2520903D1626C42F008026264626CBD
:1012F000002A3FF419AF11F0200118BF002D03D0D0
:10130000204600F07FFB20684069616C00F04000DF
:1013100001F00801401800F0B58000BF206850E8D7
:10132000030F216820F4907041E80302BAB32068EB
:1013300050E8030F216820F4907041E8030272B373
:10134000206850E8030F216820F4907041E8030200
:101350002AB3206850E8030F216820F4907041E818
:101360000302002ADAD11AE0206850E8050F21684C
:1013700020F0010041E80502DAB1206850E8050FCD
:10138000216820F0010041E8050292B1206850E890
:10139000050F216820F0010041E805024AB12068EC
:1013A00050E8050F216820F0010041E80502002AFD
:1013B000DAD1206B012824D1206850E8030F21687E
:1013C00020F0100041E80302DAB1206850E8030F72
:1013D000216820F0100041E8030292B1206850E833
:1013E000030F216820F0100041E803024AB1206891
:1013F00050E8030F216820F0100041E80302002AA2
:10140000DAD1202084F8420000202063206840695F
:1014100040063FD5206850E8050F216820F04000C5
:1014200041E80502DAB1206850E8050F216820F094
:10143000400041E8050292B1206850E8050F21689C
:1014400020F0400041E805024AB1206850E8050F4D
:10145000216820F0400041E80502002ADAD1E06B63
:10146000C0B141F6F911C0F600010165FFF740F97E
:1014700000283FF459AEE06B016D02B0BDE8B0400A
:10148000084700BF2046FFF7DDFD0020606402B082
:10149000B0BD00BF204602B0BDE8B040FFF7D2BDEE
:1014A000401A216851E8031F226821F4907142E834
:1014B0000313DBB1216851E8031F226821F4907106
:1014C00042E8031393B1216851E8031F226821F415
:1014D000907142E803134BB1216851E8031F226861
:1014E00021F4907142E80313002BDAD1216851E80E
:1014F000051F226821F0010142E80513DBB12168D4
:1015000051E8051F226821F0010142E8051393B15B
:10151000216851E8051F226821F0010142E8051306
:101520004BB1216851E8051F226821F0010142E812
:101530000513002BDAD1202184F842100021216309
:10154000216851E8031F226821F0100142E80313CB
:10155000DBB1216851E8031F226821F0100142E845
:10156000031393B1216851E8031F226821F0100191
:1015700042E803134BB1216851E8031F226821F0B0
:10158000100142E80313002BDAD1022281B2204677
:10159000626302B0BDE8B040FFF752BD216A31F886
:1015A000022B6FF35F22426021628AE5002804BFAC
:1015B0000120704710B5044690F8410028B900207A
:1015C00084F84000204600F021F8242084F84100EF
:1015D0002068C16821F40051C160204600F092FAF1
:1015E0002068016921F490410161416921F02A01DB
:1015F0004161C16841F40051C16000202021606454
:1016000084F8411084F84210606310BD10B586B0B4
:10161000006844F20042C4F2000200219042CDE989
:101620000411CDE90211019122D041F20001C4F26E
:10163000010188424DD1002043F630010090C4F2F0
:1016400002014A69252442F010024A614A6902F007
:1016500010020092009A0090086840F001000860B3
:10166000086800F00100009000984FF4C06019E095
:1016700043F630000091C4F202000269262442F4CD
:1016800000320261026902F400320092009A009175
:10169000016841F001010160006800F00100009064
:1016A00000980C200190022002900020039003205B
:1016B0000490072005900020C4F2020001A9FFF762
:1016C0003DF8204600210022FFF7A0F92046FFF751
:1016D00089F906B010BD0000704700002DE9F04107
:1016E000044690F8410020281CBF0220BDE8F0818C
:1016F0000D4600294FF0010000F0AA801646002A8E
:1017000008BFBDE8F081002060642120984684F87D
:101710004100FFF7EDF8A684E684A1680646B1F51E
:10172000805F02D12069002862D02F460025E08C1E
:10173000002861D018F1010018D0B8F1000F37D19E
:10174000216808E017F8010B4860E08C0138E0845C
:10175000E08C002851D00868000673D5002FF1D125
:1017600035F8020B00276FF35F20EDE7216802E0F8
:101770000868000609D40868000606D40868000650
:101780005CBF08685FEA0060F2D51FB117F8010B73
:1017900005E000BF35F8020B00276FF35F204860BB
:1017A000E08C0138E084E08C0028E4D125E000BF23
:1017B000216800BF0868000608D4FFF799F8801B6D
:1017C000404541D82168C868F4E700BF17B117F851
:1017D000010B04E035F8020B00276FF35F2048602F
:1017E000E08C0138E084E08C0028E3D105E000BF04
:1017F0000027E08C00289DD12168086840061FD48E
:10180000B8F1000F1ED018F101000FD10868400692
:1018100016D40868400613D40868400610D4086837
:1018200040064FF00000F1D50FE000BFFFF760F871
:10183000801B404508D82068C16800684006F5D57F
:10184000002002E0FFF754F80320202184F8411023
:10185000BDE8F08170470000FEE7000080B586B06B
:10186000002043F63001CDE904000090C4F20201EB
:101870000A6842F080020A600A6802F08002009260
:10188000009A00900A6842F001020A60096801F0BB
:101890000101009100991021CDE901100390002071
:1018A000C4F2020001A9FEF749FF06B080BD0000A6
:1018B00080B540F2B40041F20001C2F20000C4F26F
:1018C000010100234FF00C0C4FF4E13280E80E00D0
:1018D000C0E90333C0E905C3C361FFF767FE002811
:1018E00008BF80BDBDE88040FEF7B6BE80B540F2BF
:1018F000FC0044F20041C2F20000C4F200010023E7
:101900004FF00C0C4FF4E13280E80E00C0E90333D5
:10191000C0E905C3C361FFF749FE002808BF80BDC9
:10192000BDE88040FEF798BEFEE70000FEE700003D
:10193000704700007047000070470000FEF7DEBFF0
:10194000B0B592B0002443F64000CDE90A44CDE999
:1019500008440594CDE90344CDE901440094C4F260
:1019600002000168022541F080510160006800F02A
:1019700080500090009847F200000094C4F20000EC
:10198000016841F4804101600068482100F4804012
:1019900000900098012006904FF4803007904FF49B
:1019A00080000D9004200E90119006A80C95CDE9B2
:1019B0000F15FFF775F918B172B600BFFEE700BF4B
:1019C0000F20CDE901054FF48050CDE9040401A8B2
:1019D00002210394FFF756F810B172B6FEE700BF7C
:1019E00012B0B0BD4EF68850CEF20000016841F44E
:1019F0007001016070470000806B0021C185C184C7
:101A0000FFF720BB81B090F84210222921D18368D2
:101A10000246B3F5805F09D152F8281F52F8183CEE
:101A2000002B63D003685B680AE000BF52F8281FF0
:101A300013B90369002BF5D003685B6803F07F03DB
:101A40000B70116801311160C18D01390A04C18523
:101A500002D001B0704700BF0168CA6822F02002BE
:101A6000CA60CA6822F48072CA604A6922F0010220
:101A70004A61202180F8421000214163026B012A53
:101A80003CD10163016851E8031F026821F0100195
:101A900042E80313DBB1016851E8031F026821F03B
:101AA000100142E8031393B1016851E8031F026873
:101AB00021F0100142E803134BB1016851E8031F04
:101AC000026821F0100142E80313002BDAD101680B
:101AD0000A68D20606D5002200920A680092496878
:101AE00000910099818D01B0FFF7AABA026852688F
:101AF0006FF35F2221F8022B8162A5E701B0FFF7A7
:101B0000EBBD000010B504460068D4E902C22369A9
:101B1000016921F4405111430161626943EA0C01FA
:101B2000E3691143C268194349F20C639A431143B4
:101B3000C1604169A26921F4407141F2004311433F
:101B400040F48062C4F201039A42416102D1FFF77E
:101B50005DF801E0FFF746F8E16963681922B1F525
:101B6000004FA0FB020123D15A00DB0FFEF780FBE0
:101B700048F21F51C5F2EB11A0FB01235A094FF6A1
:101B80009C73C0F6FF7303F1805302FB0300322302
:101B900003EBC000A0FB01014FF4F87000EA111044
:101BA00000EB0210C1F3421108442168886010BDA7
:101BB0009A009B0FFEF75CFB48F21F51C5F2EB1138
:101BC000A0FB01235A094FF69C73C0F6FF7302FB7A
:101BD0000300322303EB0010A0FB0101F02000EA18
:101BE000511000EB0210C1F34311084421688860D2
:101BF00010BD000040F2B400C2F20000FFF724BAAA
:101C000040F2FC00C2F20000FFF71EBAFEE700003F
:101C1000FEF782FEFFF794FEFFF720FEFFF748FE77
:101C2000FFF764FE40F27006C2F20006B41C2FA15A
:101C300020462122FEF724FC40F2B40541F6B359B8
:101C400041F6BA5B41F6AE58C2F20005C0F6000993
:101C5000C0F6000BC0F600080FF2001A40A723E000
:101C60003046012100F8021B33A12122FEF708FCB7
:101C70002046FEF7E6FB82B2284621464FF0FF33AE
:101C8000FFF72CFD4FF47A70FEF744FD3078717841
:101C900000285A4608BF4A4601295346204639467D
:101CA00008BF4346FEF75CFB2046FEF7CAFB82B244
:101CB000284621464FF0FF33FFF710FD0020C4F205
:101CC00002001021FEF70EFE31780028707008BF68
:101CD0000029C5D0012808BF0129D3D130460021F1
:101CE00000F8021B0AA12522C0E700BF4669726501
:101CF0002053656E736F72204D6F6E69746F7269D9
:101D00006E6720537461727465640D0A00000000F0
:101D10004E6F20466972652044657465637465641E
:101D20002E2050696E205374617475733A204849AF
:101D300047480D0A0000000046697265204445547A
:101D40004543544544212050696E20537461747595
:101D5000733A204C4F570D0A000000004C4F5700BB
:101D600046697265205374617475733A2025732037
:101D70002850696E3A202573290D0A00F1EE100AE9
:101D80004FF6FF71C0F2C03120EA010040F0407010
:101D9000E1EE100A704700000000000000000102A0
:101DA0000304060708090000000001020304484973
:101DB0004748004E4F524D414C00414C41524D005E
:101DC000E01D00080000002010000000C401000811
:101DD000F01D00081000002038070000E001000896
:101DE00001000000100000000024F40000000000CA
:040000050800018965
:00000001FF
