:020000040800F2
:10000000600700205D020008A91C0008A11C000870
:10001000A51C00085D0600082D2200080000000055
:10002000000000000000000000000000F11C0008BB
:100030006106000800000000ED1C0008F51C000827
:100040008102000881020008810200088102000884
:100050008102000881020008810200088102000874
:100060008102000881020008810200088102000864
:100070008102000881020008810200088102000854
:100080008102000881020008810200088102000844
:100090008102000881020008810200088102000834
:1000A0008102000881020008810200088102000824
:1000B0000D1D0008351D000881020008810200089E
:1000C0008102000881020008810200088102000804
:1000D00081020008D5210008810200088102000881
:1000E00081020008810200088102000881020008E4
:1000F00081020008810200088102000881020008D4
:1001000081020008810200088102000881020008C3
:1001100081020008810200088102000881020008B3
:1001200081020008810200088102000881020008A3
:100130008102000881020008810200088102000893
:100140008102000881020008810200088102000883
:100150008102000881020008810200088102000873
:100160008102000881020008810200088102000863
:1001700081020008810200088102000800000000DE
:10018000810200088102000800F002F800F057F830
:1001900014A696E8000CB244B344DA4501D100F04D
:1001A0004EF8BAE80F000FA696E83000A5EB04055C
:1001B00004EB0607AAEB0704A7F101074FEA1515A0
:1001C0004FEA3414A4F10104AC4201D300F037F833
:1001D00013F0010F18BFFB1A43F0010300F001F800
:1001E000DBE7184790AE0000B0AE0000103A24BF25
:1001F00078C878C1FAD8520724BF30C830C144BF8C
:1002000004680C6070470000704700000023002461
:1002100000250026103A28BF78C1FBD8520728BF16
:1002200030C148BF0B607047642900F0F7800020A0
:1002300070471FB507F03BFF1FBD10B510BD00F0A4
:10024000DBF91146FFF7F5FF07F080FE00F0F9F942
:1002500003B4FFF7F2FF03BC01F0EAFF0C480168AA
:1002600041F4700101600B4880470B480047FEE7EE
:10027000FEE7FEE7FEE7FEE7FEE7FEE7FEE7FEE756
:10028000FEE7000005480649044A064B7047000097
:1002900088ED00E0F91C00088901000860030020D7
:1002A0006007002060030020704753EA020C00F052
:1002B00069802DE9F04B4FF00006002B1FBFB3FA09
:1002C00083F503FA05F424FA05F65E4012BF1643DF
:1002D000B2FA82F502FA05F4C5F120051EBF22FA32
:1002E00005FC44EA0C04203556EA044C4FEA144459
:1002F00018BF641C4FF000084FF00009904271EBEA
:10030000030C39D3002919BFB1FA81F701FA07F6B6
:10031000B0FA80F700FA07F6C7F120071EBF20FAEF
:1003200007FC46EA0C062037B6FBF4FCA7EB0507F2
:10033000103F07F01F0BCBF120062CFA06F60CFA43
:100340000BFB44BFB3460026202FA4BF5E464FF0F0
:10035000000B5BEA060C08BF4FF0010B19EB0B0911
:1003600048EB0608ABFB027C06FB02CC0BFB03CC84
:10037000C01B71EB0C01C1E70B46024641464846E3
:10038000BDE8F08B13B5084318BF4FF0FF300146AE
:10039000AFF30080BDE81C40704700000FB4044973
:1003A00010B503AA029800F0F9F810BC5DF814FB30
:1003B0007C0000202DE9F0410E460446002020621A
:1003C0002046E168884730B3252805D0D4E90121CB
:1003D0009047206A401CF2E7E168204600278847E2
:1003E000050018D0A5F14100192802D820354FF496
:1003F00000673246294620462760FFF715FF40B1C7
:10040000012804D0F61D26F007060836D8E7361D69
:10041000D6E72846DAE7206ABDE8F0812DE9F04109
:100420000646002410687529314616A510D0AFF392
:100430000080002802DA404213A507E031688A07ED
:1004400001D512A502E0490704D511A5012401E058
:10045000AFF3008000210A2206F1240709E0B0FB77
:10046000F2FCB0FBF2F302FB1C003030785418466B
:10047000491C0028F3D123462A463046BDE8F04106
:1004800000F033B8000000002D0000002B00000039
:10049000200000004FF0000200B513469446964637
:1004A000203922BFA0E80C50A0E80C50B1F1200187
:1004B000BFF4F7AF090728BFA0E80C5048BF0CC035
:1004C0005DF804EB890028BF40F8042B08BF704793
:1004D00048BF20F8022B11F0804F18BF00F8012B05
:1004E000704770477047704770472DE9F0470D46D9
:1004F00099469246044600F124080168880604D50E
:10050000E06921F01001216000E00120A84201DD36
:10051000471B00E00027A1697A1902EB0900081ABD
:10052000A0612078C00602D42046AFF300800026E8
:1005300008E0D4E901211AF806009047206A401C1F
:10054000761C20624E45F4DB2078C0060AD5204692
:10055000AFF3008006E0D4E9012130209047206A03
:10056000401C2062381EA7F10107F4DC07E0D4E943
:10057000012118F805009047206A401C2062281EBF
:10058000A5F10105F3DC2046AFF3008020780006DA
:1005900002D50220BDE8F0870120FBE7074B70B5CC
:1005A0000D467B4400F011F80446284600F020F880
:1005B00010B14FF0FF3070BD204670BD771D0000B8
:1005C00001694A1C02610878704700B58FB0CDE917
:1005D00001310021059105497944CDE90310114607
:1005E0006846FFF7E7FE0FB000BD0000E5FFFFFF24
:1005F000007B00F080007047754600F02BF8AE4697
:1006000005006946534620F00700854618B020B51E
:10061000FFF738FEBDE820404FF000064FF000071E
:100620004FF000084FF0000BAC46ACE8C009ACE856
:10063000C009ACE8C009ACE8C00921F007018D464B
:10064000704710B50446AFF300802046BDE8104067
:10065000FFF7FEBD0048704718000020FEE70000CD
:1006600070470000B3F5804F034618D1B0B553F87A
:1006700022C00020CCF6F0700CEA000CD1E9000E8C
:10068000D1E9024540EA0C0040EA0E10896940EACF
:10069000042040EA05400143BDE8B04001E06FF0AE
:1006A0007041002043F82210704700002DE9F0430C
:1006B000D1E900E8844601F1080999E879025CF87B
:1006C0002E208027CFF6F0773A4042EA08021A43FC
:1006D00022432A4332430B6A42EA09024C6A1A4314
:1006E0008B6A2243CC6A1A43CB6B2243096B1A43B1
:1006F0001143014308284FF0000008BF41F04001BA
:100700004CF82E10BDE8F083F0B500EB8202506883
:10071000D1E902E400F0404CD1E90030D1E90456BF
:1007200043EA0C03002743EA0010CFF6F07740EAD3
:100730000E20896907EB055540EA04402843FE3640
:10074000084340EA066100205160F0BD70B5866D37
:10075000044600F02BF994F83510022928D10546FB
:100760002068216C026822F016020260426922F0C1
:100770008002426109B9A16C19B1016821F0080138
:100780000160016821F00101016000BF206800687C
:10079000C00714D000F00AF9401B0628F6D3202029
:1007A0006065002084F83400032084F8350070BDB3
:1007B00080206065002084F83400012070BDE06D69
:1007C0003F2101FA00F0B0600020012184F83400DC
:1007D00084F8351070BD000090F83510022909D159
:1007E000052180F835100068016821F001010160E1
:1007F0000020704780214165012070472DE9F04FAE
:1008000083B000F1200200F13E4741F6004500921E
:1008100007F1FF77C4F2020508224FEAB726A84283
:1008200008BF0722072E38BF4FEAB72200274FF034
:10083000000A4FF0000801920AE000BF08F1010829
:100840000AF1020AB8F1100F07F1040700F09C80CA
:100850000D68012202FA08FB15EA0B09EED04D687B
:1008600005F0030EAEF10102012A4FF0030202FA75
:100870000AFC10D88268CC6822EA0C0204FA0AF456
:10088000224382604268C5F3001422EA0B0204FA94
:1008900008F422434260BEF1030F1CD0C2688C688A
:1008A00022EA0C0204FA0AF42243BEF1020FC260EB
:1008B00011D16FF00302009D02EA580207F01C04F8
:1008C0000F2355F802E003FA04F60B692EEA060638
:1008D000A3403343AB5002684B6822EA0C0203F09A
:1008E000030606FA0AF63243DB000260A6D50022B0
:1008F00043F644030292C4F202031A6843F600442A
:1009000042F480421A601A68C4F2010402F4804280
:100910000292029A28F003024FF6084C2244CFF6C6
:10092000FF7C52F80C3007F00C060F25B540AB43A6
:10093000019D05FA06F6334342F80C3022684B68F5
:1009400042EA0906DD0358BF22EA0906266062680A
:100950009D0342EA090658BF22EA09066660A268BA
:10096000DD0242EA090643F60C4558BF22EA0906B1
:10097000A660C4F201052A689B0242EA090658BF34
:1009800022EA09062E6059E703B0BDE8F08F0000A7
:10099000002A08BF090481617047000042F200008C
:1009A000CEF204000068000C7047000040F22030D6
:1009B000C2F200000068704740F20C0040F22031A3
:1009C000C2F20000C2F2000100780A681044086018
:1009D0007047000080B543F60040C4F20200016891
:1009E00041F400710160016841F4806101600320FD
:1009F00000F070F80F2000F005F800F02BF8002050
:100A000080BD0000B0B540F20C02C2F2000240F21C
:100A100004011278C2F200014FF47A730968B3FB43
:100A2000F2F20446B1FBF2F1084600F099FB0F2CFC
:100A30004FF001050CD858B94FF0FF302146002285
:100A4000002500F01BF840F21000C2F20000046024
:100A50002846B0BD70470000002848BF704700F02E
:100A60001F01012202FA01F11C2202EAD0004EF21B
:100A70000012CEF2000281507047000010B54EF611
:100A80000C5CCEF2000CDCF80030C3F3022E8EF0CA
:100A90000704042C28BF0424BEF103034FF0FF3EDB
:100AA0000EFA04F438BF0023A14399400EFA03F371
:100AB0009A43114300F1604200F00F03090102F56F
:100AC0006442043B6344002848BF03F10C021170E8
:100AD00010BD00004EF60C51CEF200010A684FF630
:100AE000FF031A4060F30A2242F0806040F0FD707C
:100AF00008607047002804BF012070472DE9F041CD
:100B000043F60808C4F202080446D8F8F8030D4674
:100B100000F00700884207D288F8F853D8F8F803A5
:100B200000F00700A84276D12068810717D5410759
:100B300005D5D8F8001041F4E051C8F800100107BD
:100B400005D5D8F8001041F46041C8F80010D8F875
:100B50000010A26821F0F0011143C8F80010C0078E
:100B60003FD1D8F8F80300F00700A84207D988F869
:100B7000F853D8F8F80300F00700A8424BD12068DA
:100B8000410707D5D8F80010E26821F4E05111437D
:100B9000C8F80010000708D5D8F80000216920F433
:100BA000604040EAC100C8F8000000F07BF8D8F8C7
:100BB000001048F2D602C1F30311C0F60002515CE6
:100BC00040F2040220FA01F140F21000C2F20000EB
:100BD0000068C2F200021160FFF714FF0020BDE8B8
:100BE000F0816068811E022907D258F8081C89012B
:100BF0005CBF0120BDE8F08110E0012807D158F862
:100C0000081C89035CBF0120BDE8F08106E058F8AC
:100C1000081C890702D40120BDE8F081D8F8001033
:100C200021F003010843C8F80000FFF7BFFE0646A5
:100C300041F28837D8F80000616800F00C00B0EB92
:100C4000810F8ED0FFF7B2FE801BB842F2D903208D
:100C5000BDE8F08140F2040043F60801C2F2000052
:100C6000C4F202010068096848F2E602C1F3822179
:100C7000C0F60002515CC8407047000040F204001A
:100C800043F60801C2F20000C4F2020100680968DC
:100C900048F2E602C1F34231C0F60002515CC8409E
:100CA0007047000010B543F60404C4F20204606803
:100CB00000F00C0142F200400829C0F2F40007D015
:100CC000042918BF10BD41F20020C0F27A0010BD07
:100CD000216801F03F02216823684902C3F38811AB
:100CE00005D4A1FB00010023FFF7DFFA06E041F283
:100CF0000020C0F27A004843B0FBF2F021680222E3
:100D0000C1F3014102EB4101B0FBF1F010BD000065
:100D1000002804BF012070472DE9F04182B004464D
:100D2000007843F60006C007C4F2020649D0B06856
:100D300000F00C00042809D13068800341D56068B8
:100D400000283ED1012002B0BDE8F081B06800F07B
:100D50000C00082802D170684002EDD46568306844
:100D6000B5F5A02F05D0B5F5803F09D140F480300E
:100D70000CE040F480203060306840F4803005E0C2
:100D800020F480303060306820F480203060FFF73D
:100D90000DFE002D054611D03068800311D4FFF7F9
:100DA00005FE401B6428F7D928E100BFFFF7FEFDD0
:100DB000401B64284FF0030000F2E080306880039D
:100DC000F4D4207880071BD5B06810F00C0F09D040
:100DD000B06800F00C00082840F085807068400280
:100DE00000F181803068800703D5E068012840F079
:100DF0009A803068216920F0F80040EAC100306034
:100E00002078000734D42078400746D4A5695DB324
:100E1000B06800F00C00082840F09C80012D00F024
:100E200082807068E16900F480028A427BD1216A85
:100E300000F03F028A4276D147F6C071626A0140F3
:100E4000B1EB821F6FD1A16A4FF6FF73C9039943BB
:100E500000F44032A1F580318A4264D1E16A00F0A9
:100E60007060B0EB016F5ED1002002B0BDE8F08190
:100E7000606900285BD00020C4F247200121C0F83F
:100E8000801EFFF793FD0546706F8007BBD4FFF708
:100E90008DFD401B0228F7D9B0E0306C5FEAC00836
:100EA0000AD400200190306C40F080503064306CE7
:100EB00000F080500190019847F20007C4F200074B
:100EC0003868C00526D4386840F480703860FFF771
:100ED0006DFD05463868C0051CD4FFF767FD401B53
:100EE0000228F7D98AE0E068002840F20000C4F246
:100EF000472053D001210160FFF758FD054600BF90
:100F0000306880073FF575AFFFF750FD401B0228A2
:100F1000F6D973E0A568306F052D51D0012D56D15B
:100F200040F0010059E0012002B0BDE8F08100204E
:100F3000C4F247200021C0F8801EFFF737FD0546A8
:100F4000706F80077FF55FAFFFF730FD401B022811
:100F5000F6D953E00027C4F2472700203866FFF790
:100F600025FD022D05460DD1306880015DD5FFF7C6
:100F70001DFD401B02284FF00300F5D902B0BDE86B
:100F8000F08100BF306880017FF56EAFFFF70EFD86
:100F9000401B02284FF00300F4D9EFE70021016065
:100FA000FFF704FD054600BF306880077FF528AFD6
:100FB000FFF7FCFC401B02284FF00300F4D9DDE7EB
:100FC00040F004003067306F40F0010005E020F091
:100FD00001003067306F20F004003067FFF7E6FC57
:100FE000002D054641F2883713D000BF306F8007CF
:100FF00012D4FFF7DBFC401BB842F7D9032002B044
:10100000BDE8F081FFF7D2FC401BB8424FF003006F
:10101000B4D8306F8007F5D4B8F1000F3FF5F6AEC5
:10102000306C20F080503064F0E604F11C052FCDC8
:10103000084340EA8210D9034FF6FF729143A1F5AD
:10104000803140EA05600843706001203866FFF790
:10105000ADFC0446306880013FF506AFFFF7A6FC03
:10106000001B02284FF00300F4D987E7002804BFD3
:101070000120704770B5044690F8490015460E46A9
:1010800028B9002084F84800204600F01BF82068AA
:1010900004F10801FFF70AFB2068A2683146FFF758
:1010A00033FBD4E90102236B2946FFF7DBFA206802
:1010B000A16850F8212042F0010240F821200020D0
:1010C00070BD0000B0B586B0002043F6300101903D
:1010D000C4F202018A6840F6004442F001028A60CC
:1010E0008A68C4F2020402F001020192019A01909E
:1010F0000A6801AD42F008020A600A6802F00802BC
:101100000192019A0190086840F010000860086898
:10111000012100F01000019001984CF20370019041
:1011200002200290CDE903100C20059020462946AC
:10113000FFF764FB4FF68070019004F5806029464C
:10114000FFF75CFB06B0B0BD4EF21001CEF200011D
:101150000A68042822F0040208BF04320A607047BB
:10116000411E0020B0EB116F1CBF012070474EF2F2
:101170001002CEF2000251604EF62351CEF2000171
:10118000F0230B700721906011607047002804BFA6
:101190000120704710B5044690F83D0028B90020A2
:1011A00084F83C00204600F01FF8022084F83D003F
:1011B0002068211D00F04AFE012084F8460084F8D2
:1011C0003E0084F83F0084F8400084F8410084F831
:1011D000420084F8430084F8440084F8450084F811
:1011E0003D00002010BD00007047000090F83D1049
:1011F00001291CBF01207047022180F83D100068C2
:1012000041F2FF72C168C4F20002904241F0010154
:10121000C1600DDC40F2FF71C4F20001884215DCB0
:10122000B0F1804F29D040F20041C4F2000122E029
:1012300040F2FF31C4F20101884212DC41F60001A4
:10124000C4F20001884218D0002112E040F60001EB
:10125000C4F20001884210D040F60041C4F20001FF
:1012600009E044F20001C4F20101884205D040F2D5
:101270000041C4F20101884206D1816801F00701F2
:10128000062904BF00207047016841F00101016098
:1012900000207047002804BF0120704710B50446A5
:1012A00090F83D0028B9002084F83C00204600F06A
:1012B0001FF8022084F83D002068211D00F0C6FDC3
:1012C000012084F8460084F83E0084F83F0084F84A
:1012D000400084F8410084F8420084F8430084F818
:1012E000440084F8450084F83D00002010BD000053
:1012F000704700004122082908BF4022042908BF86
:101300003F22002908BF3E2245230829825C08BFEE
:101310004423042908BF4323002908BF4223012A8C
:101320004FF00102C35C08BF012B01D0104670478B
:10133000022249B1082913D0042914BF80F84120A2
:1013400080F83F2019B90FE080F83E2061B10829EC
:101350000DD0042914BF80F8452080F8432008E010
:1013600080F840200029F2D180F8422001E080F886
:101370004420006801F01F010122036A02FA01F112
:1013800023EA01020262026A114341F2FF72C4F2CF
:101390000002904201620DDC40F2FF71C4F20001D4
:1013A000884215DCB0F1804F29D040F20041C4F2F0
:1013B000000122E040F2FF31C4F20101884212DC58
:1013C00041F60001C4F20001884218D0002112E069
:1013D00040F60001C4F20001884210D040F60041FE
:1013E000C4F2000109E044F20001C4F201018842A4
:1013F00005D040F20041C4F20101884204D1816865
:1014000001F00701062903D0016841F001010160E4
:10141000002210467047000090F83C30012B04BFBA
:10142000022070474FEAB2020123032A80F83C30C1
:1014300000F2F7802DE9F043DFE802F002AF3D7DD6
:10144000036840F200461A6A43F4806522F0010204
:101450001A621C6A1A46D3F804C052F818EF8F6853
:1014600024F00204C4F20106B54244EA070405D19F
:10147000CF6824F00C0427F004073C430F68B54202
:1014800006D1D1E905582CF440762E4346EA080CE3
:101490002EF073063743C3F804C09F614F68096993
:1014A0005F631C629F6947F008079F619F6927F08F
:1014B00004079F61B0E0036840F200481A6A43F4F1
:1014C000806522F480721A621C6A1A46D3F804C03E
:1014D00052F81CEF8F6824F40074C4F201084545EB
:1014E00044EA072408D1CF6840F2FF463F0224F4C3
:1014F000406427EA06063443D1F80090454506D1FA
:10150000D1E905562CF440572E4347EA061C2EF02D
:10151000730747EA0907C3F804C0DF614F68096928
:10152000DF631C62DF6947F00807DF61DF6927F0CE
:101530000407DF6170E0036840F200451A6A43F473
:10154000806722F480521A621A46D3F820C05C6881
:1015500052F81C8FD1F800E08E68C4F20105AF424A
:1015600004D14D6924F4804444EA85142CF40057D6
:1015700047EA063728F4E64646EA0E265C60DE6156
:101580004E6809691E641F62DF6947F40067DF6106
:10159000DF6927F48067DF613DE0036840F20048BF
:1015A0001A6A43F4806522F010021A621C6A1A4615
:1015B000D3F804C052F818EF8F6824F02004C4F266
:1015C0000108454544EA071407D1CF686FF040068B
:1015D00024F0C00406EA07163443D1F800904545CC
:1015E00006D1D1E905562CF440672E4347EA860C14
:1015F0002EF4E64747EA0927C3F804C09F614F6805
:1016000009699F631C629F6947F400679F619F6936
:1016100027F480679F610902136819431160BDE8D0
:10162000F043002180F83C1000207047002804BFE0
:101630000120704710B5044690F83D0028B90020FD
:1016400084F83C00204600F01FF8022084F83D009A
:101650002068211D00F0FAFB012084F8460084F880
:101660003E0084F83F0084F8400084F8410084F88C
:10167000420084F8430084F8440084F8450084F86C
:101680003D00002010BD0000016842F20000C4F2DD
:101690000000814218BF704780B586B0002143F634
:1016A00030020191C4F20202136800F5FA3043F0EF
:1016B00020031360136803F020030193019B019141
:1016C000116941F4807111611169012201F4807185
:1016D000019101994FF40071019102210291CDE92C
:1016E00003210921059101A9FFF788F806B0BDE89B
:1016F000804070474122082908BF4022042908BFC2
:101700003F22002908BF3E22825C012A1CBF012023
:101710007047022241B1082909D0042914BF80F87A
:10172000412080F83F2004E080F83E2001E080F86E
:101730004020006801F01F010122036A02FA01F152
:1017400023EA01020262026A0A4341F2FF71C4F213
:101750000001884202620BDC40F2FF71C4F200011A
:10176000884213DCB0F1804F45D040F2004115E0D3
:1017700040F2FF32C4F20102904214DC41F6000351
:10178000C4F20003984236D0002314E040F6000172
:10179000C4F2000188422ED040F60041C4F200019C
:1017A000884228D02EE044F20003C4F2010398429C
:1017B00021D040F20043C4F20103984222D1436C8D
:1017C000884243F400434364C6DD904207DC41F69F
:1017D0000001C4F2000188420DD0002107E044F26C
:1017E0000001C4F20101884205D040F20041C4F278
:1017F0000101884206D1816801F00701062904BF72
:1018000000207047016841F001010160002070472D
:10181000B0B5044690F83C0001284FF0020008BF24
:10182000B0BD012584F83C5084F83D00204600F00E
:101830009FFB00284FF0010009D12068C16821F00A
:101840004001C160C16821F48041C16000200021D5
:1018500084F83D5084F83C10B0BD00007047000093
:101860007047000090F83D1090F83E000843C0B269
:1018700070470000B0B582B002681168D46853693F
:1018800001F02F05202D04F0200505D125B102B06F
:10189000BDE8B04000F0DEBB5FEA017C1EBF03F094
:1018A000010E04F4907313EB0E0340D1036BCD06CD
:1018B00018D5012B16D114F0100313D0002101917B
:1018C000116801915168019101995169490647D404
:1018D000818DC38DC58D002D18BF994240F0D780F2
:1018E00002B0B0BD0B062AD514F0800327D090F8C3
:1018F0003D102129F4D18168B1F5805F03D10169E0
:10190000002900F0E180016A4B1C036209785160F4
:10191000C18C01390B04C184E2D1D06820F0800071
:10192000D060D06840F04000D06002B0B0BDCA07BF
:1019300018BF14F4807240D14A0744D44AE04906E3
:10194000CED514F04001CBD0D16821F04001D16058
:10195000202180F83D1002B0BDE8B04000F09EB9F3
:10196000816B0B685B689DB2002DB9D0848DA54258
:10197000B6D2C385CB69B3F5807F19D0D36804464E
:1019800023F48073D360536923F0010353615369D7
:1019900023F040035361202380F83E30002303638B
:1019A000D368084623F01003D360FEF7CFFE20462D
:1019B000818DC28D891A89B27CE0026C42F00102ED
:1019C00002644A0706D5BEF1000F03D0026C42F054
:1019D000020202648A0706D5BEF1000F03D0026C32
:1019E00042F004020264BCF1000F06D55EEA050273
:1019F00003D0026C42F008020264026C002A3FF439
:101A00006FAF890604D51DB1044600F023FB2046C4
:101A100001684A69036C02F0400203F00803D2181F
:101A20002ED0CA6822F49072CA604A6922F001027C
:101A30004A61026B012A03D1CA6822F01002CA600F
:101A4000202280F83E20002202634A69520636D5E1
:101A50004A6922F040024A61816B81B342F2490235
:101A6000C0F60002044608460A65FEF7B5FE0028E7
:101A70003FF436AFA06B016D02B0BDE8B04008473F
:101A80000446FFF7EDFE0020206402B0B0BDD5682B
:101A9000C91A25F49075D560556989B225F00105FC
:101AA0005561202580F83E5000250563D56825F056
:101AB0001003D36002B0BDE8B040FFF7CFBE02B064
:101AC000BDE8B040FFF7CCBE016A31F8023B6FF3CE
:101AD0005F23536001621BE7002804BF01207047A9
:101AE00010B5044690F83D0028B9002084F83C0069
:101AF000204600F021F8242084F83D002068C168C9
:101B000021F40051C160204600F0F4FA2068016918
:101B100021F490410161416921F02A014161C168CC
:101B200041F40051C16000202021206484F83D1060
:101B300084F83E1010BD000070B586B00024C4F2D9
:101B400002040068A4F57041884201D006B070BD5F
:101B5000002043F630010190C4F202014A6901AD50
:101B600042F010024A614A69072602F0100201920F
:101B7000019A01900A6842F001020A600A6802F0C4
:101B800001020192019A0190086840F0010008608A
:101B90000868012100F00100019001984FF40070E5
:101BA000019002200290CDE90310204629460596B7
:101BB000FEF724FE4FF480600190204629460596EA
:101BC000FEF71CFE2520FEF747FF252003210322F8
:101BD000FEF754FF06B070BD034690F83E00202883
:101BE0000AD100294FF0010018BF002A00D1704728
:101BF00093F83C00012801D10220704700201863AF
:101C0000996222219A85DA85186483F83E10196852
:101C100083F83C00CA6842F48072CA604A6942F0A4
:101C200001024A61CA6842F02002CA60704700009F
:101C3000006841F20001C4F20101884200D07047FF
:101C400040F21030C2F20000B0F90010002948BF85
:101C5000704740F2D402C2F2000289B21378B1F5A3
:101C6000804F05D20D2B0ED141F480420280704787
:101C700048F2000C0022CFF6FF7C0A2B08BF41EA95
:101C80000C020280704740F24822C2F20002535414
:101C90004A1CC62988BF0022028070477047000096
:101CA000FEE70000FEE700007047000040F24C3005
:101CB0000021C2F20000C4F2A0110022C4F22002EE
:101CC00000230EC040F22430C2F20000C0E900330D
:101CD000836040F23C30C2F200000EC040F230306F
:101CE000C2F20000C0E90033836070477047000013
:101CF00070470000FEF760BE4EF68850CEF200003E
:101D0000016841F4700101607047000040F2281042
:101D1000C2F2000000680169C90706D040F2002144
:101D2000C2F200010A6801320A606FF0010101612C
:101D30007047000040F27010C2F2000000680169B4
:101D4000C90708BF70472DE9F04182B06FF001016B
:101D5000016140F22810C2F20000006840F6B8317C
:101D6000456A48F2E1326943C3F60F62A1FB0212F1
:101D7000D409002141624FF4784810273220142101
:101D800022460323CDE9007806F048F8C5F1150096
:101D900000EE100A40F2243040F24C31C2F2000052
:101DA000C2F2000190ED011AB8EE400A91ED004A2E
:101DB00030EE413A90ED022A91ED015A24EE033AB9
:101DC00031EE014A91ED026A30EE444A25EE005AA6
:101DD00034EE022A33EE053A26EE022A32EE032AC8
:101DE000BCEEC22A12EE105A80ED010A80ED021AF2
:101DF00032203C212A460323CDE9007806F00EF874
:101E000040F27806C2F20006308840F2B63228442A
:101E100080B2904238BF024632202821032332800C
:101E2000CDE9007805F0FAFF40F2B810C2F20000E8
:101E3000328803684BF26E00C0F6000021465A63F8
:101E400002B0BDE8F041FEF7A9BA000010B540F6B7
:101E5000FF3E0368C4F2000E40F2004C7045C4F22D
:101E6000010C0FDCB0F1804F19D040F20042C4F2F7
:101E70000002904213D040F60002C4F200029042E9
:101E80000DD010E040F60042C4F20002904206D0AD
:101E9000604504D00022C4F20102904203D14A6896
:101EA00023F07003134341F6FF72C4F20002904224
:101EB0000FDC704521DCB0F1804F41D040F2004290
:101EC000C4F2000290423BD040F60002C4F200028D
:101ED00034E043F6FF72C4F2010290421EDC42F28B
:101EE0000002C4F2000290422AD00022C4F2010291
:101EF000904225D0604523D026E040F60042C4F24F
:101F0000000290421CD041F60002C4F2000290424E
:101F100016D041F60042C4F200020FE044F2000283
:101F2000C4F2010290420BD044F60002C4F2010256
:101F3000904205D044F20042C4F20102904203D123
:101F4000CA6823F44073134323F080024B69D1F82D
:101F500000E08C681A430260C46240F48062C0F8FA
:101F600028E0624504BF096901630121416110BD98
:101F700080B5D0F800E0DEF80830D1E900C223F0E7
:101F8000770322F0070018436FF0030303EB3213CB
:101F900040EA0C00032BCEF8080053D8DFE803F02A
:101FA000023B172CBCF1050F04BF012080BDDEF8F9
:101FB0002000DEF8202022F00102CEF82020DEF8FA
:101FC0001820096922F0F00242EA011136E088681F
:101FD0000969DEF8202022F01002CEF82020DEF879
:101FE0001820DEF8203022F4704242EA013123F05A
:101FF000A00242EA001021E0D1E902020969DEF8FC
:102000000830104323F47F4340EA01201843CEF800
:102010000800002080BD88680969DEF82020DEF80D
:10202000203022F00A0223F00103CEF82030DEF83F
:102030001830104323F0F00343EA0111CEF81810D2
:10204000CEF82000002080BD806B0021C185C184B6
:10205000FFF706BC90F83E10222941D18268B2F504
:10206000805F01D10169E1B3816AB2F5805F07D079
:102070000AB9026922B10268526802F07F0201E0E7
:10208000026852680A70816A01318162C18D01392A
:102090000A04C18518BF704710B50168CA6822F0EC
:1020A0002002CA60CA6822F48072CA604A6922F0BB
:1020B00001024A61202280F83E20026B012A08D1E9
:1020C000CA68044622F01002CA60818DFFF7C6FB81
:1020D00002E00446FFF7ACFD00202063BDE810409D
:1020E00070470168826A49686FF35F2122F8021B1A
:1020F0008262CBE7B0B50446006804F108030ECB5A
:102100000569194325F440552A4302616269E36970
:102110001143C268194349F20C639A431143C160E9
:102120004169A26921F4407141F20043114340F436
:102130008062C4F201039A42416102D1FEF79EFD22
:1021400001E0FEF787FDE1694FF69C75636819228F
:10215000C0F6FF75B1F5004FA0FB02011CD15A007B
:10216000DB0FFEF7A2F848F21F51C5F2EB11A0FBFE
:1021700001235A0905F1805302FB0300322303EBCC
:10218000C000A0FB01014FF4F87000EA111000EB51
:102190000210C1F3421118E09A009B0FFEF785F878
:1021A00048F21F51C5F2EB11A0FB01235A0902FBB3
:1021B0000500322303EB0010A0FB0101F02000EA30
:1021C000511000EB0210C1F34311084421688860EC
:1021D000B0BD0000F0B581B040F20424C2F20004AA
:1021E0004FF6FE762046C0F20106FFF743FB0025BE
:1021F0002046FFF737FB202803D0B54205F1010543
:10220000F6D940F2042440F2D4050027C2F20004BB
:10221000C2F20005204629460122FFF7DDFC18B175
:10222000B74207F10107F5D901B0F0BDFEE70000A4
:102230007047000010B504460420FEF785FF40F209
:10224000D000C2F20000046010BD000070B545F679
:10225000EC41C0F27901A0FB01134FF407724EF27A
:10226000180103FB120E40F2D00CCEF20001B0F5C3
:10227000077FC2F2000C18D3DCF8000043F660526E
:10228000C0F20802504300BF51F8042C0D6800242E
:102290000E68AE42FCD02C44A41BAE4228BF1444AE
:1022A00084423546F4D3013BEED1BEF1000F08BFA6
:1022B00070BD51F8040CDCF800204FF47A730EFB6B
:1022C00002F20E685A4300230D68B542FCD0334435
:1022D0005B1BB54228BF034493422E46F4D370BD26
:1022E00080B54EF2180140F2D002CEF20001C2F2E7
:1022F000000251F804CC1268002302FB00FE0868BB
:102300000A688242FCD003449B1A824228BF63447D
:102310007345104628BF80BDF2E7000041F200017E
:10232000C4F201010A685206FCD5C2B24A60704785
:1023300070B58AB0002543F630010495CDE9025509
:10234000CDE900550595C4F202010A6940F228144E
:1023500042F001020A610A69C2F2000402F00102BD
:102360000592059A05950A6842F001020A6009681B
:102370004FF6FF7201F00101059105994FF0804180
:10238000C4E900102046C4E90252FEF783FF012091
:10239000022603210590CDE90660CDE90810002052
:1023A000C4F2020005A9FEF729FA07200090502088
:1023B000CDE9010669462046CDE90355FFF728FA25
:1023C0001C2001210322FEF759FB1C20FEF744FBD1
:1023D0002068C16841F00101C16020460021FEF77C
:1023E00089FF0AB070BD000010B582B0002243F62C
:1023F00040030192C4F202031C6844F002041C6012
:102400001B6840F2701403F002030193019BC2F2B7
:10241000000440F20043C4F20003C4E90220204655
:10242000C4E90031FEF7B2FE1D2001210222FEF7B1
:1024300025FB1D20FEF710FB204602B0BDE8104032
:10244000FEF7D4BEB0B588B040F2B8140025C2F291
:10245000000442F20002C4F20002C4E90250204625
:102460000795CDE90555CDE90355CDE90155C4E9F9
:102470000021FFF7DBF8602001904FF4FA70CDE9FE
:10248000020501A920460022FEF7C6FF20460021D2
:10249000FFF730F908B0B0BDF0B581B0CF20ADF88E
:1024A0000200BDF802008024ADF80200BDF8020071
:1024B000C6F6004424F8020C0020ADF80200BDF876
:1024C0000210C122ADF80210BDF802104FF0100C3E
:1024D0002180ADF80220BDF802104FF0010EADF8DA
:1024E0000210BDF802102A2721803021ADF8021019
:1024F000BDF80230ADF80230BDF802302380ED2384
:10250000ADF80230BDF80230ADF80230BDF802304F
:1025100024F8023C6423ADF80230BDF80230ADF877
:102520000230BDF8023023800323ADF80230BDF83D
:102530000230ADF80230BDF8023023801223ADF82E
:102540000230BDF80230ADF80230BDF80230238011
:102550008123ADF80230BDF80230ADF80230BDF88D
:1025600002302380E823ADF80230BDF80230ADF828
:102570000230BDF8023024F8023C8523ADF8023069
:10258000BDF80230ADF80230BDF802302380ADF85E
:1025900002C0BDF80230ADF80230BDF80230238031
:1025A0007A23ADF80230BDF80230ADF80230BDF844
:1025B00002302380CB23ADF80230BDF80230ADF8F5
:1025C0000230BDF8023024F8023C3923ADF8023065
:1025D000BDF80230ADF80230BDF8023023802C2364
:1025E000ADF80230BDF80230ADF80230BDF802306F
:1025F0002380ADF80200BDF80230ADF80230BDF81E
:10260000023023803423ADF80230BDF80230ADF83B
:102610000230BDF8023023800223ADF80230BDF84D
:102620000230ADF80230BDF802302380F723ADF858
:102630000230BDF80230ADF80230BDF8023024F8A7
:10264000023C2023ADF80230BDF80230ADF8023074
:10265000BDF802302380EA23ADF80230BDF8023025
:10266000ADF80230BDF8023024F8023CADF80200AB
:10267000BDF80230ADF80230BDF802302380ADF86D
:102680000200BDF80230ADF80230BDF80230238000
:10269000C023ADF80230BDF80230ADF80230BDF80D
:1026A000023024F8023C1B23ADF80230BDF80230A2
:1026B000ADF80230BDF802302380ADF80220BDF83D
:1026C0000220ADF80220BDF8022024F8022CADF85B
:1026D00002E0BDF80220ADF80220BDF80220228001
:1026E000C522ADF80220BDF80220ADF80220BDF8E9
:1026F000022024F8022CADF80210BDF80220ADF83B
:102700000220BDF802202280ADF80210BDF80210B0
:102710000A22ADF80210BDF802102180C721ADF8E1
:102720000210BDF80210ADF80210BDF8021024F836
:10273000021CB721ADF80210BDF80210ADF802106E
:10274000BDF8021021803621ADF80210BDF802104C
:10275000ADF80210BDF8021024F8021C4821ADF8B3
:102760000210BDF80210ADF80210BDF80210218071
:102770003A21ADF80210BDF80210ADF80210BDF814
:10278000021024F8021C5521ADF80210BDF8021009
:10279000ADF80210BDF802102180B121ADF8021091
:1027A000BDF80210ADF80210BDF8021024F8021CAA
:1027B000ADF80200BDF80210ADF80210BDF802102D
:1027C00021801A21ADF80210BDF80210ADF80210F8
:1027D000BDF802102180B621ADF80210BDF802103C
:1027E000ADF80210BDF8021024F8021CADF802206A
:1027F000BDF80210ADF80210BDF802102180A22130
:10280000ADF80210BDF80210ADF80210BDF80210CC
:102810002180F221ADF80210BDF80210ADF80210CF
:10282000BDF8021024F8021CADF80200BDF8021039
:10283000ADF80210BDF8021021802621ADF802107B
:10284000BDF80210ADF80210BDF8021024F8021C09
:10285000ADF802E0BDF80210ADF80210BDF80210AC
:102860002180E021ADF80210BDF80210ADF8021091
:10287000BDF8021024F8021C0F21ADF80210BDF8BB
:102880000230ADF80230BDF802302380ADF802709E
:10289000BDF80230ADF80230BDF8023023802823A5
:1028A000ADF80230BDF80230ADF80230BDF80230AC
:1028B00023800823ADF80230BDF80250ADF8025075
:1028C000BDF8025025800E25ADF80250BDF802502B
:1028D000ADF80250BDF802502580ADF80230BDF8C9
:1028E00002302B25ADF80230BDF80230238054238E
:1028F000ADF80230BDF80230ADF80230BDF802305C
:102900002380A923ADF80230BDF80230ADF80230C3
:10291000BDF8023023804323ADF80230BDF8023009
:10292000ADF80230BDF802302380ADF80220BDF8CA
:102930000220ADF80220BDF802202280ADF802107E
:10294000BDF80220ADF80220BDF802202280ADF8CB
:102950000200BDF80220ADF80220BDF8022022805E
:10296000ADF80200BDF80220ADF80220BDF802204B
:102970002280ADF80200BDF80220ADF80220BDF8BB
:1029800002202280ADF80200BDF80220ADF802203E
:10299000BDF802202280E122ADF80220BDF802201D
:1029A000ADF80220BDF8022024F8022CADF8020098
:1029B000BDF80220ADF80220BDF8022022801522C9
:1029C000ADF80220BDF80220ADF80220BDF80220CB
:1029D00022801722ADF80220BDF80220ADF80220B7
:1029E000BDF8022022800722ADF80220BDF80220A7
:1029F000ADF80220BDF8022022801122ADF802209D
:102A0000BDF80230ADF80230BDF802302380062355
:102A1000ADF80230BDF80230ADF80230BDF802303A
:102A20002380ADF80250BDF80230ADF80230BDF899
:102A3000023023805623ADF80230BDF80230ADF8E5
:102A40000230BDF8023023803C23ADF80230BDF8DF
:102A50000230ADF80230BDF8023023800523ADF816
:102A60000230BDF80230ADF80230BDF802302380EC
:102A7000ADF802C0BDF80230ADF80230BDF802304A
:102A80002380ADF80210BDF80230ADF80230BDF879
:102A9000023023803F23ADF80230BDF80260ADF86C
:102AA0000260BDF802602680ADF80230BDF8026019
:102AB000ADF80260BDF802602680ADF80210BDF8E6
:102AC0000210ADF80210BDF802102180ADF80250DE
:102AD000BDF80210ADF80210BDF8021024F8021C77
:102AE000ADF80200BDF80210ADF80210BDF80210FA
:102AF0002180ADF80200BDF80210ADF80210BDF85B
:102B000002102180ADF802E0BDF80210ADF802100D
:102B1000BDF802102180ADF80230BDF80210ADF80A
:102B20000210BDF802102180ADF80270BDF802104D
:102B3000ADF80210BDF8021024F8021CADF8020036
:102B4000BDF80210ADF80210BDF802102180ADF8FA
:102B50000200BDF80210ADF80210BDF8021021808D
:102B6000ADF80200BDF80200ADF80200BDF80200A9
:102B70002080EF20ADF80200BDF80200ADF80200A1
:102B8000BDF802002080ADF80220BDF80200ADF8CB
:102B90000200BDF8020024F8020C7820FFF756FB73
:102BA0002920ADF80200BDF80200ADF80200BDF822
:102BB000020024F8020C01B0F0BD00002DE9F04F36
:102BC00081B0ED20ADF80200BDF802008024ADF820
:102BD0000200BDF80200C6F6004424F8020C0120F1
:102BE000ADF80200BDF802004FF02109ADF8020077
:102BF000BDF8020001222080FE20ADF80200BDF8E1
:102C000002000025ADF80200BDF802008B262080EE
:102C1000EE20ADF80200BDF802000223ADF802007C
:102C2000BDF802004FF0200A24F8020CDE20ADF8B7
:102C30000200BDF802004FF03C08ADF80200BDF8FC
:102C400002004FF0360E2080ADF80290BDF8021061
:102C5000C420ADF80210BDF802104FF0320B2180F5
:102C6000F121ADF80210BDF802104FF02C0CADF8B8
:102C70000210BDF8021024F8021CADF80220BDF8C5
:102C80000210ADF80210BDF802102180DF21ADF86E
:102C90000210BDF80210ADF80210BDF8021024F8C1
:102CA000021C1021ADF80210BDF80210ADF80210A0
:102CB000BDF802102180ADF80200BDF80210C62058
:102CC000ADF80210BDF8021024F8021C8F21ADF8F7
:102CD0000210BDF80210ADF80210BDF802102180FC
:102CE000ADF80200BDF80210E220ADF80210BDF808
:102CF000021024F8021CADF80250BDF80210ADF825
:102D00000210BDF802102180ADF80200BDF80210DB
:102D1000ADF80210BDF802102180ADF80200BDF838
:102D20000210ADF80210BDF802102180ADF80200CB
:102D3000BDF802105D20ADF80210BDF80210218030
:102D4000BF21ADF80210BDF80210ADF80210BDF8B9
:102D5000021024F8021CAA21ADF80210BDF80210DE
:102D6000ADF80210BDF802102180B021ADF80210BC
:102D7000BDF80210ADF80210BDF8021024F8021CD4
:102D80000D21ADF80210BDF80220ADF80220BDF80B
:102D900002202280ADF80250BDF80220ADF80220DA
:102DA000BDF802202280ADF80210BDF80210ADF887
:102DB0000210BDF802102180ADF80250BDF80210DB
:102DC000ADF80210BDF8021021801121ADF80210FB
:102DD000BDF80210ADF80210BDF802102180ADF868
:102DE0000250BDF80210ADF80210BDF802102180AB
:102DF0001921ADF80210BDF80210ADF80210BDF8AF
:102E000002102180ADF80250BDF80210ADF802109A
:102E1000BDF802102180ADF80290BDF80210ADF8A7
:102E20000210BDF802102180ADF80250BDF802106A
:102E3000ADF80210BDF8021021802D21ADF802106E
:102E4000BDF80210ADF80210BDF802102180ADF8F7
:102E50000250BDF80210ADF80210BDF8021021803A
:102E60003D21ADF80210BDF80210ADF80210BDF81A
:102E700002102180ADF80250BDF80210ADF802102A
:102E8000BDF802102180ADF80200BDF80210ADF8C7
:102E90000210BDF802102180ADF80250BDF80210FA
:102EA000ADF80210BDF802102180ADF80200BDF8A7
:102EB00002108B20ADF80210BDF802102180ADF891
:102EC0000250BDF80210ADF80210BDF802102180CA
:102ED000B121ADF80210BDF80210ADF80210BDF836
:102EE000021024F8021C8021ADF80210BDF8021077
:102EF000ADF80210BDF802102180ADF80250BDF807
:102F00000210ADF80210BDF802102180ADF80200E9
:102F1000BDF802100220ADF80210BDF802102180A9
:102F2000ADF80250BDF80210ADF80210BDF8021065
:102F300021809621ADF80210BDF80220ADF80220E4
:102F4000BDF802202280ADF80250BDF80220ADF895
:102F50000220BDF802202280B222ADF80220BDF886
:102F60000220ADF80220BDF8022024F8022CADF8B2
:102F70000250BDF80220ADF80220BDF802202280E8
:102F8000ADF80250BDF80220ADF80220BDF80220D5
:102F90002280ADF80200BDF80220B320ADF8022077
:102FA000BDF802202280ADF80250BDF80220ADF835
:102FB0000220BDF8022022800322ADF80220BDF8D5
:102FC0000270ADF80270BDF802702780ADF80250B3
:102FD000BDF80270ADF80270BDF802702780ADF840
:102FE0000200BDF80270B720ADF80270BDF80270A3
:102FF00024F8027CADF80250BDF80270ADF8027002
:10300000BDF802702780ADF80250BDF80270ADF82F
:103010000270BDF802702780ADF80250BDF8027052
:10302000ADF80270BDF802702780ADF80250BDF80F
:103030000270ADF80270BDF802702780ADF8025042
:10304000BDF80270ADF80270BDF802702780ADF8CF
:103050000250BDF80270ADF80270BDF80270278012
:10306000ADF80250BDF80270ADF80270BDF8027004
:103070002780ADF80250BDF80270ADF80270BDF8BF
:1030800002702780ADF80250BDF80270ADF80270F2
:10309000BDF802702780ADF80250BDF80270ADF89F
:1030A0000270BDF802702780ADF80250BDF80270C2
:1030B000ADF80270BDF802702780ADF80250BDF87F
:1030C0000270ADF80270BDF802702780ADF80250B2
:1030D000BDF80270ADF80270BDF802702780ADF83F
:1030E0000250BDF80270ADF80270BDF80270278082
:1030F000ADF80250BDF80270ADF80270BDF8027074
:103100002780ADF80250BDF80270ADF80270BDF82E
:1031100002702780ADF80250BDF80270ADF8027061
:10312000BDF802702780ADF80250BDF80270ADF80E
:103130000270BDF802702780ADF80250BDF8027031
:10314000ADF80270BDF802702780ADF80250BDF8EE
:103150000270ADF80270BDF802702780ADF8025021
:10316000BDF80270ADF80270BDF802702780ADF8AE
:103170000250BDF80270ADF80270BDF802702780F1
:10318000ADF80250BDF80270ADF80270BDF80270E3
:103190002780ADF80250BDF80270ADF80270BDF89E
:1031A00002702780B427ADF80270BDF80270ADF848
:1031B0000270BDF8027024F8027CADF80260BDF820
:1031C0000270ADF80270BDF802702780ADF80250B1
:1031D000BDF80270ADF80270BDF802702780ADF83E
:1031E0000210BDF802100427ADF80210BDF802105D
:1031F0002180ADF80250BDF80210ADF80210BDF804
:1032000002102180A121ADF80210BDF80210ADF826
:103210000210BDF802102180ADF80250BDF8021076
:10322000ADF80210BDF802102180B521ADF80210F2
:10323000BDF80210ADF80210BDF8021024F8021C0F
:10324000ADF80230BDF80210FF23ADF80210BDF852
:1032500002102180ADF80250BDF80210ADF8021046
:10326000BDF802102180ADF80220BDF80210ADF8C3
:103270000210BDF802102180ADF80250BDF8021016
:10328000ADF80210BDF802102180ADF80270BDF853
:103290000210ADF80210BDF802102180ADF8025006
:1032A000BDF80210ADF80210BDF802102180B62161
:1032B000ADF80210BDF80210ADF80210BDF8021012
:1032C00024F8021CADF80250BDF80210ADF802104F
:1032D000BDF802102180ADF80250BDF80210ADF823
:1032E0000210BDF802102180ADF80200BDF80210F6
:1032F0006420ADF80210BDF8021024F8021CADF8ED
:103300000250BDF80210ADF80210BDF80210218085
:10331000ADF80250BDF80210ADF80210BDF8021071
:1033200021803F21ADF80210BDF80210ADF8021067
:10333000BDF802102180ADF80250BDF80210ADF8C2
:103340000210BDF8021021805E21ADF80210BDF818
:103350000210ADF80210BDF802102180ADF8025045
:10336000BDF80210ADF80210BDF802102180ADF8D2
:103370000200BDF80210DC20ADF80210BDF802100A
:103380002180ADF80250BDF80210ADF80210BDF872
:10339000021021808C21ADF80210BDF80210ADF8AA
:1033A0000210BDF802102180ADF80250BDF80210E5
:1033B000ADF80210BDF802102180AC21ADF802106A
:1033C000BDF80210ADF80210BDF802102180ADF872
:1033D0000250BDF80210ADF80210BDF802102180B5
:1033E000ADF80200BDF80210ADF80210BDF80210F1
:1033F0002180ADF80250BDF80210ADF80210BDF802
:10340000021021807021ADF80210BDF80210ADF855
:103410000210BDF802102180ADF80250BDF8021074
:10342000ADF80210BDF8021021809021ADF8021015
:10343000BDF80210ADF80210BDF802102180ADF801
:103440000250BDF80210ADF80210BDF80210218044
:10345000EB21ADF80210BDF80210ADF80210BDF876
:1034600002102180ADF80250BDF80210ADF8021034
:10347000BDF802102180ADF80200BDF80210C22094
:10348000ADF80210BDF802102180ADF80250BDF871
:103490000210ADF80210BDF802102180B821ADF87D
:1034A0000210BDF80210ADF80210BDF8021024F8A9
:1034B000021CADF80250BDF80210ADF80210BDF8C4
:1034C00002102180ADF80250BDF80210ADF80210D4
:1034D000BDF802102180ADF80250BDF80210ADF821
:1034E0000210BDF802102180ADF80250BDF80210A4
:1034F000ADF80210BDF802102180ADF80250BDF801
:103500000210ADF80210BDF802102180ADF8025093
:10351000BDF80210ADF80210BDF802102180ADF820
:103520000250BDF80210ADF80210BDF80210218063
:10353000ADF80250BDF80210ADF80210BDF802104F
:103540002180BA21ADF80210BDF80210ADF80210CA
:10355000BDF8021024F8021C2421ADF80210BDF8B9
:103560000220ADF80220BDF802202280ADF8025002
:10357000BDF80220ADF80220BDF802202280ADF88F
:103580000250BDF80220ADF80220BDF802202280D2
:10359000ADF80250BDF80220ADF80220BDF80220BF
:1035A0002280C122ADF80220BDF80220ADF8022031
:1035B000BDF8022024F8022CADF802A0BDF802608C
:1035C0002322ADF80260BDF802602680ADF80250FB
:1035D000BDF80260ADF80260BDF802602680542696
:1035E000ADF80260BDF80260ADF80260BDF802609F
:1035F0002680ADF80250BDF80260ADF80260BDF85B
:1036000002602680ADF80230BDF802603A23ADF8C2
:103610000260BDF802602680ADF80250BDF802607D
:10362000ADF80260BDF802602680ADF80200BDF87A
:1036300002600A20ADF80260BDF8026024F8026C56
:10364000ADF80200BDF802603C20ADF80260BDF8A4
:1036500002602680ADF80250BDF80260ADF802604D
:10366000BDF802602680ADF80270BDF80270ADF8BA
:103670000270BDF802702780ADF80250BDF80270EC
:10368000ADF80270BDF802702780C327ADF8027054
:10369000BDF80270ADF80270BDF8027024F8027C2B
:1036A000ADF80200BDF80270ADF80270BDF802700E
:1036B0002780ADF80250BDF80270ADF80270BDF879
:1036C00002702780ADF80230BDF802702C23ADF8EF
:1036D0000270BDF802702780ADF80250BDF802708C
:1036E000ADF80270BDF8027027803927ADF802707E
:1036F000BDF80270ADF80270BDF802702780ADF819
:103700000250BDF80270ADF80270BDF8027027805B
:103710003727ADF80270BDF80270ADF80270BDF841
:1037200002702780ADF80250BDF80270ADF802704B
:10373000BDF802702780ADF80200BDF80270362097
:10374000ADF80270BDF802702780ADF80250BDF8E8
:103750000270ADF80270BDF802702780ADF802006B
:10376000BDF802703220ADF80270BDF802702780FB
:10377000ADF80250BDF80270ADF80270BDF80270ED
:103780002780ADF80200BDF802702920ADF8027064
:10379000BDF802702780ADF80250BDF80270ADF898
:1037A0000270BDF8027027802F27ADF80270BDF8B7
:1037B0000260ADF80260BDF802602680ADF80250EC
:1037C000BDF80260ADF80260BDF802602680ADF879
:1037D0000230BDF802602923ADF80260BDF8026036
:1037E0002680ADF80250BDF80260ADF80260BDF869
:1037F00002602680ADF80230BDF80260ADF80260CC
:10380000BDF802602680ADF80250BDF80260ADF848
:103810000260BDF8026026802626ADF80260BDF881
:103820000230ADF80230BDF802302380ADF802500E
:10383000BDF80230ADF80230BDF802302380ADF89B
:103840000210BDF80230ADF80230BDF8023023801E
:10385000ADF80250BDF80230ADF80230BDF80230CC
:103860002380ADF80210BDF80230ADF80230BDF88B
:1038700002302380ADF80250BDF80230ADF80230BE
:10388000BDF8023023802323ADF80230BDF80230AA
:10389000ADF80230BDF802302380ADF80250BDF81B
:1038A0000230ADF80230BDF802302380ADF802805E
:1038B000BDF802304FF07A08ADF80230BDF80230A2
:1038C0002380ADF80250BDF80230ADF80230BDF8EB
:1038D00002302380ADF802E0BDF802304FF08B0ECD
:1038E000ADF80230BDF802302380ADF80250BDF8CB
:1038F0000230ADF80230BDF802302380ADF802B0DE
:10390000BDF80230ADF80230BDF802302380ADF8CA
:103910000250BDF80230ADF80230BDF8023023800D
:10392000ADF80270BDF80230ADF80230BDF80230DB
:103930002380ADF80250BDF80230ADF80230BDF87A
:1039400002302380ADF802C0BDF802304FF0C40C45
:10395000ADF80230BDF802302380ADF80250BDF85A
:103960000230ADF80230BDF802302380ADF802001D
:10397000BDF80230C420ADF80230BDF8023023801B
:10398000ADF80250BDF80230ADF80230BDF802309B
:103990002380ADF80260BDF802301626ADF8023083
:1039A000BDF802302380ADF80250BDF80230ADF80A
:1039B0000230BDF802302380ADF80210BDF80230AD
:1039C000ADF80230BDF802302380ADF80250BDF8EA
:1039D0000230ADF80230BDF802302380ADF802109D
:1039E000BDF80210ADF80210BDF802102180ADF84C
:1039F0000250BDF80210ADF80210BDF8021021808F
:103A0000ADF80220BDF80210ADF80210BDF80210AA
:103A10002180ADF80250BDF80210ADF80210BDF8DB
:103A200002102180ADF80200BDF802106220ADF84E
:103A30000210BDF8021024F8021CADF80200BDF817
:103A400002100520ADF80210BDF802102180ADF87B
:103A50000250BDF80210ADF80210BDF8021021802E
:103A6000ADF80200BDF802108420ADF80210BDF8D8
:103A700002102180ADF80250BDF80210ADF802101E
:103A8000BDF802102180ADF80200BDF80210F02050
:103A9000ADF80210BDF802102180ADF80250BDF85B
:103AA0000210ADF80210BDF802102180ADF802003E
:103AB000BDF802105020ADF80210BDF802102180B0
:103AC000ADF80250BDF80210ADF80210BDF80210BA
:103AD00021801821ADF80210BDF80230ADF8023097
:103AE000BDF802302380ADF80250BDF80230ADF8C9
:103AF0000230BDF802302380A423ADF80230BDF8B7
:103B00000230ADF80230BDF802302380ADF802502B
:103B1000BDF80230ADF80230BDF802302380ADF8B8
:103B20000210BDF80210ADF80210BDF8021021809D
:103B3000ADF80250BDF80210ADF80210BDF8021049
:103B40002180ADF80200BDF80210F320ADF802109C
:103B5000BDF802102180ADF80250BDF80210ADF89A
:103B60000210BDF8021021800C21ADF80210BDF842
:103B70000210ADF80210BDF802102180ADF802501D
:103B8000BDF80210ADF80210BDF802102180172117
:103B9000ADF80210BDF80230ADF80230BDF80230C9
:103BA0002380ADF80250BDF80230ADF80230BDF808
:103BB000023023809523ADF80230BDF80230ADF815
:103BC0000230BDF802302380ADF80250BDF802305B
:103BD000ADF80230BDF802302380ADF80200BDF828
:103BE0000230E620ADF80230BDF802302380ADF897
:103BF0000250BDF80230ADF80230BDF8023023802B
:103C0000ADF80200BDF802304420ADF80230BDF836
:103C100002302380ADF80250BDF80230ADF802301A
:103C2000BDF802302380C523ADF80230BDF8023064
:103C3000ADF80230BDF8023024F8023CADF802B015
:103C4000BDF802304FF0520BADF80230BDF8023033
:103C50002380ADF80250BDF80230ADF80230BDF857
:103C600002302380ADF80200BDF802307620ADF8B6
:103C70000230BDF802302380ADF80250BDF80230AA
:103C8000ADF80230BDF8023023806523ADF8023074
:103C9000BDF80230ADF80230BDF802302380ADF837
:103CA0000250BDF80230ADF80230BDF8023023807A
:103CB000ADF80200BDF802308820ADF80230BDF842
:103CC00002302380ADF80250BDF80230ADF802306A
:103CD000BDF802302380ADF80200BDF80230C620E6
:103CE000ADF80230BDF802302380ADF80250BDF8C7
:103CF0000230ADF80230BDF802302380ADF802008A
:103D0000BDF802300120ADF80230BDF8023024F8D1
:103D1000023CADF802A0BDF80220A823ADF80220B5
:103D2000BDF802202280ADF80250BDF80220ADF8A7
:103D30000220BDF802202280ADF80210BDF802106A
:103D4000B922ADF80210BDF802102180ADF8025082
:103D5000BDF80210ADF80210BDF802102180ADF8D8
:103D60000200BDF80210C720ADF80210BDF8021025
:103D70002180ADF80250BDF80210ADF80210BDF878
:103D800002102180ADF80200BDF80210E020ADF86D
:103D90000210BDF8021024F8021CADF80250BDF864
:103DA0000210ADF80210BDF802102180ADF80250EB
:103DB000BDF80210ADF80210BDF802102180ADF878
:103DC0000250BDF80210ADF80210BDF802102180BB
:103DD000ADF80250BDF80210ADF80210BDF80210A7
:103DE0002180C821ADF80210BDF80210ADF8021014
:103DF000BDF8021024F8021CADF80250BDF8021004
:103E0000ADF80210BDF802102180ADF80250BDF8E7
:103E10000210ADF80210BDF802102180ADF802507A
:103E2000BDF80210ADF80210BDF802102180ADF807
:103E30000250BDF80210ADF80210BDF8021021804A
:103E4000C921ADF80210BDF80210ADF80210BDF89E
:103E5000021024F8021CADF80250BDF80210ADF8B3
:103E60000210BDF802102180ADF80250BDF802101A
:103E7000ADF80210BDF802102180ADF80250BDF877
:103E80000210ADF80210BDF802102180ADF802500A
:103E9000BDF80210ADF80210BDF802102180ADF897
:103EA0000250BDF80210ADF80210BDF802102180DA
:103EB000ADF80250BDF80210ADF80210BDF80210C6
:103EC0002180ADF80250BDF80210ADF80210BDF827
:103ED00002102180ADF80250BDF80210ADF80210BA
:103EE000BDF802102180ADF80250BDF80210ADF807
:103EF0000210BDF802102180ADF80250BDF802108A
:103F0000ADF80210BDF802102180ADF80250BDF8E6
:103F10000210ADF80210BDF802102180ADF8025079
:103F2000BDF80210ADF80210BDF802102180ADF806
:103F30000250BDF80210ADF80210BDF80210218049
:103F4000ADF80250BDF80210ADF80210BDF8021035
:103F50002180ADF80250BDF80210ADF80210BDF896
:103F600002102180ADF80250BDF80210ADF8021029
:103F7000BDF802102180ADF80200BDF802101C202F
:103F8000ADF80210BDF8021024F8021CADF8026072
:103F9000BDF80210ADF80210BDF802102180ADF896
:103FA0000250BDF80210ADF80210BDF802102180D9
:103FB000ADF80200BDF80210ADF80210BDF8021015
:103FC0002180ADF80250BDF80210ADF80210BDF826
:103FD00002102180ADF80290BDF802004FF0640994
:103FE000ADF80200BDF80200CA212080ADF80250F1
:103FF000BDF80200ADF80200BDF8020020803620B6
:10400000ADF80200BDF80200ADF80200BDF80200F4
:104010002080ADF80250BDF80200ADF80200BDF8F6
:10402000020020804620ADF80200BDF80200ADF885
:104030000200BDF802002080ADF80250BDF8020079
:10404000ADF80200BDF802002080ADF802B0BDF866
:104050000200ADF80200BDF802002080ADF8025069
:10406000BDF80200ADF80200BDF802002080ADF8F6
:104070000290BDF80200ADF80200BDF802002080F9
:10408000ADF80250BDF80200ADF80200BDF8020024
:104090002080ADF80280BDF80200ADF80200BDF846
:1040A00002002080ADF80250BDF80200ADF8020019
:1040B000BDF802002080ADF802E0BDF80200ADF8C6
:1040C0000200BDF802002080ADF80250BDF80200E9
:1040D000ADF80200BDF8020020809920ADF8020082
:1040E000BDF80200ADF80200BDF802002080ADF876
:1040F0000250BDF80200ADF80200BDF802002080B9
:10410000ADF80230BDF80200ADF80200BDF80200C3
:104110002080ADF80250BDF80200ADF80200BDF8F5
:1041200002002080ADF80220BDF80200ADF80200C8
:10413000BDF802002080ADF80250BDF80200ADF8D5
:104140000200BDF802002080ADF802C0BDF80200F8
:10415000ADF80200BDF802002080ADF80250BDF8B5
:104160000200ADF80200BDF802002080ADF8021098
:10417000BDF80200ADF80200BDF802002080ADF8E5
:104180000250BDF80200ADF80200BDF80200208028
:10419000D220ADF80200BDF802A0ADF802A0BDF833
:1041A00002704FF0F30A2780ADF80250BDF802709C
:1041B000ADF80270BDF802702780D927ADF8027003
:1041C000BDF80270ADF80270BDF802702780ADF83E
:1041D0000250BDF80270ADF80270BDF80270278081
:1041E000E027ADF80270BDF80270ADF80270BDF8BE
:1041F00002702780ADF80250BDF80270ADF8027071
:10420000BDF802702780ADF802A0BDF80270ADF8CD
:104210000270BDF802702780ADF80250BDF8027040
:10422000ADF80270BDF802702780E127ADF802708A
:10423000BDF80270ADF80270BDF8027024F8027C7F
:10424000ADF80260BDF80260ADF80260BDF8026032
:104250002680ADF80250BDF80260ADF80260BDF8EE
:10426000026026801C26ADF80260BDF80260ADF841
:104270000260BDF802602680ADF80250BDF8026011
:10428000ADF80260BDF8026026802226ADF802601B
:10429000BDF80260ADF80260BDF802602680ADF89E
:1042A0000250BDF80260ADF80260BDF802602680E1
:1042B0003626ADF80260BDF80260ADF80260BDF8C8
:1042C00002602680ADF80250BDF80260ADF80260D1
:1042D000BDF8026026804526ADF80260BDF8026098
:1042E000ADF80260BDF802602680ADF80250BDF85E
:1042F0000260ADF80260BDF802602680ADF802B041
:10430000BDF80270D126ADF80270BDF802704FF012
:10431000DD0B2780ADF80250BDF80270ADF80270D9
:10432000BDF802702780ADF80290BDF802704FF022
:104330009709ADF80270BDF802702780ADF8025001
:10434000BDF80270ADF80270BDF802702780ADF8BC
:104350000280BDF802704FF00508ADF80270BDF89C
:1043600002702780ADF80250BDF80270ADF80270FF
:10437000BDF802702780ADF802E0BDF802704FF082
:10438000880EADF80270BDF802702780ADF80250BB
:10439000BDF80270ADF80270BDF802702780992751
:1043A000ADF80270BDF80270ADF80270BDF8027091
:1043B0002780ADF80250BDF80270ADF80270BDF86C
:1043C00002702780ADF80230BDF80230C227ADF888
:1043D0000230BDF802302380ADF80250BDF8023043
:1043E000ADF80230BDF802302380ADF80220BDF8F0
:1043F0000220A623ADF80220BDF802202280ADF8ED
:104400000250BDF80220ADF80220BDF80220228043
:10441000ADF802C0BDF802204FF0F30CADF8022059
:10442000BDF802202280ADF80250BDF80220ADF8A0
:104430000220BDF802202280ADF80210BDF8021063
:10444000C722ADF80210BDF802102180ADF802506D
:10445000BDF80210ADF80210BDF802102180ADF8D1
:104460000200BDF80200B721ADF80200BDF802005D
:104470002080ADF80250BDF80200ADF80200BDF892
:1044800002002080D820ADF80200BDF80200ADF88F
:104490000200BDF802002080ADF80250BDF8020015
:1044A000ADF80200BDF802002080E020ADF8020067
:1044B000BDF80200ADF80200BDF802002080ADF8A2
:1044C0000250BDF80200ADF80200BDF802002080E5
:1044D000ADF802A0BDF802004FF0440AADF80200AA
:1044E000BDF802002080ADF80250BDF80200ADF822
:1044F0000200BDF802002080E220ADF80200BDF805
:104500000200ADF80200BDF8020024F8020CADF87C
:104510000280BDF80200ADF80200BDF80200208064
:10452000ADF80250BDF80200ADF80200BDF802007F
:1045300020800B20ADF80200BDF80200ADF80200AB
:10454000BDF802002080ADF80250BDF80200ADF8C1
:104550000200BDF8020020801B20ADF80200BDF86B
:104560000200ADF80200BDF802002080ADF8025054
:10457000BDF80200ADF80200BDF802002080342032
:10458000ADF80200BDF80200ADF80200BDF802006F
:104590002080ADF80250BDF80200ADF80200BDF871
:1045A00002002080ADF802A0BDF80200ADF80200C4
:1045B000BDF802002080ADF80250BDF80200ADF851
:1045C0000200BDF8020020804F20ADF80200BDF8C7
:1045D0000200ADF80200BDF802002080ADF80250E4
:1045E000BDF80200ADF80200BDF802002080612095
:1045F000ADF80200BDF80200ADF80200BDF80200FF
:104600002080ADF80250BDF80200ADF80200BDF800
:10461000020020807920ADF80200BDF80200ADF85C
:104620000200BDF802002080ADF80250BDF8020083
:10463000ADF80200BDF802002080ADF802E0BDF840
:104640000200ADF80200BDF802002080ADF8025073
:10465000BDF80200ADF80200BDF802002080ADF800
:104660000290BDF80200ADF80200BDF80200208003
:10467000ADF80250BDF80200ADF80200BDF802002E
:104680002080ADF80230BDF80200ADF80200BDF8A0
:1046900002002080ADF80250BDF80200ADF8020023
:1046A000BDF802002080ADF80210BDF80200ADF8A0
:1046B0000200BDF802002080ADF80250BDF80200F3
:1046C000ADF80200BDF802002080ADF80270BDF820
:1046D0000200ADF80200BDF802002080ADF80250E3
:1046E000BDF80200ADF80200BDF802002080ADF870
:1046F0000220BDF80200ADF80200BDF802002080E3
:10470000ADF80250BDF80200ADF80200BDF802009D
:104710002080ADF80260BDF80200ADF80200BDF8DF
:1047200002002080ADF80250BDF80200ADF8020092
:10473000BDF802002080D620ADF80200BDF80200CE
:10474000ADF80200BDF802002080ADF80250BDF8BF
:104750000200ADF80200BDF802002080DD20ADF8B7
:104760000200BDF80200ADF80200BDF80200208092
:10477000ADF80250BDF80200ADF80200BDF802002D
:104780002080ADF802C0BDF80200ADF80200BDF80F
:1047900002002080ADF80250BDF80200ADF8020022
:1047A000BDF802002080E320ADF80200BDF8020051
:1047B000ADF80200BDF8020024F8020CADF802804A
:1047C000BDF802004FF09308ADF80200BDF80200FA
:1047D0002080ADF80250BDF80200ADF80200BDF82F
:1047E000020020800A20ADF80200BDF80200ADF8FA
:1047F0000200BDF802002080ADF80250BDF80200B2
:10480000ADF80200BDF8020020801C20ADF80200C7
:10481000BDF80200ADF80200BDF802002080ADF83E
:104820000250BDF80200ADF80200BDF80200208081
:104830003320ADF80200BDF80200ADF80200BDF86B
:1048400002002080ADF80250BDF80200ADF8020071
:10485000BDF802002080ADF802A0BDF802004FF0C4
:10486000740AADF80200BDF802002080ADF80250D5
:10487000BDF80200ADF80200BDF802002080502013
:10488000ADF80200BDF80200ADF80200BDF802006C
:104890002080ADF80250BDF80200ADF80200BDF86E
:1048A000020020806220ADF80200BDF80200ADF8E1
:1048B0000200BDF802002080ADF80250BDF80200F1
:1048C000ADF80200BDF8020020807820ADF80200AB
:1048D000BDF80200ADF80200BDF802002080ADF87E
:1048E0000250BDF80200ADF80200BDF802002080C1
:1048F000ADF802E0BDF802004FF0C40EADF80200C2
:10490000BDF802002080ADF80250BDF80200ADF8FD
:104910000200BDF802002080ADF80290BDF8020050
:104920004FF08409ADF80200BDF802002080ADF818
:104930000250BDF80200ADF80200BDF80200208070
:10494000ADF80230BDF80200ADF80200BDF802007B
:104950002080ADF80250BDF80200ADF80200BDF8AD
:1049600002002080ADF80210BDF802000121ADF870
:104970000200BDF802002080ADF80250BDF8020030
:10498000ADF80200BDF802002080ADF80270BDF85D
:104990000200A227ADF80200BDF802002080ADF8A9
:1049A0000250BDF80200ADF80200BDF80200208000
:1049B000ADF80220BDF80200ADF80200BDF802001B
:1049C0002080ADF80250BDF80200ADF80200BDF83D
:1049D00002002080ADF80260BDF80200B326ADF8F9
:1049E0000200BDF802002080ADF80250BDF80200C0
:1049F000ADF80200BDF802002080D520ADF802001D
:104A0000BDF80200ADF80200BDF802002080ADF84C
:104A10000250BDF80200ADF80200BDF8020020808F
:104A2000ADF802B0BDF802004FF05D0BADF802002A
:104A3000BDF802002080ADF80250BDF80200ADF8CC
:104A40000200BDF802002080ADF802C0BDF80200EF
:104A50004FF0CD0CADF80200BDF802002080ADF89B
:104A60000250BDF80200ADF80200BDF8020020803F
:104A7000E420ADF80200BDF80200ADF80200BDF878
:104A8000020024F8020CADF80210BDF80200ADF8E7
:104A90000200BDF802002080ADF80250BDF802000F
:104AA000ADF80200BDF802002080ADF80210BDF89C
:104AB0000200ADF80200BDF802002080ADF80250FF
:104AC000BDF80200ADF80200BDF80200208002200F
:104AD000ADF80200BDF80200ADF80200BDF802001A
:104AE0002080ADF80250BDF80200ADF80200BDF81C
:104AF000020020802A20ADF80200BDF80200ADF8C7
:104B00000200BDF802002080ADF80250BDF802009E
:104B1000ADF80200BDF8020020803C20ADF8020094
:104B2000BDF80200ADF80200BDF802002080ADF82B
:104B30000250BDF80200ADF80200BDF8020020806E
:104B40004B20ADF80200BDF80200ADF80200BDF840
:104B500002002080ADF80250BDF80200ADF802005E
:104B6000BDF802002080ADF802B0BDF80200ADF83B
:104B70000200BDF802002080ADF80250BDF802002E
:104B8000ADF80200BDF802002080ADF802A0BDF82B
:104B90000200ADF80200BDF802002080ADF802501E
:104BA000BDF80200ADF80200BDF802002080ADF8AB
:104BB0000290BDF80200ADF80200BDF802002080AE
:104BC000ADF80250BDF80200ADF80200BDF80200D9
:104BD0002080ADF80280BDF80200ADF80200BDF8FB
:104BE00002002080ADF80250BDF80200ADF80200CE
:104BF000BDF802002080ADF80270BDF80200ADF8EB
:104C00000200BDF802002080ADF80250BDF802009D
:104C1000ADF80200BDF802002080ADF80260BDF8DA
:104C20000200ADF80200BDF802002080ADF802508D
:104C3000BDF80200ADF80200BDF802002080BE20E1
:104C4000ADF80200BDF80210ADF80210BDF8021078
:104C50002180ADF80250BDF80210ADF80210BDF889
:104C600002102180ADF802E0BDF80210ADF802108C
:104C7000BDF802102180ADF80250BDF80210ADF869
:104C80000210BDF802102180ADF802C0BDF802206C
:104C9000DD21ADF80220BDF802202280ADF80250DF
:104CA000BDF80220ADF80220BDF802202280D322F8
:104CB000ADF80220BDF80230ADF80230BDF8023088
:104CC0002380ADF80250BDF80230ADF80230BDF8D7
:104CD00002302380ADF80210BDF80230F321ADF8A8
:104CE0000230BDF802302380ADF80250BDF802302A
:104CF000ADF80230BDF802302380ADF80210BDF8E7
:104D00000230ADF80230BDF802302380ADF8025019
:104D1000BDF80230ADF80230BDF802302380E52343
:104D2000ADF80230BDF80230ADF80230BDF8023007
:104D300024F8023CADF80250BDF80230ADF8023064
:104D4000BDF802302380ADF80250BDF80230ADF856
:104D50000230BDF802302380ADF80250BDF80230B9
:104D6000ADF80230BDF802302380ADF80250BDF836
:104D70000230ADF80230BDF8023023800223ADF8D6
:104D80000230BDF80230ADF80230BDF802302380A9
:104D9000ADF80250BDF80230ADF80230BDF8023077
:104DA00023802923ADF80230BDF80230ADF802307F
:104DB000BDF802302380ADF80250BDF80230ADF8E6
:104DC0000230BDF8023023803C23ADF80230BDF83C
:104DD0000230ADF80230BDF802302380ADF8025049
:104DE000BDF80230ADF80230BDF8023023804B230D
:104DF000ADF80230BDF80230ADF80230BDF8023037
:104E00002380ADF80250BDF80230ADF80230BDF895
:104E100002302380ADF802B0BDF802304FF0F30B42
:104E2000ADF80230BDF802302380ADF80250BDF875
:104E30000230ADF80230BDF802302380ADF802A098
:104E4000BDF802304FF0560AADF80230BDF802301E
:104E50002380ADF80250BDF80230ADF80230BDF845
:104E600002302380ADF80290BDF802304FF05509B2
:104E7000ADF80230BDF802302380ADF80250BDF825
:104E80000230ADF80230BDF802302380ADF8028068
:104E9000BDF802304FF07708ADF80230BDF80230AF
:104EA0002380ADF80250BDF80230ADF80230BDF8F5
:104EB00002302380ADF80270BDF802304427ADF80F
:104EC0000230BDF802302380ADF80250BDF8023048
:104ED000ADF80230BDF802302380ADF80260BDF8B5
:104EE00002304526ADF80230BDF802302380ADF81F
:104EF0000250BDF80230ADF80230BDF80230238018
:104F0000ADF80200BDF802007623ADF80200BDF84E
:104F100002002080ADF80250BDF80200ADF802009A
:104F2000BDF802002080ADF802E0BDF802004FF0AD
:104F3000BB0EADF80200BDF802002080ADF80250B3
:104F4000BDF80200ADF80200BDF802002080ADF807
:104F500002C0BDF802004FF0110CADF80200BDF820
:104F600002002080ADF80250BDF80200ADF802004A
:104F7000BDF802002080ADF80220BDF802006622D4
:104F8000ADF80200BDF802002080ADF80250BDF877
:104F90000200ADF80200BDF802002080DC20ADF870
:104FA0000200BDF80200ADF80200BDF8020020804A
:104FB000ADF80250BDF80200ADF80200BDF80200E5
:104FC0002080ADF80210BDF802009921ADF8020072
:104FD000BDF802002080ADF80250BDF80200ADF827
:104FE0000200BDF802002080E620ADF80200BDF806
:104FF0000200ADF80200BDF8020024F8020CADF882
:1050000002C0BDF80200ADF80200BDF80200208029
:10501000ADF80250BDF80200ADF80200BDF8020084
:1050200020803420ADF80200BDF80200ADF8020087
:10503000BDF802002080ADF80250BDF80200ADF8C6
:105040000200BDF802002080ADF802A0BDF8020009
:10505000ADF80200BDF802002080ADF80250BDF8A6
:105060000200ADF80200BDF802002080ADF8023069
:10507000BDF80200ADF80200BDF802002080ADF8D6
:105080000250BDF80200ADF80200BDF80200208019
:10509000ADF80280BDF80200ADF80200BDF80200D4
:1050A0002080ADF80250BDF80200ADF80200BDF856
:1050B00002002080ADF80220BDF80200ADF8020029
:1050C000BDF802002080ADF80250BDF80200ADF836
:1050D0000200BDF8020020808820ADF80200BDF873
:1050E0000200ADF80200BDF802002080ADF80250C9
:1050F000BDF80200ADF80200BDF802002080ADF856
:105100000210BDF80200ADF80200BDF802002080D8
:10511000ADF80250BDF80200ADF80200BDF8020083
:105120002080ADF802E0BDF80200ADF80200BDF845
:1051300002002080ADF80250BDF80200ADF8020078
:10514000BDF802002080ADF80210BDF80200ADF8F5
:105150000200BDF802002080ADF80250BDF8020048
:10516000ADF80200BDF802002080ADF80220BDF8C5
:105170000200ADF80200BDF802002080ADF8025038
:10518000BDF80200ADF80200BDF802002080ADF8C5
:105190000290BDF80200ADF80200BDF802002080C8
:1051A000ADF80250BDF80200ADF80200BDF80200F3
:1051B0002080ADF80290BDF80200ADF80200BDF805
:1051C00002002080ADF80250BDF80200ADF80200E8
:1051D000BDF802002080ADF80260BDF80200ADF815
:1051E0000200BDF802002080ADF80250BDF80200B8
:1051F000ADF80200BDF8020020804320ADF80200A7
:10520000BDF80200ADF80200BDF802002080ADF844
:105210000250BDF80200ADF80200BDF80200208087
:10522000ADF80270BDF80200ADF80200BDF8020052
:105230002080ADF80250BDF80200ADF80200BDF8C4
:1052400002002080E720ADF80200BDF80200ADF8B2
:105250000200BDF8020024F8020C3220ADF8020072
:10526000BDF80200ADF80200BDF802002080ADF8E4
:105270000250BDF80200ADF80200BDF80200208027
:10528000ADF80290BDF80200ADF80200BDF80200D2
:105290002080ADF80250BDF80200ADF80200BDF864
:1052A00002002080ADF80230BDF80200ADF8020027
:1052B000BDF802002080ADF80250BDF80200ADF844
:1052C0000200BDF802002080ADF80220BDF8020007
:1052D000ADF80200BDF802002080ADF80250BDF824
:1052E0000200ADF80200BDF8020020806720ADF892
:1052F0000200BDF80230ADF80230BDF80230238064
:10530000ADF80250BDF80230ADF80230BDF8023001
:105310002380ADF80200BDF80200ADF80200BDF830
:1053200002002080ADF80250BDF80200ADF8020086
:10533000BDF8020020808720ADF80200BDF80230E1
:10534000ADF80230BDF802302380ADF80250BDF850
:105350000230ADF80230BDF802302380ADF8021003
:10536000BDF80230ADF80230BDF802302380ADF850
:105370000250BDF80230ADF80230BDF80230238093
:10538000ADF802E0BDF80230ADF80230BDF80230F1
:105390002380ADF80250BDF80230ADF80230BDF800
:1053A00002302380ADF80210BDF80230ADF80230B3
:1053B000BDF802302380ADF80250BDF80230ADF8E0
:1053C0000230BDF802302380ADF80280BDF8023013
:1053D000ADF80230BDF802302380ADF80250BDF8C0
:1053E0000230ADF80230BDF802302380ADF8027013
:1053F000BDF802302927ADF80230BDF80230238015
:10540000ADF80250BDF80230ADF80230BDF8023000
:105410002380ADF802A0BDF80230ADF80230BDF82F
:1054200002302380ADF80250BDF80230ADF80230F2
:10543000BDF8023023802323ADF80230BDF80230DE
:10544000ADF80230BDF802302380ADF80250BDF84F
:105450000230ADF80230BDF8023023803323ADF8BE
:105460000230BDF80230ADF80230BDF802302380C2
:10547000ADF80250BDF80230ADF80230BDF8023090
:105480002380ADF80260BDF80230ADF80230BDF8FF
:1054900002302380ADF80250BDF80230ADF8023082
:1054A000BDF802302380E823ADF80230BDF80230A9
:1054B000ADF80230BDF8023024F8023CADF80250DD
:1054C000BDF80230ADF80230BDF802302380ADF8EF
:1054D0000250BDF80230ADF80230BDF80230238032
:1054E000ADF80210BDF80230ADF80230BDF8023060
:1054F0002380ADF80250BDF80230ADF80230BDF89F
:1055000002302380ADF80200BDF802008823ADF818
:105510000200BDF802002080ADF80250BDF8020084
:10552000ADF80200BDF802002080ADF80230BDF8F1
:105530000200ADF80200BDF802002080ADF8025074
:10554000BDF80200ADF80200BDF802002080ADF801
:105550000280BDF80200ADF80200BDF80200208014
:10556000ADF80250BDF80200ADF80200BDF802002F
:105570002080ADF80220BDF80200ADF80200BDF8B1
:1055800002002080ADF80250BDF80200ADF8020024
:10559000BDF802002080ADF80230BDF80200AA2359
:1055A000ADF80200BDF802002080ADF80250BDF851
:1055B0000200ADF80200BDF802002080ADF8023014
:1055C000BDF80200ADF80200BDF802002080ADF881
:1055D0000250BDF80200ADF80200BDF802002080C4
:1055E000ADF802E0BDF80200ADF80200BDF802001F
:1055F0002080ADF80250BDF80200ADF80200BDF801
:1056000002002080ADF80210BDF802004421ADF880
:105610000200BDF802002080ADF80250BDF8020083
:10562000ADF80200BDF802002080ADF80220BDF800
:105630000200ADF80200BDF802002080ADF8025073
:10564000BDF80200ADF80200BDF802002080ADF800
:105650000290BDF80200ADF80200BDF80200208003
:10566000ADF80250BDF80200ADF80200BDF802002E
:105670002080ADF80290BDF80200ADF80200BDF840
:1056800002002080ADF80250BDF80200ADF8020023
:10569000BDF802002080ADF80210BDF80200ADF8A0
:1056A0000200BDF802002080ADF80250BDF80200F3
:1056B000ADF80200BDF802002080ADF80210BDF880
:1056C0000200AA21ADF80200BDF802002080ADF86A
:1056D0000250BDF80200ADF80200BDF802002080C3
:1056E000ADF80290BDF80200ADF80200BDF802006E
:1056F0002080ADF80250BDF80200ADF80200BDF800
:1057000002002080E920ADF80200BDF80200ADF8EB
:105710000200BDF8020024F8020CADF80230BDF81A
:105720000200ADF80200BDF802002080ADF8025082
:10573000BDF80200ADF80200BDF802002080ADF80F
:105740000250BDF80200ADF80200BDF80200208052
:10575000ADF80250BDF80200ADF80200BDF802003D
:105760002080ADF80250BDF80200ADF80200BDF88F
:10577000020024F8020CADF80210BDF80200ADF8EA
:105780000200BDF802002080CF20ADF80200BDF875
:105790000200ADF80200BDF8020024F8020CADF8DA
:1057A0000250BDF80200ADF80200BDF802002080F2
:1057B000ADF80250BDF80200ADF80200BDF80200DD
:1057C0002080ADF80250BDF80200ADF80200BDF82F
:1057D00002002080ADF80250BDF80200ADF80200D2
:1057E000BDF802002080ADF80250BDF80200ADF80F
:1057F0000200BDF802002080ADF80250BDF80200A2
:10580000ADF80200BDF802002080ADF80250BDF8EE
:105810000200ADF80200BDF802002080ADF8025091
:10582000BDF80200ADF80200BDF802002080ADF81E
:105830000250BDF80200ADF80200BDF80200208061
:10584000ADF80250BDF80200ADF80200BDF802004C
:105850002080ADF80250BDF80200ADF80200BDF89E
:1058600002002080ADF80250BDF80200ADF8020041
:10587000BDF802002080ADF80250BDF80200ADF87E
:105880000200BDF802002080ADF80250BDF8020011
:10589000ADF80200BDF802002080ADF80250BDF85E
:1058A0000200ADF80200BDF802002080ADF8025001
:1058B000BDF80200ADF80200BDF802002080ADF88E
:1058C0000250BDF80200ADF80200BDF802002080D1
:1058D000F020ADF80200BDF80200ADF80200BDF8FE
:1058E000020024F8020CADF80250BDF80200ADF839
:1058F0000200BDF8020020805020ADF80200BDF883
:105900000200ADF80200BDF802002080ADF80250A0
:10591000BDF80200ADF80200BDF802002080ADF82D
:105920000250BDF80200ADF80200BDF80200208070
:10593000ADF80250BDF80200ADF80200BDF802005B
:105940002080ADF802B0BDF80200ADF80200BDF84D
:10595000020024F8020CADF80250BDF80200ADF8C8
:105960000200BDF802002080F920ADF80200BDF869
:105970000200ADF80200BDF8020024F8020C062077
:10598000ADF80200BDF80200ADF80200BDF802005B
:1059900020801020ADF80200BDF80200ADF8020032
:1059A000BDF802002080ADF80270BDF80200ADF82D
:1059B0000200BDF802002080ADF80250BDF80200E0
:1059C000ADF80200BDF8020020803A20ADF80200D8
:1059D000BDF80200ADF80200BDF8020024F8020C88
:1059E000ADF80290BDF80200ADF80200BDF802006B
:1059F0002080ADF802C0BDF80200ADF80200BDF88D
:105A0000020024F8020C6420FCF720FCADF80270C0
:105A1000BDF802002C21ADF80200BDF8020024F808
:105A2000020C3520ADF80200BDF80200ADF802000E
:105A3000BDF8020024F8020CADF80250BDF80200D7
:105A4000ADF80200BDF8020020805120ADF8020040
:105A5000BDF80200ADF80200BDF8020024F8020C07
:105A6000FF20ADF80200BDF80200ADF80200BDF85D
:105A7000020020805320ADF80200BDF80200ADF80E
:105A80000200BDF8020024F8020CADF80210BDF8C7
:105A90000200ADF80200BDF802002080ADF80290CF
:105AA000BDF80200ADF80200BDF8020024F8020CB7
:105AB0008220ADF80200BDF80200ADF80200BDF88A
:105AC00002002080ADF80210BDF80200ADF802001F
:105AD000BDF8020024F8020C01B0BDE8F08F000010
