:020000040800F2
:10000000D8060020190400089B660008935F0008CA
:100010009966000839200008157D000800000000DE
:10002000000000000000000000000000756A0008E9
:100030003B20000800000000E1670008776A000824
:1000400033040008330400083304000833040008B4
:1000500033040008330400083304000833040008A4
:100060003304000833040008330400083304000894
:100070003304000833040008330400083304000884
:100080003304000833040008330400083304000874
:100090003304000833040008330400083304000864
:1000A0003304000833040008330400083304000854
:1000B0003304000833040008330400083304000844
:1000C0003304000833040008330400083304000834
:1000D000330400083304000833040008097D0008D5
:1000E0003304000833040008000000003304000853
:1000F0003304000833040008330400083304000804
:100100003304000833040008D56B000833040008EA
:100110008170000833040008330400083304000829
:1001200033040008330400083304000833040008D3
:1001300033040008330400083304000833040008C3
:1001400000000000000000000000000000000000AF
:1001500033040008330400083304000833040008A3
:100160003304000833040008330400083304000893
:1001700033040008330400083304000800000000C2
:100180003304000833040008330400083304000873
:100190003304000833040008330400083304000863
:1001A0003304000833040008330400080000000092
:1001B0003304000833040008330400083304000843
:1001C00033040008330400080000000000000000B1
:1001D00000000000000000003304000800000000E0
:1001E000000000000000000000000000000000000F
:1001F0000000000000000000330400083304000881
:100200003304000833040008000000003304000831
:1002100033040008330400083304000833040008E2
:100220003304000800000000330400080000000050
:100230003304000833040008000000003304000801
:1002400033040008330400083304000833040008B2
:1002500033040008330400083304000833040008A2
:100260003304000833040008330400083304000892
:1002700033040008330400083304000800000000C1
:100280003304000833040008330400083304000872
:1002900000000000330400083304000800000000E0
:1002A0000000000033040008330400088D700008CB
:1002B0003304000833040008330400083304000842
:1002C00033040008330400083304000800F002F887
:1002D00000F092F80AA090E8000C82448344AAF14E
:1002E0000107DA4501D100F087F8AFF2090EBAE84C
:1002F0000F0013F0010F18BFFB1A43F0010318475A
:10030000B07D0000F07D0000103A24BF78C878C1AD
:10031000FAD8520724BF30C830C144BF04680C600B
:10032000704700000023002400250026103A28BF53
:1003300078C1FBD8520728BF30C148BF0B60704757
:100340006E2900F07283702900F0E381662907F0BE
:100350001086652907F00D86672907F00A8661294E
:1003600007F0098603681B0A28BF41F0800169294C
:1003700000F05481642900F05181752900F04E810C
:100380006F2900F06E86782900F0AF81E92900F02E
:100390000986E42900F00686F52900F00386EF2996
:1003A00000F06B86F82900F0AE810368DB0928BFF6
:1003B00041F08001632900F08A85732900F08F8560
:1003C000E32901F07B80F32901F080800020704751
:1003D0001FB507F0C9FD00F05FFE040000200021FA
:1003E00007F096FD401C60600020002107F0A6FD8C
:1003F000E0601FBD10B510BD01F0FFF81146FFF71A
:10040000E7FF07F0E7FC01F01DF903B4FFF7F2FF87
:1004100003BC01F055F9000009488047094800472E
:10042000FEE7FEE7FEE7FEE7FEE7FEE7FEE7FEE7A4
:10043000FEE7FEE704480549054A064B7047000001
:10044000156B0008CD020008E0040024D806002047
:10045000E0060024D802002053EA020C00F0698074
:100460002DE9F04B4FF00006002B1FBFB3FA83F5C8
:1004700003FA05F424FA05F65E4012BF1643B2FAF9
:1004800082F502FA05F4C5F120051EBF22FA05FC2B
:1004900044EA0C04203556EA044C4FEA144418BFD1
:1004A000641C4FF000084FF00009904271EB030C00
:1004B00039D3002919BFB1FA81F701FA07F6B0FA6A
:1004C00080F700FA07F6C7F120071EBF20FA07FCE5
:1004D00046EA0C062037B6FBF4FCA7EB0507103FF5
:1004E00007F01F0BCBF120060CFA0BFB2CFA06F6DB
:1004F00044BFB3460026202FA4BF5E464FF0000B3A
:100500005BEA060C08BF4FF0010B19EB0B09ABFBC4
:10051000027C48EB0608C01B06FB02CC0BFB03CC9D
:1005200071EB0C01C1E70B46024641464846BDE867
:10053000F08B13B54FF000004FF00001AFF30080D7
:10054000BDE81C40704700007CB51D4616460C00F7
:10055000009001D02044401E074B7B442A46694648
:100560000190304600F089FC05461CB10020694628
:1005700000F096FC28467CBD4D09000070B504468D
:1005800085690068C10601D5302600E02026C00735
:1005900007D070BDD4E9012130469047206A401C45
:1005A00020626D1EF6D570BD70B504468569007871
:1005B000C00707D170BDD4E9012120209047206AEF
:1005C000401C20626D1EF6D570BD70B50C46054608
:1005D000012A05D02878800600D5EA69002302E0C8
:1005E000012305E05B1C934202D2E05C0028F9D1B4
:1005F000A869E618C01AA861286A18442862284623
:10060000FFF7BCFF04E0D5E9012114F8010B904786
:10061000B442F8D32846FFF7C7FF70BD2DE9F0417B
:100620000646002410687529314616A510D000F042
:1006300091F9002802DA404213A507E031688A07E1
:1006400001D512A502E0490704D511A5012401E056
:1006500000F089F900210A2206F1240709E0B0FB25
:10066000F2FCB0FBF2F302FB1C0030307854184669
:10067000491C0028F3D123462A463046BDE8F04104
:1006800000F07AB9000000002D0000002B000000EF
:1006900020000000F0B40D460188090502D5214C68
:1006A0007C4402E01F4C7C440E34002100F12406FF
:1006B00008E002F00F071209E75D42EA03721B0926
:1006C0007754491C52EA0307F3D10278002312073A
:1006D00004D5702D06D009B1022311342246F0BC96
:1006E00000F04AB901231034F8E770B504460D460E
:1006F0002146106800F037F9024629462046BDE839
:1007000070400023C6E7D21D22F00703D3E900237F
:10071000C0E70368126843F0200303600823C36145
:100720000023B7E70E7900002DE9F05F8946044603
:100730004FF0000ADFF874B1FB44C0F820A0204657
:10074000E1688847002874D0252806D0D4E9012123
:100750009047206A401C2062F1E700265F46204651
:10076000E16888472028054607DB312D05D2781936
:1007700010F8200C08B10643F1E7B00701D526F0C8
:100780000406C4F81CA00027C4F818A02A2D09D01C
:10079000284607F0E9FA38B304EB8708303DC8F87B
:1007A000185019E059F8041B204604EB87029161A8
:1007B000E1688847012F054618D1E069002820DA52
:1007C00026F020061DE0D8F8180000EB800005EBAD
:1007D00040003038C8F818002046E16888470546D0
:1007E00007F0C2FA0028EED1012F0AD02E2D08D131
:1007F0002046E16888477F1C0546022F46F0200608
:10080000C4DBA069002803DA404246F00106A0617B
:10081000F00701D026F010066C2D0BD0682D09D002
:100820004C2D39D06A2D35D0742D35D07A2D33D05A
:1008300016E038E0E1682F4620468847B842054672
:1008400009D16C2F26D04FF48060E1680643204622
:100850008847054604E06C2F1AD04FF48070064399
:100860000DB3A5F14100192802D8203546F40066E1
:100870004A462946204626604E46FFF761FD80B174
:1008800001280BD0F61D26F0070000F1080956E7F5
:100890004020E4E78020D8E70020D6E706F10409ED
:1008A0004DE7284652E7206ABDE8F09F9E78000099
:1008B00010B5431C02E010F8011B71B18107FAD199
:1008C0004FF0013202C88C1A8C4314EAC211F9D0DD
:1008D000C01A0A0603D0C01E10BDC01A10BD0A04FB
:1008E00001D0801E10BD0902FCD0401E10BD4FF08B
:1008F000000200B5134694469646203922BFA0E870
:100900000C50A0E80C50B1F12001BFF4F7AF09077B
:1009100028BFA0E80C5048BF0CC05DF804EB89006C
:1009200028BF40F8042B08BF704748BF20F8022BAF
:1009300011F0804F18BF00F8012B704770477047C7
:100940007047000010B500F0A7FB001D10BD00BFF0
:10095000C175000009684A0501D540B27047C90554
:10096000FCD500B2704709684A0501D5C0B270478E
:10097000C905FCD580B270472DE9F0470D46994670
:100980009246044600F124080168880604D5E0690F
:1009900021F01001216000E00120A84201DD471B89
:1009A00000E00027A1697A1902EB0900081AA0618A
:1009B0002078C00602D42046FFF7E0FD002608E0BC
:1009C000D4E901211AF806009047206A401C761CE1
:1009D00020624E45F4DB2078C0060AD52046FFF79A
:1009E000CDFD06E0D4E9012130209047206A401C6B
:1009F0002062381EA7F10107F4DC07E0D4E90121E9
:100A000018F805009047206A401C2062281EA5F1B6
:100A10000105F3DC2046FFF7C7FD2078000602D56C
:100A20000220BDE8F0870120FBE711680268006A38
:100A3000530501D508700AE0D30501D5088006E00A
:100A4000130603D5C217C1E9000200E008600120C7
:100A5000704770472DE9FF4F0C461E464FF0FF3799
:100A60008BB0D2E90001DDF860800A908A46C1F3BC
:100A70000A5505B93D46002108464FF00000BAF17D
:100A8000000F00F4400005DA00EB80004FF4400155
:100A900001EA50004FEA9059B9F1010F00DDB94663
:100AA0000A9850EA4A000ED044F61050A5F2FF35DD
:100AB00045432F14B8F1000F1ED07542291E1EDDCC
:100AC000C9F100021CE0B8F1010F4FF0000001D0A5
:100AD000302103E0F24305E02154401CB042FBDB2F
:100AE00030460022002121540B99C1F80880C1E949
:100AF00000200FB0BDE8F08FBD1B6D1CDEE74A463D
:100B000000DA694206A800F0E5FC06AB93E80700AE
:100B100003AB83E8070050460A9900F0D7FD8DE843
:100B20000700A0F500501F3800900398002D0ADD43
:100B300042F21F014A460844002303A90390684675
:100B400001F040F809E0A0F500504A461F380023A4
:100B500003A90390684601F04AF88DE807000004F5
:100B6000000C03D04FF0FF30410800E01046B8F110
:100B7000000F03D00022009215461EE0751E05D41A
:100B800000F08EFA303262556D1EF9D5B34601225F
:100B9000084302D000227F1C04E02078302801D1D5
:100BA00000227F1E002A099784D01DE0112D07DA4C
:100BB00000F076FA303262556D1C50EA0102F5D130
:100BC000084302D00098C8B10EE00021681E05E07D
:100BD000235C625C63542254401E491C8142F7DB53
:100BE000AB46A81B401E0990002004F80B000B9890
:100BF000099AC0F80880C0E9002B7AE711264FF067
:100C0000000857E72DE9F04F88460446D21D22F030
:100C1000070191B0D1E90001CDE90A0107F07BF8A5
:100C200002460B98C00F01D02D2007E020688107F5
:100C300001D52B2002E0202101EAC000032A0990FF
:100C400001D0072A05DB03464146204600F0ECFBB5
:100C50000BE12078800601D5E06900E00620B8F1BC
:100C6000650F814606D0B8F1660F18D0B8F1670F4E
:100C700070D131E00020B9F1110F009001DB112398
:100C800001E009F101030AAA01A90CA8FFF7E2FE9D
:100C9000DDE90C70002609F10105834647E00120DB
:100CA0004B4600904FF000470AAA01A90CA8FFF795
:100CB000D1FEDDE90DB00C995D46002610B909F1B1
:100CC00001000D18B9EB050003D4C0F1FF3609F19E
:100CD0000105A5EB09002BE0B9F1010F01DA4FF096
:100CE00001090020B9F1110F0090484601DD1123E0
:100CF00000E003460AAA01A90CA8FFF7ABFEDDE954
:100D00000C704D4600268346207800070AD4AB4578
:100D100000DA5D4601A8012D04DD411911F8011C1E
:100D2000302907D04F4502DA17F1040F04DA012009
:100D300082460FE06D1EEEE7002F02DCED1B3E4405
:100D400003E0781CA84200DD7D1CB81B00F1010AFD
:100D50004FF000472078000703D4AA4501DB4FF08D
:100D6000FF3A0021B7F1004F0DF143088DF8431011
:100D700024D002202B23002F01DA7F422D230A21C9
:100D8000021EA0F1010000DC5FB197FBF1FC97FBB4
:100D9000F1F201FB1C7C17460CF1300C08F801CD78
:100DA000EEE7A8F1010003702188090501D545216E
:100DB00000E06521A0F1010800F8011C09980FA9C5
:100DC000A1EB0807FF1D00B10120411901EBEA70FA
:100DD000A1693844081A401EA0612078C00602D4D8
:100DE0002046FFF7CBFB099828B1D4E901219047B1
:100DF000206A401C20622078C00622D52046FFF7DA
:100E0000BDFB1EE0002E04DBB34502DD01A8805DC2
:100E100000E03020D4E901219047206A401C206284
:100E2000761CAAF101005FEA000A0AD100F034F949
:100E3000C0680168405CD4E901219047206A401CE9
:100E40002062281EA5F10105DCDC07E0D4E90121C0
:100E500018F8010B9047206A401C2062381EA7F149
:100E60000107F3DC2046FFF79FFB032011B041E6AA
:100E700001694A1C02610878704700B58FB0CDE95E
:100E800001310021059105497944CDE9031011464E
:100E90006846FFF749FC0FB000BD0000E5FFFFFF0B
:100EA0000A6802F8010B0A607047D1E900239A42F0
:100EB00002D2531C0B601070704710B5436913B118
:100EC000AFF3008001E0FFF780FB012010BD127836
:100ED00000F124010A7000224A700122EDE7116836
:100EE0004FF0FF32E9E700002DE9FF5F15468A4623
:100EF0000446DFF8AC80F8440027D8E900103E46ED
:100F0000CDE9001010E03AF816106A4602A800F089
:100F100053FB411C07D02178890603D5E2693918B3
:100F200091420DD80744761C2078800602D5E069EE
:100F3000B84205DDAE42E6DB3AF816000028E2D101
:100F4000A069C01BA0612046FFF718FBD8E900107C
:100F5000CDE90010002017E03AF818106A4602A800
:100F600000F02AFBB0F1FF3F81460BD000250DF1C8
:100F7000080B05E0D4E901211BF8050090476D1C22
:100F80004D45F7D308F10100B0428046E4DB206A0A
:100F9000384420622046FFF707FBBDE8FF9F0000B2
:100FA000F27000002DE9F0418046D21D22F00702C8
:100FB0000025D2E90002F52915A614D0011E72F110
:100FC000000106DA0023D0EB030063EB020211A656
:100FD00008E0D8F800108B0701D50FA602E04907FA
:100FE00001D50EA601251146002408F1240704E0CE
:100FF00000F056F830323A55641C50EA0102F7D13D
:101000002B46324621464046BDE8F041FFF7B4BCCE
:10101000000000002D0000002B0000002000000058
:1010200030B4002100F1240408E002F00705D208E2
:10103000303542EA4372DB086554491C52EA030525
:10104000F3D10468002310A2250707D5A40600D415
:1010500021B1C46901230DA2641EC46130BCFFF735
:101060008BBC10B5044621461068FFF77CFC024695
:101070002046BDE810400023D2E7D21D22F0070130
:10108000D1E90023CCE700000000000030000000A0
:10109000004870477C040024004870479C040024EA
:1010A00030B5B0F10A024FEA900E71F100034EEA3A
:1010B000817EB0EB0E0061EB91014FEA101E4EEA0B
:1010C000017E10EB0E0041EB11114FEA102E4EEA9B
:1010D000016E10EB0E0041EB11214FEA104E4EEA6B
:1010E000014E10EB0E0041EB1141401841F100019F
:1010F0004FEAD00040EA41704FEAD10110EB800581
:101100004FEA810444EA907444EB01046D1944EB06
:101110000404521BA3414FF0000348BF0A3200D51C
:1011200030BD401C41F1000130BD00002DE9F04F01
:1011300004460D46D21D22F0070089B0D0E9009781
:101140004846394606F0E7FD0246F80F01D02D2348
:1011500007E02068810701D52B2302E0202101EA66
:10116000C0038DF820300BB1012000E00020032ADD
:10117000824601D0072A04DB2946204600F054F9B4
:101180003FE12078800601D40D2500E0E569C7F332
:101190000A560D2D49DA00214FEA175B08464FF039
:1011A0000000002F00F4400007DA00EB80004FF44D
:1011B000400100EBD07001EA60008115012901DDDA
:1011C0004FF0FF3100224FEA850CBCF1180F06D317
:1011D0001346ACF118004FF08052C24003E04FF4C8
:1011E000801323FA0CF30CF10C0CBCF1200F04D388
:1011F000ACF1200C09FA0CF001E007FA0CF0002920
:101200004FF0004801DD18B90FE00ED140450CD376
:1012100019EB02095F4121B9404502D19F4329EAF8
:101220000209BBEB175F00D0761C2088000502D5B1
:101230007B48784402E07A487844193808AA302379
:1012400002F80A30037C0AF10101002E0AF1020AB9
:1012500053546A4602DC4FF0300101E04FF0310197
:101260004FF001088DF8001002D0A6F2FF3603E01F
:1012700059EA470100D06B4E002D02DC21780907A6
:1012800004D54FF002082E218DF80110C44600212C
:101290000BE0C7F303433F01C35C491C6D1E02F81A
:1012A0000830052908F1010801DA002DF1DC0021E0
:1012B0000CE000EB1973491C1B786D1E082902F81D
:1012C00008304FEA091908F1010801DA002DF0DCB5
:1012D00021688B0602D516E0A8F10108E04505DD7E
:1012E00002EB080313F8013C302BF5D0B8F1000FE6
:1012F00009DD02EB080313F8013C2E2B03D109078B
:1013000001D4A8F10108002D05DD3E2102F80810E6
:101310006D1E08F10108407C002E02F8080008F15B
:10132000010804DA2D20764202F8080002E02B20A2
:1013300002F808000A214FF47A70864208F1010889
:101340000BDB96FBF0F3303302F8083096FBF0F33A
:1013500008F1010800FB136601E0642E0CDB642039
:1013600096FBF0F3303302F8083096FBF0F308F107
:10137000010800FB136601E00A2E06DB96FBF1F084
:10138000303002F8080008F1010896FBF1F001FB8B
:101390001060303002F80800A16908F1010808EB7C
:1013A000050202EB0A00081AA0612078C00602D4E8
:1013B0002046FFF7E3F8216A08AE01EB0A0020623D
:1013C00004E0D4E9012116F8010B9047BAF1010AB3
:1013D000F7D22078C00602D52046FFF7CFF86E4638
:1013E00009E016F8010B3E280FD0D4E901219047FF
:1013F000206A401C2062B8F10108F2D22046FFF7B3
:10140000D3F809B00320BDE8F08F206A2844206299
:1014100003E0D4E90121302090476D1EEBD3F8E7BB
:10142000D16D000002FCFFFF2DE9F0411F4604468C
:1014300003260168072A01F4006004DB08B116A541
:1014400005E016A503E008B115A500E015A521F0FB
:1014500010002060A069C01EA0610FB1401EA061F5
:101460002046FFF78BF84FB1D4E901213846904769
:10147000206A401C2062C01C206206E0206AFAE755
:10148000D4E9012115F8010B9047761EF8D22046C9
:10149000FFF78AF8BDE8F0814E414E006E616E00A4
:1014A000494E4600696E660010B5436913B1AFF34B
:1014B000008001E0FFF718FD012010BD128800F147
:1014C000240182840022C2840122EDE711684FF0DA
:1014D000FF32E9E72DE9F047814616468AB03548E4
:1014E00078440DC88DE80D0032487844801C03AC68
:1014F0000DC884E80D0041F69B300844372190FB6D
:10150000F1F290FBF1F5A5F1800501FB12041B3C03
:1015100002D56442012000E00020DFF898A0804658
:101520000027FA44AAF1BE0A0EE0E0070AD03246CC
:10153000684607EB470101230AEB810100F057FBE6
:101540008DE8070064107F1C002CEED1194F7F44FA
:10155000AE3F19E0E80715D007EB04100DF1180AAB
:1015600090E80E008AE80E00C068F04201D1981998
:1015700008903246012306A903A800F038FB03AB0C
:1015800083E807006D10641C002DE3D14FF00103C8
:1015900032466946B8F1000F03A802D000F012FBF2
:1015A00001E000F024FBC9E90001C9F808200AB0F5
:1015B000BDE8F087B46B000070B516460C460546D2
:1015C000FFF7C0F9036893F80101012806D0FF2C4A
:1015D0000FD8185D68B101202C7070BDD3F80701D9
:1015E0003246214603F2071303442846BDE8704003
:1015F00018474FF0FF3070BD70477546FFF748FD44
:10160000AE4605006946534620F00700854618B0EF
:1016100020B5FEF70FFFBDE820404FF000064FF069
:1016200000074FF000084FF0000B21F00701AC4617
:10163000ACE8C009ACE8C009ACE8C009ACE8C00936
:101640008D46704710B50446AFF300802046BDE8D4
:101650001040FEF7DABE00004FF0013C50F8042BBA
:1016600051F8043B9A4215D1A2EB0C03934313EAC1
:10167000CC130BD150F8042B51F8043B9A4209D1FA
:10168000A2EB0C03934313EACC13E7D04FF0000016
:10169000704700BFD01A01BAB1FA81F101F0180108
:1016A00022FA01F0CB40C1F12001DBB2C0B2C01A76
:1016B0002CFA01F3D11A914311EAC311E6D1704714
:1016C00001491820ABBEFEE7260002005FEA400C8D
:1016D00008BF91F0000F4FEA8C234FEAC12243EA82
:1016E00051514FEA1C5018BF00F5F0404FEA30004E
:1016F00018BF41F000415FEA6C5C00F02980BCF14A
:10170000FF3F08BF40F080407047130C06BF120433
:101710004FF0100C4FF0000C130E04BF12020CF12E
:10172000080C130F04BF12010CF1040C930F04BF3B
:1017300092000CF1020CD30F04BF52000CF1010C0B
:1017400011464FF00002A0F11F00A0EB0C00704703
:1017500011F0004F08BF704731F000413FF4D5AFA2
:101760000B0C06BF09044FF0100C4FF0000C0B0ED1
:1017700004BF09020CF1080C0B0F04BF09010CF1A6
:10178000040C8B0F04BF89000CF1020CCB0F04BFBB
:1017900049000CF1010CCCF12003A0EB0C0022FA63
:1017A00003F302FA0CF241EA030100F10100704771
:1017B00020F07F4C80EA030023F07F47ACEB070367
:1017C00003F57C5300F0004003F1FF032DE980494D
:1017D0004FEA154B09B44FEA144325EA0B4E24EAAD
:1017E00003480FF2042606EB132749083E785FEA08
:1017F000320203FB0667C7F5000707FB06F64FEA50
:1018000054374FEAD64606F1020607FB066CCCF1C8
:10181000005C4FEA1C472CEA074C07FB06F40CFB64
:1018200006F504EB15464FEA961634BF00204FF03C
:1018300000404FEAD13706FB07FC4FEA1C4C0CFB7B
:101840000BF7D21B03FB0CF761EB07010CFB0EF748
:10185000B0EB074072EB17420CFB08F734BFA2EB6A
:101860000742B2EB074261EB17414FEA0C444FEAE3
:10187000910706FB07FC4FEA1C4C0CFB0BF7B0EB87
:10188000C74072EB573203FB0CF734BFA2EBC742E1
:10189000B2EBC74261EB57310CFB0EF7B0EBC70060
:1018A00072EB57720CFB08F734BFA2EBC702B2EB26
:1018B000C70261EB5771039F4FEA816141EA9211C0
:1018C00004EBCC044FEAD1374FEA826206FB07FCF7
:1018D00042EA90124FEA80604FEA1C4C0CFB0BF777
:1018E000D21B03FB0CF761EB07010CFB0EF7B0EB0F
:1018F000074072EB17420CFB08F734BFA2EB07421C
:10190000B2EB074261EB17414FEA8C554FEA910762
:1019100004EB9C2406FB07FC4FEA1C4C0CFB0BF76A
:10192000B0EBC74072EB573203FB0CF734BFA2EBAE
:10193000C742B2EBC74261EB57310CFB0EF7B0EB7D
:10194000C70072EB57720CFB08F734BFA2EBC7025B
:10195000B2EBC70261EB577115EB4C254FEA816181
:1019600041EA92114FEA82624FEAD13742EA90127D
:1019700006FB07FC44F100044FEA80604FEA1C4C70
:101980000CFB0BF7D21B03FB0CF761EB07010CFB05
:101990000EF7B0EB074072EB17420CFB08F734BFB1
:1019A000A2EB0742B2EB074261EB174115EB1C15A6
:1019B0004FEA813141EA92414FEA823242EA904253
:1019C0004FEA80304FEA0C7644F1000448EA0343C2
:1019D0004EEA0B484FF0000EB2EB080C71EB030718
:1019E00024BF624639464EEB0E0E4FF0000B001836
:1019F000524149414BEB0B0BB2EB080C71EB030767
:101A00007BF1000B24BF624639464EEB0E0E4FF0C1
:101A1000000B0018524149414BEB0B0BB2EB080C89
:101A200071EB03077BF1000B24BF624639464EEB96
:101A30000E0E51EA020718BF46F0010616EB0E76AD
:101A400055F1000254F1000103D5BDE88901BDE85C
:101A50000088BDE88901BDE80048B619524141EB54
:101A60000101A3F10103704780807F7E7D7C7B7A3A
:101A70007978777676757473727171706F6E6E6D3A
:101A80006C6C6B6A6A6968686766666564646363E0
:101A900062616160605F5F5E5E5D5D5C5C5B5B5A66
:101AA0005A595958585757565655555554545353D3
:101AB00052525251515050504F4F4F4E4E4D4D4D2E
:101AC0004C4C4C4B4B4B4A4A4A4949494848484779
:101AD00047474746464645454544444444434343B7
:101AE0004342424242414141002B9C4630D4770060
:101AF0002BD01CB54FEA370703B44FF010004FF05E
:101B00001001BAF1000F06D0BCF1000FDCBF40F0AD
:101B1000080040F008014FF000000FBCBDE8104085
:101B20000BF1010BBBF1010F08BF5FEA170722BFE2
:101B300012F1010211F101014FF0004143F10003E4
:101B400000F0004043EA00007047F9D35708D0E79F
:101B500046EA064613F1400F4FEA16461FDD13F121
:101B6000200FDFBF16430A46002120335B42BED060
:101B7000C3F1200746EA064602FA07F74FEA16467F
:101B800046EA0706C3F1200722FA03F201FA07F733
:101B900021FA03F14FF0000342EA0702A7E746EA01
:101BA000020646EA06464FEA164646EA0106BCBF6A
:101BB00046EA0646360C4FF000034FF000024FF0A5
:101BC000000194E72DE9804C9A46934670B491E861
:101BD000380007C831EA400C48BF34EA430C03D54B
:101BE000FFF7E6FDFFF780FFF0BCBDE8008C2DE9B4
:101BF000804C9A46934670B491E8380007C810F0BC
:101C0000804F08BF13F0804F03D100F005F8FFF7B5
:101C10006BFFF0BCBDE8008C20F07F4780EA03003A
:101C200023F07F4C07EB0C03A3F57C5300F000403E
:101C3000A3F1FE0392F0000F00F0B38095F0000FC7
:101C400000F077802DE901494FEA11404FEA144630
:101C500021EA004800FB06FC24EA064708FB06F6DA
:101C600007FB08F800FB07F718EB06484CEB164C8F
:101C70004FEA124B18EB07484FEA15464CEB17405A
:101C800022EA0B4E0BFB06FC25EA06470EFB06F686
:101C900007FB0EFE0BFB07F71EEB064E4CEB164C3C
:101CA0004FF000061EEB074E4CEB174B18EB0B08E2
:101CB00040F1000018EB0E0B58EB000840F100005B
:101CC0008F1A4FF000013CBFC943661B14BFB5EB30
:101CD000040C00213CBFC943F61B4FEA17444EEAEF
:101CE0008E0E27EA04454FEA1C4704FB07622CEAE4
:101CF000074C05FB07F70CFB05F604FB0CFC16EB89
:101D0000074642EB174216EB0C4642EB1C421BEB1C
:101D1000060658EB0202414146EA9E0601D5BDE89F
:101D20000189B619524141EB0101A3F10103BDE85C
:101D300001894FEA14454FEA114724EA054621EA92
:101D4000074C05FB07F406FB07F70CFB06F105FB48
:101D50000CFC11EB074144EB17444FEA124711EB1F
:101D60000C4144EB1C4422EA074C05FB07F206FB3E
:101D700007F70CFB06F605FB0CFC16EB074642EBDF
:101D8000174216EB0C4642EB1C456A1854F1000151
:101D900048BF7047B619524141EB0101A3F101035D
:101DA000704795F0000F37D04FEA11424FEA1447C1
:101DB00021EA024624EA074C02FB07F106FB07F77B
:101DC0000CFB06F402FB0CFC14EB074441EB17413F
:101DD0004FEA154714EB0C4441EB1C4125EA074C34
:101DE00002FB07F506FB07F70CFB06F602FB0CFCF3
:101DF00016EB074645EB174516EB0C4645EB1C4228
:101E0000121951F1000148BF7047B619524141EB18
:101E10000101A3F1010370474FEA14454FEA11474E
:101E200024EA054621EA074C05FB07F106FB07F704
:101E30000CFB06F24FF0000605FB0CFC12EB074210
:101E400041EB174112EB0C4251EB1C4148BF70476C
:101E5000921841EB0101A3F10103704710B532491B
:101E600004460068884202D0304A904202D1D1F83C
:101E7000080302E02E48D0F8080310F4403F10D0C9
:101E800002F0DCFB6168B1F5803F06D0B1F5003FA0
:101E900003D0B1F5403F26D101E0090C17E08008DE
:101EA00021E000214FF4002001F0AEFC61688A03BC
:101EB000920B18D18A140C2A15D2DFE802F014060E
:101EC00006060606060B0D0F1113890C4900B0FB20
:101ED000F1F008E0000906E0400904E0800902E0B2
:101EE000C00900E0000A13494008884204D820686D
:101EF000816821F4407108E00F49884207D82068C2
:101F0000816821F4407141F48071816010BD0B49FA
:101F100088422068816804D821F4407141F400713E
:101F2000F3E741F44071F0E7002002400021024055
:101F300000600258105E5F0020BCBE0040787D014A
:101F400000B501202DED048B85B004F06BFD00EE93
:101F5000100AB7EEC91AF8EEC08A2D4825A1B7EECF
:101F6000C80A8DED021BB7EEE81A53EC102B8DED6D
:101F7000001B03F055FFB0EE480A04F08FFBB0EEF3
:101F8000408AB0EE680A04F0F7FBF0EE408AB0EE4B
:101F9000490A04F0BDFBB0EE409AB7EEE81A1C48BF
:101FA0001CA1B7EEC90A8DED020BB7EEC80A8DED84
:101FB000001B53EC102B03F033FFDFED1D0A1D4B0C
:101FC00029EE200A28EEA01A68EE201A9B6A05B0B6
:101FD000FDEEC00ABDEEC10ABDEEE11ABDEC048BF8
:101FE00010EE902A10EE101A5DF804EB11EE100AB4
:101FF00000F026B83131313A2020202025662020FB
:10200000202020256620202020202025660D0A0083
:10201000E80300243333333A202020202566202093
:10202000202020256620202020202025660D0A0063
:10203000F6281C3F0C000020FEE7704772B6FEE752
:102040004FF08040416370472DE9F0470F4690F80C
:102050005C109CB0044601294FF0000915D0002601
:10206000DFF8F880012084F85C0018961996216842
:1020700041450ED13A4D0095284603F099FF82461E
:10208000206803F095FF60B10EE002201CB0BDE8AF
:10209000F087206E84F85C6040F02000206601200C
:1020A000F4E7BAF1000F09D0216E4FF0010941F0B9
:1020B00020002066484684F85C60E7E720684146D7
:1020C000884201D0A84201D1264800E0264840F6C7
:1020D0001F72D7F800C0254BBCF1000F23D0D0F8F9
:1020E00008C0D7F804802CF4404C4CEA080CC0F827
:1020F00008C0D4F800C08C4501D0AC4507D1896830
:10210000AB6801F0010103F00103194302E0996893
:1021100001F001010029CDD1BD68396883682943E8
:102120009343194317E0876827F44047876027687F
:102130008F4201D0AF4207D18968AB6801F001013D
:1021400003F00103194302E0996801F0010100293D
:10215000B0D1816891438160ACE70000002002406B
:102160000021024000230240006302580060025830
:102170002DE9F84F4FF0000B0446FE4E0D46CDF80A
:1021800000B0DA4690F85C00FB4F012808D04FF011
:10219000010984F85C90206803F006FF18B154E24E
:1021A0000220BDE8F88F286800280FDB2168B142C3
:1021B0000CD0CA69030327D090FAA0F0B0FA80F0DF
:1021C00000F01F0309FA03F00243CA61D5E90012C7
:1021D0004FF00C0C20681F23C1F384610CEA921CA1
:1021E00002F01F02604493409140026B9A430A43FD
:1021F0000263206803F0D8FE8046206803F0D0FE1A
:1022000058EA000003D048E1C0F38460D8E7AA6828
:102210002968206803F0D0FE2068B04204D1C2686B
:102220006969C2F3C1020BE0D44A1268B9EB127FAC
:1022300002D0C168C90605D4C2686969C2F38202C6
:10224000520004E0C268696902F01002520891402D
:102250002A69042A5AD02B6800EB8202B04202F1AC
:10226000600207D103F0F8401368084340F00040D3
:10227000106008E0D2F800C003F0F84008430CF00A
:102280000041014311602068B0421CD12A69E9690C
:1022900000EB8200026E22F080720A43026695F81B
:1022A000201020682A6901290AD00021B042AAD151
:1022B00000EB8200026E22F000720A430266ECE03C
:1022C0004FF00071F2E795F821202969012A17D013
:1022D0005FF0000200EB8100016E21F0004111432C
:1022E0000166297E20682A6901290CD00021036932
:1022F00002F01F02914023F4F0420A430261CCE055
:102300004FF00042E6E74FF40061F0E7B04273D1CE
:10231000002103F03FFE000320684FF000016DD064
:1023200003F038FE90FAA0F0B0FA80F128680203BA
:1023300069D090FAA0F0B0FA80F0814204D1002276
:102340002068114603F048FE2068012103F022FEB8
:10235000000320684FF0010158D003F01BFE90FAF3
:10236000A0F0B0FA80F12868020354D090FAA0F0EF
:10237000B0FA80F0814204D120680022012103F0EC
:102380002BFE2068022103F005FE000320684FF0B9
:10239000020143D003F0FEFD90FAA0F0B0FA80F104
:1023A000286802033FD090FAA0F0B0FA80F0814292
:1023B00004D120680022022103F00EFE20680321D0
:1023C00003F0E8FD000320684FF003012ED003F076
:1023D000E1FD90FAA0F0B0FA80F1286802032AD05B
:1023E00090FAA0F0B0FA80F0814256D12068002225
:1023F000032103F0F1FD50E020E0FFE703F0CAFD08
:10240000C0F3846192E7C0F3846096E703F0C2FDF5
:10241000C0F38461A7E7C0F38460ABE703F0BAFDC3
:10242000C0F38461BCE7C0F38460C0E703F0B2FD91
:10243000C0F38461D1E7C0F38460D5E7016E2A78E8
:1024400001F0F841B1EB826F03D1016E21F0004140
:10245000016620682978426E02F0F842B2EB816F83
:1024600003D1416E21F00041416620682978826ED7
:1024700002F0F842B2EB816F03D1816E21F000418E
:10248000816620682978C26E02F0F842B2EB816F53
:1024900003D1C16E21F00041C1662068816811F04E
:1024A000010F71D1364AB042EB6829680FD1D0F8DC
:1024B000B0C003F01808C1F3130322FA08F20A406F
:1024C0002CEA030C4CEA020CC0F8B0C00EE0D0F8C5
:1024D000C0C003F01808C1F3130322FA08F20A403F
:1024E0002CEA030C4CEA020CC0F8C0C02548E9688D
:1024F00081427DD1286801031BD090FAA0F1B1FA86
:1025000081F1491C01F01F0109294FEA00313CD833
:10251000002911D090FAA0F1B1FA81F101F1010185
:1025200001F01F0109FA01F209D100BFC0F3846173
:1025300009E0C0F38461E4E7C0F38461EEE790FA58
:10254000A0F1B1FA81F101F1010101F01F0142EAAC
:10255000816102D1C0F3846003E090FAA0F0B0FA88
:1025600080F000F1010000F01F0000EB400041EAA4
:10257000005140E000600258002102400010005C61
:10258000FFFF0F000000FF4765E000290FD000BFEC
:1025900090FAA0F1B1FA81F101F1010101F01F01FE
:1025A00009FA01F206D100BFC0F3846106E0C0F36E
:1025B0008461F1E790FAA0F1B1FA81F101F1010132
:1025C00001F01F0142EA816102D1C0F3846003E09F
:1025D00090FAA0F0B0FA80F0434A00F1010000F058
:1025E0001F0000EB400002EB005041EA000100E058
:1025F00005E041F00071AA68206803F0DDFCD5F821
:1026000000C0BCF1000F26DA384B20683849DFF8EB
:10261000E490984201D0B84201D10A4600E04A460F
:102620009268984202F0E07201D0B84209D19D68E8
:10263000D7F8088005F0010508F0010845EA08050B
:1026400002E0B56805F001054DB1216E4FF0010AB9
:1026500041F020002066504684F85CB0A1E5264D8C
:10266000AC451CD115021AD4B042F4D1984202D024
:10267000B84200D049468B6842F4000023F0E07273
:1026800002438A601E491D480968B1FBF0F0400012
:10269000801C00E0401E00900028FBD1DBE7194DB4
:1026A000AC450CD1D5010AD4B042D4D1984202D065
:1026B000B84200D049468B6842F080700EE0124D5F
:1026C000AC45C8D15502C6D4B042C4D1984202D05C
:1026D000B84200D049468B6842F4800023F0E07293
:1026E00002438A60B7E70000000020FE002002409D
:1026F0000023024000630258000052C7400D03004F
:1027000000000024000021C3000084CB2DE9F84321
:102710004FF0000504002E46009502D0206E18B13F
:1027200008E00120BDE8F883204600F043F9656623
:1027300084F85C5020688168C1F3407119B18168E8
:102740008E4A1140816020688168C1F3007181B9AF
:1027500081688B4A114041F0805181608A498948E3
:102760000968B1FBF0F0401C00E0401E009000281A
:10277000FBD120688168C1F3007141B9216E012647
:1027800041F010012166616E41F00101616603F0C4
:102790000BFC216EC90600D420B1206E012640F04A
:1027A0001000E0E0206E20F4807040F0020020660F
:1027B00020688168754D11F0010F1ED1744B754A68
:1027C000984201D0904207D19968976801F00101C1
:1027D00007F00107394302E0A96801F0010161B97E
:1027E000984201D0904201D16B4800E06B4882686A
:1027F000616822F47C120A4382602168A9421FD1D9
:10280000637ED4E90207E26B5B033A43082805D0F4
:102810000C280FD01C280FD018280FD05FF0000014
:1028200000F00C0794F8200043EA47031A4342EAF9
:1028300000400FE00420F3E70820F1E71C20EFE759
:10284000627E94F82030A768E06B520342EA0342AC
:102850003843104394F82020012A04D1A28C504B15
:1028600003EB42421043A26A2AB1E36A02F478728F
:10287000024343EA0200CA68A9420BD1494B1A40FD
:102880000243CA602068626B016921F04061114314
:10289000016103E0444B1A400243CA60206803F020
:1028A00083FB0746206803F07BFB07434ED120687B
:1028B000A946484506D1217E94F83820890341EA8B
:1028C000420103E0227E216B41EA8231C26844F278
:1028D00003039A430A43C26094F844000128206825
:1028E00003D0016921F0010122E048450ED1D4E96D
:1028F000121CD4E9143502692C4F41EA0C012B4318
:102900003A401943114341F0010111E0D4E9131792
:10291000B4F848C0DFF89880636D026908EB0C4C8E
:10292000224D394343EA0C036D1E2A4019431143DB
:1029300001612068236C026922F070421A4302612F
:102940002068484502D02046FFF788FA2069012810
:1029500020680BD0016B21F00F010163206E20F085
:10296000020040F0010020663046DBE6E269016BC0
:10297000521E21F00F011143EFE70000C0FFFF5F7F
:10298000C0FFFF7F400D03000000002400600258DC
:102990000020024000210240002302400063025850
:1029A0000000FEFF0740F0FF03C0F0FF1FF800FC2F
:1029B0000100FFFF70B5B4B0044614212EA8FDF746
:1029C00096FFB8216846FDF792FF1C4920688842AF
:1029D00032D1022081230022CDE903300590402628
:1029E00006902025CDE907624FF400210992289234
:1029F00014468DE82600684601F054F808B1FFF748
:102A00001DFB0F48016841F020010160006800F0E3
:102A1000200033900A480830016841F00401016049
:102A200000682EA900F00400339003202E95CDE914
:102A30002F04044800F00CFB34B070BD00200240AD
:102A4000D8440258000802582DE9F84F044600F017
:102A50000DFC00903CB194F83500022806D080218E
:102A600061650020E4E00120BDE8F88FC74DC74E46
:102A7000C649183520683036DFF81483DFF8149320
:102A80008842DFF814A3DFF814B32ED0A8422CD06C
:102A9000B0422AD0404528D0484526D0504524D0C1
:102AA000584522D0BD4A183290421ED0BC4A9042AE
:102AB0001BD0BB4A1832904217D0B94A30329042EC
:102AC00013D0B74A483290420FD0B54A6032904294
:102AD0000BD0B34A7832904207D0B14A903290423C
:102AE00003D0AF4AA832904209D1026822F01E02F8
:102AF00002602068426922F08002426103E00268BD
:102B000022F00E02026027688F4238464DD0A8425C
:102B10004BD0B04249D0404547D0484545D05045BC
:102B200043D0584541D09D4A183290423DD09C4AEE
:102B300090423AD09A4A1832904236D0984A30326F
:102B4000904232D0964A483290422ED0944A603217
:102B500090422AD0924A7832904226D0904A9032BF
:102B6000904222D08E4AA83290421ED08D4A904286
:102B70001BD08C4A1432904217D08A4A2832904295
:102B800013D0884A3C3290420FD0864A503290424D
:102B90000BD0844A6432904207D0824A7832904205
:102BA00003D0804A8C32974204D1206E026822F40E
:102BB0008072026075492068884228D0A84226D0D9
:102BC000B04224D0404522D0484520D050451ED0A8
:102BD00058451CD071491831884218D07049884234
:102BE00015D06F491831884211D06D493031884273
:102BF0000DD06B494831884209D06949603188421B
:102C000005D067497831884201D065499031016823
:102C100021F0010101600EE000F028FB0099401A4C
:102C2000052808D9202262650321002084F8351088
:102C300084F8340017E73868C007EDD1534A012102
:102C4000206890422ED0A8422CD0B0422AD04045D5
:102C500028D0484526D0504524D0584522D04F4B47
:102C6000183398421ED04E4B98421BD04C4B183311
:102C7000984217D04A4B3033984213D0484B4833D0
:102C800098420FD0464B603398420BD0444B783378
:102C9000984207D0424B9033984203D0404BA83320
:102CA000984208D194F85C703F23A06D07F01F078D
:102CB000BB40836007E094F85C30A06D03F01F0315
:102CC00001FA03F34360206890424DD0A8424BD0F4
:102CD000B04249D0404547D0484545D0504543D003
:102CE000584541D02D4A183290423DD02C4A90424E
:102CF0003AD02B4A1832904236D0294A303290428C
:102D000032D0274A483290422ED0254A6032904233
:102D10002AD0234A7832904226D0214A90329042DB
:102D200022D01F4AA83290421ED01E4A90421BD089
:102D30001C4A1432904217D01A4A2832904213D0BB
:102D4000184A3C3290420FD0164A503290420BD073
:102D5000144A6432904207D0124A7832904203D02B
:102D6000104A8C3290420BD1D4E919024260E06ED5
:102D700030B1026822F480720260D4E91C02426021
:102D8000002084F8351084F834006DE6100002400D
:102D9000580002407000024088000240A00002403B
:102DA00010040240085402582DE9F05F28B190F851
:102DB0003510022904D0802141650120BDE8F09F33
:102DC000904C904B0168183C18338E4ADFF83C92C7
:102DD000A1428D4CDFF838E28E4FDFF83CB2DFF8CD
:102DE0003CA28F4D8F4E31D091422FD099422DD0A1
:102DF000A1422BD0494529D0714527D0B94225D0D1
:102E0000DFF810C20CF1180C61451FD0DFF808C2C2
:102E1000ACF1600C614519D0DFF8FCC1ACF1480C95
:102E2000614513D0DFF8F0C1ACF1300C61450DD035
:102E3000DFF8E4C1ACF1180C614507D0594505D065
:102E4000514503D0A94201D0B1422CD1DFF8B4C121
:102E50004FF0040880F83580ACF1180C61451DD0A6
:102E600091421BD0994219D0A14217D0494515D0A3
:102E7000714513D0B94211D06648183081420DD047
:102E800065486038814209D063484838814205D09E
:102E900061483038814201D05F481838086820F016
:102EA00001000860ABE0D1F800C02CF00E08DFF89C
:102EB00054C1C1F80080ACF1180C0168614527D0FD
:102EC000914225D0994223D0A14221D049451FD01B
:102ED00071451DD0B9421BD0DFF838C10CF1180C78
:102EE000614515D0DFF830C1ACF1600C61450FD001
:102EF000DFF824C1ACF1480C614509D0DFF818C1F6
:102F0000ACF1300C614503D0DFF80CC1ACF1180C0A
:102F1000D1F800C02CF0010CC1F800C0DFF8E4804B
:102F20004FF0010C0168A8F11808414546D09142C4
:102F300044D0994242D0A14240D049453ED071454B
:102F40003CD0B9423AD0334A1832914236D0324A54
:102F5000603A914232D0304A483A91422ED02E4ABD
:102F6000303A91422AD02C4A183A914226D05945FB
:102F700024D0514522D0A94220D0B1421ED02A4AA5
:102F800091421BD0284A1432914217D0264A283247
:102F9000914213D0244A3C3291420FD0224A5032FF
:102FA00091420BD0204A6432914207D01E4A7832B7
:102FB000914203D01C4A8C32914218D1016E0A68AA
:102FC00022F480720A6090F85C20816D02F01F028A
:102FD0000CFA02F24A60D0E919124A60C16E31B1AE
:102FE0000A6822F480720A60D0E91C124A6000224A
:102FF000016D80F835C080F8342001B18847002089
:10300000DCE6000028000240580002407000024048
:1030100088000240A0000240700402408804024080
:10302000A0040240B80402400854025870B5044697
:1030300000F01CF90546601C02D0044800780444E6
:1030400000F014F9401BA042FAD370BD000000202C
:103050002DE9F84F03247A4D00234FF001094FF07A
:10306000B04B4FF00F0AE4E009FA03F6324078D093
:103070000F7907F00307012F01D0022F1AD18768BB
:103080004FEA430ED1F80CC004FA0EF827EA0807FD
:103090000CFA0EFC4CEA070CC0F808C0476891F81F
:1030A00004C0B743CCF3001C0CFA03FC4CEA070C39
:1030B000C0F804C00E79F643B6070BD0C6684FEAD5
:1030C00043088F6804FA08FC26EA0C0607FA08F79A
:1030D0003743C7600E7906F00306022E12D1DE08D0
:1030E0000F694FEA437C00EB8606B646366A4FEA24
:1030F000DC6C0AFA0CF807FA0CF726EA08063743E4
:10310000CEF820700F7906684FEA430807F00307EE
:1031100004FA08FC07FA08F726EA0C0637430760AA
:103120004E6816F4403F1CD0464E376847F0020701
:10313000376036689F0706F00206009623F0030604
:1031400006F1B046B6463F0FD6F80864DFF8F880BF
:103150000AFA07FC404526EA0C0603D14FF0000CA2
:103160003AE065E0DFF8E4C0604502D14FF0010CC1
:1031700032E0DFF8DCC0604502D14FF0020C2BE0FA
:10318000DFF8D0C0604502D14FF0030C24E0DFF837
:10319000C8C0604502D14FF0040C1DE0DFF8BCC090
:1031A000604502D14FF0050C16E0DFF8B4C0604571
:1031B00002D14FF0060C0FE0DFF8A8C0604502D145
:1031C0004FF0070C08E0DFF8A0C0604502D14FF0D7
:1031D000090C01E04FF00A0C0CFA07FC4CEA060C53
:1031E000CEF808C44F68DBF80060FF0226EA02064A
:1031F00000D516435F46CBF80060D1F804C0DBF879
:1032000004605FEA8C2C26EA020600D516437E6035
:103210006E684F6826EA0206BF0300D516436E604B
:103220002E684F6826EA0206FF0300D516432E607B
:103230005B1C0A6832FA03F67FF416AFBDE8F88F1C
:1032400080000058F444025800000258000402585C
:1032500000080258000C02580010025800140258CE
:1032600000180258001C02580024025801488068C7
:103270007047000000000020024881680278114475
:103280008160704700000020032010B500F086F830
:1032900001F01AFA0F4A104914681368C4F30322A4
:1032A00003F00F038A5CC95C02F01F0201F01F01EA
:1032B000D0400A4A20FA01F11160094908600F2044
:1032C00000F010F808B1012010BD00F02BF800202C
:1032D00010BD000018440258A27F0008040000241A
:1032E0000000002470B50D4D04462878A0B14FF4BD
:1032F0007A71B1FBF0F00A490968B1FBF0F001F016
:1033000012FD48B9102C07D200222146501E00F0B1
:1033100025F800206C6070BD012070BD0000002009
:1033200000000024054808B5016841F00201016071
:10333000006800F00200009008BD0000F44402584C
:10334000002809DB410900F01F028900012001F17A
:10335000E0219040C1F80001704700000E4BF0B42E
:103360001B680D46C3F30223C3F10706042E00D9E0
:103370000426191D072901D2002300E0DB1E0124C9
:1033800004FA06F19C40491E2940641E99401440ED
:103390002143F0BC04F0D7BC0CED00E0064900F07E
:1033A000070210B54FF6FF040868044B204040EABE
:1033B00002201843086010BD0CED00E00000FA0583
:1033C000134970B50A68D243520705D5096801F060
:1033D0000701814213D118E00A6822F00702024374
:1033E0000A60FFF743FF0A4D4FF47A760446083D22
:1033F00007E000BFFFF73AFF001BB04201D90120F0
:1034000070BD2868C0438004F4D4002070BD000063
:103410000C48025810B501F011F905490968054A30
:10342000C1F30211515C01F01F01C84010BD000042
:1034300020440258A27F00084A4930B5494C0B1D70
:103440000A680C3409681D68246802F0030305F05B
:103450000102C1F30511C4F3CC04002914FB02F2EC
:1034600000EE102AF8EE400A76D0414A9FED3E1A4F
:10347000DFED3E1AB7EE000A23B1012B5AD0022B22
:1034800018D15CE0374C283C23689B0612D5394B99
:10349000246801EE901A1168C4F3C104F8EE612AA1
:1034A000E34001EE903AC1F30801F8EE611A81EEB3
:1034B000A22A07E002EE101A1168F8EE422A81EE05
:1034C000A22A45E001EE901A1168F8EE611A40EE6A
:1034D000811A71EE800A62EE200AC1F3462101EEE4
:1034E000101AB8EE411A31EE001AC0EE811ABCEE85
:1034F000E11A80ED001A1168C1F3064101EE101ABD
:10350000B8EE411A31EE001AC0EE811ABCEEE11A93
:1035100080ED011A1168C1F3066101EE101AB8EED0
:10352000411A31EE000A80EE801ABCEEC10A80ED2D
:10353000020A30BD01EE901ADFED0F2A03E001EE22
:10354000901ADFED0E2A1168F8EE611A82EEA12AB8
:10355000C1F30801B6E7FFE7002101604160816027
:1035600030BD000028440258000000390024744C8B
:10357000304402580090D0030024744A20BCBE4B53
:10358000494930B5484C0B1D0A68143409681D6858
:10359000246802F00303C5F30012C1F30531C4F33C
:1035A000CC04002914FB02F200EE102AF8EE400AC7
:1035B00075D03F4A9FED3D1AB7EE000A6BB1DFEDC3
:1035C0003D1A012B01D0022B64D002EE101A1168B3
:1035D000F8EE422A81EEA22A21E0334C283C2368EF
:1035E0009B0612D5344B246801EE901A1168C4F37F
:1035F000C104F8EE612AE34001EE903AC1F30801FC
:10360000F8EE611A81EEA22A0BE001EE901ADFEDCE
:103610002B2A00BFF8EE611A116882EEA12AC1F3CD
:10362000080101EE901A1168F8EE611A40EE811A55
:1036300071EE800A62EE200AC1F3462101EE101AF3
:10364000B8EE411A31EE001AC0EE811ABCEEE11A52
:1036500080ED001A1168C1F3064101EE101AB8EEB0
:10366000411A31EE001AC0EE811ABCEEE11A80ED6B
:10367000011A1168C1F3066101EE101AB8EE411A81
:1036800031EE000A80EE801ABCEEC10A80ED020A1B
:1036900030BD04E001EE901ADFED092ABAE70021FF
:1036A000016041608160F3E728440258000000395E
:1036B000384402580024744A0090D0030024744C0B
:1036C00020BCBE4B494930B5484C0B1D0A681C3420
:1036D00009681D68246802F00303C5F30022C1F3E2
:1036E0000551C4F3CC04002914FB02F200EE102AA9
:1036F000F8EE400A75D03F4A9FED3D1AB7EE000A3A
:103700006BB1DFED3D1A012B01D0022B64D002EE2C
:10371000101A1168F8EE422A81EEA22A21E0334CF9
:10372000283C23689B0612D5344B246801EE901A7E
:103730001168C4F3C104F8EE612AE34001EE903A47
:10374000C1F30801F8EE611A81EEA22A0BE001EE46
:10375000901ADFED2B2A00BFF8EE611A116882EE95
:10376000A12AC1F3080101EE901A1168F8EE611A5E
:1037700040EE811A71EE800A62EE200AC1F3462102
:1037800001EE101AB8EE411A31EE001AC0EE811A9D
:10379000BCEEE11A80ED001A1168C1F3064101EE9A
:1037A000101AB8EE411A31EE001AC0EE811ABCEEC2
:1037B000E11A80ED011A1168C1F3066101EE101AD9
:1037C000B8EE411A31EE000A80EE801ABCEEC10A52
:1037D00080ED020A30BD04E001EE901ADFED092A07
:1037E000BAE70021016041608160F3E72844025894
:1037F00000000039404402580024744A0090D0036D
:103800000024744C20BCBE4B2DE9F04FA14A054664
:10381000DFF87CA280F48070DFF8809289B0131109
:103820009F4C08439C48AAF104064FF0805C4FF07F
:10383000005828D0DFF858B285F480670F430BF1A9
:10384000080B4FD085F400670F4360D085F4805794
:103850000F4372D085F400570F434FF480394FF473
:10386000003E69D085F400270F4373D085F480377C
:103870000F4370D085F480460E436DD085F400422E
:103880000A436AD02AE0DAF8001001F0070105299E
:1038900024D2DFE801F0F9AA6A259F0006A8FFF705
:1038A000CBFD079809B0BDE8F08F6846FFF768FECA
:1038B0000098F7E703A8FFF705FF0398F2E72068F1
:1038C000C0F3C10022FA00F0ECE72268D2056ED501
:1038D00061456CD11846E5E74145E3D00020E1E7BA
:1038E0004846DFE7DBF8001001F46001B1F5800F16
:1038F0003BD005DC00294AD0B1F5001FEED174E0C1
:10390000B1F5C00FECD0B1F5000FE7D162E0DBF804
:10391000001001F0E061B1F1007F26D004DCB1B30A
:10392000B1F1807FDAD160E0B1F1407FD8D0B1F160
:10393000806FD3D14EE000E01BE0DAF8001001F414
:10394000E041B1F5005F10D008DC01B3B1F5805F54
:10395000C4D14AE035E058E065E088E0B1F5405F69
:10396000BED0B1F5804FB9D134E020688000B5D524
:10397000A0E7DAF8001001F4E021B1F5403F6DD086
:1039800006DC61B149457BD07145A7D158E07BE0A9
:10399000B1F5802F66D0B1F5A02F9FD10DE000F0DA
:1039A0006FFE7FE76846FFF7EBFD01987AE728E0B6
:1039B00003A8FFF787FE049874E7216889038AD477
:1039C0008CE7DBF8001011F440310ED0494510D0DF
:1039D000714583D13168256801F040516D077FF54D
:1039E00074AF00297FF471AF69E720680001E7D563
:1039F0005BE720688000E3D503A8FFF763FE059826
:103A000050E722689203DBD566E7306810F4803017
:103A10003AD04845D4D120680001D1D56846FFF797
:103A2000AFFD02983EE7DBF8001001F0E041B1F194
:103A3000405F13D008DC71B1614521D04145BFD151
:103A400020688000B4D449E7B1F1804F0AD0B1F1C9
:103A5000A04FB2D042E7FFF7DDFC23E72068400724
:103A6000AED52CE72068C005AAD533E708E0DAF820
:103A7000001011F04051A0D0614505D041459FD1C3
:103A8000206800018ED429E72068800198D505E7D9
:103A9000504402580090D00340787D010080BB0064
:103AA000004402582DE9FE4F0546DFF800A450F807
:103AB000081B0024FD4FC943019005F1280026464C
:103AC0000AF1240A009008011DD4686E50B1B0F5C7
:103AD000801F0CD0B0F5001F0ED0B0F5401F1ED0D7
:103AE00001240FE0386840F40030386017E0019896
:103AF000022102F077FE03E00098022102F002FFAB
:103B000004000CD026462888C043C00523D4A86DE5
:103B100005281ED2DFE800F00C11161B1B006A6E90
:103B2000DAF8001021F440111143CAF80010EAE756
:103B3000386840F40030386009E00198002102F054
:103B400051FE03E00098002102F0DCFE0446C4B1FF
:103B500000E0012426462888DFF85083C04308F19E
:103B60002C0840052FD4D5F8A400B0F5C00F28D0FC
:103B700010DCB8B1B0F5001F19D0B0F5800F0FD12F
:103B80001AE0AA6DDAF8001021F007011143CAF813
:103B90000010E0E7B0F5000F13D0B0F5200F10D003
:103BA00001240FE0386840F40030386009E00198E3
:103BB000002102F017FE03E00098002102F0A2FEAF
:103BC000044694B126462888C043000530D4D5F871
:103BD000A800B0F1407F29D011DCC0B1B0F1807FE6
:103BE0001AD0B0F1007F10D11BE0D5F8A420D8F88E
:103BF000001021F460011143C8F80010E3E7B0F1B0
:103C0000806F13D0B0F1A06F10D001240FE038689E
:103C100040F40030386009E00198002102F0E2FD34
:103C200003E00098002102F06DFE044694B12646A0
:103C30002868DFF878B2C0430BF1200B80011FD455
:103C4000E86CD8B110280FD0202812D0302815D019
:103C5000012414E0D5F8A820D8F8001021F0E06184
:103C60001143C8F80010E3E7386840F400303860CA
:103C700004E00198022102F0B5FD044674B1264625
:103C80002888C043C0042BD4E86DB0F5005F20D075
:103C90000DDCA0B1B0F5805F0FD115E0EA6CDBF868
:103CA000001021F030011143CBF80010E8E7B0F527
:103CB000405F13D0B0F5804F10D001240FE038687A
:103CC00040F40030386009E00198002102F08AFDDC
:103CD00003E00098002102F015FE04468CB1264650
:103CE0002888C043800429D4286EB0F5403F23D0F3
:103CF00010DC08B3B0F5803F14D0B0F5003F0FD111
:103D000015E0EA6DDAF8001021F4E0411143CAF839
:103D10000010E5E7B0F5802F0ED0B0F5A02F0BD046
:103D200001240AE00198012102F05CFD03E0009803
:103D3000012102F0E7FD044694B126462888C043DD
:103D400040042AD4D5F8AC00B0F1405F23D010DC99
:103D500008B3B0F1805F14D0B0F1005F0FD115E06F
:103D60002A6EDAF8001021F4E0211143CAF800109D
:103D7000E4E7B0F1804F0ED0B0F1A04F0BD001249A
:103D80000AE00198012102F02DFD03E000980121D5
:103D900002F0B8FD044674B126462888C0430004EA
:103DA0001FD4E86ED8B1B0F1805F0ED0B0F1005FE3
:103DB00010D0012414E0D5F8AC20D8F8001021F080
:103DC000E0411143C8F80010E7E7386840F40030DC
:103DD000386004E00198012102F004FD044674B14A
:103DE00026462868C043C0011ED4A86CD0B1012863
:103DF0000ED0022811D0032814D0012413E0EA6E5B
:103E0000DAF8001021F040511143CAF80010E8E739
:103E1000386840F40030386004E00198022102F074
:103E2000E1FC04466CB126462868C043400255D4E4
:103E30001F48016841F480710160FFF717FA81465D
:103E40000EE0AA6CDBF8001021F003011143CBF85F
:103E50000010E9E7FFF70AFAA0EB090064283BD855
:103E600013480068C005F5D5BCBBDFF84090B5F835
:103E7000B01009F14409D9F8000001F4407100F4D0
:103E80004070884211D0D9F80010D9F8002021F4F0
:103E9000407142F48032C9F80020D9F8002022F4A1
:103EA0008032C9F80020C9F8001003E02C44025801
:103EB00000480258D5F8B000B0F5807F19D1FFF75F
:103EC000D5F9029011E000BFFFF7D0F90299411A2D
:103ED00041F28830814208D9032426462878DFF849
:103EE0001494C043C00721D03CE0D9F800008007FB
:103EF000EAD5D5F8B010C1F301200328FE480DD053
:103F0000016821F47C510160B5F8B020D9F80010A7
:103F1000C2F30B021143C9F80010DFE7F74A036848
:103F200002EA111223F47C511143ECE7A86F182820
:103F300016D005DCA0B1082808D0102804D10AE06A
:103F400020280DD028280BD001240AE00198012157
:103F500002F048FC03E00098012102F0D3FC044683
:103F600064B126462878C04380071ED4686F0628AF
:103F700019D2DFE800F0160C11161616AA6FD9F840
:103F8000001021F038011143C9F80010EAE7019848
:103F9000012102F027FC03E00098012102F0B2FCAD
:103FA00004467CB100E0012426462878C04340073F
:103FB0001FD4D5F89000062819D2DFE800F0160CBF
:103FC000111616166A6FD9F8001021F00701114377
:103FD000C9F80010E9E70198012102F003FC03E0B1
:103FE0000098012102F08EFC0446A4B100E00124F7
:103FF00026462878C04380062BD4D5F88C00B0F133
:10400000405F24D011DC10B3B0F1805F15D0B0F167
:10401000005F10D116E0D5F89020D8F8001021F0FC
:1040200007011143C8F80010E3E7B0F1804F0ED04C
:10403000B0F1A04F0BD001240AE00198002102F05A
:10404000D1FB03E00098022102F05CFC044694B12D
:1040500026462878C04340062BD4D5F89800B0F502
:10406000406F24D011DC10B3B0F5806F15D0B0F5DF
:10407000006F10D116E0D5F88C20D9F8001021F08F
:10408000E0411143C9F80010E3E7B0F5805F0ED0BE
:10409000B0F5A05F0BD001240AE00198002102F0E6
:1040A000A1FB03E00098022102F02CFC044694B12D
:1040B00026462878C04300062BD4D5F89C00B0F5DE
:1040C000C04F24D011DC10B3B0F5005F15D0B0F5AF
:1040D000804F10D116E0D5F89820D8F8001021F4C0
:1040E000E0511143C8F80010E3E7B0F5004F0ED0DF
:1040F000B0F5204F0BD001240AE00198002102F016
:1041000071FB03E00098022102F0FCFB044654B16D
:1041100026462878C04300071ED4D5F88000B0F5A5
:10412000805F0AD00FE0D5F89C20D8F8001021F469
:1041300060411143C8F80010EBE70098022102F03B
:10414000E1FB00B10126D5F88020D9F8001021F458
:1041500040511143C9F800102878C043C00613D459
:10416000D5F89400B0F5807F05D10098022102F0C7
:10417000C9FB00B10126D5F89420D8F8001021F42D
:1041800040711143C8F800102868C043000316D4DA
:10419000D5F8A00038B1B0F5803F09D0B0F5003FA8
:1041A0000BD001240AE00198002102F01BFB03E080
:1041B0000098022102F0A6FB04468CB1264628682E
:1041C000C043400322D4D5F88400B0F5801F11D03D
:1041D000B0F5001F13D0B0F5401F15D0012414E036
:1041E000D5F8A020D8F8001021F440311143C8F8C8
:1041F0000010E4E7386840F40030386004E00098CC
:10420000012102F07FFB04465CB126462868C043CA
:10421000C0031CD4286D70B1B0F5803F10D00124CC
:1042200014E0D5F88420D9F8001021F4401111438E
:10423000C9F80010EAE7386840F40030386004E05C
:104240000198022102F0CEFA0446DCB12646286825
:10425000C043800005D40098022102F053FB00B156
:1042600001262868C04380031BD4E86FB8B1B0F5BD
:10427000807F10D0B0F5007F11D0B0F5407F0ED018
:1042800001240DE02A6DDBF8001021F48031114388
:10429000CBF80010DBE7386840F4003038607CB3BE
:1042A00026462868C043C00207D42A6FDAF80010F7
:1042B00021F000411143CAF800102868C043800271
:1042C00007D4AA6EDAF8001021F080711143CAF801
:1042D00000102868C043400009D40748016821F451
:1042E000004101600168D5F8B420114301602868DD
:1042F000C04306E05444025810440258CFFFFF0068
:104300001DE007D46A6DDBF8001021F04051114325
:10431000CBF800102868C043000208D4D5F88820E4
:10432000D9F8001021F440011143C9F80010287990
:104330000024C04300F00100204309D00EE0EA6FE2
:10434000D9F8001021F440711143C9F80010A8E712
:104350000198002102F046FA00B106462879C043D0
:1043600000F00200204305D10198012102F03AFA41
:1043700000B106462879C04300F00400204305D16F
:104380000198022102F02EFA00B106462879C043B6
:1043900000F00800204305D10098002102F0B2FA95
:1043A00000B106462879C04300F01000204305D133
:1043B0000098012102F0A6FA00B106462879C04310
:1043C00000F02000044304D10098022102F09AFA80
:1043D00000B916B10120BDE8FE8F0020FBE7000008
:1043E0002DE9F05F04000F467ED0DFF83882D8F860
:1043F000000000F00F00B8420CD2D8F8001021F0F5
:104400000F013943C8F80010D8F8000000F00F0081
:10441000B84269D12078844D40070AD520692968BF
:1044200001F07001884204D9296821F0700101432C
:10443000296020787C4E361D00070AD560693168F6
:1044400001F07001884204D9316821F07001014304
:1044500031602078C0060AD5A069316801F4E061B6
:10446000884204D9316821F4E06101433160207849
:10447000DFF8B4B180060BF1080B0CD5E1695846A2
:10448000DBF8002002F07002914204D9026822F0A9
:1044900070020A430260207880070AD5E068296824
:1044A00001F00F01884204D9296821F00F0101436E
:1044B00029602078C0073ED05B49A2682868183977
:1044C00020F47060104328606068022818D0032828
:1044D00019D00968012819D0490700294ADADFF8FC
:1044E00048A1AAF1080A00E044E0DAF8002022F02E
:1044F00007020243CAF80020FEF7B8FE814612E028
:1045000009688903E9E709688901E6E7C905E4E77D
:10451000FEF7ACFEA0EB090141F28830814202D9DE
:104520000320BDE8F09F6168DAF8000000F0380071
:10453000B0EBC10FECD1207880070AD5E06829687C
:1045400001F00F01884204D2296821F00F010143D4
:104550002960D8F80010404601F00F01B9420BD98C
:10456000016821F00F0139430160006800F00F007D
:10457000B84201D00120D4E7207840070AD520694D
:10458000296801F07001884204D2296821F0700185
:1045900001432960207800070AD56069316801F07D
:1045A0007001884204D2316821F07001014331600A
:1045B0002078C0060AD5A069316801F4E06188421C
:1045C00004D2316821F4E061014331602078800633
:1045D0000CD5E1695846DBF8002002F070029142E8
:1045E00004D2026822F070020A43026000F06CF804
:1045F0000E492A682B68C2F3032203F00F038A5C7A
:10460000C95C02F01F0201F01F01D040084A20FAE5
:1046100001F111600749086007480068BDE8F05FD4
:10462000FEF760BE0020005218440258A27F000826
:1046300004000024000000240400002030B500F035
:1046400043F80B4A0B490C4B15681468C5F3032259
:1046500004F00F048A5C095D02F01F0201F01F01E3
:10466000D040064A20FA01F119601060084630BDBA
:1046700018440258A27F000804000024000000240F
:1046800000B5FFF7DBFF05490968054AC1F30211D0
:10469000515C01F01F01C84000BD00001C440258DD
:1046A000A27F000800B5FFF7C9FF05490968054A60
:1046B000C1F30221515C01F01F01C84000BD0000A0
:1046C0001C440258A27F0008454970B54548096856
:1046D000434B103B11F0380208D00111082A03D0D7
:1046E000102A0BD0182A0BD0084670BD196889060D
:1046F000FBD51968C1F3C101C84070BD3A4870BD0F
:104700003749374D18310C1D24350A680968266869
:104710002D6802F0030406F00102C1F30511C5F390
:10472000CC0515FB02F200EE102AB8EE400AE9B300
:104730002F4ADFED2E0AB7EE001A6CB1DFED2D1A0D
:10474000012C01D0022C43D002EE101A1068F8EEB2
:10475000422A81EEA22A1EE01C68A40611D51B681D
:1047600001EE901A1168C3F3C103F8EE612AD84034
:1047700001EE900AC1F30800F8EE611A81EEA22A58
:104780000BE001EE901ADFED1C2A00BFF8EE611A73
:10479000106882EEA12AC0F3080001EE900AF8EE3C
:1047A000611A40EE201A31EE810A00E015E022EE97
:1047B000000A1068C0F34620401C00EE900AF8EE94
:1047C000600A80EE201ABCEEC10A10EE100A70BD1D
:1047D00001EE901ADFED092AD8E7002070BD000035
:1047E000104402580090D00340787D010000003949
:1047F000304402580024744A0024744C20BCBE4B40
:104800002DE9F05F04007DD0FF4F2078FE4D183772
:10481000DFF8F483103DC00748D0D8F800003968AD
:1048200000F03800102815D0182803D101F003003B
:1048300002280FD06068B0F5803F12D010B1B0F5FB
:10484000A02F18D0286820F480302860286820F431
:10485000802009E02868800328D560680028D2D02D
:1048600024E0286840F480302860606888B1FEF752
:10487000FDFC064609E0286840F480202860F0E747
:10488000FEF7F4FC801B64287ED828688003F7D5E7
:104890000CE0FEF7EBFC064605E000BFFEF7E6FC89
:1048A000801B6428F0D828688003F7D4207880071C
:1048B00056D5D8F80000DFF85093396810F038006A
:1048C000A9F10C090ED0182801D188070AD0E06898
:1048D000A8B3296821F0190101432960FEF7C6FC3D
:1048E000064628E02868400702D5E06800288AD0FC
:1048F000E168286820F0190008432860FEF7B6FC3C
:10490000064606E0D2E000BFFEF7B0FC801B02289E
:10491000BAD828684007F7D5217CD9F8002022F0C2
:10492000FE4242EA0161C9F8001019E0FEF79EFC60
:10493000801B0228A8D828684007F7D5ECE7FFE7D6
:10494000286820F001002860FEF790FC064604E08D
:10495000FEF78CFC801B022896D828684007F7D405
:104960002078C00646D5D8F80000DFF89C92396858
:1049700000F03800A9F10409082812D0182805D140
:1049800001F00300012800E0CEE00AD0E069002831
:10499000286820D040F080002860FEF767FC0646BB
:1049A00015E02868C00502D5E06980287ED194F81A
:1049B0002010D9F8002022F07C5242EA0161C9F8A7
:1049C000001017E0FEF752FC801B0228A0D82868D0
:1049D000C005F7D5EBE720F080002860FEF746FC25
:1049E000064604E0FEF742FC801B022890D82868A7
:1049F000C005F7D42078000729D583486169643061
:104A000000298146016811D041F001010160FEF7E3
:104A10002DFC064605E000BFFEF728FC801B02289F
:104A200088D8D9F800008007F6D510E021F0010100
:104A30000160FEF71BFC064605E000BFFEF716FC12
:104A4000801B022870D8D9F800008007F6D420789F
:104A5000800623D5A0690028286810D040F4805033
:104A60002860FEF703FC064605E000BFFEF7FEFBEC
:104A7000801B022858D828688004F7D50EE020F45F
:104A800080502860FEF7F2FB064604E0FEF7EEFBDE
:104A9000801B022848D828688004F7D42078400773
:104AA00051D5DFF86891D9F8001000E015E141F424
:104AB0008071C9F80010FEF7D9FB064605E000BF7B
:104AC000FEF7D4FB801B64282ED8D9F80000C0055F
:104AD000F6D54D4EA068603601280AD008B10528E9
:104AE00013D0306820F001003060306820F00400FE
:104AF00002E0306840F001003060A06841F2883A7E
:104B000098B1FEF7B3FB81460AE0306840F004003C
:104B10003060EEE7FEF7AAFBA0EB0901514503D890
:104B200030688007F6D50EE072E0FEF79FFB814605
:104B300006E000BFFEF79AFBA0EB0901514567D8DC
:104B400030688007F6D4606A00287CD0DFF8B8A00F
:104B5000D8F800100AF1200A4FF6F87B0AF1040891
:104B6000C1F3C2010329AAF104096DD00228286803
:104B700020F08070286003D0FEF778FB044681E0C7
:104B8000FEF774FB064604E0FEF770FB801B02286C
:104B900075D828688001F7D4E26A40F2F3313868AA
:104BA00054F8283F884340EA021018433860217BBC
:104BB0004FF4FE0C22894FF0FE47208A4902267DE1
:104BC000521E401EA1F5007189B2C2F308021143C2
:104BD000761E0CEA00400143484607EA066211438C
:104BE000CAF80010D9F8001021F00101C9F800102E
:104BF000D8F80030266A23EA0B0343EAC601C8F856
:104C00000010D9F8001004E010440258004802587F
:104C100035E0A26921F00C011143C9F800100168C8
:104C2000E26921F0020111430160016841F4803121
:104C30000160016841F400310160016841F48021A4
:104C40000160016801E06CE020E041F001010160D9
:104C5000286840F080702860FEF708FB044604E0F6
:104C6000FEF704FB001B022809D828688001F7D54D
:104C700057E000BFFEF7FAFA001B022802D9032012
:104C8000BDE8F09F28688001F4D44AE03968012823
:104C9000DAF8000021D0A26A01F0030393421CD18C
:104CA000E26AC1F305118A4217D1216BC0F30802F1
:104CB000491E8A4211D1616BC0F34622491E9142BE
:104CC0000BD1A16BC0F30642491E914205D1E16BA5
:104CD000C0F30660491E814201D00120D0E7A16CDB
:104CE0004646D8F80000C0F3CC00814219D0D9F86C
:104CF00000004D4620F00100C9F80000FEF7B6FAAA
:104D00004FEA0007FEF7B2FAB842FBD0A26C306857
:104D100020EA0B0040EAC2003060286840F0010041
:104D200028600020ACE7401EB0F1807F10B501D3B1
:104D3000012010BD4FF0E02460610F21601703F0E7
:104D400002F80020A0610721216110BD7047704763
:104D500070470000F0B590F83C20012A41D0224E67
:104D6000012480F83C40022280F83D2002681F4D5B
:104D70005368B242D2F808C001D0AA4203D14F68AA
:104D800023F470033B430F6823F070031F43576005
:104D90000268B24219D0B2F1804F16D0144B9A4239
:104DA00013D0144B9A4210D0134B9A420DD0AA4202
:104DB0000BD0124B9A4208D0114B9A4205D0114B9E
:104DC0009A4202D0104B9A4204D189682CF0800399
:104DD00019439160002180F83D4080F83C1008465E
:104DE000F0BD0220F0BD00000000014000040140C1
:104DF0000004004000080040000C00400018004083
:104E00000040014000E0004000E4004010B5040014
:104E100003D094F83D0010B107E0012010BD002040
:104E200084F83C00204600F023F8022084F83D007E
:104E30002068211D01F0D4FE012084F8480084F888
:104E40003E0084F83F0084F8400084F8410084F874
:104E5000420084F8430084F8440084F8450084F854
:104E6000460084F8470084F83D00002010BD000093
:104E700008B5184A01681848914211D1016841F0FB
:104E80000801016000680022114600F0080000904F
:104E90003220FEF763FABDE808403220FEF750BA30
:104EA0000E4A914209D10C480830016841F00201D4
:104EB0000160006800F0020009E0094A914207D150
:104EC000016841F040010160006800F0400000907E
:104ED00008BD0000000C0040E844025800040140F6
:104EE0000018004090F83D10012901D001207047C2
:104EF0001A4A022180F83D100168CB6843F0010393
:104F0000CB60006890421AD0B0F1804F17D014499E
:104F1000884214D01349884211D0134988420ED0D8
:104F2000124988420BD01249884208D01149884260
:104F300005D01149884202D01049884207D18168C2
:104F40000F4A1140062906D0B1F5803F03D0016811
:104F500041F00101016000207047000000000140A5
:104F60000004004000080040000C00400004014024
:104F7000001800400040014000E0004000E4004014
:104F80000700010070B5044690F83C000025012898
:104F900014D03A4B012684F83C60022084F83D008E
:104FA00022689068184020F47F409060086870285C
:104FB0002FD010DC10F00F0F03D022E04FF00200D2
:104FC00070BD4FEA2012072A1BD2DFE802F05353CC
:104FD00053534B394100B0F1101F4BD009DCB0F5F1
:104FE000805F0FD0B0F5005F1ED0B0F5801F08D1F4
:104FF00040E0A0F5801120393CD010293AD020297A
:1050000038D0012584F83D60002084F83C00284613
:1050100070BD4A682068D1E9021301F060FE206883
:10502000816841F0770109E04A682068D1E90213FC
:1050300001F055FE2068816841F480418160E1E71C
:10504000CA684968206801F0F7FF2068502106E02F
:10505000CA684968206802F000F82068602101F001
:1050600047FECFE7CA684968206801F0E5FF20687D
:105070004021F4E7226801461046F0E788FFCEFFA2
:105080002DE9F04104000D4603D094F83D0018B11D
:1050900008E00120BDE8F081002084F83C002046B3
:1050A00000F04CF8244A022084F83D002068816812
:1050B000114081602068211D01F092FD226840F2BC
:1050C0000336AF6940F60C4C2B684FF2F00EA8681F
:1050D00091680B439169B14341EA07210843D5E93F
:1050E000031720EA0C00D5E9076C20EA0E00D2F87D
:1050F00020E03F0140EA062668686D69314347EACF
:105100000C37936023680F4301219F612EF0AA02A0
:1051100042EA051322681843106284F8481084F8A4
:105120003E1084F83F1084F8441084F8451084F849
:105130003D100020AEE70000F8BFFEFF10B586B0BE
:10514000044614216846FBF7D2FB334A002023684B
:10515000324993424FF002021CD1304B10331C688D
:1051600044F001041C601B6803F0010305930B6805
:1051700043F010030B600968012301F01001059151
:105180004FF420610091CDE90120CDE903032448CB
:1051900069461DE0234CA3421ED1204B08331C68F6
:1051A00044F004041C601B6803F0040305930B68BF
:1051B00043F008030B60096801F0080105914FF402
:1051C00040510091CDE90120CDE90302164869461E
:1051D000FDF73EFF06B010BD144CA342FAD10F4BB1
:1051E0000C331C6844F000741C601B6803F00073EF
:1051F00005930B6843F020030B6009680E2301F050
:10520000200105914FF4C0510091CDE90120CDE975
:10521000030307486946DBE700000140E044025809
:105220000010025800080040000C025800E4004042
:105230000014025870B504464FF0020094F83E2066
:1052400094F83F5094F8446094F8453021B1042913
:105250000DD0012A1AD113E0012A17D1012E15D140
:1052600084F83E0084F844000021206820E0012DED
:105270000CD1012B0AD184F83F0084F8450014E0DA
:10528000012D03D1012E01D1012B01D0012070BDD0
:1052900084F83E0084F83F0084F8440084F8450018
:1052A00001222068002101F00DFD20680122042167
:1052B00001F008FD2068016841F001010160002053
:1052C00070BD70472DE9F041044600680027C668AC
:1052D0000569A90713D5B10711D5FA1E026101218D
:1052E0002177206880698007204602D0FFF7E9FF18
:1052F00004E000F0E5F8204600F0D4F927776807CD
:1053000016D5700714D5226802206FF004011161D0
:1053100020772068806910F4407F204602D0FFF794
:10532000D0FF04E000F0CCF8204600F0BBF927776E
:10533000280715D5300713D5226804206FF008011F
:10534000116120772068C0698007204602D0FFF7EE
:10535000B8FF04E000F0B4F8204600F0A3F9277786
:10536000E80616D5F00614D5226808206FF0100163
:10537000116120772068C06910F4407F204602D078
:10538000FFF79FFF04E000F09BF8204600F08AF949
:105390002777E80708D0F00706D021686FF00100F2
:1053A0000861204600F012FA280601D4A80408D5A6
:1053B000300606D521686FF4025008612046FFF7D9
:1053C000C6FCE80508D5300606D521686FF4807064
:1053D00008612046FFF7BAFC680608D5700606D5B6
:1053E00021686FF040000861204600F0F7F9A80638
:1053F0000AD5B00608D521686FF020000861204664
:10540000BDE8F041FFF7A4BCBDE8F08130B587B03E
:10541000044614216846FBF76AFA236800202249F3
:105420000F24B3F1804F4FF0020217D01F4DAB4253
:1054300025D10B6843F004030B60096801F00401F7
:105440000591A1010091CDE90120CDE903021848A1
:10545000694600BFFDF7FCFD07B030BD0B6843F0A7
:1054600001030B60096801F001010591012100941D
:10547000CDE90120CDE903010E486946EAE70E4D6A
:10548000AB42E9D10B6843F020030B60096801F0DF
:10549000200105910D210094CDE90120CDE9030102
:1054A00006486946D6E70000E04402580004004080
:1054B000000802580000025800E0004000140258A2
:1054C000704770B5044690F83C0000260D46012850
:1054D0000BD0012084F83C000C2A4AD007DC82B1B2
:1054E000042A20D0082A06D131E0022070BD102AFB
:1054F00053D0142A63D00126002084F83C003046A3
:1055000070BD206801F0FEFB2068816941F0080150
:1055100081612068816921F00401816120682A6924
:105520008169114311E0206801F03EFC2068816927
:1055300041F4006181612068816921F480618161A9
:1055400020682969826942EA01218161D4E72068E3
:1055500001F076FC2068C16941F00801C161206852
:10556000C16921F00401C16120682A69C169114340
:1055700011E0206801F0B0FC2068C16941F40061CD
:10558000C1612068C16921F48061C1612068296915
:10559000C26942EA0121C161AEE7206801F0D8FC8E
:1055A0002068416D41F0080141652068416D21F09E
:1055B0000401416520682A69416D114311E02068AA
:1055C00001F000FD2068416D41F4006141652068F3
:1055D000416D21F48061416520682969426D42EA8C
:1055E0000121416588E710B5040003D094F83D001F
:1055F00010B107E0012010BD002084F83C002046D7
:1056000000F022F8022084F83D002068211D01F0FE
:10561000E7FA012084F8480084F83E0084F83F004F
:1056200084F8400084F8410084F8420084F8430084
:1056300084F8440084F8450084F8460084F8470064
:1056400084F83D00002010BD08B501681248B1F192
:10565000804F0BD0114A914210D1016841F00201F4
:105660000160006800F00200009008BD016841F090
:1056700001010160006800F00100F5E7084881427F
:10568000F3D10548001D016841F080710160006898
:1056900000F08070E8E70000E84402580004004091
:1056A00000E000407047000030B504464FF00202B1
:1056B00069B1042912D0082917D00C291CD010294F
:1056C00021D094F84300012824D0012030BD94F863
:1056D0003E000128F9D184F83E201DE094F83F00F7
:1056E0000128F2D184F83F2016E094F84000012808
:1056F000EBD184F840200FE094F841000128E4D178
:1057000084F8412008E094F842000128DDD184F8B3
:10571000422001E084F843200122206801F0D2FAFF
:105720001E4920681E4A1F4B884209D0904207D06C
:10573000984205D01C4DA84202D01C4DA84203D16E
:10574000456C45F4004545642068884218D0B0F1A6
:10575000804F15D01649884212D0164988420FD082
:10576000154988420CD090420AD01449884207D08B
:10577000984205D01249884202D01249884207D186
:105780008168114A1140062906D0B1F5803F03D047
:10579000016841F001010160002030BD00000140BE
:1057A0000004014000400140004401400048014025
:1057B0000004004000080040000C004000180040B9
:1057C00000E0004000E40040070001000249884278
:1057D00001D1FCF7B5BB704744010024704730B5D8
:1057E00090F88410012918D0012280F88420242107
:1057F000C0F888100022202401680B680D6823F08F
:10580000005325F001050D60426601680B60C0F889
:10581000884080F88420104630BD022030BD70479B
:10582000704770B5044690F8840001281DD001220D
:1058300084F884202420C4F8880020680568026861
:1058400022F0010202602068826822F060620A434E
:105850008260204601F020FC226820210020156093
:10586000C4F8881084F8840070BD022070BD70B543
:10587000044690F8840001281DD0012284F8842079
:105880002420C4F8880020680568026822F001021C
:1058900002602068826822F060420A4382602046EB
:1058A00001F0FAFB2268202100201560C4F888105E
:1058B00084F8840070BD022070BD70477047704747
:1058C0002DE9F04107680025044640F60F03022643
:1058D000F8693968BA6818420AD183067ED501F0A2
:1058E000200302F0805C53EA0C0377D0616F74E10F
:1058F000CF4BDFF840C3134001EA0C0C53EA0C0C09
:105900006CD05FEAC07C0CD05FEAC15C09D54FF077
:10591000010CC7F820C0D4F8907047F00107C4F814
:105920009070870709D5D70707D027683E62D4F85B
:10593000906046F00406C4F8906046070AD5D60782
:1059400008D0276804263E62D4F8906046F002062C
:10595000C4F8906006070CD501F020061E4308D05D
:10596000266808233362D4F8903043F00803C4F863
:10597000903003050BD54B0109D526684FF4006321
:105980003362D4F8903043F02003C4F89030D4F858
:105990009030002B3DD0800609D501F0200002F0A8
:1059A0008051084303D0616F09B1204688472168C0
:1059B000D4F890008968490602D410F0280F2AD044
:1059C000204601F04FFC2068806840061ED5206804
:1059D000083050E8001F21F0400100E021E040E8DD
:1059E0000012002AF3D1D4F8800078B19249016501
:1059F000D4F88000FDF7D8F900280AD0D4F8800048
:105A0000016D00E02046BDE8F04108472046FFF761
:105A100056FFBDE8F0812046FFF751FFC4F89050D3
:105A2000F7E7D4F86CC02023BCF1010F7ED15FEA08
:105A3000C06C7BD55FEAC16C78D5102038622068D5
:105A40008068400673D5D4F880107C4A086890427C
:105A500034D07A4A1832904230D0784A303290426C
:105A60002CD0764A4832904228D0744A6032904214
:105A700024D0724A7832904220D0704A90329042BC
:105A80001CD06E4AA832904218D06D4A904215D070
:105A90006B4A1832904211D0694A303290420DD090
:105AA000674A4832904209D0654A6032904205D038
:105AB000634A7832904201D0614A903240680004D3
:105AC000000CA6D0B4F85C208242A2D9A4F85E00F3
:105AD000C869B0F5807F2FD0216851E8000F20F40D
