:020000040800F2
:100000003009002035020008BD390008ED3700082E
:10001000B9390008B1150008953F0008000000003C
:10002000000000000000000000000000C9390008C6
:10003000B919000800000000C1390008693E000835
:100040004F0200084F0200084F0200084F0200084C
:100050004F020008C53900084F0200084F0200088F
:100060004F0200084F0200084F0200084F0200082C
:100070004F0200084F0200084F0200084F0200081C
:100080004F0200084F0200084F0200084F0200080C
:100090004F0200084F0200084F0200084F020008FC
:1000A0004F0200084F0200084F0200084F020008EC
:1000B0004F0200084F0200084F0200084F020008DC
:1000C0004F0200084F0200084F0200084F020008CC
:1000D0004F0200087D3F0008893F00084F020008DA
:1000E0004F0200084F0200084F02000800F002F81B
:1000F00000F090F80AA090E8000C82448344AAF132
:100100000107DA4501D100F085F8AFF2090EBAE82F
:100110000F0013F0010F18BFFB1A43F0010318473B
:10012000EC4800000C490000103A24BF78C878C1A0
:10013000FAD8520724BF30C830C144BF04680C60ED
:10014000704700000023002400250026103A28BF35
:1001500078C1FBD8520728BF30C148BF0B60704739
:100160006E2900F0A382702900F0FB83662904F059
:10017000A983652904F0A683672904F0A383612974
:1001800004F0A28303681B0A28BF41F0800169299B
:1001900000F05082642900F04D82752900F04A82F7
:1001A0006F2900F08983782900F0C783E92900F0DE
:1001B0002383E42900F02083F52900F01D83EF2933
:1001C00000F08683F82900F0C6830368DB0928BFA6
:1001D00041F08001632900F0A482732900F0A98214
:1001E000E32901F01F80F32901F0248000207047EB
:1001F0001FB501F075F804000020002104F04CFB4D
:10020000401C60600020002104F030FBE0601FBD56
:1002100010B510BD01F036F81146FFF7E9FF03F005
:10022000BBFE01F013F903B4FFF7F2FF03BC01F0CA
:100230005BF900000948804709480047FEE7FEE7F0
:10024000FEE7FEE7FEE7FEE7FEE7FEE7FEE7FEE786
:1002500004480549054A064B704700006D3E0008FA
:10026000ED00000830030020300900203005002098
:10027000300500201CB50C46064B7B4469460090B7
:10028000204600F02CFA04460020694600F03AFAB5
:1002900020461CBD870400000FB41CB5084B06AAFD
:1002A0007B4469460090059800F019FA0446002046
:1002B000694600F027FA20461CBC5DF814FB0000DC
:1002C0006104000070B50C460546012A05D0287867
:1002D000800600D5EA69002302E0012305E05B1CEB
:1002E000934202D2E05C0028F9D1A869E618C01A4E
:1002F000A861286A18442862284600F061F904E0E1
:10030000D5E9012114F8010B9047B442F8D32846EF
:1003100000F06CF970BD00002DE9F05F89460446DD
:100320004FF0000ADFF874B1FB44C0F820A020466B
:10033000E1688847002874D0252806D0D4E9012137
:100340009047206A401C2062F1E700265F46204665
:10035000E16888472028054607DB312D05D278194A
:1003600010F8200C08B10643F1E7B00701D526F0DC
:100370000406C4F81CA00027C4F818A02A2D09D030
:10038000284604F06BFA38B304EB8708303DC8F810
:10039000185019E059F8041B204604EB87029161BC
:1003A000E1688847012F054618D1E069002820DA66
:1003B00026F020061DE0D8F8180000EB800005EBC1
:1003C00040003038C8F818002046E16888470546E4
:1003D00004F044FA0028EED1012F0AD02E2D08D1C6
:1003E0002046E16888477F1C0546022F46F020061C
:1003F000C4DBA069002803DA404246F00106A06190
:10040000F00701D026F010066C2D0BD0682D09D016
:100410004C2D39D06A2D35D0742D35D07A2D33D06E
:1004200016E038E0E1682F4620468847B842054686
:1004300009D16C2F26D04FF48060E1680643204636
:100440008847054604E06C2F1AD04FF480700643AD
:100450000DB3A5F14100192802D8203546F40066F5
:100460004A462946204626604E46FFF779FE80B16F
:1004700001280BD0F61D26F0070000F1080956E709
:100480004020E4E78020D8E70020D6E706F1040901
:100490004DE7284652E7206ABDE8F09FA0450000DE
:1004A000401ECAB210F8011F8A4202D00029F9D1B9
:1004B0000020704730B505460B462A4613F8014B1D
:1004C00012F8010B08B1A042F8D01CB1002802D0EC
:1004D0006D1CF1E7284630BD10B5431C02E010F852
:1004E000011B71B18107FAD14FF0013202C88C1A99
:1004F0008C4314EAC211F9D0C01A0A0603D0C01EF8
:1005000010BDC01A10BD0A0401D0801E10BD090222
:10051000FCD0401E10BD4FF0000200B513469446BB
:100520009646203922BFA0E80C50A0E80C50B1F14B
:100530002001BFF4F7AF090728BFA0E80C5048BF5F
:100540000CC05DF804EB890028BF40F8042B08BFFD
:10055000704748BF20F8022B11F0804F18BF00F8F9
:10056000012B704710B5044610F0030F08BF11F0BF
:10057000030F40F015804FF0013E121FC0F20E80B5
:1005800051F8043BA3EB0E0C2CEA030C1CEACE1C26
:1005900008BF40F8043BF0D0A1F1040102F10402CD
:1005A000521E08DB11F8013B00F8013B002BF7D18C
:1005B000114600F0E1F9204610BD704770477047C2
:1005C00070B5044685690068C10601D5302600E093
:1005D0002026C00707D070BDD4E9012130469047DE
:1005E000206A401C20626D1EF6D570BD70B50446B1
:1005F00085690078C00707D170BDD4E901212020AA
:100600009047206A401C20626D1EF6D570BD0968B7
:100610004A0501D540B27047C905FCD500B2704704
:1006200009684A0501D5C0B27047C905FCD580B23A
:10063000704700002DE9F041064600241068752936
:10064000314616A510D0FFF7E2FF002802DA40423B
:1006500013A507E031688A0701D512A502E0490712
:1006600004D511A5012401E0FFF7DAFF00210A22D9
:1006700006F1240709E0B0FBF2FCB0FBF2F302FB49
:100680001C00303078541846491C0028F3D123460A
:100690002A463046BDE8F04100F0D5B90000000020
:1006A0002D0000002B0000002000000011680268EF
:1006B000006A530501D508700AE0D30501D508800A
:1006C00006E0130603D5C217C1E9000200E0086086
:1006D0000120704701694A1C02610878704700B523
:1006E0008FB0CDE901310021059105497944CDE96B
:1006F000031011466846FFF70FFE0FB000BD000063
:10070000E5FFFFFF0A6802F8010B0A60704710B5A9
:10071000436913B1AFF3008001E0FFF7D3FD01207F
:1007200010BD127800F124010A7000224A700122E3
:10073000EDE711684FF0FF32E9E700002DE9FF5FB8
:1007400015468A460446DFF8AC80F8440027D8E90D
:1007500000103E46CDE9001010E03AF816106A4647
:1007600002A800F06BFD411C07D02178890603D553
:10077000E269391891420DD80744761C207880062A
:1007800002D5E069B84205DDAE42E6DB3AF8160074
:100790000028E2D1A069C01BA0612046FFF710FF2E
:1007A000D8E90010CDE90010002017E03AF8181041
:1007B0006A4602A800F042FDB0F1FF3F81460BD02F
:1007C00000250DF1080B05E0D4E901211BF8050017
:1007D00090476D1C4D45F7D308F10100B0428046AB
:1007E000E4DB206A384420622046FFF7FFFEBDE8C4
:1007F000FF9F0000924100002DE9F0418046D21D8C
:1008000022F007020025D2E90002F52915A614D02E
:10081000011E72F1000106DA0023D0EB030063EB46
:10082000020211A608E0D8F800108B0701D50FA628
:1008300002E0490701D50EA601251146002408F162
:10084000240704E000F0BAF830323A55641C50EA4C
:100850000102F7D12B46324621464046BDE8F04121
:1008600000F0F1B8000000002D0000002B00000097
:100870002000000030B4002100F1240408E002F060
:100880000705D208303542EA4372DB086554491C3B
:1008900052EA0305F3D10468002310A2250708D506
:1008A00004F020040C4304D0C46901230CA2641E8C
:1008B000C46130BC00F0C7B810B5044621461068CA
:1008C000FFF7AEFE02462046BDE810400023D1E708
:1008D000D21D22F00701D1E90023CBE70000000080
:1008E00030000000F0B40D460188090502D5214C06
:1008F0007C4402E01F4C7C440E34002100F12406AD
:1009000008E002F00F071209E75D42EA03721B09D3
:100910007754491C52EA0307F3D1027800231207E7
:1009200004D5702D06D009B1022311342246F0BC43
:1009300000F089B801231034F8E770B504460D467D
:1009400021461068FFF76CFE024629462046BDE8A6
:1009500070400023C6E7D21D22F00703D3E900232D
:10096000C0E70368126843F0200303600823C361F3
:100970000023B7E7F43F00004FF000020429C0F065
:10098000128010F0030C3FF4C8ADCCF1040CBCF1A4
:10099000020F18BF00F8012BA8BF20F8022BA1EB13
:1009A0000C01FFF7BABD5FEAC17C24BF00F8012B40
:1009B00000F8012B48BF00F8012B704730B5B0F1AB
:1009C0000A0271F100034FEA900E4EEA817EB0EB0D
:1009D0000E0061EB91014FEA101E4EEA017E10EB12
:1009E0000E0041EB11114FEA102E4EEA016E10EB92
:1009F0000E0041EB11214FEA104E4EEA014E10EB72
:100A00000E0041EB1141401841F100014FEAD000C6
:100A100040EA41704FEAD1014FEA810444EA907400
:100A200010EB800544EB01046D1944EB0404521BE8
:100A3000A3414FF0000348BF0A3200D530BD401C2F
:100A400041F1000130BD2DE9F0470D46994692462F
:100A5000044600F124080168880604D5E06921F005
:100A60001001216000E00120A84201DD471B00E0E9
:100A70000027A1697A1902EB0900081AA061207801
:100A8000C00602D42046FFF79BFD002608E0D4E90B
:100A900001211AF806009047206A401C761C20624B
:100AA0004E45F4DB2078C0060AD52046FFF788FDC6
:100AB00006E0D4E9012130209047206A401C2062E2
:100AC000381EA7F10107F4DC07E0D4E9012118F88A
:100AD00005009047206A401C2062281EA5F10105F0
:100AE000F3DC2046FFF782FD2078000602D50220C5
:100AF000BDE8F0870120FBE72DE9FF4F0C461E46BD
:100B00004FF0FF378BB0D2E90001DDF860800A902A
:100B10008A46C1F30A5505B93D46002108464FF003
:100B20000000BAF1000F00F4400005DA00EB80008D
:100B30004FF4400101EA50004FEA9059B9F1010F1A
:100B400000DDB9460A9850EA4A000ED044F610502B
:100B5000A5F2FF3545432F14B8F1000F1ED07542A2
:100B6000291E1EDDC9F100021CE0B8F1010F4FF093
:100B7000000001D0302103E0F24305E02154401C85
:100B8000B042FBDB30460022002121540B99C1F812
:100B90000880C1E900200FB0BDE8F08FBD1B6D1CBF
:100BA000DEE74A4600DA694206A800F0DDFB06AB44
:100BB00093E8070003AB83E8070050460A9903F067
:100BC00071FA8DE80700A0F500501F3800900398D7
:100BD000002D0ADD42F21F014A460844002303A902
:100BE0000390684603F0DAFC09E0A0F500504A469D
:100BF0001F38002303A90390684603F0E4FC8DE846
:100C000007000004000C03D04FF0FF30410800E063
:100C10001046B8F1000F03D00022009215461EE0E6
:100C2000751E05D4FFF7CAFE303262556D1EF9D528
:100C3000B3460122084302D000227F1C04E0207842
:100C4000302801D100227F1E002A099784D01DE0A0
:100C5000112D07DAFFF7B2FE303262556D1C50EAF3
:100C60000102F5D1084302D00098C8B10EE000217E
:100C7000681E05E0235C625C63542254401E491CDC
:100C80008142F7DBAB46A81B401E0990002004F808
:100C90000B000B98099AC0F80880C0E9002B7AE78E
:100CA00011264FF0000857E72DE9F04F884604461B
:100CB000D21D22F0070191B0D1E90001CDE90A016E
:100CC00003F0B8FD02460B98C00F01D02D2007E0BD
:100CD0002068810701D52B2002E0202101EAC00015
:100CE000032A099001D0072A05DB03464146204626
:100CF00000F0FAFA0BE12078800601D5E06900E007
:100D00000620B8F1650F814606D0B8F1660F18D0FD
:100D1000B8F1670F70D131E00020B9F1110F0090E8
:100D200001DB112301E009F101030AAA01A90CA8C2
:100D3000FFF7E2FEDDE90C70002609F101058346AC
:100D400047E001204B4600904FF000470AAA01A956
:100D50000CA8FFF7D1FEDDE90DB00C995D46002629
:100D600010B909F101000D18B9EB050003D4C0F169
:100D7000FF3609F10105A5EB09002BE0B9F1010FE0
:100D800001DA4FF001090020B9F1110F0090484637
:100D900001DD112300E003460AAA01A90CA8FFF710
:100DA000ABFEDDE90C704D46002683462078000737
:100DB0000AD4AB4500DA5D4601A8012D04DD4119D6
:100DC00011F8011C302907D04F4502DA17F1040F42
:100DD00004DA012082460FE06D1EEEE7002F02DCF0
:100DE000ED1B3E4403E0781CA84200DD7D1CB81BCF
:100DF00000F1010A4FF000472078000703D4AA450C
:100E000001DB4FF0FF3A0021B7F1004F0DF143082D
:100E10008DF8431024D002202B23002F01DA7F42CB
:100E20002D230A21021EA0F1010000DC5FB197FB17
:100E3000F1FC97FBF1F201FB1C7C17460CF1300C26
:100E400008F801CDEEE7A8F101000370218809053B
:100E500001D5452100E06521A0F1010800F8011C41
:100E600009980FA9A1EB0807FF1D00B10120411946
:100E700001EBEA70A1693844081A401EA06120788D
:100E8000C00602D42046FFF79BFB099828B1D4E99D
:100E900001219047206A401C20622078C00622D59C
:100EA0002046FFF78DFB1EE0002E04DBB34502DD7C
:100EB00001A8805D00E03020D4E901219047206A3C
:100EC000401C2062761CAAF101005FEA000A0AD1E8
:100ED00000F006FAC0680168405CD4E9012190473F
:100EE000206A401C2062281EA5F10105DCDC07E019
:100EF000D4E9012118F8010B9047206A401C2062B8
:100F0000381EA7F10107F3DC2046FFF76FFB032033
:100F100011B041E62DE9F04F04460D46D21D22F0F6
:100F2000070089B0D0E900974846394603F082FCB3
:100F30000246F80F01D02D2307E02068810701D574
:100F40002B2302E0202101EAC0038DF820300BB1F1
:100F5000012000E00020032A824601D0072A04DB9A
:100F60002946204600F0C0F93FE12078800601D4F0
:100F70000D2500E0E569C7F30A560D2D49DA002179
:100F80004FEA175B08464FF00000002F00F44000C6
:100F900007DA00EB80004FF4400100EBD07001EA6B
:100FA00060008115012901DD4FF0FF3100224FEA79
:100FB000850CBCF1180F06D31346ACF118004FF0A6
:100FC0008052C24003E04FF4801323FA0CF30CF17B
:100FD0000C0CBCF1200F04D3ACF1200C09FA0CF07E
:100FE00001E007FA0CF000294FF0004801DD18B9C4
:100FF0000FE00ED140450CD319EB02095F4121B936
:10100000404502D19F4329EA0209BBEB175F00D09C
:10101000761C2088000502D57B48784402E07A4897
:101020007844193808AA302302F80A30037C0AF100
:101030000101002E0AF1020A53546A4602DC4FF005
:10104000300101E04FF031014FF001088DF8001040
:1010500002D0A6F2FF3603E059EA470100D06B4EFA
:10106000002D02DC2178090704D54FF002082E215B
:101070008DF80110C44600210BE0C7F303433F0184
:10108000C35C491C6D1E02F80830052908F10108EF
:1010900001DA002DF1DC00210CE000EB1973491C92
:1010A0001B786D1E082902F808304FEA091908F16B
:1010B000010801DA002DF0DC21688B0602D516E06C
:1010C000A8F10108E04505DD02EB080313F8013C37
:1010D000302BF5D0B8F1000F09DD02EB080313F84F
:1010E000013C2E2B03D1090701D4A8F10108002DE2
:1010F00005DD3E2102F808106D1E08F10108407C54
:10110000002E02F8080008F1010804DA2D207642CA
:1011100002F8080002E02B2002F808000A214FF430
:101120007A70864208F101080BDB96FBF0F330334E
:1011300002F8083096FBF0F308F1010800FB136693
:1011400001E0642E0CDB642096FBF0F3303302F8F0
:10115000083096FBF0F308F1010800FB136601E08C
:101160000A2E06DB96FBF1F0303002F8080008F199
:10117000010896FBF1F001FB1060303002F8080026
:10118000A16908F1010808EB050202EB0A00081A40
:10119000A0612078C00602D42046FFF711FA216A28
:1011A00008AE01EB0A00206204E0D4E9012116F840
:1011B000010B9047BAF1010AF7D22078C00602D598
:1011C0002046FFF7FDF96E4609E016F8010B3E28B0
:1011D0000FD0D4E901219047206A401C2062B8F169
:1011E0000108F2D22046FFF701FA09B00320BDE85A
:1011F000F08F206A2844206203E0D4E901213020E6
:1012000090476D1EEBD3F8E70539000002FCFFFFA5
:1012100010B5436913B1AFF3008001E0FFF78EFA18
:10122000012010BD128800F1240182840022C284B2
:101230000122EDE711684FF0FF32E9E72DE9F041B7
:1012400016460C46054600F043F8036893F8010182
:10125000012807D0FF2C12D8185D80B101202C7016
:10126000BDE8F081D3F807013246214603F20713A7
:10127000C7182846BC46BDE8F041002360474FF040
:10128000FF30EDE7754600F0EBF8AE460500694625
:10129000534620F00700854618B020B5FEF7D8FF6A
:1012A000BDE820404FF000064FF000074FF0000867
:1012B0004FF0000BAC46ACE8C009ACE8C009ACE8A4
:1012C000C009ACE8C00921F007018D467047000055
:1012D00010B500F005F8001D10BD00BFBD350000C1
:1012E00000487047300000202DE9F0411F460446B9
:1012F00003260168072A01F4006004DB08B116A583
:1013000005E016A503E008B115A500E015A521F03C
:1013100010002060A069C01EA0610FB1401EA06136
:101320002046FFF74DF94FB1D4E9012138469047E7
:10133000206A401C2062C01C206206E0206AFAE796
:10134000D4E9012115F8010B9047761EF8D220460A
:10135000FFF74CF9BDE8F0814E414E006E616E0022
:10136000494E4600696E66002DE9F04781461646F3
:101370008AB0354878440DC88DE80D00324878446D
:10138000801C03AC0DC884E80D0041F69B30084476
:10139000372190FBF1F290FBF1F5A5F1800501FBFF
:1013A00012041B3C02D56442012000E00020DFF85B
:1013B00098A080460027FA44AAF1BE0A0EE0E00792
:1013C0000AD03246684607EB470101230AEB810148
:1013D00003F0F9F88DE8070064107F1C002CEED1B3
:1013E000194F7F44AE3F19E0E80715D007EB041012
:1013F0000DF1180A90E80E008AE80E00C068F0426D
:1014000001D1981908903246012306A903A803F0D8
:10141000DAF803AB83E807006D10641C002DE3D1FC
:101420004FF0010332466946B8F1000F03A802D01D
:1014300003F0B4F801E003F0C6F8C9E90001C9F807
:1014400008200AB0BDE8F0873C36000010B504461D
:10145000AFF300802046BDE81040FEF7E4BE000078
:1014600000487047100000204FF0013C50F8042B5A
:1014700051F8043B9A4221D1A2EB0C03934313EAA7
:10148000CC1317D150F8042B51F8043B9A4215D1D4
:10149000A2EB0C03934313EACC130BD150F8042BAB
:1014A00051F8043B9A4209D1A2EB0C03934313EA8F
:1014B000CC13DBD04FF00000704700BFD01A01BA48
:1014C000B1FA81F101F0180122FA01F0CB40DBB250
:1014D000C0B2C01AC1F120012CFA01F3D11A914314
:1014E00011EAC311E6D1704701491820ABBEFEE7EF
:1014F0002600020070470000B0B582B0044600200C
:10150000019021688A68D2074FD1886840F00100B5
:10151000886040F20800C2F2000000684DF6836166
:10152000C4F21B31A0FB0101880C01900198A0B10D
:10153000019801380190019878B101980138019023
:10154000019850B1019801380190019828B1019893
:101550000138019001980028EAD100F077FF216856
:101560008968C9071CD1054603E000BF8068C00731
:101570001AD100F06BFF411B20680329F6D3816864
:10158000C907F3D1A06A40F01000A062E06A40F001
:101590000100E062002084F82400012002B0B0BD08
:1015A000002002B0B0BD00BF002002B0B0BD0000FE
:1015B000FEE700002DE9F04381B040F60004C4F2DC
:1015C000010448F2804520460221C0F21E0500F0C9
:1015D00031FFA0B340F208064DF683680020C2F246
:1015E0000006C4F21B384FF0FF3900BF31680746D0
:1015F000A94219D3A1FB081009EBD041032909D353
:10160000C10C21F0030100BF00BF00BF00BF0439BF
:1016100000BFF9D1C0F3C14030B1012800BF03D0F1
:1016200000BF022818BF00BF2046022100F002FFC1
:1016300018B1632F07F10100D8D3622F39D82046A3
:10164000022100F0F7FEC8BB40F208064DF68368A1
:101650000020C2F20006C4F21B384FF0FF3900BF71
:1016600031680746A94219D3A1FB081009EBD04104
:10167000032909D3C10C21F0030100BF00BF00BF43
:1016800000BF043900BFF9D1C0F3C14030B1012817
:1016900000BF03D000BF022818BF00BF20460221B0
:1016A00000F0C8FE18B9632F07F10100D8D3622FEC
:1016B00004D9012001B0BDE8F08300BF204602211B
:1016C00000F0B8FEC0B340F208064DF68368002073
:1016D000C2F20006C4F21B384FF0FF3931680746EA
:1016E000A94219D3A1FB081009EBD041032909D362
:1016F000C10C21F0030100BF00BF00BF00BF0439CF
:1017000000BFF9D1C0F3C14030B1012800BF03D000
:1017100000BF022818BF00BF2046022100F08AFE49
:1017200018B1632F07F10100D8D30020622F88BFC2
:10173000012001B0BDE8F083002001B0BDE8F083D6
:101740002DE9F04F85B040F60006C4F201060446CC
:101750003046022100F06EFE01280BD100F0E4F8C3
:10176000FFF728FF4FF0010550B1284605B0BDE84E
:10177000F08F00BF0125284605B0BDE8F08F00BFFF
:1017800000F034F8804600F031F8824600F02EF880
:10179000814600F02BF8834600F028F80746022027
:1017A000CDE901050320049001A93046039500F01E
:1017B00033FD30460221012200F042FE0AEB080010
:1017C00048445844C0B2B842CFD1B8F1640F4FF08A
:1017D00001059FBFB9F1500F84F8018084F8009093
:1017E0000025284605B0BDE8F08F00002DE9F04F38
:1017F00081B040F6000448F2804540F208064DF6FC
:10180000836AC4F201040020C0F21E05C2F2000681
:10181000C4F21B3A4FF0FF384FF0000B0FE000BF4F
:10182000009802214700204600F004FE002818BF5F
:1018300001203843BBF1070F0BF1010B70D2009070
:101840002046022100F0F6FD40B34FF0000900BF32
:101850003068A84218D3A0FB0A1008EBD041032936
:1018600008D3C10C21F0030100BF00BF00BF043941
:1018700000BFF9D1C0F3C14030B1012800BF03D08F
:1018800000BF022818BF00BF2046022100F0D2FD91
:1018900020B1B9F1630F09F10109D9D32046022122
:1018A00000F0C8FD30BB00273068A84218D3A0FB69
:1018B0000A1008EBD041032908D3C10C21F0030121
:1018C00000BF00BF00BF043900BFF9D1C0F3C14061
:1018D00030B1012800BF03D000BF022818BF00BFED
:1018E0002046022100F0A6FD20B9632F07F1010771
:1018F000DAD300BF306844F24021C0F20F018842C1
:10190000FFF48EAFA0FB0A01880C00EB8000800082
:1019100000BF00BF00BF043800BFF9D180E700BF9F
:10192000C0B201B0BDE8F08F2DE9F04184B040F6BF
:101930000004C4F20104022501260327694620465B
:101940000095CDE90166039700F066FC2046022170
:1019500000224FF0000800F073FD142000F048FC56
:1019600020460221012200F06BFD40F20800C2F285
:101970000000006844F24021C0F20F0188420FD3FA
:101980004DF68361C4F21B31A0FB0101880C00EB12
:101990008000800000BF00BF00BF043800BFF9D145
:1019A00069462046CDE90058CDE9026700F034FCD5
:1019B00004B0BDE8F081000070470000EFF3108034
:1019C00072B600BFFEE7000010B581B000220092A1
:1019D00090F82420012A03D10221084601B010BD4D
:1019E0004B680122062B80F8242017D8D0F800C0BD
:1019F00003EB83035A1F1F23DCF834E003FA02F4DD
:101A00000B682EEA040403FA02F22243CCF83420D5
:101A1000092B03EB430219D936E000BFD0F800C010
:101A20000C2B03EB83021DD8233A1F23DCF830E094
:101A300003FA02F40B682EEA040403FA02F22243CA
:101A4000CCF83020092B03EB43021DD8DCF8103012
:101A5000072489689440A34391401943CCF810109F
:101A6000002130E0413A1F23DCF82CE003FA02F4B5
:101A70000B682EEA040403FA02F22243CCF82C206D
:101A8000092B03EB4302E1D9DCF80CE01E3A0724F2
:101A9000896894402EEA0404914023F00102214316
:101AA000102ACCF80C100DD142F20841C4F2010109
:101AB000A1F1080294450DD0816A41F020018162B4
:101AC000012100E00021002280F82420084601B016
:101AD00010BD00BF0A68120230D40A68102B42F40D
:101AE00000020A602CD140F20801C2F2000109682C
:101AF0004DF68362C4F21B32A1FB0212910C01EB82
:101B00008101490000910099E1B1009901390091EA
:101B10000099C9B10099013900910099B1B10099BA
:101B200001390091009999B100990139009100990A
:101B300000294FF00001E8D1C5E700BF0021C2E74E
:101B40000021C0E70021BEE70021BCE70021BAE781
:101B50000021B8E70068C06C70470000B0B50028ED
:101B600000F0A8800446806A20B121688868C00718
:101B70000BD114E00020E06284F82400204600F03D
:101B80009BF821688868C00709D0886820F00100A8
:101B9000886000F05BFC21688A68D20726D1A06AC1
:101BA000C0063AD4A06A41F2021290430230A06209
:101BB000E069D4E9013240EA030C531EB3FA83F31F
:101BC0005D091346B2F5807F18BF2B02207D257B6F
:101BD00001284CEA450030D135B3A56A45F020050F
:101BE000A562E56A45F00105E56226E0054602E0EA
:101BF0008868C007D3D000F029FC401B2168032867
:101C0000F6D38868C007F3D0A06A40F01000A06245
:101C1000E06A40F00100E062A06AA06A40F01000B3
:101C2000A0620120B0BD00BFD4F818C04EF6000578
:101C3000CFF6FF7505EB4C352B434D68B2F5807F31
:101C400025F4694543EA05034B608B684FF2FD7547
:101C5000CFF6E17503EA050343EA00038B6001D088
:101C6000012A07D122690023CFF6F07303EB025259
:101C700001E000BF0022CB6A23F470031A43CA625A
:101C8000896840F6FE62CFF61F721140814207D18B
:101C90000020E062A16A012262F30101A162B0BDED
:101CA000A06A40F0100020F00200A062E06A40F05C
:101CB0000100E0620120B0BD70B586B040F60004BE
:101CC000C4F20104006804F5E05188424FF00000BE
:101CD000CDE9040002D006B070BD00BF41F218008B
:101CE000C4F20200016802AD41F4007101600168B4
:101CF000032601F4007101910199016841F004018A
:101D00000160016801F0040101910199016841F04D
:101D1000080101600068294600F008000190019860
:101D2000402002902046039600F076FA04F5806089
:101D30002946CDE9026600F06FFA06B070BD0000DA
:101D4000F0B581B000270D460446009700F07EFBF9
:101D500021688A68D20543D406464868C00503D482
:101D6000C86A10F4700F45D040F20800C2F20000BB
:101D70000768022000F030FC216844F624130A6949
:101D8000B7FBF0F0C2F292431A4206D1CA6844F699
:101D90002413C0F292031A425ED00A6942F29243BF
:101DA000C1F249231A4207D1CA6842F29243C0F2F3
:101DB00049031A4200F0C0800A6949F24923C0F27F
:101DC00024031A424FF0FC0257D1CF681F4208BFCC
:101DD0005422009B02FB00F7BB4253D3C3E000BF79
:101DE000A06A40F02000A06284F82470012001B0B5
:101DF000F0BD00BF0868800700F1B580681C00F0E6
:101E0000A880FDB90868800772D50868800700F1CE
:101E1000AA80086880076BD50868800700F1A38056
:101E20000868800764D50868800700F19C8008680E
:101E300080075DD508688007E4D594E008688007CE
:101E400000F1918000F002FB801B2168A842F5D9C7
:101E500008688007F2D44BE00A6942F29243C1F26B
:101E600049231A424FF0290207D1CB6842F2924728
:101E7000C0F249073B4208BF1422009B02FB00F757
:101E8000BB4270D2681C4FD055BB0098B8422FD3CC
:101E90000098013000900098B84264D20098B8428F
:101EA00026D30098013000900098B8425BD2009889
:101EB000B8421DD30098013000900098B84252D229
:101EC0000098B84214D30098013000900098B842AE
:101ED000DBD348E00098013000900098B84233D23C
:101EE00000F0B4FA801BA842F4D90098B842F1D2AD
:101EF000A06A40F00400A062002084F824000320BF
:101F000001B0F0BD0098013000900098B8422AD28C
:101F10000098013000900098B84224D20098013017
:101F200000900098B8421ED20098013000900098AE
:101F3000B842E7D317E000BF5422009B02FB00F732
:101F4000BB429FD30FE000BF21680CE00868800708
:101F500009D40868800706D4086880075CBF086851
:101F60005FEA8070F2D56FF012000860A06A40F45A
:101F70000070A062886800F46020B0F5602F01D185
:101F8000207B18B1002001B0F0BD00BFA06A20F492
:101F90008070A062A06AC004F4D4A06A40F001007E
:101FA000A062002001B0F0BD10B5044690F82400F6
:101FB000012804BF022010BD012084F8240020461F
:101FC000FFF79AFA20B1002184F8241010BD00BF59
:101FD00042F2044C2068A16AC4F2010C40F20132C2
:101FE00091430CF57F7201F580719042A16233D06C
:101FF000A16A21F48011A1624168490504D5A16A52
:10200000012363F30D31A162A16A0023C9044FF0DB
:10201000000144BFE16A21F00601E1626FF00201B4
:1020200084F824300160816801F46021B1F5602FEB
:1020300006D190420AD1DCF8001011F4702F05D0BF
:10204000816841F480118160002010BD816841F4F5
:10205000A0018160002010BDDCF8001011F4702F89
:10206000C6D0A16A41F48011A162DCF800104905D4
:10207000C5D4C9E7B0B5044690F82400012804BFD0
:102080000220B0BD0121206884F824108168C907AE
:1020900009D0816821F00101816000F0D7F9216841
:1020A0008968C9070ED1214651F8280F41F2011263
:1020B00020EA0202002042F001020A60002184F8B6
:1020C0002410B0BD054602E08068C007EBD000F0E8
:1020D000BDF9411B20680329F6D38168C907F3D0F5
:1020E000A06A214640F01000A06251F82C2F012078
:1020F000E1E70000014690F82100022816D10868A7
:10210000D1E90FC3026822F00E020260026822F0D9
:1021100001020260012000FA03F2CCF8042081F8E9
:1021200021000020002281F82020704704208863CD
:102130000120002281F820207047000080B590F82F
:102140002110022924D10268116821F00E011160CA
:102150002F211368C4F202018A4240F20401C4F242
:10216000020123F00103136016DD3023C4F20203E1
:102170009A421DD04423C4F202039A421CD0582331
:10218000C4F202039A421DD14FF4803322E000BF13
:1021900004218163012080BD0823C4F202039A4216
:1021A0000ED01C23C4F202039A420BD1102311E07B
:1021B0004FF480730EE000BF4FF480530AE000BF7D
:1021C000012307E001F1680C4FF08073624508BFFE
:1021D0004FF480130B60012180F82110426B002125
:1021E00080F820100AB190470021084680BD000009
:1021F000B0B5044600F02AF9054640F20000C2F2EC
:1022000000000078611C18BF044400BF00F01EF9F4
:10221000401BA042FAD3B0BD2DE9F04F82B00E684A
:10222000002E00F0038141F20042C4F201020423B7
:1022300040F2004E904208BF03234FF6FF7CC4F2E9
:10224000010E009300240123C1F2100C4FF0000A8C
:102250004FF0000949E000BF012704F00C030F22F2
:102260009A402BEA020207FA03F34FEA9A051A434F
:1022700046F82520D1F804B040F20C455FEACB22A5
:10228000DEF8082054BF22EA080242EA0802C4F23B
:102290000105CEF808202A685FEA8B2354BF22EAA2
:1022A000080242EA08022A605FEA8B33DEF8042063
:1022B00054BF22EA080242EA08025FEACB33CEF8B2
:1022C0000420DEF800204FF0010354BF22EA080288
:1022D00042EA0802CEF800200E680AF1010A36FA36
:1022E0000AF204F1040400F0A18003FA0AF816EAE5
:1022F000080FF1D04E68664512DC122E56D8DFE882
:1023000006F0350B454955555555555555555555B7
:102310005555554D510000BFD1F80C9046E000BF17
:102320004FF6FF72C1F2210296420FDC0022C1F289
:10233000110296421AD00022C1F21202964215D022
:102340000022C1F22102964210D02FE00022C1F2F9
:10235000220296420AD00022C1F23102964205D0F2
:102360000022C1F23202964220D100BF8A684AB1EF
:10237000012A14BFC0F81480C0F810804FF008097B
:1023800014E000BF4FF0040910E000BFCA6802F17A
:1023900008090BE04FF0000908E000BFCA6802F12D
:1023A000040903E0CA6802F10C0900BF2246064690
:1023B000BAF1080F24BF203A043637680F2595403C
:1023C00027EA050509FA02F22A433260CA79D206E1
:1023D0007FF582AF41F21803C4F202031A68AEF52A
:1023E0007E7642F001021A601A6802F00102019240
:1023F000019A2AF0030256F802B040F60002C4F235
:102400000102904210D040F60042C4F20102904214
:102410003FF422AF41F20002C4F20102009F904259
:1024200008BF022719E700BF002716E702B0BDE882
:10243000F08F00008068084018BF0120704700003E
:10244000002A08BF090401617047000040F22830EB
:10245000C2F200000068704740F2000040F22831EC
:10246000C2F20000C2F2000100780A68104408605D
:102470007047000080B542F20000C4F2020001681B
:1024800041F010010160032000F096F80F2000F0E9
:1024900005F800F027F8002080BD000070B540F27C
:1024A0000006C2F2000640F208013278C2F20001D2
:1024B0004FF47A730968B3FBF2F20446B1FBF2F110
:1024C000084600F069FC0F2C4FF0010508D838B918
:1024D0004FF0FF3021460022002500F041F87460E3
:1024E000284670BD80B582B041F21800C4F20200E7
:1024F0000168002241F001010160016801F0010161
:1025000001910199416841F080514160406800218A
:1025100000F0805000900098052000F021F8052080
:1025200000F00AF80420C4F201000168022262F3FC
:102530001A61016002B080BD002848BF7047C1B277
:1025400000F01F00012202FA00F04EF20012CEF25B
:10255000000242EAD10121F0030108607047000047
:1025600010B54EF60C5CCEF2000CDCF80030C3F374
:10257000022E8EF00704042C28BF0424BEF10303AE
:102580004FF0FF3E0EFA04F438BF0023A1439940F8
:102590000EFA03F39A43114300F00F0200F1604377
:1025A0000901043A03F564436244002848BF02F17C
:1025B0000C03197010BD00004EF60C51CEF2000154
:1025C0000A684FF6FF031A4060F30A2242F0806067
:1025D00040F0FD700860704780B5012818D00228CF
:1025E00036D0102832D141F20401C4F202010A6847
:1025F00051F8040CC00129D5C2F383402DA3185C07
:10260000D2033DD440F60012C0F23D02504343E0F5
:1026100041F20400C4F20200C16940F202320A40F1
:10262000B2F5817F04BF4FF4004080BD01F44071DA
:10263000B1F5407F1CD0B1F5007F07D1006A49F6A3
:102640004041800701EAE07080BD00BF002080BDEE
:1026500000F0B4F941F20401C4F202010968022257
:10266000C1F3813102EB4101B0FBF1F080BD00BF4D
:1026700050F8040C4FF22441800301EAE07080BD61
:102680000A6810A3C2F340429A5C41F20023C0F2F0
:102690007A03B3FBF2F250430968490248BF80BD98
:1026A0004AF6AB214000CAF6AA21A0FB0101480866
:1026B00080BD00BF02030405060708090A0B0C0DC4
:1026C0000E0F1010010200002DE9F04182B0044607
:1026D000007841F21C06C007C4F202064AD03068F6
:1026E00010F0805808D1306840F080503060306879
:1026F00000F080500190019847F20007C4F20007F3
:102700003868C00512D4386840F480703860FFF72C
:102710009DFE05463868C00508D4FFF797FE401BAC
:102720006428F7D9032002B0BDE8F081706810F486
:10273000407012D0616801F4407188420DD0706819
:1027400040F24042C4F24222012320F4407113605F
:102750000023C007136071602AD17068616820F49B
:1027600040700843B8F1000F706003D1306820F06A
:10277000805030602068810707D556F8181CA26881
:1027800021F44041114346F8181CC00604D400202F
:1027900002B0BDE8F08100BF56F8180CE16820F4E3
:1027A0008000084346F8180C002002B0BDE8F08114
:1027B000FFF74CFE054641F2883700BF706880077E
:1027C000CBD4FFF743FE401BB8424FF00300F5D9CE
:1027D000EBE700002DE9F04381B0002800F0858090
:1027E00042F20008C4F202080446D8F800000D4680
:1027F00000F0070088420CD2D8F8000020F0070053
:102800002843C8F80000D8F8000000F00700A842EC
:102810006BD1206841F204098107C4F2020917D57F
:10282000410705D5D9F8001041F4E061C9F800105E
:10283000010705D5D9F8001041F46051C9F800101E
:10284000D9F80010A26821F0F0011143C9F8001076
:10285000C00741D1D8F8000000F00700A8420CD909
:10286000D8F8000020F007002843C8F80000D8F886
:10287000000000F00700A84237D12068410707D5C3
:10288000D9F80010E26821F4E0611143C9F80010A2
:10289000000708D5D9F80000216920F4605040EA0B
:1028A000C100C9F80000D9F8002002F00C00082887
:1028B00041F20020C0F27A0050D144F6E613C2F390
:1028C0008341C0F60003595CD2033BD440F60010AC
:1028D000C0F23D00484341E0606802280AD0012868
:1028E0002AD159F8041C890308D4012001B0BDE89D
:1028F000F08300BF59F8041C8901F6D5D9F80010FF
:1029000021F003010843C9F80000FFF79FFD0646C8
:1029100041F28837D9F80000616800F00C00B0EB94
:10292000810F97D0FFF792FD801BB842F2D90320A8
:1029300001B0BDE8F08300BF59F8041C8907D4D565
:10294000DCE700BFD9F8002044F6E413C2F34042AC
:10295000C0F600039A5C4843B0FBF2F0D9F80010CF
:1029600044F6CC12C1F30311C0F60002515C40F2F0
:10297000080220FA01F140F20400C2F200000068EF
:10298000C2F200021160FFF789FD002001B0BDE82E
:10299000F083000040F2080041F20401C2F200009E
:1029A000C4F202010068096844F6DC12C1F3022196
:1029B000C0F60002515CC8407047000040F20800B9
:1029C00041F20401C2F20000C4F202010068096889
:1029D00044F6DC12C1F3C221C0F60002515CC840CB
:1029E000704700002DE9F04182B0002868D004460D
:1029F000007841F20006C007C4F2020625D07068D4
:102A000000F00C0004281BD0706800F00C000828AF
:102A100002D17068C00313D46068002800F0688198
:102A2000B0F5A02F00F07C81B0F5803F00F07C81F4
:102A3000306820F480303060306820F4802076E107
:102A40003068800301D56068D0B32078800718D53E
:102A5000706810F00C0F07D0706800F00C000828A8
:102A60006ED17068C0036BD43068800702D52069CE
:102A7000012825D13068616920F0F80040EAC100E2
:102A80003060207800071FD42078400732D4E569F1
:102A900095B1706800F00C00082840F08F80012D7F
:102AA0000ED07068216A00F480328A4208D1616ACF
:102AB00000F47010884203D1002002B0BDE8F0811C
:102AC000012002B0BDE8F081A069002862D000209A
:102AD000C4F242200121C0F88014FFF7B7FC05467C
:102AE000706A800700F18C80FFF7B0FC401B022861
:102AF000F6D92AE1F06910F0805808D1F06940F069
:102B00008050F061F06900F080500090009847F22A
:102B10000007C4F200073868C00529D4386840F4BB
:102B200080703860FFF792FC054600BF3868C0052A
:102B30001ED4FFF78BFC401B6428F7D905E100BFCA
:102B40002069002840F20000C4F2422000F0828098
:102B500001210160FFF77AFC054600BF306880075D
:102B60003FF588AFFFF772FC401B0228F6D9ECE076
:102B7000E068002800F08080052800F09780012898
:102B800000F09880306A20F001003062306A20F056
:102B9000040092E00020C4F242200021C0F880141A
:102BA000FFF754FC054600BF706A80077FF56CAFE5
:102BB000FFF74CFC401B0228F6D9C6E00027C4F200
:102BC000422700203866FFF741FC022D05460BD155
:102BD0003068800140F1BE80FFF738FC401B0228BE
:102BE0004FF00300F4D968E7306880017FF564AFE7
:102BF000FFF72CFC401B02284FF00300F4D95CE7E0
:102C000040F20800C2F20000006844F6D351C1F25D
:102C10006201A0FB0101480A019000BF00BF0198BA
:102C2000411E002801913FF42FAF00BF0198411EC3
:102C3000002801913FF428AF00BF0198411E0028F1
:102C400001913FF421AF00BF0198411E002801917E
:102C5000E4D119E700210160FFF7F8FB054600BF4A
:102C6000306880077FF50DAFFFF7F0FB401B0228AF
:102C70004FF00300F4D920E7306A20F00100306201
:102C8000306A20F004003062FFF7E0FB054641F2B5
:102C9000883700BF306A800720D5FFF7D7FB401B7D
:102CA000B8424FF00300F5D907E700BF306A40F0A3
:102CB00004003062306A40F001003062FFF7C6FB6A
:102CC000054641F2883700BF306A800706D4FFF717
:102CD000BDFB401BB842F7D937E000BFB8F1000F89
:102CE0007FF4D5AEF06920F08050F061CFE600BFF0
:102CF000306820F480303060306820F4802030600C
:102D0000FFF7A4FB054600BF306880037FF59DAE4A
:102D1000FFF79CFB401B64284FF00300F4D9CCE67E
:102D2000306840F480203060306840F4803030609B
:102D3000FFF78CFB054600BF306880033FF585AE8A
:102D4000FFF784FB401B6428F6D9032002B0BDE8DE
:102D5000F08100BF206AB0F5803F05D17168A2689C
:102D600021F40031114371607168626A21F47411B9
:102D700011430843706001203866FFF767FB044683
:102D8000306880013FF598AEFFF760FB001B02281A
:102D90004FF00300F4D990E6411E0020B0EB116F14
:102DA0001CBF012070474EF21002CEF200025160AB
:102DB0004EF62351CEF20001F0230B7007219060F4
:102DC000116070477047000070470000B0B582B0D6
:102DD000044600680168C368426901F02F05202D90
:102DE00003F0200506D12DB1204602B0BDE8B04069
:102DF00001F044B85FEA017C1EBF02F0010E03F44B
:102E0000907212EB0E0253D1226B012A05D111F000
:102E1000100218BF13F0100236D10A0622D513F0A3
:102E200080021FD094F8411021293FD1A168B1F54B
:102E3000805F03D12169002900F07082216A4A1C59
:102E4000226209784160E18C01390A04E1842DD1C4
:102E5000C16821F08001C160C16841F04001C160DA
:102E600002B0B0BD490621D513F040011ED0C168A3
:102E700021F04001C1602021204684F8411002B0B9
:102E8000BDE8B04000F0B0BC0021019101680191A3
:102E90004168019101994069400613D4A08DE18DEC
:102EA000E28D002A18BF884240F0BA8102B0B0BD5E
:102EB000CA0718BF13F4807240F0B6804A0700F1C9
:102EC000B980BEE0E06B016849688AB2002AEDD0A3
:102ED000A38D9A42EAD2E1858069202800F09C8087
:102EE000206850E8030F216820F4807041E8030255
:102EF000DAB1206850E8030F216820F4807041E8BF
:102F0000030292B1206850E8030F216820F480701A
:102F100041E803024AB1206850E8030F216820F419
:102F2000807041E80302002ADAD1206850E8050FDA
:102F3000216820F0010041E80502DAB1206850E87C
:102F4000050F216820F0010041E8050292B12068D8
:102F500050E8050F216820F0010041E805024AB160
:102F6000206850E8050F216820F0010041E80502C3
:102F7000002ADAD1206850E8050F216820F04000CF
:102F800041E80502DAB1206850E8050F216820F019
:102F9000400041E8050292B1206850E8050F216821
:102FA00020F0400041E805024AB1206850E8050FD2
:102FB000216820F0400041E80502002ADAD12020F3
:102FC00084F8420000202063206850E8030F216845
:102FD00020F0100041E80302DAB1206850E8030F46
:102FE000216820F0100041E8030292B1206850E807
:102FF000030F216820F0100041E803024AB1206865
:1030000050E8030F216820F0100041E80302002A75
:10301000DAD1E06BFFF76EF802206063A08DE18DDE
:10302000401A81B2204674E1626C42F0010262648F
:103030004A0706D5BEF1000F03D0626C42F00202CF
:1030400062648A0706D5BEF1000F03D0626C42F0BD
:1030500004026264BCF1000F09D545EA0E02B2FA1F
:1030600082F2520903D1626C42F008026264626C1F
:10307000002A3FF41BAF11F0200118BF002D03D030
:10308000204600F0FBFE20684069616C00F04000C3
:1030900001F00801401800F0B58000BF206850E83A
:1030A000030F216820F4907041E80302BAB320684E
:1030B00050E8030F216820F4907041E8030272B3D6
:1030C000206850E8030F216820F4907041E8030263
:1030D0002AB3206850E8030F216820F4907041E87B
:1030E0000302002ADAD11AE0206850E8050F2168AF
:1030F00020F0010041E80502DAB1206850E8050F30
:10310000216820F0010041E8050292B1206850E8F2
:10311000050F216820F0010041E805024AB120684E
:1031200050E8050F216820F0010041E80502002A5F
:10313000DAD1206B012824D1206850E8030F2168E0
:1031400020F0100041E80302DAB1206850E8030FD4
:10315000216820F0100041E8030292B1206850E895
:10316000030F216820F0100041E803024AB12068F3
:1031700050E8030F216820F0100041E80302002A04
:10318000DAD1202084F842000020206320684069C2
:1031900040063FD5206850E8050F216820F0400028
:1031A00041E80502DAB1206850E8050F216820F0F7
:1031B000400041E8050292B1206850E8050F2168FF
:1031C00020F0400041E805024AB1206850E8050FB0
:1031D000216820F0400041E80502002ADAD1E06BC6
:1031E000C0B143F67161C0F600014163FEF7A6FF6E
:1031F00000283FF45BAEE06B416B02B0BDE8B0402D
:10320000084700BF2046FFF7DFFD0020606402B0E2
:10321000B0BD00BF204602B0BDE8B040FFF7D4BD4E
:10322000401A216851E8031F226821F4907142E896
:103230000313DBB1216851E8031F226821F4907168
:1032400042E8031393B1216851E8031F226821F477
:10325000907142E803134BB1216851E8031F2268C3
:1032600021F4907142E80313002BDAD1216851E870
:10327000051F226821F0010142E80513DBB1216836
:1032800051E8051F226821F0010142E8051393B1BE
:10329000216851E8051F226821F0010142E8051369
:1032A0004BB1216851E8051F226821F0010142E875
:1032B0000513002BDAD1202184F84210002121636C
:1032C000216851E8031F226821F0100142E803132E
:1032D000DBB1216851E8031F226821F0100142E8A8
:1032E000031393B1216851E8031F226821F01001F4
:1032F00042E803134BB1216851E8031F226821F013
:10330000100142E80313002BDAD1022281B22046D9
:10331000626302B0BDE8B040FFF754BD216A31F8E6
:10332000022B6FF35F22426021628CE5002804BF0C
:103330000120704710B5044690F8410028B90020DC
:1033400084F84000204600F063F8242084F841000F
:103350002068D4E90212C36823F40053C3600369F0
:1033600023F440531A430261D4E904231143C26891
:10337000194341F20C639A431143C1604169A26948
:1033800021F44071114343F60002C4F2010290425D
:10339000416103D0FFF7FEFA02E000BFFFF70EFB2A
:1033A0006268192148439100B0FBF1F048F21F51C7
:1033B000C5F2EB11A0FB01235A094FF69C73C0F62E
:1033C000FF7302FB0300322303EB0010A0FB01019B
:1033D000F02303EA5113206803EB0212C1F34311F7
:1033E00011448160016921F490410161416921F03A
:1033F0002A014161C16841F40051C16000202021CF
:10340000606484F8411084F84210606310BD0000CD
:1034100070B586B0006844F20041C4F20001002695
:1034200088420596CDE90366029647D044F600012E
:10343000C4F20001884279D043F60001C4F20101D0
:10344000884240F0A58041F21800C4F202000168F1
:1034500040F6000441F4804101600168C4F20104B7
:1034600001F4804101910199016802AD41F004012C
:1034700001600068294600F00400019001984FF4B3
:103480000070029002200390032005902046FEF772
:10349000C3FE4FF4806002900020CDE90300204677
:1034A0002946FEF7B9FE252000210022FFF758F833
:1034B0002520FFF741F806B070BD00BF41F21800AB
:1034C000C4F20200416840F6000441F4003141605A
:1034D0004168C4F2010401F40031019101990168CD
:1034E00002AD41F0040101600068294600F00400CB
:1034F000019001980420029002200390032005907F
:103500002046FEF789FE0820CDE90206204629461E
:103510000496FEF781FE262000210022FFF720F806
:103520002620FFF709F806B070BD00BF41F2180071
:10353000C4F20200416802AD41F48021416041685B
:1035400001F4802101910199016841F008010160B5
:103550000068294600F00800019001984FF480604F
:103560000290022003900320059040F60000C4F270
:10357000010000F580642046FEF74EFE4FF4006027
:1035800002900020CDE9030020462946FEF744FEC4
:1035900006B070BD90F84230202B1CBF022070474F
:1035A00000294FF0010318BF002A01D118467047C7
:1035B00000230363816222218285C285436480F8EF
:1035C00042100169006819B1C16841F48071C1609D
:1035D0004169002341F001014161C16841F02001CE
:1035E000C160184670470000006844F20041C4F210
:1035F0000001884216D043F60001C4F2010188425E
:1036000018BF704740F27003C2F2000340F24C2032
:103610004FF0010C991DC2F20000012283F801C095
:10362000FFF7B8BF40F27003C2F2000399789888A0
:103630000A2913D07F2811D240F29C12C2F2000254
:1036400000F1010C115440F29420991CC2F20000C8
:103650000122A3F804C0FFF79DBF00BF40F29C11F8
:10366000C2F2000100220A540120187070470000C5
:103670002DE9F041044690F8410020281CBF0220AB
:10368000BDE8F0810D4600294FF0010000F0AA804E
:103690001646002A08BFBDE8F081002060642120A2
:1036A000984684F84100FEF7D1FEA684E684A1681E
:1036B0000646B1F5805F02D12069002862D02F460E
:1036C0000025E08C002861D018F1010018D0B8F175
:1036D000000F37D1216808E017F8010B4860E08C33
:1036E0000138E084E08C002851D00868000673D5CA
:1036F000002FF1D135F8020B00276FF35F20EDE7C3
:10370000216802E00868000609D40868000606D4AB
:10371000086800065CBF08685FEA0060F2D51FB168
:1037200017F8010B05E000BF35F8020B00276FF317
:103730005F204860E08C0138E084E08C0028E4D110
:1037400025E000BF216800BF0868000608D4FEF726
:103750007DFE801B404541D82168C868F4E700BF62
:1037600017B117F8010B04E035F8020B00276FF3CF
:103770005F204860E08C0138E084E08C0028E3D1D1
:1037800005E000BF0027E08C00289DD12168086873
:1037900040061FD4B8F1000F1ED018F101000FD160
:1037A0000868400616D40868400613D40868400626
:1037B00010D4086840064FF00000F1D50FE000BFBC
:1037C000FEF744FE801B404508D82068C1680068A9
:1037D0004006F5D5002002E0FEF738FE0320202148
:1037E00084F84110BDE8F08170470000FEE700005A
:1037F000B0B584B040F21C2042F20041C2F2000099
:10380000C4F2010100244FF4602201250473047501
:10381000C261C0E9001484600561FEF79FF90028C9
:1038200018BFFEF7CBF80920CDE9010540F21C20B6
:10383000C2F2000001A90394FEF7C6F8002818BFE1
:10384000FEF7BCF804B0B0BD2DE9F04786B04FF0EC
:10385000000A41F21800CDF814A0C4F20200016879
:1038600040F6000541F0200101600168C4F2010545
:1038700001F02001019101990168002241F0040149
:10388000016001684FF0820801F004010191019983
:10389000016841F0080101600068822100F0080021
:1038A000019001982846FEF7CBFD05F5806420467F
:1038B0004FF4005100224FF40059FEF7C1FD40F2D1
:1038C000311002AECDE9020A28463146CDF810A0EB
:1038D000FEF7A2FCCDF808804FF001080227284629
:1038E0003146CDE9038A0597FEF796FC204631461E
:1038F000CDE90298CDE904A7FEF78EFC06B0BDE83D
:10390000F087000080B540F24C2043F60001C2F27F
:103910000000C4F2010100234FF00C0C4FF4E1321F
:1039200080E80E00C0E90333C0E905C3C361FFF7B7
:10393000FDFC002808BF80BDBDE88040FEF73EB812
:1039400080B540F2942044F20041C2F20000C4F27B
:10395000000100234FF00C0C4FF4E13280E80E0020
:10396000C0E90333C0E905C3C361FFF7DFFC0028EA
:1039700008BF80BDBDE88040FEF720B880B540F2AA
:10398000DC2044F60001C2F20000C4F20001002372
:103990004FF00C0C4FF4E13280E80E00C0E9033325
:1039A000C0E905C3C361FFF7C1FC002808BF80BDA3
:1039B000BDE88040FEF702B8FEE70000FEE7000029
:1039C00070470000704700007047000081B070B57C
:1039D00095B014466E460D4619AA304621461993F5
:1039E0001492FCF747FC40F21A14C2F200040FA133
:1039F00020462A463346FCF74FFC85B240F2DC20D5
:103A0000C2F2000021462A466423FFF731FE40F24D
:103A10004C20C2F2000021462A466423FFF728FE0C
:103A200015B0BDE8704001B0704700BF25733A255E
:103A3000730D0A00B0B584B002200090012040F65A
:103A40000004CDE901000320C4F20104039069469B
:103A50002046FEF7E1FB204602210122FEF7F0FCA2
:103A60004FF47A70FEF7C4FBFDF75EFFFDF7A2FD91
:103A7000F8B14FF47A70FEF7BBFBFDF79BFDC0B1C8
:103A80004FF47A70FEF7B4FBFDF794FD88B14FF464
:103A90007A70FEF7ADFBFDF78DFD50B14FF47A70F3
:103AA000FEF7A6FBFDF786FD18B14FF47A70FEF71E
:103AB0009FFB40F27004C2F2000440F24C20A11DB2
:103AC000C2F200000122FFF765FD40F29C100025C4
:103AD000C2F200008021A580FCF71DFD40F2942079
:103AE000A11CC2F200000122FFF754FD40F2880041
:103AF000C2F20000A0F89050C0E91C55C0E91E5564
:103B0000C0E92055C0F88850C0F88B5004B0B0BD53
:103B10002DE9F04184B040F60004C4F201042046CF
:103B200001210126FEF786FC40F28807C2F2000759
:103B3000387020461021FEF77DFC78702046202149
:103B4000FEF778FCB87020464FF48071FEF772FCE7
:103B5000F870381DFDF7F4FD40F21C240620C2F277
:103B60000004CDE9010601A920460396FDF72CFFCC
:103B70002046FEF719FA20466421FEF7E1F808B165
:103B8000002406E040F21C20C2F20000FDF7E2FF34
:103B9000044640F21C25C2F200052846FEF76AFAE8
:103BA0000820CDE9010601A92846FC800396FDF70F
:103BB0000BFF2846FEF7F8F928466421FEF7C0F807
:103BC00010B1002407E000BF40F21C20C2F2000048
:103BD000FDF7C0FF044640F21C25C2F2000528464E
:103BE000FEF748FA092001900120CDE9020001A961
:103BF00028463C81FDF7E8FE2846FEF7D5F9284621
:103C00006421FEF79DF808B1002506E040F21C2073
:103C1000C2F20000FDF79EFF054640F21C20C2F2F2
:103C20000000FEF727FA40F27004C2F20004207888
:103C30007D81012869D140F29C10C2F2000076A17A
:103C4000FCF738FC40B940F29C10C2F2000074A1AD
:103C5000FCF730FC002846D02C21FCF721FC013079
:103C60002C21FCF71DFC002818BF013001784129E8
:103C700036D1012187F88E102C21FCF711FC054666
:103C8000002818BF013528462C21FCF709FC50B349
:103C9000A0EB05080646B8F10D0F08D807F1700033
:103CA00029464246FCF75EFC002100F80810701C13
:103CB0002C21FCF7F5FB0546002818BF01352846E6
:103CC0002C21FCF7EDFB70B1461B0D2E0BD807F134
:103CD0007F0029463246FCF745FC0021815502E071
:103CE000002087F88E0000202070A08040F29C10F9
:103CF000C2F200008021FCF70EFC40F29420A11CCF
:103D0000C2F200000122FFF745FC607801280FD1C4
:103D100014F8060F01223038A7F89000002004F8AC
:103D2000050C40F24C20C2F200002146FFF732FCA5
:103D300044F6FA123CA1C0F60002FFF747FE3878BD
:103D40007978431EBA78FE7818BF012344F6FC1434
:103D5000012918BF0133C0F60004012A18BF01333E
:103D600033A12246012E18BF0133FFF72FFE3B7906
:103D700031A12246FFF72AFE7B7931A12246FFF7C7
:103D800025FEFB8830A12246FFF720FEB7F89030D1
:103D90002FA12246FFF71AFE3B892FA12246FFF7EB
:103DA00015FE7B892DA12246FFF710FE97F88E00A5
:103DB000B0B144F6032444F60621C0F6000407F12E
:103DC0007003C0F600012246FFF700FE44F6FF1123
:103DD00007F17F03C0F600012246FFF7F7FD11E06F
:103DE00044F6F61444F60621C0F60004C0F60001BD
:103DF0002246FFF7EBFD44F6FF11C0F60001224614
:103E0000FFF7E4FD44F6FA1215A1C0F60002FFF731
:103E1000DDFD04B0BDE8F081244750524D43000061
:103E200024474E524D4300007374617274000000C9
:103E3000666972650000000074656D700000000026
:103E400068756D6964000000736F696C00000000A4
:103E500068656C7000000000666F670070680000A5
:103E6000656E6400FFF754BEFEF7F6BA70470000B7
:103E7000406A0021C185C184FEF7A6BF81B090F8D9
:103E80004210222921D183680246B3F5805F09D10F
:103E900052F8281F52F8183C002B63D003685B6867
:103EA0000AE000BF52F8281F13B90369002BF5D0B0
:103EB00003685B6803F07F030B70116801311160C8
:103EC000C18D01390A04C18502D001B0704700BF1D
:103ED0000168CA6822F02002CA60CA6822F48072AF
:103EE000CA604A6922F001024A61202180F842102A
:103EF00000214163026B012A3CD10163016851E852
:103F0000031F026821F0100142E80313DBB10168CE
:103F100051E8031F026821F0100142E8031393B136
:103F2000016851E8031F026821F0100142E8031301
:103F30004BB1016851E8031F026821F0100142E80B
:103F40000313002BDAD101680A68D20606D50022D5
:103F500000920A680092496800910099818D01B031
:103F6000FEF730BF026852686FF35F2221F8022B20
:103F70008162A5E701B0FFF737BB000040F24C209B
:103F8000C2F20000FEF722BF40F29420C2F200000D
:103F9000FEF71CBFFEE7000094B0FEF76BFA0AAC18
:103FA000201D2421FCF7B7FA02200A9001200E9070
:103FB000102000250F9020460495CDE9025511955B
:103FC000FEF710FD20B1EFF3108072B6FEE700BFE0
:103FD0000F20CDE9050505A80021CDE90755099574
:103FE000FEF7F8FB20B1EFF3108072B6FEE700BFDA
:103FF000022001900020039001A8FEF765FB28B184
:10400000EFF3108072B600BFFEE700BFFFF71CFCA5
:10401000FFF7EEFBFFF776FCFFF792FCFFF7AEFC35
:10402000FFF708FD17480DF12C0E0A9015A0D0E9F6
:10403000054C051DC0692ECDCDE90F4C0AAC119081
:1040400020468EE82E00FCF747FA82B240F24C2060
:10405000C2F2000021466423FFF70AFBFFF758FD78
:1040600040F22434C2F20004FEF7F0F9206000BFF1
:10407000FEF7ECF92168401AB0F57A7FF8D3FFF724
:10408000F1FEF1E753544D33322053656E736F7276
:104090002053797374656D20537461727465640D77
:1040A0000A0000005FEA400C08BF91F0000F4FEAE1
:1040B0008C234FEAC12243EA51514FEA1C5018BFEA
:1040C00000F5F0404FEA300018BF41F000415FEAD0
:1040D0006C5C00F02980BCF1FF3F08BF40F08040DD
:1040E0007047130C06BF12044FF0100C4FF0000C79
:1040F000130E04BF12020CF1080C130F04BF1201BF
:104100000CF1040C930F04BF92000CF1020CD30FBE
:1041100004BF52000CF1010C11464FF00002A0F157
:104120001F00A0EB0C00704711F0004F08BF704754
:1041300031F000413FF4D5AF0B0C06BF09044FF03E
:10414000100C4FF0000C0B0E04BF09020CF1080C10
:104150000B0F04BF09010CF1040C8B0F04BF890085
:104160000CF1020CCB0F04BF49000CF1010CCCF197
:10417000200322FA03F341EA030102FA0CF2A0EB56
:104180000C0000F10100704723F07F4720F07F4CC6
:1041900080EA030000F00040ACEB070303F57C531A
:1041A00003F1FF032DE9804909B44FEA144324EADF
:1041B00003484FEA154B25EA0B4E0FF2042606EB97
:1041C00013273E7803FB0667C7F5000707FB06F6D3
:1041D0004FEAD64606F102064FEA543707FB066C53
:1041E000CCF1005C4FEA1C472CEA074C0CFB06F5AF
:1041F00007FB06F404EB15464FEA961649085FEAFA
:10420000320234BF00204FF000404FEAD13706FBA6
:1042100007FC4FEA1C4C0CFB0BF7D21B03FB0CF703
:1042200061EB07010CFB0EF7B0EB074072EB174296
:104230000CFB08F734BFA2EB0742B2EB074261EB7D
:1042400017414FEA0C444FEA910706FB07FC4FEA7F
:104250001C4C0CFB0BF7B0EBC74072EB573203FB67
:104260000CF734BFA2EBC742B2EBC74261EB573148
:104270000CFB0EF7B0EBC70072EB57720CFB08F7A4
:1042800034BFA2EBC702B2EBC70261EB57714FEA32
:10429000816141EA92114FEA826242EA90124FEA4A
:1042A000806004EBCC04039F4FEAD13706FB07FC88
:1042B0004FEA1C4C0CFB0BF7D21B03FB0CF761EB1A
:1042C00007010CFB0EF7B0EB074072EB17420CFB3B
:1042D00008F734BFA2EB0742B2EB074261EB17418C
:1042E0004FEA8C5504EB9C244FEA910706FB07FC30
:1042F0004FEA1C4C0CFB0BF7B0EBC74072EB57328C
:1043000003FB0CF734BFA2EBC742B2EBC74261EB31
:1043100057310CFB0EF7B0EBC70072EB57720CFB7A
:1043200008F734BFA2EBC702B2EBC70261EB5771CB
:104330004FEA816141EA92114FEA826242EA9012A9
:104340004FEA806015EB4C2544F100044FEAD13769
:1043500006FB07FC4FEA1C4C0CFB0BF7D21B03FBC4
:104360000CF761EB07010CFB0EF7B0EB074072EBAB
:1043700017420CFB08F734BFA2EB0742B2EB07422F
:1043800061EB17414FEA813141EA92414FEA8232B3
:1043900042EA90424FEA80304FEA0C7615EB1C154A
:1043A00044F1000448EA03434EEA0B484FF0000E84
:1043B000B2EB080C71EB030724BF624639464EEBA3
:1043C0000E0E4FF0000B0018524149414BEB0B0B06
:1043D000B2EB080C71EB03077BF1000B24BF6246C4
:1043E00039464EEB0E0E4FF0000B0018524149417A
:1043F0004BEB0B0BB2EB080C71EB03077BF1000BE3
:1044000024BF624639464EEB0E0E51EA020718BF32
:1044100046F0010616EB0E7655F1000254F100014C
:1044200003D5BDE88901BDE80088BDE88901BDE884
:104430000048B619524141EB0101A3F10103704755
:1044400080807F7E7D7C7B7A7978777676757473D1
:10445000727171706F6E6E6D6C6C6B6A6A69686890
:10446000676666656464636362616160605F5F5E26
:104470005E5D5D5C5C5B5B5A5A595958585757569C
:104480005655555554545353525252515150505001
:104490004F4F4F4E4E4D4D4D4C4C4C4B4B4B4A4A53
:1044A0004A49494948484847474747464646454597
:1044B00045444444444343434342424242414141D0
:1044C0009C46002B30D477002BD04FEA37071CB521
:1044D00003B44FF010004FF01001BAF1000F06D0F6
:1044E000BCF1000FDCBF40F0080040F008014FF0C5
:1044F00000000FBCBDE810400BF1010BBBF1010F38
:1045000008BF5FEA170722BF12F1010211F1010192
:104510004FF0004143F1000300F0004043EA000087
:104520007047F9D35708D0E746EA06464FEA1646E1
:1045300013F1400F1FDD13F1200FDFBF16430A46B2
:10454000002120335B42BED0C3F1200746EA064675
:104550004FEA164602FA07F746EA070622FA03F27E
:10456000C3F1200701FA07F742EA070221FA03F133
:104570004FF00003A7E746EA020646EA06464FEA7E
:10458000164646EA0106BCBF46EA0646360C4FF020
:1045900000034FF000024FF0000194E72DE9804C3A
:1045A00070B49A46934691E8380007C831EA400C47
:1045B00048BF34EA430C03D5FFF7E6FDFFF780FF61
:1045C000F0BCBDE8008C2DE9804C70B49A4693464F
:1045D00091E8380007C810F0804F08BF13F0804FF3
:1045E00003D100F005F8FFF76BFFF0BCBDE8008CCD
:1045F00020F07F4723F07F4C80EA030000F000406A
:1046000007EB0C03A3F57C53A3F1FE0392F0000F1C
:1046100000F0B38095F0000F00F077802DE901499C
:104620004FEA114021EA00484FEA144624EA0647BF
:1046300000FB06FC08FB06F607FB08F818EB06482B
:104640004CEB164C00FB07F718EB07484CEB1740F8
:104650004FEA124B22EA0B4E4FEA154625EA06476F
:104660000BFB06FC0EFB06F607FB0EFE1EEB064ED2
:104670004CEB164C0BFB07F71EEB074E4CEB174BA6
:1046800018EB0B0840F1000018EB0E0B58EB00087C
:1046900040F100008F1A4FF000014FF000063CBFC0
:1046A000C943661B14BFB5EB040C00213CBFC943D2
:1046B000F61B4FEA174427EA04454FEA1C472CEA49
:1046C000074C04FB076205FB07F70CFB05F616EB2E
:1046D000074642EB174204FB0CFC16EB0C4642EB80
:1046E0001C421BEB060658EB020241414EEA8E0EBD
:1046F00046EA9E0601D5BDE80189B619524141EB53
:104700000101A3F10103BDE801894FEA144524EA40
:1047100005464FEA114721EA074C05FB07F406FB63
:1047200007F70CFB06F111EB074144EB174405FBBF
:104730000CFC11EB0C4144EB1C444FEA124722EAFB
:10474000074C05FB07F206FB07F70CFB06F616EB1A
:10475000074642EB174205FB0CFC16EB0C4642EBFE
:104760001C456A1854F1000148BF7047B619524100
:1047700041EB0101A3F10103704795F0000F37D021
:104780004FEA114221EA02464FEA144724EA074C55
:1047900002FB07F106FB07F70CFB06F414EB0744DA
:1047A00041EB174102FB0CFC14EB0C4441EB1C41A8
:1047B0004FEA154725EA074C02FB07F506FB07F70A
:1047C0000CFB06F616EB074645EB174502FB0CFC07
:1047D00016EB0C4645EB1C42121951F1000148BF83
:1047E0007047B619524141EB0101A3F10103704733
:1047F0004FEA144524EA05464FEA114721EA074CDF
:1048000005FB07F106FB07F70CFB06F212EB07426C
:1048100041EB174105FB0CFC12EB0C4251EB1C4128
:104820004FF0000648BF7047921841EB0101A3F119
:1048300001037047490050EAC12018BF04204A0D07
:1048400018BF40F0010040F2FF72B2EB515F08BFA9
:1048500040F00200012808BF0520704730380A28C0
:1048600001D20120704700207047000010B50029D8
:104870000AD00878002807D005487844FCF7F4FDF2
:10488000002801D0002010BD0248784410BD00006F
:10489000B2010000AA01000010B500290AD0087872
:1048A000002807D005487844FCF7DEFD002801D039
:1048B000002010BD0248784410BD0000A201000095
:1048C0009A010000FCF7F0B9FCF724BB04000008D3
:1048D00000000000000000020001000010000000C5
:1048E000000000000000000030313233343536372C
:1048F0003839414243444546403058003031323324
:104900003435363738396162636465664030780023
:104910003031323334353637383961626364656635
:1049200078700030313233343536373839414243CC
:10493000444546585000000002400000000000A01E
:104940000000000005400000000000C8000000005A
:104950000C4000000000409C0000000019400000D6
:104960000020BCBE0000000034400000BFC91B8E08
:1049700000000004B5400000504BCFD06607E2CFE6
:10498000010000006C4100003E8251AADFEEA73416
:1049900001000000D9420000DCB5A0E23A301F97C8
:1049A000FFFFFFFFB4450000FD25A0C8E9A3C14FEC
:1049B000FFFFFFFFFF3F000000000080000000003D
:1049C000FF3F000000000080000000000000000029
:1049D00000000000010203040607080900000000AF
:1049E00001020304010202030405060708090A0B79
:1049F0000C0D0E0F1010302E300031002564006CAD
:104A00006F6E002573006C6174000000584B000845
:104A1000000000201000000028010008684B00087A
:104A20001000002020090000440100081C000000C4
:104A300043000000F8FFFFFF0C0000000E00000024
:104A40000F0000002E0000001001000043000000D5
:104A5000F8FFFFFF0040404040404040404041419F
:104A60004141414040404040404040404040404043
:104A700040404040400502020202020202020202DD
:104A800002020202022020202020202020202002DA
:104A9000020202020202909090909090101010106A
:104AA0001010101010101010101010101010101006
:104AB000020202020202888888888888080808089A
:104AC0000808080808080808080808080808080866
:104AD000020202024000000000000000000000008E
:104AE00000000000000000000000000000000000C6
:104AF00000000000000000000000000000000000B6
:104B000000000000000000000000000000000000A5
:104B10000000000000000000000000000000000095
:104B20000000000000000000000000000000000085
:104B30000000000000000000000000000000000075
:104B40000000000000000000000000000000000065
:104B50000000000000000000010000001000000044
:084B600000127A0000000000C1
:04000005080000ED02
:00000001FF
