:020000040800F2
:1000000018160020990500088502000887020008DC
:10001000930200089F020008AB02000800000000E5
:10002000000000000000000000000000B70200080F
:10003000B902000800000000AF050008BB0200087C
:10004000B3050008B3050008B3050008BD020008A9
:10005000B3050008B3050008B3050008B3050008A0
:10006000B30500080D3A00083D3A0008B305000842
:10007000B3050008B3050008B3050008B305000880
:10008000B3050008B3050008B3050008B305000870
:10009000B3050008B3050008B3050008B305000860
:1000A000B3050008B3050008B3050008B305000850
:1000B000E13B00087D3500082B490008B305000826
:1000C000B3050008B3050008B3050008B305000830
:1000D000B30500084F2A00082F700008B305000878
:1000E00049390008B3050008B305000800F002F81C
:1000F00000F0B8F80AA090E8000C82448344AAF10A
:100100000107DA4501D100F0ADF8AFF2090EBAE807
:100110000F0013F0010F18BFFB1A43F0010318473B
:1001200000DC000020DC000010F8013B0A4413F062
:10013000030408BF10F8014B1D1108BF10F8015B44
:10014000641E05D010F8016B641E01F8016BF9D133
:10015000002D15D010F8014B03F00C030C2BA1EB74
:1001600004040ABF10F8013BA4EB8314A4EB03249E
:1001700005F1010314F8016B5B1E01F8016BF9D561
:10018000914238BF10F8013BD1D3704700230024BF
:1001900000250026103A28BF78C1FBD8520728BF97
:1001A00030C148BF0B6070476E2909F05583702934
:1001B00008F0F38666290CF06E8765290CF06B87D2
:1001C00067290CF0688761290CF0678703681B0AB0
:1001D00028BF41F08001692908F06486642908F08D
:1001E0006186752908F05E866F2909F052867829A4
:1001F00008F0BF86E92909F0ED85E42909F0EA85D0
:10020000F52909F0E785EF2909F04F86F82908F06C
:10021000BE860368DB0928BF41F08001632909F02D
:100220006E85732909F07385E3290AF0C980F329E3
:100230000AF0CE80002070471FB59DE8030009F04A
:100240005FFA09F085FE0400002000210BF0B4FDE8
:10025000401C6060002000210BF0C4FDE0601FBD69
:1002600010B510BD0AF00CFB1146FFF7E5FF04F0D6
:1002700063F90AF02AFB03B4FFF7F2FF03BC0AF0AC
:100280009BFB000070470EA11C4802F0BCFB00BFA6
:10029000FEE71BA1194802F0B6FB00BFFEE727A14D
:1002A000164802F0B0FB00BFFEE733A1134802F08E
:1002B000AAFB00BFFEE77047704770477047000019
:1002C0000D0A2A2A2A2A2A2A2A2A2A2A2A2A2A2ACB
:1002D0002A2A2A2A2A486172644661756C745F482A
:1002E000616E646C65722A2A2A2A2A2A2A2A2A2AF4
:1002F0002A2A2A2A2A2A2A2A2A0D0A0000380140F4
:100300000D0A2A2A2A2A2A2A2A2A2A2A2A2A2A2A8A
:100310002A2A2A2A2A4D656D4D616E6167655F48FC
:10032000616E646C65722A2A2A2A2A2A2A2A2A2AB3
:100330002A2A2A2A2A2A2A2A2A0D0A000D0A2A2AC1
:100340002A2A2A2A2A2A2A2A2A2A2A2A2A2A2A2A0D
:100350002A4275734661756C745F48616E646C65A2
:10036000722A2A2A2A2A2A2A2A2A2A2A2A2A2A2AA5
:100370002A2A2A2A0D0A00000D0A2A2A2A2A2A2AAB
:100380002A2A2A2A2A2A2A2A2A2A2A2A2A55736122
:1003900067654661756C745F48616E646C65722A4E
:1003A0002A2A2A2A2A2A2A2A2A2A2A2A2A2A2A2AAD
:1003B0002A2A0D0A000000000CB5002001900090D0
:1003C0006C48006840F480306A49086000BF6948A2
:1003D000006800F4003000900198401C01900098E3
:1003E00018B90198B0F5A06FF1D16248006800F427
:1003F000003010B10120009001E000200090009832
:10040000012843D15C48006840F010005A49086058
:100410000846006820F0030008600846006840F0C5
:1004200002000860534840685249486008464068E6
:1004300048600846406840F480604860084640686C
:1004400020F47C1048600846406840F4E81048609A
:100450000846006840F08070086000BF45480068AA
:1004600000F000700028F9D04248406820F00300F6
:10047000404948600846406840F00200486000BFBC
:100480003C48406800F00C000828F9D10CBD10B5BC
:10049000FFF792FF10BD10B53648006840F001002C
:1004A000344908600846406834490840314948608A
:1004B00008460068324908402E490860084600682E
:1004C00020F4802008600846406820F4FE00486060
:1004D0004FF41F008860FFF7DAFF4FF000602949F2
:1004E000086010BD10B5002100200022214B5B6880
:1004F00003F00C0121B1042906D0082928D107E016
:10050000214B224C236027E01F4B204C236023E02B
:10051000184B5B6803F47010164B5B6803F4803271
:10052000022303EB904022B9194B4343174C23603D
:100530000DE0104B5B6803F4003323B1144B4343CD
:10054000124C236003E0104B4343104C236003E044
:100550000D4B0E4C236000BF00BF064B5B68C3F31E
:1005600003130C4CE15C094B1B68CB40074C236028
:1005700010BD000000100240002002400000FFF803
:10058000FFFFF6FE08ED00E000127A0000000020F8
:1005900000093D0004000020094880470948004741
:1005A000FEE7FEE7FEE7FEE7FEE7FEE7FEE7FEE723
:1005B000FEE7FEE704480549054A064B7047000080
:1005C00097040008ED000008180C00201816002001
:1005D000180E0020180E002031490143314A1160E5
:1005E000704770B5002100230F22C47804B32D4C4E
:1005F000246804F4E064C4F5E064210AC1F1040352
:10060000CA40447804FA03F1847814402143090174
:10061000254C0678A155047804F01F050124AC4050
:1006200005786D11AD0005F1E025C5F8004109E040
:10063000047804F01F050124AC401C4D06787611A7
:1006400045F8264070BD1A4A0A400243154B1B1F4D
:100650001A60704739B1134A121D12680243114BD8
:100660001B1D1A6006E00F4A121D126882430D4BD3
:100670001B1D1A607047042808D14FF0E02109695A
:1006800041F004014FF0E022116107E04FF0E0215A
:10069000096921F004014FF0E02211617047000068
:1006A0000000FA050CED00E000E400E080E100E06D
:1006B00080FFFF1F10B50446CC48844208D10121B9
:1006C000042000F0A7FB0021042000F0A3FB46E07B
:1006D000C748844208D10121082000F09BFB00217B
:1006E000082000F097FB3AE0C248844208D101217B
:1006F000102000F08FFB0021102000F08BFB2EE07B
:10070000BD48844208D10121202000F083FB002154
:10071000202000F07FFB22E0B848844208D101216C
:10072000402000F077FB0021402000F073FB16E032
:10073000B348844208D10121802000F06BFB0021E6
:10074000802000F067FB0AE0AE48844207D1012117
:10075000801500F05FFB0021A01500F05BFB10BDD1
:1007600010B50121084600F055FB0021012000F0E2
:1007700051FB10BD2DE9F041024600250026002066
:1007800000230024002791F803C00CF00F0591F816
:1007900003C00CF0100CBCF1000F03D091F802C0A4
:1007A0004CEA050591F800C0BCF1000F31D0146887
:1007B00000202BE04FF0010C0CFA00F3B1F800C060
:1007C0000CEA03069E4220D183004FF00F0C0CFA76
:1007D00003F7BC4305FA03FC4CEA040491F803C098
:1007E000BCF1280F06D14FF0010C0CFA00FCC2F846
:1007F00014C00AE091F803C0BCF1480F05D14FF0D6
:10080000010C0CFA00FCC2F810C0401C0828D1D31F
:100810001460B1F800C0BCF1FF0F34DD5468002053
:100820002EE000F1080C4FF0010808FA0CF3B1F8C3
:1008300000C00CEA03069E4221D183004FF00F0C4A
:100840000CFA03F7BC4305FA03FC4CEA040491F8E4
:1008500003C0BCF1280F05D100F1080C08FA0CF810
:10086000C2F8148091F803C0BCF1480F07D100F121
:10087000080C4FF0010808FA0CF8C2F81080401C70
:100880000828CED35460BDE8F0814FF6FF71018097
:10089000022181700421C1707047024600209368D4
:1008A0000B400BB1012000E0002070470146886832
:1008B00080B2704702460020D3680B400BB1012084
:1008C00000E0002070470146C86880B270470161AF
:1008D0007047416170470AB1016100E041617047B2
:1008E000C16070474FF480320A4382618161826146
:1008F00082698269704702460020434B18684FF6B0
:100900008073184040EA021008433F4B186070475C
:100910003E49C8617047F0B50A4600230024002113
:10092000002500F00046B6F1004F02D1364EF169C5
:1009300001E0354E7168C0F3034583B200F4401600
:10094000B6F5401F08D121F070612F4E766826F071
:1009500070662D4F7E6012E000F48016B6F5801FA1
:1009600006D1032606FA05F4A14341F0706106E0C2
:10097000460D360103FA06F6B14341F0706122B12B
:10098000460D360103FA06F6314300F00046B6F193
:10099000004F02D11C4EF16101E01B4E7160F0BDB1
:1009A00030B500228B071C0F0F2303FA04F2164BFD
:1009B00008338C1053F824309343134C08348D10B3
:1009C00044F8253023468C1053F824308C07240F2C
:1009D00000FA04F423430C4C08348D1044F82530FD
:1009E00030BD0A49DC310860704700000008014052
:1009F000000C0140001001400014014000180140AB
:100A0000001C014000200140000001400000204285
:100A10004FF0E020006920F004004FF0E021086171
:100A20000920364908700846007800EB4001C1EB08
:100A3000C0104FF6FF7101EAC000314908807047CD
:100A4000002120F07F402D4A127842434FF0E023EE
:100A50005A6100229A6101221A6100BF4FF0E02220
:100A6000116901F001021AB101F48032002AF5D0B7
:100A700000224FF0E0231A619A617047002100B90B
:100A8000704720F07F401E4A128842434FF0E02317
:100A90005A6100229A6101221A6100BF4FF0E022E0
:100AA000116901F001021AB101F48032002AF5D077
:100AB00000224FF0E0231A619A6100BFE0E770B5B1
:100AC0000446002600254FF4FA7094FBF0F0C6B2FD
:100AD0004FF4FA7094FBF0F100FB114085B205E091
:100AE0004FF4FA70FFF7CAFF701EC6B2002EF7D19E
:100AF00015B12846FFF7C2FF70BD000014000020AA
:100B000016000020DF48006840F00100DD49086061
:100B100008464068DC490840DA49486008460068F1
:100B2000DA490840D74908600846006820F4802068
:100B300008600846406820F4FE0048604FF41F003B
:100B400088607047CF49096821F48031CD4A11602F
:100B50001146096821F480211160B0F5803F03D06F
:100B6000B0F5802F0ED106E0C649096841F4803106
:100B7000C44A116007E0C349096841F4A021C14A91
:100B8000116000E000BF00BF704710B501460022B1
:100B9000002300204A11012A02D1BA4C236806E042
:100BA000022A02D1B74C236A01E0B64C636A01F015
:100BB0001F02012494401C400CB1012000E00020E1
:100BC00010BD38B5002000900024002500BF312062
:100BD000FFF7DBFF05460098401C00900098B0F539
:100BE000A06F01D0002DF2D03120FFF7CEFF08B169
:100BF000012400E00024204638BD01460020A14A1F
:100C0000106820F0F80040EAC10010607047A04969
:100C100008607047024600209A4B586820F47C1008
:100C200042EA01031843974B586070479849086699
:100C3000704701460020934A506820F003000843A3
:100C4000506070478F48406800F00C0070470146C4
:100C500000208C4A506820F0F00008435060704734
:100C600001460020874A506820F4E0600843506045
:100C7000704701460020834A506820F4605040EAE3
:100C8000C1005060704729B17E4A527A02437D4BC1
:100C90005A7204E07B4A527A82437A4B5A72704706
:100CA0007B49D8310860704701460020754A50687A
:100CB00020F440400843506070470021714A2032C0
:100CC0001170704A82F82010012802D004280AD13D
:100CD00004E001216B4A2032117005E00521694AC8
:100CE0002032117000E000BF00BF70476949086002
:100CF00070476449096A0143624A11627047654955
:100D000044390860704730B50021002200240023D8
:100D10005C4D6D6805F00C0121B1042905D008294E
:100D200023D105E05C4D056022E05B4D05601FE0CE
:100D3000544D6D6805F47012524D6D6805F48034A1
:100D4000022505EB92421CB9544D554305600BE05A
:100D50004C4D6D6805F400351DB1504D554305608F
:100D600002E04D4D5543056002E04B4D056000BF6C
:100D700000BF444D6D6805F0F0010909484D6B5CFA
:100D80000568DD4045603F4D6D6805F4E061090A86
:100D9000434D6B5C4568DD4085603A4D6D6805F4F8
:100DA0006051C90A3E4D6B5C4568DD40C560354DFC
:100DB0006D6805F44041890B3A4D6B5CC568B5FB25
:100DC000F3F5056130BD29B12E4A526902432D4B1E
:100DD0005A6104E02B4A526982432A4B5A61704798
:100DE00029B1284A92690243264B9A6104E0254AB8
:100DF00092698243234B9A61704729B1214AD26993
:100E00000243204BDA6104E01E4AD26982431D4B43
:100E1000DA61704729B11B4AD2680243194BDA6084
:100E200004E0184AD2688243164BDA60704729B151
:100E3000144A12690243134B1A6104E0114A126901
:100E40008243104B1A61704712494039086070475D
:100E50000F49C86470470B49C87170470948406A18
:100E600040F0807007494862704701460020054AFB
:100E700092680A400AB1012000E000207047014951
:100E800088727047001002400000FFF8FFFFF6FE76
:100E9000000042428004424200127A0000093D00F4
:100EA000180000202800002010B50446FB488442AA
:100EB00009D101218803FFF7ADFF00214FF48040E5
:100EC000FFF7A8FF32E0F648844209D10121480427
:100ED000FFF7ADFF00214FF40030FFF7A8FF25E03A
:100EE000F048844209D101218804FFF7A0FF0021C6
:100EF0004FF48020FFF79BFF18E0EB48844209D1B4
:100F00000121C804FFF793FF00214FF40020FFF7F1
:100F10008EFF0BE0E548844208D101210805FFF768
:100F200086FF00214FF48010FFF781FF10BD2DE9EF
:100F3000F04786B005460E460024A24600BFA146F3
:100F40000027B08900B100BF2F462C8A4CF6FF70F5
:100F50000440F08804432C82AC894EF6F310044020
:100F6000B08831890843718908430443AC81AC8A55
:100F70004FF6FF400440B0890443AC8201A8FFF75C
:100F8000C2FEC648874202D1DDF810A001E0DDF8BC
:100F90000CA0A88900F4004040B10AEBCA0000EBA5
:100FA0000A1031684900B0FBF1F807E00AEBCA000B
:100FB00000EB0A1031688900B0FBF1F86420B8FB3F
:100FC000F0F004012009642101FB1089A88900F4D4
:100FD000004040B1322000EBC900B0FBF1F000F05E
:100FE0000700044308E0322000EB09106421B0FB45
:100FF000F1F000F00F0004432C8106B0BDE8F0874B
:101000004FF41651016000218180C18001810C21C3
:10101000418100218181704710B502460020108A6D
:101020004FF2FF0318400B884C8823438C882343DE
:10103000CC8823431843108210BD002101804180D9
:101040008180C180704721B1828942F4005282813F
:1010500004E082894DF6FF731A4082817047F0B533
:101060000346002400260025002040F66A17B942F6
:1010700000D100BF1846C1F3421401F01F0601273A
:1010800007FA06F5012C01D10C3004E0022C01D145
:10109000103000E014301AB107682F43076002E0F7
:1010A0000768AF430760F0BD1AB1838A0B438382A0
:1010B00002E0838A8B4383827047028A4FF6F07383
:1010C0001A400282028A0A430282704782894FF2E2
:1010D000FF731A40828182890A438281704721B15D
:1010E000828942F00202828104E082894FF6FD7318
:1010F0001A4082817047028A4FF6DF731A400282DB
:10110000028A0A430282704721B1028A42F4804275
:10111000028204E0028A4BF6FF731A400282704793
:10112000C1F308028280704701468888C0F3080036
:101130007047818941F0010181817047028BD2B2F1
:101140000283028B42EA012202837047028B02F47F
:101150007F420283028B0A430283704721B1828A55
:1011600042F02002828204E0828A4FF6DF731A4046
:101170008282704721B1828A42F01002828204E0AA
:10118000828A4FF6EF731A408282704721B1828AB9
:1011900042F00802828204E0828A4FF6F7731A4016
:1011A0008282704721B1828942F40042828103E049
:1011B0008289C2F30E028281704721B1828A42F491
:1011C0000062828204E0828A4FF2FF731A408282B8
:1011D0007047828A4FF6FB731A408282828A0A43E2
:1011E0008282704721B1828A42F00202828204E048
:1011F000828A4FF6FD731A408282704702460020B1
:10120000B1F5007F00D100BF13880B400BB1012066
:1012100000E00020704701F40072B2F5007F00D1B9
:1012200000BFCA430280704770B502460024002305
:101230000025002040F66A16B14200D100BFC1F37C
:10124000421501F01F03012606FA03F3012D02D116
:101250009689334006E0022D02D1168A334001E020
:10126000968A33400C12012606FA04F4168834409C
:1012700013B10CB1012000E0002070BD10B50022B8
:10128000002340F66A14A14200D100BF0A120124D3
:101290009440A3B2DC43048010BD0000003801403C
:1012A0000044004000480040004C00400050004016
:1012B000002044490860091D0860091D0860091DD7
:1012C000086041483F4914310860704700213D499A
:1012D0008279002A3AD00A46126803689A430B467C
:1012E0001A600A1D126803689A430B1D1A6002797E
:1012F00011440A6803681A430A60324A08321268C5
:1013000003689A432F4B08331A601A1D126803684A
:101310009A432C4B0C331A604279102A0ED11A1FB3
:10132000126803681A43274B08331A601A1D1268A3
:1013300003681A43234B0C331A600DE021494279AC
:1013400011440A6803681A430A6005E002791144EF
:101350000A6803689A430A607047002101600171BE
:101360000C214171002181717047164910310968C3
:101370000143144A10321160704701460020114A9F
:10138000143212680A400AB1012000E000207047C0
:101390000C49143108607047014600200022094BB7
:1013A0001B6803EA0102074B14331B680B4013B19F
:1013B0000AB1012000E000207047024914310860A2
:1013C0007047000000040140FFFF0F0010B5044605
:1013D000FE48844208D10121C014FFF71BFD002103
:1013E000E014FFF717FDC4E0B4F1804F08D10121EC
:1013F0000846FFF71CFD00210120FFF718FDB8E0AB
:10140000F348844208D101210220FFF710FD00219A
:101410000220FFF70CFDACE0EE48844208D1012128
:101420000420FFF704FD00210420FFF700FDA0E0E9
:10143000E948844208D101210820FFF7F8FC002187
:101440000820FFF7F4FC94E0E448844208D101212D
:101450001020FFF7ECFC00211020FFF7E8FC88E0EB
:10146000DF48844208D101212020FFF7E0FC002161
:101470002020FFF7DCFC7CE0DA48844208D101211F
:101480004014FFF7C7FC00216014FFF7C3FC70E0B5
:10149000D548844209D10121C804FFF7BBFC0021D3
:1014A0004FF40020FFF7B6FC63E0D048844209D136
:1014B00001210805FFF7AEFC00214FF48010FFF773
:1014C000A9FC56E0CA48844209D101214805FFF72A
:1014D000A1FC00214FF40010FFF79CFC49E0C54837
:1014E000844208D101214020FFF7A1FC00214020C7
:1014F000FFF79DFC3DE0C048844208D101218020D7
:10150000FFF795FC00218020FFF791FC31E0BB48FC
:10151000844208D101218015FFF789FC0021A01524
:10152000FFF785FC25E0B648844209D10121080473
:10153000FFF770FC00214FF48030FFF76BFC18E0E0
:10154000B048844209D101214804FFF763FC00211F
:101550004FF40030FFF75EFC0BE0AB48844208D14B
:1015600001218804FFF756FC00214FF48020FFF78B
:1015700051FC10BD00220288944B98420ED0994B2A
:1015800098420BD0B0F1804F08D0914B984205D0D3
:10159000904B984202D0904B984204D14FF68F73F3
:1015A0001A404B881A438D4B984207D08C4B984277
:1015B00004D04FF6FF431A40CB881A4302808B8831
:1015C00083850B880385814B98420BD0854B9842CD
:1015D00008D08B4B984205D08A4B984202D08A4B58
:1015E000984201D10B7A038601238382704770B53C
:1015F000002400220023058C4FF6FE76354005843A
:10160000028C8388048B4FF68F752C40B51E2C40BE
:101610000D882C43751E2A400D892A434D882A4384
:101620006A4DA8420BD06F4DA84208D0744DA84215
:1016300005D0744DA84202D0734DA84213D14FF685
:10164000F7752A404D892A434FF6FB752A408D884D
:101650002A434FF6FF652B404FF6FF552B408D89EF
:101660002B43CD892B4383800483CD8885860284D8
:1016700070BD70B5002400220023058C4FF6EF7674
:1016800035400584028C8388048B48F6FF752C4016
:101690004FF6FF452C400D884FF6FF7606EA0525EC
:1016A0002C434FF6DF752A400D8906EA05152A43BB
:1016B0004D8806EA05152A43444DA84202D0494DFB
:1016C000A8421DD14FF67F752A404D894FF6FF760F
:1016D00006EA05152A434FF6BF752A408D8806EAAB
:1016E00005152A434FF6FF352B404FF2FF752B406F
:1016F0008D8906EA85052B43CD8906EA85052B43AE
:1017000083800483CD880587028470BD70B5002472
:1017100000220023058C4FF6FF6635400584028CBD
:101720008388848B4FF68F752C404FF6FC752C40C8
:101730000D882C434FF6FF552A400D894FF6FF7652
:1017400006EA05252A434D8806EA05252A431F4D4A
:10175000A84202D0234DA8421DD14FF2FF752A4066
:101760004D894FF6FF7606EA05252A434FF6FF35E9
:101770002A408D8806EA05252A434EF6FF752B4040
:101780004DF6FF752B408D8906EA05152B43CD8953
:1017900006EA05152B4383808483CD8885870284E0
:1017A00070BD70B5002200230024058C4EF6FF7634
:1017B00035400584038C8488828B48F6FF752A4067
:1017C0004FF6FF452A400D8820E00000002C014024
:1017D0000004004000080040000C004000100040E1
:1017E0000014004000340140004C01400050014012
:1017F0000054014000180040001C00400020004040
:101800000040014000440140004801404FF6FF768F
:1018100006EA05252A434DF6FF752B400D8906EA99
:1018200005352B434D8806EA05352B43FA4DA84272
:1018300002D0FA4DA84208D14BF6FF752C408D8995
:101840004FF6FF7606EA85152C4384808283CD8887
:10185000A0F84050038470BD828B4FF2FF331A40D2
:101860008283828B4FF6FF7303EA01231A4382833C
:101870007047F0B50C461546002200210026078C63
:101880004EF6FF7C07EA0C070784828B018C4FF62B
:10189000FF7707EA043640F6FF473A404FF6FF77F6
:1018A00007EA05273A434FF6FF7707EA03373A433B
:1018B000D94FB8420ED0D94FB8420BD0B0F1804FBB
:1018C00008D0D74FB84205D0D64FB84202D0D64F35
:1018D000B84206D14DF6FF77394046F48057394378
:1018E00005E047F6FF57394044F480573943828377
:1018F0000184F0BD828B4FF6F3731A408283828B92
:101900000A4382837047F0B50C4615460022002139
:101910000026078C4FF6FF6C07EA0C070784828BC2
:10192000018C4FF6FF7707EA04264FF60C773A4012
:101930004FF6FF7707EA03172F433A43B64FB842F3
:101940000ED0B64FB8420BD0B0F1804F08D0B44F94
:10195000B84205D0B34FB84202D0B34FB84206D117
:101960004FF6FF57394046F48077394305E04FF290
:10197000FF57394044F48077394382830184F0BDB6
:10198000028B4FF2FF331A400283028B4FF6FF7334
:1019900003EA01231A4302837047F0B50C4615464B
:1019A000002200210026078C4FF6EF7C07EA0C0787
:1019B0000784028B018C4FF6FF7707EA041640F686
:1019C000FF473A404FF6FF7707EA03373A434FF6AF
:1019D000FF7707EA05273A438F4FB8420ED08F4F63
:1019E000B8420BD0B0F1804F08D08D4FB84205D02F
:1019F0008C4FB84202D08C4FB84206D14FF6DF77F9
:101A0000394046F01007394305E04FF65F7739401B
:101A100044F01007394302830184F0BD028B4FF676
:101A2000F3731A400283028B0A4302837047F0B5B6
:101A30000C46154600220021068C4FF6FE773E40EC
:101A40000684028B018C4FF60C7632407E1C06EA2F
:101A500003162E433243704EB0420ED06F4EB0424A
:101A60000BD0B0F1804F08D06D4EB04205D06D4E16
:101A7000B04202D06C4EB04206D14FF6FD763140F6
:101A800044F00106314305E04FF6F576314044F06D
:101A90000106314302830184F0BD70B505460C4652
:101AA0005D4885420ED05D4885420BD0B5F1804F30
:101AB00008D05B48854205D05A48854202D05A4832
:101AC000854200D100E000BF208850B92389A28858
:101AD00061882846FFF7ABFFE1882846FFF79EFFA5
:101AE00025E0208804280AD12389A2886188284615
:101AF000FFF753FFE1882846FFF742FF17E02088F1
:101B000008280AD12389A28861882846FFF7FBFEAE
:101B1000E1882846FFF7EEFE09E02389A288618864
:101B20002846FFF7A6FEE1882846FFF795FE70BD20
:101B30002DE9F04105460C4600260127608808B9CA
:101B4000022600E00026A088012801D1022700E03B
:101B500001272088A0B92389A28861882846FFF739
:101B600066FFE1882846FFF759FF23893A46314648
:101B70002846FFF712FFE1882846FFF701FF13E030
:101B80002389A28861882846FFF707FFE188284655
:101B9000FFF7F6FE23893A4631462846FFF747FF0E
:101BA000E1882846FFF73AFFBDE8F0810A884B88B4
:101BB0001A438B881A43CB881A430B891A434B89E3
:101BC0001A438B891A43A0F8442070474FF6FF71DF
:101BD000818000210180C180418001727047002115
:101BE000018041808180C180018141818181C181E9
:101BF0007047002101804180012181800021C18046
:101C0000018170470021018041808180C180018174
:101C10004181818170470000002C01400034014067
:101C20000004004000080040000C004021B1028880
:101C300042F00102028004E002884FF6FE731A406F
:101C40000280704731B1B0F8442042F40042A0F85D
:101C5000442005E0B0F84420C2F30E02A0F844206E
:101C600070471AB183890B43838102E083898B43D8
:101C7000838170478182704741EA0203A0F84830AF
:101C800070471AB183890B43838102E083898B43B8
:101C90008381704701894FF6F872114001817047C6
:101CA0000A46002101894FF68F73194011430181C3
:101CB000704730B504460D4629462046FFF7F0FF31
:101CC000208940F00700208130BD2DE9F041044615
:101CD0000D4616461F46602D06D13B460122314671
:101CE0002046FFF75AFE05E03B46012231462046DA
:101CF000FFF79DFE29462046FFF7D2FF208940F0DE
:101D000007002081BDE8F08130B50C460021018933
:101D1000C9B24FF6FF7505EA03251543254329434C
:101D2000018130BD2DE9F04105460E461746984623
:101D3000002443463A4631462846FFF7E5FF2C8902
:101D40004FF6F870044044F007044FF68F700440DB
:101D500044F070042C81BDE8F081F0B504460D46D6
:101D600016461F463B46324629462046FFF7CCFF23
:101D7000208940F480402081F0BD01858282704737
:101D80000A46002101884FF68F73194011430180E4
:101D90007047F0B50C4615461E4600210022002370
:101DA0000189028B038C4FF6F877394021434FF6B7
:101DB000FC473A4040F201173A434FF6DD773B408B
:101DC0004FF6FF7707EA06172F433B430181028353
:101DD0000384F0BD0A460021018B4FF68F73194032
:101DE0001143018370470A460021018B48F6FF73B7
:101DF00019404FF6FF7303EA02231943018370472A
:101E00000A460021818B4FF68F731940114381835D
:101E100070470A460021818B48F6FF7319404FF640
:101E2000FF7303EA022319438183704721B10288BB
:101E300042F08002028004E002884FF67F731A406D
:101E40000280704721B1828842F00402828004E05F
:101E500082884FF6FB731A408280704721B18288D6
:101E600042F00802828004E082884FF6F7731A403D
:101E70008280704721B1828842F00102828004E0B2
:101E800082884FF6FE731A40828070470A4600210E
:101E9000018B4FF6F77319401143018370470A46CF
:101EA0000021018B4FF2FF7319404FF6FF7303EAD5
:101EB00002231943018370470A460021818B4FF6A4
:101EC000F77319401143818370470A460021818BC3
:101ED0004FF2FF7319404FF6FF7303EA02231943D1
:101EE000818370470A460021018B4FF6FB7319402E
:101EF0001143018370470A460021018B4FF6FF33DF
:101F000019404FF6FF7303EA022319430183704718
:101F10000A460021818B4FF6FB73194011438183E0
:101F200070470A460021818B4FF6FF3319404FF668
:101F3000FF7303EA02231943818370470A46002195
:101F4000018B4FF67F7319401143018370470A4696
:101F50000021018BC1F30E014FF6FF7303EA022348
:101F60001943018370470A460021818B4FF67F7326
:101F700019401143818370470A460021818BC1F3C8
:101F80000E014FF6FF7303EA022319438183704762
:101F90000A460021018C4FF6FD731940114301845C
:101FA00070470A460021018C4FF6F7731940114320
:101FB000018470470A460021018C4FF6DF731940F7
:101FC0004FF6FF7303EA02131943018470470A4670
:101FD0000021018C4FF67F7319404FF6FF7303EA1F
:101FE00002131943018470470A460021018C4FF601
:101FF000FF5319404FF6FF7303EA0223194301848C
:1020000070470A460021018C4FF2FF7319404FF6CA
:10201000FF7303EA02231943018470470A46002133
:10202000018C4DF6FF7319404FF6FF7303EA02333C
:1020300019430184704730B5002301248C40A3B2BA
:10204000048C9C430484048C02FA01F5ADB22C4349
:10205000048430BD30B5002304248C40A3B2048C2A
:102060009C430484048C02FA01F5ADB22C43048431
:1020700030BD70B5034600200024184618300125F5
:102080008D40ACB21D8CA5431D8409B1082909D12E
:1020900000EB6100056825F07005056005681543D3
:1020A00005600EE00D1FC5F34E052844056825F4B4
:1020B000E045056005684FF6FF7606EA02263543DF
:1020C000056070BD21B1028842F00202028004E086
:1020D00002884FF6FD731A400280704721B10288D2
:1020E00042F00402028004E002884FF6FB731A40BB
:1020F0000280704721B1828842F08002828004E031
:1021000082884FF67F731A408280704702884FF6AC
:10211000F7731A40028002880A430280704782885F
:102120004FF68F731A40828082880A4382807047FC
:1021300002894FF6F8731A40028102890A4302812C
:10214000704702894FF67F731A40028102890A4361
:10215000028170478184704781857047818670470E
:102160000187704781877047A0F840107047028848
:102170004FF6FF431A40028002880A4302807047EC
:102180000146888E70470146088F70470146888F48
:1021900070470146B1F8400070470146888C70478F
:1021A0000146088D704702460020138A0B400BB190
:1021B000012000E000207047CA430282704730B51A
:1021C0000246002000230024158A05EA01039589B0
:1021D00005EA010413B10CB1012000E0002030BD7C
:1021E000CA4302827047000010B50446FA48844290
:1021F00008D101214015FEF70DFE00216015FEF704
:1022000009FE17E0F548844208D101210015FEF7C8
:1022100001FE00212015FEF7FDFD0BE0F048844291
:1022200008D10121C803FEF7F5FD00214FF400405D
:10223000FEF7F0FD10BD30B50246002000235068C7
:10224000E84C20400D790C6844EA05242043506096
:102250009068E54C2040D1E902542C434D7944EA82
:10226000450420439060D06A20F470000C7C641E0A
:10227000E4B2234340EA0350D06230BD0021016044
:10228000017141718160C16001210174704721B108
:10229000826842F00102826003E0826822F001025B
:1022A0008260704721B1826842F48072826003E0EC
:1022B000826822F480728260704710B50023CBB22E
:1022C0001AB144681C43446002E044689C43446083
:1022D00010BD816841F0080181607047014600200F
:1022E0008A6802F008020AB1012000E0002070476D
:1022F000816841F0040181607047014600208A68CE
:1023000002F004020AB1012000E00020704721B170
:10231000826842F4A002826003E0826822F4A00294
:1023200082607047014600208A6802F480020AB188
:10233000012000E00020704710B50A46002100236C
:10234000416821F46041531E41EA4331416010BDB0
:1023500021B1426842F40062426003E0426822F424
:10236000006242607047F0B504460D46002000212F
:10237000092D11DDE068A5F10A0606EB46070726E0
:1023800006FA07F18843A5F10A0606EB460603FAAA
:1023900006F10843E0600CE0206905EB45070726DD
:1023A00006FA07F1884305EB450603FA06F10843F0
:1023B0002061072A0FDA606B561E06EB86071F2680
:1023C00006FA07F18843561E06EB860605FA06F163
:1023D0000843606322E00D2A0FDA206BD61F06EB5C
:1023E00086071F2606FA07F18843D61F06EB8606E6
:1023F00005FA06F10843206310E0E06AA2F10D0639
:1024000006EB86071F2606FA07F18843A2F10D06A0
:1024100006EB860605FA06F10843E062F0BD21B13D
:10242000826842F48012826003E0826822F48012A3
:10243000826070470146C86C80B2704766484C3075
:102440000068704721B1426842F48062426003E054
:10245000426822F480624260704721B1426842F4CF
:102460008052426003E0426822F48052426070472A
:102470000A460021816821F4E041114381607047E0
:1024800021B1826842F40042826003E0826822F453
:1024900000428260704721B1826842F40212826079
:1024A00003E0826822F40212826070470146002035
:1024B0008A6802F400120AB1012000E0002070478F
:1024C000F0B504461546002000220026092911DD3A
:1024D000E068A1F10A0707EB470C072707FA0CF29F
:1024E0009043A1F10A0707EB470703FA07F21043ED
:1024F000E0600CE0206901EB410C072707FA0CF2C1
:10250000904301EB410703FA07F210432061A06BEF
:10251000C0F30156EF1C06F1010CA7EB0C0707EB0B
:10252000870C1F2707FA0CF29043EF1C06F1010CF1
:10253000A7EB0C0707EB870701FA07F21043A0632C
:10254000F0BD10B50A4600210023816B21F4401133
:10255000531E41EA0351816310BD08B50023009367
:102560000090009B0B440093009B1A6008BD08B5C7
:10257000024600200090009201F12800009B1844C0
:1025800000900098006880B208BD0A4600214168AA
:10259000164B194011434160704741628262704797
:1025A0000A460021416821F01F0111434160704734
:1025B00040B109490831096841F40001064A08326E
:1025C000116007E004490831096821F40001024A5A
:1025D00008321160704700000024014000280140CB
:1025E000003C0140FFFEF0FFFDF7F1FFFFFD3FFF64
:1025F0000246002013680B400BB1012000E00020D0
:102600007047CA430260704770B50246002000233D
:1026100000240B125568CEB205EA060415681D4069
:1026200015B10CB1012000E0002070BD00220A129B
:10263000D34303607047000001684FF6FE721140FB
:1026400001600021016041608160C1608D49884264
:1026500008D18C490839496841F00F01894A083A84
:1026600051608AE087491431884208D18549083988
:10267000496841F0F001834A083A51607DE08149A0
:102680002831884208D17F490839496841F470618E
:102690007C4A083A516070E07A493C31884208D15E
:1026A00078490839496841F47041764A083A5160DE
:1026B00063E074495031884208D172490839496849
:1026C00041F470216F4A083A516056E06D49643117
:1026D000884208D16B490839496841F47001694A58
:1026E000083A516049E067497831884208D1654924
:1026F0000839496841F07061624A083A51603CE02B
:102700006149884206D1011F096841F00F01021F8B
:10271000116032E05C491431884208D15A49091FDE
:10272000096841F0F001584A121F116025E056492E
:102730002831884208D15449091F096841F4706161
:10274000514A121F116018E04F493C31884208D1AC
:102750004D49091F096841F470414B4A121F11602D
:102760000BE049495031884207D14749091F0968A0
:1027700041F47021444A121F1160704710B50022C5
:10278000026847F6F0739A430C6A8B6823430C691E
:1027900023434C6923438C692343CC6923434C6A0C
:1027A00023438C6A23431A430260CB6843600B685F
:1027B00083604B68C36010BD00210160416081608F
:1027C000C160016141618161C161016241628162F7
:1027D000704721B1026842F00102026004E0026821
:1027E0004FF6FE731A40026070471AB103680B433C
:1027F000036002E003688B430360704741607047E9
:102800000146486880B2704701460020002201F06E
:1028100080531BB11C4B083B1A6802E0194B083B64
:102820001A6802EA01030BB1012000E000207047A2
:1028300000F0805119B11449091F086002E01149E4
:1028400008394860704701460020002201F080539B
:102850001BB10D4B083B1A6802E00A4B083B1A6893
:1028600002EA01030BB1012000E00020704700F0F4
:10287000805119B10449091F086002E00149083973
:1028800048607047080002400804024010B586B056
:10289000044601210420FEF7A3FA01218803FEF774
:1028A0009FFA18208DF817004FF40070ADF814004F
:1028B00003208DF8160005A96B48FDF75BFF042087
:1028C0008DF817000002ADF8140003208DF81600F3
:1028D00005A96548FDF74EFF01940020ADF81000F2
:1028E0000C20ADF80E000020ADF80C00ADF80A0089
:1028F000ADF8080001A95D48FEF719FB01215B480E
:10290000FEF7A1FB012240F225515848FEF7A7FB34
:1029100025208DF8000001208DF8030000208DF89F
:10292000010002208DF802006846FDF75AFE06B04D
:1029300010BD10B586B0044601210420FEF750FA00
:1029400001214804FEF759FA18208DF817000420D9
:10295000ADF8140003208DF8160005A94248FDF7D4
:1029600009FF04208DF817000820ADF8140003209B
:102970008DF8160005A93C48FDF7FCFE01940020E7
:10298000ADF810000C20ADF80E000020ADF80C00E2
:10299000ADF80A00ADF8080001A93548FEF7C7FAFE
:1029A00001213348FEF74FFB012240F22551304808
:1029B000FEF755FB26208DF8000001208DF803005E
:1029C00000208DF801008DF802006846FDF709FE31
:1029D00006B010BD2DE9F04107460C46154600260D
:1029E0000DE014F8011B3846FEF79AFB00BF4021AA
:1029F0003846FEF703FC0028F9D0701C86B2AE42C0
:102A0000EFDBBDE8F0810FB430B5CBB0054601ACCB
:102A100050A800904FF4947101A8009B4F9A06F0C3
:102A2000A5F9002000900BE014F8011B2846FEF7E2
:102A300077FB00BF40212846FEF7E0FB0028F9D0D5
:102A400020780028F0D14BB030BC5DF814FB10B5F5
:102A500040F225510548FEF7E7FB18B12021034855
:102A6000FEF7D9FB10BD000000080140003801400E
:102A70000044004010B5044684F001024FF40051B8
:102A80000D48FDF728FF0D48047010BD08B5012161
:102A90001020FEF7A5F910208DF803004002ADF8D4
:102AA000000003208DF8020069460348FDF762FE2E
:102AB0000020FFF7DFFF08BD001001402C000020C0
:102AC00010B50221F948FDF702FF0121F748FDF793
:102AD000FEFE0121F548FDF7FCFE0221F348FDF75B
:102AE000F8FE10BD10B50221F048FDF7F0FE0121FF
:102AF000EE48FDF7EEFE0121EC48FDF7E8FE10BDC3
:102B000010B50221E948FDF7E2FE0221E748FDF792
:102B1000E0FE10BD2DE9F04105462C460221E348B8
:102B2000FDF7D7FE002619E0274607F08007802F23
:102B300004D10121DD48FDF7CAFE03E00121DB4895
:102B4000FDF7C7FE6006040E0221D848FDF7BFFE60
:102B50000221D648FDF7BDFE701CC6B2082EE3DB8D
:102B6000BDE8F08110B50446FFF7AAFF7820FFF713
:102B7000D1FFFFF7C5FF0020FFF7CCFFFFF7C0FF35
:102B80002046FFF7C7FFFFF7BBFFFFF7ABFF10BD06
:102B900010B50446FFF794FF7820FFF7BBFFFFF75F
:102BA000AFFF4020FFF7B6FFFFF7AAFF2046FFF771
:102BB000B1FFFFF7A5FFFFF795FF10BD70B5044605
:102BC0000D461DB1E0B2FFF7E3FF02E0E0B2FFF710
:102BD000C9FF70BD70B50646002418E004F1B000CE
:102BE0000021FFF7EBFF00210846FFF7E7FF002178
:102BF0001020FFF7E3FF002505E001213046FFF735
:102C0000DDFF681CC5B2802DF7DB601CC4B2082C48
:102C1000E4DB70BD06E041F6650100E0491E0029D5
:102C2000FCD1401E0028F6D17047014605E0002087
:102C300001E0421CD0B27B28FBDB0A1EA1F101019E
:102C4000F5D1704770B504460D4605F1B00000217E
:102C5000FFF7B4FF102141EA14100021FFF7AEFF87
:102C600004F00F000021FFF7A9FF70BD10B500218F
:102C70008D20FFF7A3FF00211420FFF79FFF002105
:102C8000AF20FFF79BFF10BD10B500218D20FFF78F
:102C900095FF00211020FFF791FF0021AE20FFF7E4
:102CA0008DFF10BD70B5002418E004F1B0000021C4
:102CB000FFF784FF00210846FFF780FF0021102066
:102CC000FFF77CFF002505E001210020FFF776FFDC
:102CD000681CC5B2802DF7DB601CC4B2082CE4DB95
:102CE00070BD70B5002418E004F1B0000021FFF7BA
:102CF00065FF00210846FFF761FF00211020FFF764
:102D00005DFF002505E001210846FFF757FF681C1D
:102D1000C5B2802DF7DB601CC4B2082CE4DB70BDAB
:102D20002DE9F04707460E469046994600250024B7
:102D3000A8F12000C5B27F2F02DD0027B01CC6B26B
:102D4000B9F1100F24D131463846FFF77BFF00243C
:102D500008E004EB0511564A505C0121FFF72EFFF5
:102D6000601CC4B2082CF4DB701CC1B23846FFF7FB
:102D700069FF002409E004EB051108314C4A505C5E
:102D80000121FFF71BFF601CC4B2082CF3DB12E02B
:102D900031463846FFF756FF00240AE005EB4501AF
:102DA000444A02EB4101085D0121FFF707FF601C67
:102DB000C4B2062CF2DBBDE8F08710B50246012054
:102DC00000E050430B1EA1F10104E1B2F9D110BDA6
:102DD0002DE9FF5F074691461E460E9D4FF0000A03
:102DE000002435E0301B401EC1B20A20FFF7E5FF8A
:102DF000B9FBF0F00A21B0FBF1F201FB1208BAF1C5
:102E0000000F14D1701EA04211DDB8F1000F0CD1DB
:102E1000AB4605EBDB71491001FB0471C8B22B46D0
:102E200020220199FFF77CFF10E04FF0010AAB462A
:102E300005EBDB71491001FB0471C8B208F13001E8
:102E4000CAB22B460199FFF76BFF00BF601CC4B2EA
:102E5000B442C7DBBDE8FF9F2DE9F04104460F46B1
:102E60001546984600260FE0AA5D4346394620469F
:102E7000FFF756FF04F10800C4B2782C02DD0024ED
:102E8000B81CC7B2701CC6B2A85D0028ECD1BDE862
:102E9000F0812DE9F04180460E4615460027314667
:102EA0004046FFF7CFFE002411E00000000C014077
:102EB000B6D300088ED10008734A02EB8511085D75
:102EC0000121FFF77BFE781CC7B2601CC4B2102C36
:102ED000F2DB701CC1B24046FFF7B4FE00240CE0E8
:102EE0006900491C684A02EB4111085D0121FFF7A6
:102EF00065FE781CC7B2601CC4B2102CF0DBBDE8C4
:102F0000F0812DE9F05F06460F4690461C46DDF83D
:102F100028A04FF0000BE11704EB5171C910A4EB8E
:102F2000C10131B92046E11704EB5171C1F3C70566
:102F300006E02046E11704EB5171C910491CCDB2DF
:102F40003D4615E029463046FFF77CFEB1460BE0D2
:102F500059460BF1010B1AF801000121FFF72EFE73
:102F600009F1010000F0FF09C145F1DB681CC5B2A1
:102F7000A542E7DBBDE8F09F08B501210820FDF779
:102F80002FFF0320ADF8000010208DF80300032070
:102F90008DF8020069463D48FDF7ECFB03213B48F4
:102FA000FDF795FC4FF44870FDF789FD0021AE2038
:102FB000FFF704FE00210846FFF700FE0021102065
:102FC000FFF7FCFD00214020FFF7F8FD0021B020B5
:102FD000FFF7F4FD00218120FFF7F0FD0021FF2025
:102FE000FFF7ECFD0021A120FFF7E8FD0021A6205E
:102FF000FFF7E4FD0021A820FFF7E0FD00213F20BE
:10300000FFF7DCFD0021C820FFF7D8FD0021D32009
:10301000FFF7D4FD00210846FFF7D0FD0021D520A1
:10302000FFF7CCFD00218020FFF7C8FD0021D8204C
:10303000FFF7C4FD00210520FFF7C0FD0021D920C6
:10304000FFF7BCFD0021F120FFF7B8FD0021DA20D9
:10305000FFF7B4FD00211220FFF7B0FD0021DB20B7
:10306000FFF7ACFD00213020FFF7A8FD00218D20E7
:10307000FFF7A4FD00211420FFF7A0FD0021AF20E1
:10308000FFF79CFD08BD00002D000020000C014052
:1030900000B591B001214802FDF7A2FE01210420F4
:1030A000FDF79EFE01210846FDF78DFE4FF400401E
:1030B000FDF7FAFD00208DF84300B220ADF8400086
:1030C00003208DF8420010A93848FDF753FB052373
:1030D000012211463648FFF746F905230222042152
:1030E0003348FFF740F90523032219463048FFF71C
:1030F0003AF90523042207212D48FFF734F900206F
:103100000B900E904FF460200D9001208DF831004F
:103110008DF8300004208DF83C000BA92448FFF7FF
:103120008AF823484C3000908015069000200490C7
:10313000204801904FF48060079080200590002087
:103140000290042003902020089000200A904FF461
:103150008050099069461848FFF710FB0121164876
:10316000FFF737FB01211248FFF79CF801211048B7
:10317000FFF78DF80E48FFF7ACF800BF0C48FFF7DB
:10318000ADF80128FAD00A48FFF7B2F800BF0848A6
:10319000FFF7B3F80128FAD04FF4FA70FDF76EFC90
:1031A00001210348FFF7B3F811B000BD000801404A
:1031B00000240140AE0800200800024008B50121AB
:1031C0000820FDF70DFE8020ADF8000010208DF8DE
:1031D000030003208DF8020069468548FDF7CAFA0E
:1031E00080218348FDF773FB08BD08B58020ADF84A
:1031F000000048208DF8030069467D48FDF7BAFAC3
:1032000008BD08B58020ADF8000010208DF803003F
:1032100003208DF8020069467548FDF7ABFA08BD3A
:1032200010B5FFF7EEFF80217148FDF752FB40F229
:10323000EE20FDF705FC80216D48FDF748FB0F20CF
:10324000FDF7FEFB10BD10B50024FFF7CEFF04E034
:10325000601CC4B20120FDF7F3FB80216448FDF738
:103260001CFB08B1642CF3DB642C01DB012010BDD6
:10327000002404E0601CC4B20120FDF7E1FB8021C2
:103280005B48FDF70AFB08B9F02CF3DBF02C01DBFF
:103290000120ECE70020EAE710B5FFF7B2FF80213C
:1032A0005348FDF716FB0A20FDF7CAFBFFF79DFF09
:1032B00080214F48FDF7F1FA012801D1012400E0F7
:1032C00000242D20FDF7BCFB204610BD70B5002664
:1032D000002408E0FFF7E0FF054605FA04F030435C
:1032E000C6B2601CC4B2082CF4DB304670BD70B5A9
:1032F0000446FFF786FF002522E004F00106641073
:1033000076B180213A48FDF7E4FA0820FDF798FBF2
:1033100080213748FDF7DBFA3A20FDF791FB0DE0FD
:1033200080213348FDF7D5FA4620FDF789FB80213F
:103330002F48FDF7CCFA0220FDF782FB681CC5B2CE
:10334000082DDADB70BD10B5FFF76AFFFFF77BFFD2
:10335000CC20FFF7CCFF4420FFF7C9FF10BD10B50C
:10336000FFF72CFFFFF75CFFFFF76DFF10BD2DE9A6
:10337000F05FFFF755FFFFF766FFCC20FFF7B7FFC1
:103380004420FFF7B4FFFFF74BFFFFF75CFFCC20B3
:10339000FFF7ADFFBE20FFF7AAFFFFF797FF8346B9
:1033A000FFF794FF82464FEA0A2004B244EA0B0476
:1033B000002C0DDAE043401C08F0DBFF074600223A
:1033C0000C4B09F029F8054608F022FD81460BE078
:1033D000204608F0CEFF07460022074B09F01CF8F4
:1033E000054608F015FD81464846BDE8F09F0000FF
:1033F000000C01400000B03F0000E43F08B501218F
:103400000820FDF7EDFC10208DF803002020ADF81A
:10341000000003208DF8020069467648FDF7AAF9FE
:1034200028208DF803004020ADF80000694671485F
:10343000FDF7A0F9002220216E48FDF74CFA0F207D
:10344000FDF7FEFA08BD2DE9F041002501222021FB
:103450006848FDF740FA0F20FDF7F2FA002220211C
:103460006448FDF738FA00BF40216248FDF715FABD
:103470000028F9D00021604A1160516000BF40214E
:103480005C48FDF70AFA0128F9D05B48D0E9001042
:103490005A4AC2E9001064220023584903C905F0C2
:1034A000E1FB263871F1000113D254484FF4AD739B
:1034B00006C80020A1FB036802FB038201FB002178
:1034C00002220346304605F0CDFB04466420B4FBDF
:1034D000F0F528B2BDE8F0812DE9F0470025A846B7
:1034E000012220214348FDF7F6F90F20FDF7A8FA45
:1034F000002220213F48FDF7EEF900BF40213D4862
:10350000FDF7CBF90028F9D000203B4A106050604D
:1035100000BF40213748FDF7C0F90128F9D03648EF
:10352000D0E90010354AC2E9001064220023334973
:1035300003C905F097FB263871F100011BD22F4813
:103540004FF4AD710CC80020A2FB016903FB01918F
:1035500002FB001102220346304605F083FB0446BD
:103560006420B4FBF0F54FF47A70B5FBF0F630460A
:1035700009F0D6FB80464046BDE8F08710B5012132
:103580001F48FEF71CFE01280CD11B48D0E9002083
:10359000521C40F100001849C1E9002001211848DF
:1035A000FEF71EFE10BD2DE9F04104460D46012632
:1035B00000270AE00A2200232046294605F052FB94
:1035C00004460D46761C47F100070020D4F109019E
:1035D000A841EFD330463946BDE8F08170B5FFF71A
:1035E00032FF04460A2094FBF0F5284609F080FBE0
:1035F00070BD0000000C0140B8080020C008002089
:103600000004004010B5044684F001024FF48071BC
:103610000E48FDF760F90E48047010BD08B5012191
:103620000420FDF7DDFB4FF48070ADF800001020A2
:103630008DF8030003208DF8020069460348FDF76A
:1036400099F80020FFF7DEFF08BD000000080140E8
:10365000C808002010B5044684F001024FF48051E0
:103660000D48FDF738F90D48047010BD08B501216B
:103670000420FDF7B5FB10208DF803000002ADF823
:10368000000003208DF8020069460348FDF772F838
:103690000020FFF7DFFF08BD00080140C908002037
:1036A00010B5044684F001024FF400610D48FDF7A7
:1036B00012F90D48047010BD08B501210420FDF772
:1036C0008FFB10208DF80300C001ADF8000003202F
:1036D0008DF8020069460348FDF74CF80020FFF71B
:1036E000DFFF08BD00080140CA0800201FB5012106
:1036F0000820FDF775FB01210846FDF771FB482006
:103700008DF80F001020ADF80C0003208DF80E008E
:1037100003A9E748FDF72EF848208DF80F00082090
:10372000ADF80C0003208DF80E0003A9E048FDF76A
:1037300021F848208DF80F004FF48060ADF80C00A0
:1037400003208DF80E0003A9D948FDF713F848208F
:103750008DF80F004FF40060ADF80C0003208DF8D9
:103760000E0003A9D248FDF705F848208DF80F0098
:103770004FF48050ADF80C0003208DF80E0003A923
:10378000CB48FCF7F7FF48208DF80F004FF40050AE
:10379000ADF80C0003208DF80E0003A9C448FCF717
:1037A000E9FF48208DF80F004FF48040ADF80C0081
:1037B00003208DF80E0003A9BD48FCF7DBFF0421B0
:1037C0000120FDF7EDF81020019000208DF8080091
:1037D0000C208DF8090001208DF80A0001A8FDF7E2
:1037E00075FD03210120FDF7DBF808200190002082
:1037F0008DF808000C208DF8090001208DF80A00D2
:1038000001A8FDF763FD0A210120FDF7C9F84FF477
:103810008060019000208DF808000C208DF80900D0
:1038200001208DF80A0001A8FDF750FD0B210120B1
:10383000FDF7B6F84FF40060019000208DF8080005
:103840000C208DF8090001208DF80A0001A8FDF771
:103850003DFD0C210120FDF7A3F84FF480500190AD
:1038600000208DF808000C208DF8090001208DF84B
:103870000A0001A8FDF72AFD0D210120FDF790F8AF
:103880004FF40050019000208DF808000C208DF8B6
:10389000090001208DF80A0001A8FDF717FD0A2094
:1038A0008DF8000002208DF801008DF80200012043
:1038B0008DF803006846FCF794FE09208DF800009F
:1038C00002208DF801008DF8020001208DF8030020
:1038D0006846FCF786FE28208DF8000002208DF84F
:1038E00001008DF8020001208DF803006846FCF706
:1038F00078FE28208DF8000002208DF801008DF858
:10390000020001208DF803006846FCF76AFE2820BB
:103910008DF8000002208DF801008DF802000120D2
:103920008DF803006846FCF75CFE28208DF8000047
:1039300002208DF801008DF8020001208DF80300AF
:103940006846FCF74EFE1FBD10B50A20FDF796F83D
:103950004FF480615648FCF7A0FF50B955480078F5
:10396000012803D10020FFF775FE02E00120FFF7D8
:1039700071FE4FF48060FDF720FD0A20FDF77EF810
:103980004FF400614A48FCF788FF50B94A48007874
:10399000012803D10020FFF76DF802E00120FFF7B6
:1039A00069F84FF40060FDF708FD0A20FDF766F89E
:1039B0004FF480513E48FCF770FF50B93F48007803
:1039C000012803D10020FFF76BFE02E00120FFF782
:1039D00067FE4FF48050FDF7F0FC0A20FDF74EF82B
:1039E0004FF400513248FCF758FF50B93448007882
:1039F000012803D10020FFF705FE02E00120FFF7B8
:103A000001FE4FF40050FDF7D8FC10BD10B50A20A0
:103A1000FDF734F808212648FCF73FFF50B9294844
:103A20000078012803D1002000F052F802E00120C4
:103A300000F04EF80820FDF7C0FC10BD10B50A20BC
:103A4000FDF71CF810211A48FCF727FF90B91E4813
:103A5000007808B9012000E000201B4908701B48CD
:103A60000078012803D1002000F058F802E001207E
:103A700000F054F81020FDF7A0FC10BD10B54FF475
:103A800080410B48FCF709FF78B93C20FCF7F6FFB2
:103A900000BF4FF480410648FCF7FFFE0028F8D035
:103AA0003C20FCF7EBFF012010BD0020FCE70000EC
:103AB000000C0140C90800202C000020CA0800208A
:103AC000C8080020CC080020CB080020CD0800202A
:103AD00010B5044684F001024FF480410D48FCF714
:103AE000FAFE0D48047010BD08B501211020FDF745
:103AF00077F910208DF803000220ADF800000320B4
:103B00008DF8020069460348FCF734FE0020FFF7F9
:103B1000DFFF08BD00100140CC08002010B50446AE
:103B200084F0010201210E48FCF7D5FE0D48047017
:103B300010BD08B501210420FDF752F910208DF8C1
:103B400003000120ADF8000003208DF80200694653
:103B50000348FCF70FFE0020FFF7E0FF08BD000060
:103B600000080140CD0800200EB501210846FDF7F0
:103B700044F947F22F50ADF8040041F61F40ADF86C
:103B800000000020ADF80600ADF8020069464FF0D5
:103B90008040FDF7EFFC012211469007FEF761F827
:103BA00001218807FEF742F80EBD08B54FF4E0602A
:103BB000FCF712FD1C208DF8000000208DF802009B
:103BC00003208DF8010001208DF803006846FCF702
:103BD00008FD08BD10B5FFF7C7FFFFF7E6FF10BDF2
:103BE00010B501218807FEF7EAFA30B101218807F4
:103BF000FEF7F6FA01200149088010BD5C0900209B
:103C000010B5FE480168FE48006809F09DF830D301
:103C1000FC480168FC48006809F096F829D3FB4885
:103C20000168FB48006809F08FF822D3F948016861
:103C3000F948006809F088F81BD3F8480168F04893
:103C4000006809F081F914D3F5480168EE4800686E
:103C500009F07AF90DD3F3480168ED48006809F0DE
:103C600073F906D3F0480168EB48006809F06CF975
:103C700005D2C820FCF702FF0120FFF729FFDF482B
:103C80000168DF48006809F05FF91AD2DD48016871
:103C9000DD48006809F058F813D8DC480168DC48B2
:103CA000006809F051F80CD8DA480168DA48006871
:103CB00009F04AF805D8C820FCF7E0FE0020FFF71D
:103CC00007FF10BD10B5D7480168D148006809F05A
:103CD0003BF90DD3D4480168CF48006809F034F9A6
:103CE00006D3CF480168C848006809F02DF903D20F
:103CF0000120FFF787FC02E00020FFF783FC10BDE6
:103D000010B5BE480168BE48006809F01DF803D22E
:103D10000120FFF7C5FC02E00020FFF7C1FC10BD49
:103D200070B5C248007818B9FFF7EAFFFFF7CAFF7D
:103D3000FFF766FFFFF7A2FE012806D1BC48007816
:103D4000401CBB490870FEF7ADFFB9480078032856
:103D500002DD0120B6490870B5480078012804D07A
:103D600002287DD003287CD105E1B248007850B10B
:103D7000152202213920FFF78CF814220221482055
:103D8000FFF787F809E0132202213920FFF781F8B5
:103D9000142202214820FFF77CF80122062100208E
:103DA000FFF777F8022206211220FFF772F80022AF
:103DB00006212420FFF76DF8062204210020FFF7DA
:103DC00068F8072204211220FFF763F8002204217B
:103DD0002420FFF75EF8112202210020FFF759F896
:103DE000122202211046FFF754F80022022124205B
:103DF000FFF74FF81B2200211A20FFF74AF81C2278
:103E000000212C20FFF745F81D2200213E20FFF75E
:103E100040F81E2200215020FFF73BF8FFF7A7FAD9
:103E20000446854908F0A2FE754908600846006806
:103E300008F002FE044622460B4680A1814804F0A9
:103E4000AFFF10237F4A06213E20FFF705F8FFF75A
:103E5000C5FB7D4908606420FCF710FE7A4801E04C
:103E600011E037E1006808F0E7FD044622460B4602
:103E700072A1764804F094FF1023744A04213E2076
:103E8000FEF7EAFF26E11023502200210820FEF76A
:103E900047FF1023482200211220FEF741FF002295
:103EA00011462420FEF7F5FF042211460020FEF7FC
:103EB000F0FF052204211220FEF7EBFF002204216F
:103EC0002420FEF7E6FF062202210020FEF7E1FF94
:103ED000082202211220FEF7DCFF0022022124200A
:103EE000FEF7D7FF5A480068474908606420FCF78E
:103EF000C5FD4548006808F09FFD044622460B4674
:103F00004EA1544804F04CFF1023524A00213E2099
:103F1000FEF7A2FF504800683D4908606420FCF7A6
:103F2000ADFD3B48006808F087FD044622460B467D
:103F300042A14A4804F034FF1023484A04213E209D
:103F4000FEF78AFF46480068334908606420FCF7A2
:103F500095FD3148006808F06FFD044622460B4687
:103F600036A1404804F01CFF10233E4A02213E20A7
:103F7000FEF772FFAEE00A2206210020FEF789FF5D
:103F8000092206211220FEF784FF002206212420A8
:103F9000FEF77FFF0F2204210020FEF77AFF102298
:103FA00004211220FEF775FF002204212420FEF7D1
:103FB00070FF0B2202210020FEF76BFF0C22022172
:103FC0001220FEF766FF002202212420FEF761FF87
:103FD000062200210846FEF75CFF0922002112207C
:103FE000FEF757FF002211462420FEF752FF1E481D
:103FF0000078D8B30D220021392038E03C09002098
:10400000280900204009002030090020480900202C
:104010002C09002044090020FC0800204C09002045
:10402000500900205809002054090020CB08002026
:1040300038090020CD0800200000204125322E3113
:10404000660000001C09002034090020220900201D
:10405000F808002024090020E00800201E090020A4
:104060000409002020090020C808002002E0FEF713
:1040700010FF04E00E2200213920FEF70AFFFD4860
:10408000007828B10D2202213920FEF702FF04E05A
:104090000E2202213920FEF7FCFEF748007828B1F5
:1040A0000D2204213920FEF7F4FE04E00E22042143
:1040B0003920FEF7EEFEF148007828B10D220621E6
:1040C0003920FEF7E6FE04E00E2206213920FEF735
:1040D000E0FE00BF00BF70BD2DE9F05F81460C46D9
:1040E0004846216808F062FF834608F0A5FC0746B1
:1040F00021F00041824608F03CF905464FF033328A
:10410000DF4B08F087FA02D22068BDE8F09FC4F8C0
:1041100000904846F9E72DE9F04105460C4628464F
:10412000216808F043FF804608F086FC064621F02F
:104130000041052802DD2068BDE8F08125602846A1
:10414000FAE72DE9F04F93B0CE49C88808F0E8FDB2
:1041500081464FF08B4108F009FD044608F06CFCE5
:1041600007464FF06632C84B08F056F9054607F08F
:104170004FFEC64908600846006808F05DFC064628
:104180000F46C349C348006808F010FF119008F0BB
:1041900053FC8246C04AC14B08F03EF98046324685
:1041A0003B4607F067FE044607F032FEBC49086054
:1041B000BC48BD4908600846006808F03DFC8246DE
:1041C0008B46B748006808F037FC8046B74AB84BC2
:1041D00008F022F9064652465B4607F04BFE0446BD
:1041E00007F016FEB34908600021B248006808F0E5
:1041F000ABFD02D80020AF490860AF49AD48006868
:1042000008F0A2FE02D8AC48AA490860AA49A94809
:10421000006808F0ABFC0446A84908F0C9FDA849AD
:1042200008609849888808F07BFD81464FF08B41F3
:1042300008F09CFC044608F0FFFB07464FF066328E
:10424000914B08F0E9F8054607F0E2FD9D4908604A
:104250009048006808F0F0FB824600229A4B08F074
:1042600001FB0646994A9A4B08F0D6F8044600220C
:10427000984B07F0FFFD804607F0CAFD964908609D
:10428000084601688F48006808F070FC9349086090
:104290009348006808F0D0FBCDE90E018F48006814
:1042A00008F0CAFB04464FF033328E4B08F0B4F8E6
:1042B000CDE908018948006808F0BEFB04460D46B8
:1042C0008648006808F0B8FB8046874A874B08F0AC
:1042D000A3F8064622462B4608F09EF8CDE90401D5
:1042E0007E48006808F0A8FB82468B467B48006841
:1042F00008F0A2FB04460D467848006808F09CFBD5
:1043000006466A4A7A4B08F087F8804622462B46D2
:1043100008F082F852465B46CDE9000108F07CF8CF
:10432000CDE90201DDE9042308F09CFACDE906019C
:10433000DDE9082307F09EFD00226E4BCDE90A015E
:1043400008F06AF8CDE90C01DDE90E2308F064F805
:10435000CDE9100107F05CFD6749086067496648D0
:104360000068FFF7D8FE644908604649488808F0AD
:10437000D7FC804608F060FB0646614A614B08F0B6
:104380004BF8044607F044FD5F49086008460068A2
:1043900008F052FB064600225C4B08F03DF88046D0
:1043A00000225B4B07F066FD044607F031FD5949DA
:1043B00008603848006808F03FFB82460022424B04
:1043C00008F050FACDE910015348006808F034FBBA
:1043D000CDE90E01DDE9102308F01EF806460F4670
:1043E0004C48006808F028FB804632463B4607F000
:1043F00041FD044607F00CFD464908604749454821
:104400000068FFF769FE434908600846006808F045
:1044100013FB04460022424B08F0FCF80DD83D483F
:10442000006808F009FB06460022324B08F01AFA31
:10443000044607F0EDFC3749086013B0BDE8F08F83
:1044400010B54FF4A060FCF7C7F8FCF7E1FA4FF4A1
:10445000E130FEF71BFA4FF4E130FEF76AFAFFF79E
:1044600045F9FEF713FBFEF787FDFEF71BFC102353
:1044700058E000002C000020C9080020CA080020D5
:104480003333D33FAE08002066660A40DC080020C4
:104490000000C84128090020613255302AA993BF85
:1044A000E8080020145E3D45F00800203D0AD7A32F
:1044B000700D8BC0E408002000803B450000C8421E
:1044C000E008002000090020000039407B14AE47BE
:1044D000E17A943F0000F03F100900201409002009
:1044E0001809002033CB7A40EC51B81E85FB5F40A1
:1044F00070AD50400000E03F04090020D0080020CB
:10450000B4D934E70C684A3FF408002000001AC010
:1045100000803140F8080020D8080020D40800208E
:1045200000001E406BA200210846FEF795FC4FF4E8
:104530007A70FCF7C4FA10BD00246BA16C48FEF73A
:1045400062FAFFF77DFF02F01BFD00F03BF9FEF77A
:1045500055FFFEF79DFDFEF702FFFFF7C7F8FEF7D8
:1045600095FAFFF783F8FFF7A7F8FFF7E2FAFFF7EE
:1045700055F8FEF797FB10235EA200210846FEF7D0
:104580006BFC03E04FF47A70FCF778FA5FA161A04E
:1045900002F097FC0028F5D16AA15548FEF733FADE
:1045A000102370A200210846FEF756FC4FF47A70E3
:1045B000FCF764FAFEF776FB07E054A155A002F081
:1045C00080FC4FF47A70FCF759FA00F038FB0028B1
:1045D000F3D100F0A7FE7CE069480088401C80B25F
:1045E00067490880322867DBFFF7ABFDFEF7BFFEA7
:1045F0000546644908F0BAFA63490860084600684D
:1046000008F01AFA05462A460B46AFF2D0515F4829
:1046100004F0C6FB5E4800685E4908600846006812
:1046200008F00AFA05462A460B46AFF2F0515A48FE
:1046300004F0B6FB5948006859490860084600680C
:1046400008F0FAF905462A460B46AFF210615548C4
:1046500004F0A6FB54480068544908600846006806
:1046600008F0EAF905462A460B46AFF23061504899
:1046700004F096FBFEF7B2FF4E490860084600685A
:1046800008F0DAF905462A460B46AFF250614A486F
:1046900004F086FB00F0CCFD4448006808F0CCF93B
:1046A00005462A460B4645A11148FEF7ACF9002005
:1046B0003349088002F0E6FB002002F03FFC04468C
:1046C00014B1204600F059FEFFF72AFB0A20FCF740
:1046D000D5F981E7486172647761726520696E6916
:1046E00074204F4B000000003939390D0A000000DA
:1046F00000380140436F6E6E656374204D51545411
:1047000073205365727665722E2E2E00434F4E4EE7
:104710004543540041542B43495053544152543D56
:1047200022544350222C226D717474732E68656379
:104730006C6F7564732E636F6D222C313838330DB6
:104740000A000000436F6E6E656374204D5154542F
:104750002053657276657220537563636573730DBC
:104760000A000000436F6E6E656374204D5154540F
:1047700020536572766572205375636365737300A9
:104780005C09002000002041280900201C090020AD
:10479000E00800202C0900201E0900200409002048
:1047A000FC08002020090020F80800203009002023
:1047B00024090020340900202209002025322E314E
:1047C000660D0A001FB501210220FCF716FB3748D1
:1047D000FDF760FA0020ADF80A00ADF806000920E8
:1047E000ADF808004720ADF8040000208DF80C005B
:1047F00001A92E48FCF7BEFE01212C48FDF7DCFC88
:10480000012211462948FDF72CFA4FF4A060FBF76E
:10481000E3FE1D208DF8000001208DF8030002202A
:104820008DF801008DF802006846FBF7DAFE0121E1
:104830001E48FDF7FBF91FBD1FB501210220FCF743
:10484000DCFA1A48FDF726FA0020ADF80A00ADF8A8
:1048500006000920ADF808004720ADF8040000204C
:104860008DF80C0001A91148FCF784FE01210F48C6
:10487000FDF7A2FC012211460C48FDF7F2F94FF4B6
:10488000A060FBF7A9FE1D208DF8000001208DF827
:10489000030002208DF801008DF802006846FBF746
:1048A000A0FE01210148FDF7C1F91FBD0004004031
:1048B0001FB501210420FCF7A0FA2448FDF7EAF90E
:1048C0000020ADF80A00ADF8060042F20F70ADF816
:1048D000080041F61F40ADF8040000208DF80C00E0
:1048E00001A91A48FCF746FE01211848FDF764FCAF
:1048F000012211461548FDF7B4F94FF4A060FBF70B
:104900006BFE1E208DF8000001208DF803000220B0
:104910008DF8010001208DF802006846FBF761FE6A
:1049200001210A48FDF782F91FBD10B50121074892
:10493000FDF745FC012808D105480078401C0449D2
:10494000087001210148FDF74BFC10BD0008004034
:104950005E090020F0B58BB00546002600242846ED
:1049600004F070FDC7B20DB11C2F02DA01200BB0AC
:10497000F0BD06E0A85D01A988550020A855701C6F
:10498000C6B2BE42F6DB002001A9885500260024ED
:1049900055E001A8805D2B2810D008DC202814D019
:1049A00023282ED0252825D026283FD130E02F28B7
:1049B00012D03D2833D03F2838D114E02819FDA16A
:1049C00004F0AAFDE01CC4B236E02819FAA104F0F4
:1049D000A3FDE01CC4B22FE02819F8A104F09CFD4F
:1049E000E01CC4B228E02819F5A104F095FDE01CF4
:1049F000C4B221E02819F3A104F08EFDE01CC4B27A
:104A00001AE02819F0A104F087FDE01CC4B213E0FD
:104A10002819EEA104F080FDE01CC4B20CE02819B6
:104A2000EBA104F079FDE01CC4B205E001A8805DB3
:104A30002855601CC4B200BF00BF701CC6B2BE4285
:104A4000A7DB0020285500BF91E72DE9F04FC9B042
:104A500005460C4616461F460DF5A47898E8000F4B
:104A60000020489055B14CB1DA48864206D32FB1A8
:104A7000B9F1000F02D0BAF1780F03DA012049B082
:104A8000BDE8F08F402118A804F0EBFD384604F093
:104A9000D9FC05903B4648AA4021009018A801F097
:104AA00035FA482106A804F0DCFDBBF1000F09D05F
:104AB000C9A03346CAA248218DE8310006A804F0F7
:104AC00085F909E0C4A03346CBA248218DE8110145
:104AD000039506A804F07AF9402128A804F0C1FD46
:104AE00006A804F0AFFC059018A804F0ABFC0490F5
:104AF00028A8009006AA18A8DDE9041301F0C0F860
:104B000000204890402138A804F0ABFD28A804F00C
:104B100099FC059028AB48AA4021009038A801F0E4
:104B200055F938A8FFF716FFBBF1000F0CD038A8D5
:104B3000A9A12B46B8A2CDE90046CDE90210514605
:104B4000484604F043F90CE038A8A3A12B46C04A1C
:104B5000CDE901860094CDE903105146484604F0A2
:104B600035F900208BE72DE9F041ACB001270F2586
:104B70000026002405F1F00004F01EF806461EB9D8
:104B800038462CB0BDE8F08103E04FF4FA70FBF733
:104B900075FFB0A1B1A002F094F90028F5D1012071
:104BA000902108AA0023CDE90032CDE90210B6A376
:104BB000C14AC2A1C4A0FFF748FFC6A10F20CDE99A
:104BC000000105F1F00108ABC44A304604F0FEF8DC
:104BD000304604F037FC1FFA80F84146304602F0B8
:104BE00096F9FA2002F0AAF9044624B1BCA12046A5
:104BF00004F0F2FB0446CCB100200390BB4803A9AB
:104C000004ABBB4ACDE90010BA49204604F094FA3F
:104C100004280AD1B548039904ABB54ACDE9001080
:104C2000B5A1BD48FDF7EFFE002700BF304603F0F9
:104C3000F2FFBAA1BAA002F044F93846A1E730B5B4
:104C4000B3B000202F903090319032900125A021F8
:104C500007AAA0A3CDE90032CDE902108AA3964AA3
:104C600096A199A0FFF7F1FE07A894A399A2B0A17D
:104C70000090A948FDF7C7FE2FA8002102910391DB
:104C8000CDE90410084601210B0292A2CDE90010E3
:104C900007A98AA001F09BFA002842D1309A91B26C
:104CA0002F9802F034F9FA2002F048F90446002C5B
:104CB00033D0204601F056FA02282ED1204601F0CA
:104CC000EBFB062823D2DFE800F003090E13181DC2
:104CD000A3A19148FDF797FE00251DE0A5A18E48F0
:104CE000FDF791FE18E0AAA18B48FDF78CFE13E0BA
:104CF000B0A18948FDF787FE0EE0B6A18648FDF712
:104D000082FE09E0BCA18448FDF77DFE04E0C5A158
:104D10008148FDF778FE00BF00BF2FA801F0DAF947
:104D200003E0C7A17C48FDF76EFE284633B030BDD6
:104D300070B5ADF5806D04464FF48061684604F0AF
:104D400090FCC8A1204604F059FB4FF480616846EE
:104D500004F087FCC948006807F06EFE05462A4645
:104D60000B46C7A1684604F01BF86946204604F0CC
:104D7000D3FB4FF48061684604F073FCC8480068B8
:104D800007F05AFE05462A460B46C6A1684604F0BF
:104D900007F86946204604F0BFFB4FF4806168467F
:104DA00004F05FFCC548006807F046FE05462A4649
:104DB0000B4685E12532420025323000253246007F
:104DC00025334600253235002532330025323600A2
:104DD000253344009554415D736861310000000043
:104DE00025640A25730A70726F64756374732F25C6
:104DF000730A25730000000025640A25730A707287
:104E00006F64756374732F25732F646576696365AA
:104E1000732F25730A25730076657273696F6E3D73
:104E20002573267265733D70726F647563747325A4
:104E300025324625732665743D2564266D657468A4
:104E40006F643D2573267369676E3D25730000000E
:104E500048DC0008434F4E4E4543540041542B4319
:104E6000495053544152543D22544350222C226DF8
:104E70007174742E6865636C6F7564732E636F6DE7
:104E8000222C38300D0A00004D6B6C6B4E6A6C4C56
:104E9000596C633064446C54646A64784D454A3696
:104EA000547A4E7A546B316B65474A5A5655744B57
:104EB000547A4D3D0000000000CF9D744E4F65496F
:104EC000336B584D6E5A0000323031382D31302D51
:104ED00033310000686D66310000000090DC00088E
:104EE0006465766963655F69640000008409002079
:104EF00074090020FCDB000863726561746520643E
:104F000065766963653A2025732C2025732C20254E
:104F1000642C2025730D0A00003801404F4B00001F
:104F200041542B434950434C4F53450D0A00000058
:104F30004F6E654E45545F4465764C696E6B0D0A45
:104F40004E414D453A2025732C0950524F49443A61
:104F50002025732C094B45593A25730D0A00000092
:104F6000546970733A09C1ACBDD3B3C9B9A60D0A6F
:104F7000000000005741524E3A09C1ACBDD3CAA748
:104F8000B0DCA3BAD0ADD2E9B4EDCEF30D0A000087
:104F90005741524E3A09C1ACBDD3CAA7B0DCA3BA3F
:104FA000B7C7B7A8B5C4636C69656E7469640D0A48
:104FB000000000005741524E3A09C1ACBDD3CAA708
:104FC000B0DCA3BAB7FECEF1C6F7CAA7B0DC0D0AB3
:104FD000000000005741524E3A09C1ACBDD3CAA7E8
:104FE000B0DCA3BAD3C3BBA7C3FBBBF2C3DCC2EB29
:104FF000B4EDCEF30D0A00005741524E3A09C1AC50
:10500000BDD3CAA7B0DCA3BAB7C7B7A8C1B4BDD3D4
:1050100028B1C8C8E7746F6B656EB7C7B7A8290D0C
:105020000A0000004552523A09C1ACBDD3CAA7B02C
:10503000DCA3BACEB4D6AAB4EDCEF30D0A000000BC
:105040005741524E3A094D5154545F5061636B655C
:1050500074436F6E6E656374204661696C65640DA0
:105060000A0000007B226964223A22313233222C6A
:1050700022706172616D73223A7B00002809002062
:105080002274656D7065726174757265223A7B2257
:1050900076616C7565223A252E31667D2C00000004
:1050A0002C090020224E5455223A7B2276616C75E1
:1050B00065223A252E31667D2C0000003009002043
:1050C000F6A1684603F06CFE6946204604F024FA17
:1050D0004FF48061684604F0C4FAF648006807F0AF
:1050E000ABFC05462A460B46F3A1684603F058FE82
:1050F0006946204604F010FA4FF48061684604F0D7
:10510000B0FAF348006807F097FC05462A460B46BC
:10511000F0A1684603F044FE6946204604F0FCF91D
:105120004FF48061684604F09CFAF048007808B1BA
:10513000EFA000E0F0A00246F1A1684603F030FEC7
:105140006946204604F0E8F94FF48061684604F0AF
:1051500088FAF148007808B1E5A000E0E6A0024630
:10516000EEA1684603F01CFE6946204604F0D4F91F
:105170004FF48061684604F074FAED48007808B195
:10518000DBA000E0DCA00246EAA1684603F008FECE
:105190006946204604F0C0F94FF48061684604F087
:1051A00060FAEA48007808B1D1A000E0D2A0024637
:1051B000E7A1684603F0F4FD6946204604F0ACF927
:1051C0004FF48061684604F04CFAE748007808B173
:1051D000C7A000E0C8A00246E4A1684603F0E0FDD5
:1051E0006946204604F098F94FF48061684604F05F
:1051F00038FAE448007808B1BDA000E0BEA002463D
:10520000E1A1684603F0CCFD6946204604F084F92C
:10521000E2A1204604F080F92246E1A1E348FDF72F
:10522000F2FB204604F00EF980B20DF5806D70BDE2
:1052300030B5ADF5057D00208190829083908490FB
:1052400000240025DAA1D948FDF7DDFB4FF40071F9
:1052500001A804F006FA01A8FFF76AFD04B201AA4A
:10526000DBA1D248FDF7CFFB2246DDA1CF48FDF7F9
:10527000CAFB002C28D081A800232246AFF2AC3113
:105280000090AFF2C83001F0F8F9C8B908E001A801
:10529000415D829A501C829081988154681C05B2AD
:1052A000A542F4DB829A91B2819801F030FED0A140
:1052B000BE48829AFDF7A7FB81A800F00BFF03E030
:1052C000CFA1BA48FDF79FFB0DF5057D30BD70B548
:1052D00088B005460C460020049005900690079083
:1052E00023462A46CEA1B148FDF78DFB204604F0A7
:1052F000A9F8064604A80121002200923346CDE910
:1053000001210390224629460A2001F0D4F838B939
:10531000059A91B2049801F0FAFD04A800F0DAFEB3
:1053200008B070BD00B595B0002011901290139098
:10533000149003A80290AFF26440AFF28043C0A281
:105340003821009003A803F041FD03AAC4A19748A7
:10535000FDF759FB11A8012302AA00210090142097
:1053600001F095FA38B9129A91B2119801F0CFFD77
:1053700011A800F0AFFE15B000BD2DE9F14F94B0BB
:10538000002013901290119010900F9000250E9015
:105390000D900C90149800F0E5FE0546032D04D006
:1053A000042D75D0092D74D167E2B3480FA910AA56
:1053B00013ABCDE90021029011AA12A9149801F0B3
:1053C0009EFB0E900E98002864D10290BDF840001C
:1053D0001399CDE90010BDF84430A8A17348129A82
:1053E000FDF711FB139802F00BFD0B90B2A10B9887
:1053F00003F00CF90A90B2A10A9803F007F90646E7
:10540000B0A10A9803F002F90590B0A10A9803F040
:10541000FDF80746AFA10A9803F0F8F88046AFA15F
:105420000A9803F0F3F88146AEA10A9803F0EEF86B
:105430000990AEA10A9803F0E9F88246AEA10A9855
:1054400003F0E4F80890AFA10A9803F0DFF80790A2
:10545000AEA10A9803F0DAF80690AEA10A9803F01C
:10546000D5F88346AEA10A9803F0D0F80490AFA116
:105470000A9803F0CBF80390AFA10A9803F0C6F89E
:10548000044646B1F068012806D1FDF7F3FA5CE165
:10549000EAE100E2E7E158E154E10000225048224D
:1054A0003A7B2276616C7565223A252E31667D2C19
:1054B00000000000FC08002022544453223A7B22C2
:1054C00076616C7565223A252E31667D2C000000D0
:1054D00034090020224C6576656C223A7B22766185
:1054E0006C7565223A252E31667D2C00C908002096
:1054F000747275650000000066616C7365000000E1
:1055000022686561746572223A7B2276616C7565EA
:10551000223A25737D2C00002C000020226C65644B
:10552000223A7B2276616C7565223A25737D2C00C8
:10553000CD080020226D6F6465223A7B2276616C73
:105540007565223A25737D2C00000000C8080020F4
:105550002250756D70223A7B2276616C7565223A15
:1055600025737D2C00000000CA080020224F7879A6
:1055700067656E223A7B2276616C7565223A2573E7
:105580007D2C0000CC0800202262656570223A7BE9
:105590002276616C7565223A25737D007D7D000061
:1055A0006275662025730D0A000000000038014076
:1055B000546970733A094F6E654E65745F53656E3A
:1055C00064446174612D4D5154540D0A0000000073
:1055D0002D2D2D2D2D25732D2D2D2D0D0A00000087
:1055E0002D2D2D2D2D25642D2D2D2D0D0A00000086
:1055F00053656E642025642042797465730D0A003A
:105600005741524E3A094544505F4E6577427566A0
:10561000666572204661696C65640D0A00000000D1
:105620005075626C69736820546F7069633A202505
:10563000732C204D73673A2025730D0A000000007B
:10564000247379732F25732F25732F7468696E6700
:105650002F70726F70657274792F7365740000001B
:1056600053756273637269626520546F7069633A3F
:105670002025730D0A00000060090020746F706916
:10568000633A2025732C20746F7069635F6C656EBC
:105690003A2025642C207061796C6F61643A202572
:1056A000732C207061796C6F61645F6C656E3A2059
:1056B00025640D0A00000000706172616D730000C6
:1056C0006C6564006D6F646500000000686561745E
:1056D000657200004F787967656E000050756D70D7
:1056E00000000000626565700000000074656D7068
:1056F000666C6167000000006869676874666C61C9
:1057000067000000746473666C6167006E74756690
:105710006C61670074656D70666C61675F6800003E
:105720006869676874666C61675F68007464736653
:105730006C61675F680000006E7475666C61675F1E
:10574000680000000020FDF795F9059848B105981C
:10575000C068012802D1FEF7E1F902E00020FEF75F
:10576000DDF947B1F868012802D1FDF773FF02E0C7
:105770000020FDF76FFFB8F1000F09D0D8F80C003A
:10578000012802D1FDF78CFF02E00020FDF788FF21
:10579000B9F1000F09D0D9F80C00012802D1FDF7AA
:1057A00031FF02E00020FDF72DFF099848B109986C
:1057B000C068012802D1FEF78BF902E00020FEF755
:1057C00087F9BAF1000F06D0DAE90621104606F093
:1057D0001FFB3D490860089838B10898D0E90621B8
:1057E000104606F015FB39490860079838B107984C
:1057F000D0E90621104606F00BFB354908600698F3
:1058000038B10698D0E90621104606F001FB31496F
:105810000860BBF1000F06D0DBE90621104606F058
:10582000F7FA2D490860049838B10499D1E90621A6
:10583000104606F0EDFA29490860039838B103993B
:10584000D1E90621104606F0E3FA2549086034B193
:10585000D4E90621104606F0DBFA224908600B98CD
:1058600001F0CCFC00BF00BF149801F048FA18B951
:105870001DA12548FDF7C7F811E0149801F086F83E
:1058800020B922A12048FDF7BEF803E026A11E485A
:10589000FDF7B9F803E04FF0FF300E9000BF00BFF6
:1058A00001F0F0FA0E98401C10B915B0BDE8F08F69
:1058B0000F2D01D0032D05D1129803F0ACF91398E8
:1058C00003F0A9F900BFF0E73C09002040090020DF
:1058D00044090020480900204C09002050090020FC
:1058E0005409002058090020546970733A094D5139
:1058F0005454205075626C6973682053656E64203F
:105900004F4B0D0A000000000038014054697073CD
:105910003A094D515454205375627363726962653C
:10592000204F4B0D0A000000546970733A094D5125
:1059300054542053756273637269626520457272B4
:105940000D0A0000F0B50446142C06DA01EA02053F
:1059500023EA010685EA060019E0282C04DA81EA28
:10596000020787EA030012E03C2C0ADA01EA02058A
:1059700001EA030787EA050602EA030787EA060049
:1059800005E0502C03DA81EA020787EA0300F0BD44
:105990000146142901DAF7480AE0282901DAF64815
:1059A00006E03C2901DAF54802E0502900DAF44823
:1059B0007047F0B5024601209040441EE54301EADD
:1059C000050020FA02F601EA0400C2F1200C00FAF8
:1059D0000CF746EA07031846F0BDF0B50246C2F1DF
:1059E000200C012000FA0CF0441EE54301EA0400FB
:1059F00000FA02F601EA0500C2F1200C20FA0CF7C9
:105A000046EA07031846F0BD2DE9F04FDDB0074622
:105A10008A4615460AF1080909F101094FEACA0048
:105A20005B9048464FEAE97109EB91618E11484657
:105A30004FEAE97109EB91618911A9EB81115C9140
:105A40005C98002800DD761C5C98C0F14000814421
:105A5000D04604E0002007F8080008F10108B8EB80
:105A6000861FF7DB802007F80A000121C1EB8611B1
:105A70005B9878545B98C0F307200221C1EB861134
:105A800078545B98C0F307400321C1EB861178542A
:105A90005B98000E0421C1EB86117854B9485690EA
:105AA000B9485790B748C0435890B748C043599039
:105AB000B6485A904FF00008A5E0002452E0102CA0
:105AC00032D24FEA881000EB8400385C000601A94E
:105AD00041F824004FEA881000EB8400401C385C39
