:020000040800F2
:10000000C005002075030008A12F0008912F0008EB
:10001000992F0008F10700081945000800000000AA
:10002000000000000000000000000000B12F0008E8
:10003000F10B000800000000A92F0008B92F0008EC
:100040008F0300088F0300088F0300088F03000848
:100050008F0300088F0300088F0300088F03000838
:100060008F0300088F0300088F030008B9080008F9
:10007000C90800088F0300088F0300088F030008D9
:100080008F0300088F0300088F0300088F03000808
:100090008F0300088F0300088F0300088F030008F8
:1000A0008F0300088F0300088F0300088F030008E8
:1000B0008F0300088F0300088F0300088F030008D8
:1000C0008F0300088F0300088F0300088F030008C8
:1000D0008F0300088F0300088F03000809450008FC
:1000E0008F0300088F030008000000008F03000842
:1000F0008F0300088F0300088F0300088F03000898
:100100008F0300088F0300088F0300088F03000887
:100110008F0300088F0300088F0300088F03000877
:100120008F0300088F0300088F0300088F03000867
:100130008F0300088F0300088F0300088F03000857
:1001400000000000000000000000000000000000AF
:100150008F0300088F0300088F0300088F03000837
:100160008F0300088F0300088F0300088F03000827
:100170008F0300088F0300088F03000800000000B1
:100180008F0300088F0300088F0300088F03000807
:100190008F0300088F0300088F0300088F030008F7
:1001A0008F0300088F0300088F0300080000000081
:1001B0008F0300088F0300088F0300088F030008D7
:1001C0008F0300088F0300080000000000000000FB
:1001D00000000000000000008F0300080000000085
:1001E000000000000000000000000000000000000F
:1001F00000000000000000008F0300088F030008CB
:100200008F0300088F030008000000008F03000820
:100210008F0300088F0300088F0300088F03000876
:100220008F030008000000008F030008000000009A
:100230008F0300088F030008000000008F030008F0
:100240008F0300088F0300088F0300088F03000846
:100250008F0300088F0300088F0300088F03000836
:100260008F0300088F0300088F0300088F03000826
:100270008F0300088F0300088F03000800000000B0
:100280008F0300088F0300088F0300088F03000806
:10029000000000008F0300088F030008000000002A
:1002A000000000008F0300088F030008C130000821
:1002B0008F0300088F0300088F0300088F030008D6
:1002C0008F0300088F0300088F03000800F002F876
:1002D00000F041F80AA090E8000C82448344AAF19F
:1002E0000107DA4501D100F036F8AFF2090EBAE89D
:1002F0000F0013F0010F18BFFB1A43F0010318475A
:1003000084450000B4450000103A24BF78C878C185
:10031000FAD8520724BF30C830C144BF04680C600B
:10032000704700000023002400250026103A28BF53
:1003300078C1FBD8520728BF30C148BF0B60704757
:10034000642900F03780002070471FB504F08CFA54
:100350001FBD10B510BD00F060F91146FFF7F5FFA5
:1003600004F0DEF800F07EF903B4FFF7F2FF03BCFF
:1003700000F082F90948804709480047FEE7FEE798
:10038000FEE7FEE7FEE7FEE7FEE7FEE7FEE7FEE745
:1003900004480549054A064B70470000C12F000874
:1003A000CD020008C8030024C0050020C8050024B1
:1003B000C00100202DE9F04106460024106875298F
:1003C000314616A510D0AFF30080002802DA404273
:1003D00013A507E031688A0701D512A502E0490795
:1003E00004D511A5012401E0AFF3008000210A2209
:1003F00006F1240709E0B0FBF2FCB0FBF2F302FBCC
:100400001C00303078541846491C0028F3D123468C
:100410002A463046BDE8F04100F06FB80000000009
:100420002D0000002B0000002000000010B5431C30
:1004300002E010F8011B71B18107FAD14FF00132CF
:1004400002C88C1A8C4314EAC211F9D0C01A0A06E9
:1004500003D0C01E10BDC01A10BD0A0401D0801EFA
:1004600010BD0902FCD0401E10BD032A40F23080AE
:1004700010F0030C00F0158011F8013BBCF1020FE5
:10048000624498BF11F801CB00F8013B38BF11F866
:10049000013BA2F1040298BF00F801CB38BF00F87D
:1004A000013B11F0030300F08180083AC0F008809E
:1004B00051F8043B083A51F804CBA0E80810F5E7DE
:1004C000121D5CBF51F8043B40F8043BAFF30080C1
:1004D000D20724BF11F8013B11F801CB48BF11F836
:1004E000012B24BF00F8013B00F801CB48BF00F806
:1004F000012B70477047704770472DE9F0470D4654
:1005000099469246044600F124080168880604D5FD
:10051000E06921F01001216000E00120A84201DD26
:10052000471B00E00027A1697A1902EB0900081AAD
:10053000A0612078C00602D42046AFF300800026D8
:1005400008E0D4E901211AF806009047206A401C0F
:10055000761C20624E45F4DB2078C0060AD5204682
:10056000AFF3008006E0D4E9012130209047206AF3
:10057000401C2062381EA7F10107F4DC07E0D4E933
:10058000012118F805009047206A401C2062281EAF
:10059000A5F10105F3DC2046AFF3008020780006CA
:1005A00002D50220BDE8F0870120FBE710B5203A14
:1005B000C0F00B80B1E81850A0E81850B1E818500E
:1005C000A0E81850203ABFF4F5AF5FEA027C24BFE0
:1005D000B1E81850A0E8185044BF18C918C0BDE8C9
:1005E00010405FEA827C24BF51F8043B40F8043B92
:1005F00008BF7047D20728BF31F8023B48BF11F847
:10060000012B28BF20F8023B48BF00F8012B7047A0
:10061000004870470000002070477546FFF7F8FF5C
:10062000AE4605006946534620F00700854618B0DF
:1006300020B5FFF7ADFEBDE820404FF000064FF0BB
:1006400000074FF000084FF0000BAC46ACE8C009C3
:10065000ACE8C009ACE8C009ACE8C00921F007016A
:100660008D46704710B50446AFF300802046BDE8C4
:100670001040FFF779BE000001491820ABBEFEE72D
:10068000260002000000000010B5044603F0DCFF65
:100690002078303809283FD8DFE800F0060C162013
:1006A0002A34383E404400BF04F0AEF8BDE81040A4
:1006B00003F05ABF40F2BC30C2F200400088BDE8EF
:1006C000104004F005B800BF40F2BC30C2F2004058
:1006D0000088BDE8104003F0C7BF00BF40F2BC3047
:1006E000C2F200400088BDE8104004F025B800BF09
:1006F00040F2BC30C2F200400088BDE8104004F077
:100700004FB800BFBDE8104003F05ABF03F05CFFD4
:10071000BDE8104003F068BF10BD00BFBDE8104049
:1007200003F072BFBDE8104003F032BF00000000CC
:1007300010B5044603F090FF2078303809280BD814
:10074000DFE800F0060C16202A34383E524E00BF77
:10075000BDE8104004F058B810BD00BF40F2BC30F6
:10076000C2F200400088BDE8104003F0B1BF00BFF6
:1007700040F2BC30C2F200400088BDE8104003F0F7
:1007800073BF00BF40F2BC30C2F200400088BDE839
:10079000104003F0D1BF00BF40F2BC30C2F20040B5
:1007A0000088BDE8104003F0FBBF00BFBDE810406B
:1007B00003F006BF03F008FFBDE8104003F014BFCC
:1007C00003F0E6FE4FF47A7001F0FAFB04F01CF837
:1007D0004FF47A7001F0F4FBBDE8104003F0F0BE76
:1007E000BDE8104003F0D4BEBDE8104003F00CBFDC
:1007F000FEE700000000000010B5044603F01CFFF7
:100800002078303809280BD8DFE800F0060C1620D5
:100810002A34383E524E00BFBDE8104003F0F4BF0A
:1008200010BD00BF40F2BC30C2F200400088BDE8FD
:10083000104003F04DBF00BF40F2BC30C2F2004098
:100840000088BDE8104003F00FBF00BF40F2BC308D
:10085000C2F200400088BDE8104003F06DBF00BF49
:1008600040F2BC30C2F200400088BDE8104003F006
:1008700097BF00BFBDE8104003F0A2BE03F0A4FE86
:10088000BDE8104003F0B0BE03F082FE4FF47A7072
:1008900001F096FB03F0B8FF4FF47A7001F090FB83
:1008A000BDE8104003F08CBEBDE8104003F070BE00
:1008B000BDE8104003F0A8BE40F26400C2F20000A0
:1008C00000F092BD0000000040F21820C2F200408B
:1008D00000F08ABD0000000070B540F26F44D0F80F
:1008E00000C0C4F20204D0F858E0A4451ADC9F25E9
:1008F000C4F20205AC4533DC5725C4F20205AC4511
:100900005ADC1025C4F20205AC4500F09880282579
:10091000C4F20205AC4500F092804025C4F2020505
:100920008AE000BF45F22F45C5F60205AC452DDC37
:1009300040F2B745C4F20205AC454BDC40F27045CD
:10094000C4F20205AC457AD040F28845C4F20205F3
:10095000AC4574D040F2A045C4F202056CE000BF83
:1009600040F22745C4F20205AC4543DCA025C4F2A1
:100970000205AC4563D0B825C4F20205AC455ED093
:1009800040F21045C4F2020556E000BF45F26B4547
:10099000C5F60205AC453FDC45F23045C5F602051B
:1009A000AC454CD045F24445C5F60205AC4546D0B1
:1009B00045F258453EE000BF5825C4F20205AC455B
:1009C0003DD07025C4F20205AC4538D08825C4F26C
:1009D000020531E040F2B845C4F20205AC452ED024
:1009E00045F20845C5F60205AC4528D045F21C4540
:1009F00020E000BF40F22845C4F20205AC451ED0FD
:100A000040F24045C4F20205AC4518D040F25845CA
:100A1000C4F2020510E000BF45F26C45C5F60205C0
:100A2000AC450CD045F29445C5F60205AC4506D060
:100A300045F28045C5F60205AC4540F0D580456ECF
:100A4000C66E002E866E6E601CBFD0E91C566E60AE
:100A5000A44515DC9F24C4F20204A4452CDC5724D1
:100A6000C4F20204A44551DC1024C4F20204A445DB
:100A70007AD02824C4F20204A44575D040246FE043
:100A800045F22F44C5F60204A44529DC40F2B744E0
:100A9000C4F20204A44545DC40F27044C4F20204EE
:100AA000A44561D040F28844C4F20204A4455BD05E
:100AB00040F2A04454E000BF40F22744C4F20204D4
:100AC000A4453FDCA024C4F20204A4454CD0B824C1
:100AD000C4F20204A44547D040F2104440E000BFF5
:100AE00045F26B44C5F60204A44555DC45F230449A
:100AF000C5F60204A44561D045F24444C5F602049B
:100B0000A4455BD045F2584454E000BF5824C4F2D9
:100B10000204A44528D07024C4F20204A44523D0C2
:100B200088241DE040F2B844C4F20204A4451BD05E
:100B300045F20844C5F60204A4453FD045F21C44E2
:100B400038E000BF40F22844C4F20204A4450BD0B0
:100B500040F24044C4F20204A44505D040F2584497
:100B6000C4F20204A4453FD18468C06D00F01F00A8
:100B70003F2505FA00F0CEF80800DCF80000402C14
:100B800020F48020CCF80000CCF8043023D0CCF83E
:100B90000810CCF80C2070BD45F26C44C5F6020478
:100BA000A4450BD045F28044C5F60204A44505D007
:100BB00045F29444C5F60204A44515D1C46D80687D
:100BC00004F01F040125402805FA04F4CEF804407F
:100BD000CCF8043004D1CCF80820CCF80C1070BD4F
:100BE000CCF80810CCF80C2070BD0000000000000C
:100BF00070470000000000002DE9F041044601F0BC
:100C0000FBF91CB3054694F83500022822D140F2C6
:100C10000F462768C4F2020640F26F48B7426FF0F1
:100C20000E00C4F202081DDC6F21C4F202018F42E3
:100C30002ADC3F21C4F202018F4241DC1021C4F2C0
:100C400002018F4263D028215CE000BF0120BDE893
:100C5000F08100BF802060650120002184F83410FD
:100C6000BDE8F08147451BDC40F23F41C4F2020180
:100C70008F422DDC40F21041C4F202018F4246D077
:100C800040F228413EE000BF9F21C4F202018F42A2
:100C900028DC7021C4F202018F4238D0882131E073
:100CA00040F29F41C4F202018F4223DC40F27041C6
:100CB000C4F202018F422AD040F2884122E000BFF4
:100CC0004021C4F202018F4221D058211AE000BF16
:100CD00040F24041C4F202018F4218D040F2584124
:100CE00010E000BFA021C4F202018F420FD0B82152
:100CF00008E000BF40F2B841C4F202018F4206D0C2
:100D000040F2A041C4F202018F42394607D1394670
:100D1000386820F01E0041F8140B6FF080000A685C
:100D2000474500EA020008601ADC9F20C4F2020076
:100D3000874233DC5720C4F2020087425ADC10207D
:100D4000C4F20200874200F097802820C4F202001B
:100D5000874200F091804020C4F202008AE000BF88
:100D600045F22F40C5F6020087422DDC40F2B74025
:100D7000C4F2020087424BDC40F27040C4F2020031
:100D8000874279D040F28840C4F20200874273D093
:100D900040F2A040C4F202006CE000BF40F22740E5
:100DA000C4F20200874243DCA020C4F20200874262
:100DB00062D0B820C4F2020087425DD040F21040F9
:100DC000C4F2020056E000BF45F26B40C5F60200D7
:100DD00087423FDC45F23040C5F6020087424BD0E7
:100DE00045F24440C5F60200874245D045F25840DE
:100DF0003EE000BF5820C4F2020087423CD0702081
:100E0000C4F20200874237D08820C4F2020031E0E9
:100E100040F2B840C4F2020087422DD045F20840AB
:100E2000C5F60200874227D045F21C4020E000BFF3
:100E300040F22840C4F2020087421DD040F24040F8
:100E4000C4F20200874217D040F25840C4F20200B8
:100E500010E000BF45F26C40C5F6020087420BD09F
:100E600045F29440C5F60200874205D045F2804025
:100E7000C5F60200874204D1206E016821F480711A
:100E80000160386820F00100386000BF3868C00792
:100E900010D001F0B1F8401B0628F7D32020606580
:100EA000032084F835000120002184F83410BDE8C7
:100EB000F08100BF2068B04210DC6F21C4F2020153
:100EC00088421DDC3F21C4F20201884234DC10213B
:100ED000C4F20201884255D028214FE040451BDC76
:100EE00040F23F41C4F2020188422DDC40F2104141
:100EF000C4F20201884245D040F228413EE000BFE2
:100F00009F21C4F20201884228DC7021C4F2020150
:100F1000884237D0882131E040F29F41C4F202017B
:100F2000884223DC40F27041C4F20201884229D099
:100F300040F2884122E000BF4021C4F20201884211
:100F400020D058211AE000BF40F24041C4F2020113
:100F5000884217D040F2584110E000BFA021C4F2EF
:100F6000020188420ED0B82108E000BF40F2B8412B
:100F7000C4F20201884205D040F2A041C4F202014D
:100F800088425BD1D4E9161202F01F023F2303FA14
:100F900002F28A6040455BDC9F21C4F20201884274
:100FA00014DC5721C4F20201884227DC1021C4F26C
:100FB0000201884200F0A2802821C4F20201884286
:100FC00000F09C804021C4F2020195E040F22741EC
:100FD000C4F2020188421FDCA021C4F2020188424F
:100FE00000F08C80B821C4F20201884200F08680B3
:100FF00040F21041C4F202017EE000BF5821C4F269
:10100000020188427AD07021C4F20201884275D070
:101010008821C4F202016FE040F22841C4F20201CB
:1010200088426BD040F24041C4F20201884265D050
:1010300040F25841C4F202015EE000BFD4E916124A
:1010400002F01F02012303FA02F24A604045A3DDC9
:1010500045F22F41C5F60201884217DC40F2B74144
:10106000C4F20201884227DC40F27041C4F202015E
:10107000884243D040F28841C4F2020188423DD008
:1010800040F2A041C4F2020136E000BF45F26B41DC
:10109000C5F6020188421FDC45F23041C5F6020167
:1010A00088422BD045F24441C5F60201884225D042
:1010B00045F258411EE000BF40F2B841C4F20201BF
:1010C00088421BD045F20841C5F60201884215D07E
:1010D00045F21C410EE000BF45F26C41C5F602012D
:1010E00088420BD045F29441C5F60201884205D0F2
:1010F00045F28041C5F6020188420BD1616EA26EB5
:10110000E06E4A6030B1016821F480710160D4E979
:101110001C014160012084F835000020002184F882
:101120003410BDE8F081000080B5D8B190F83510DA
:10113000022919D140F20F420168C4F20202914221
:1011400016DC6F23C4F20203994227DC3F23C4F26A
:10115000020399423EDC1023C4F2020399425FD09D
:10116000282359E0012080BD80214165012080BDF8
:1011700040F26F43C4F2020399421BDC40F23F434A
:10118000C4F2020399422DDC40F21043C4F2020380
:10119000994245D040F228433EE000BF9F23C4F26D
:1011A0000203994228DC7023C4F20203994237D02B
:1011B000882331E040F29F43C4F20203994223DCCA
:1011C00040F27043C4F20203994229D040F28843AE
:1011D00022E000BF4023C4F20203994220D05823EA
:1011E0001AE000BF40F24043C4F20203994217D014
:1011F00040F2584310E000BFA023C4F2020399421A
:101200000ED0B82308E000BF40F2B843C4F2020396
:10121000994205D040F2A043C4F20203994275D12D
:1012200091424FF0040280F8352011DC6F20C4F2A7
:101230000200814222DC3F20C4F20200814239DCFC
:101240001020C4F20200814259D0282054E000BF8F
:1012500040F26F40C4F2020081421BDC40F23F408A
:10126000C4F2020081422DDC40F21040C4F20200C0
:10127000814244D040F228403EE000BF9F20C4F2AB
:101280000200814228DC7020C4F20200814236D084
:10129000882031E040F29F40C4F20200814223DC0A
:1012A00040F27040C4F20200814228D040F28840EF
:1012B00022E000BF4020C4F2020081421FD058202B
:1012C0001AE000BF40F24040C4F20200814216D052
:1012D00040F2584010E000BFA020C4F2020081425A
:1012E0000DD0B82008E000BF40F2B840C4F20200C0
:1012F000814204D040F2A040C4F20200814208685A
:1013000020F001000860002080BD00BF0A6822F0C4
:101310000E020A6045F25742C5F6020291420A687F
:1013200022F001020A600FDC45F22F42C5F60202EC
:10133000914219DC45F20842C5F60202914229D0D9
:1013400045F21C4222E000BF45F27F42C5F6020290
:10135000914213DC45F25842C5F60202914219D07F
:1013600045F26C4212E000BF45F23042C5F602027F
:1013700091420FD045F2444208E000BF45F294424A
:10138000C5F60202914205D045F28042C5F602023E
:1013900091421AD1D0E9181CD0E916E30A6822F468
:1013A00080720A6003F01F01012202FA01F1CEF8F7
:1013B0000410816ECCF80410C16E31B10A6822F4B9
:1013C00080720A60D0E91C124A60012180F8351051
:1013D000026D002180F834100AB1904700210846C0
:1013E00080BD0000000000002DE9F04782B0002120
:1013F000019140F208010446C2F2004148F2B512E0
:10140000C1F64E32A56D096840F26F490068C4F21A
:101410000209A1FB021848452E68296816DC9F21A5
:10142000C4F2020188422DDC5721C4F20201884235
:1014300052DC1021C4F2020188427CD02821C4F27F
:101440000201884277D0402170E000BF45F22F4270
:10145000C5F60202904229DC40F2B742C4F2020211
:10146000904245DC40F27041C4F20201884262D0F1
:1014700040F28841C4F2020188425CD040F2A041AF
:1014800054E000BF40F22741C4F2020188423FDC31
:10149000A021C4F2020188424DD0B821C4F2020159
:1014A000884248D040F2104140E000BF45F26B4214
:1014B000C5F60202904275DC45F23042C5F60202E2
:1014C000904200F0828045F24442C5F6020290420A
:1014D0007BD045F2584273E05821C4F202018842A1
:1014E00029D07021C4F20201884224D088211DE055
:1014F00040F2B842C4F2020290421CD045F20842C7
:10150000C5F60202904260D045F21C4258E000BF8E
:1015100040F22841C4F2020188420CD040F240411E
:10152000C4F20201884206D040F25841C4F20201DE
:10153000884240F05A83E16D082201F01F0140F219
:101540000F4A8A40C4F2020A324200F0E680504557
:101550004FF0040312DC6F27C4F20207B8426FDCBD
:101560003F27C4F20207B84200F3A4801027C4F258
:101570000207B84200F0C5802827BDE048456BDC73
:1015800040F23F47C4F20207B84200F39B8040F2AA
:101590001047C4F20207B84200F0B38040F2284777
:1015A000AAE000BF45F26C42C5F6020290420CD0A0
:1015B00045F28042C5F60202904206D045F29442BE
:1015C000C5F60202904240F010830268E36D03F01A
:1015D0001F0304279F400F4218BF12F0040621D1B9
:1015E00002279F400F4218BF12F002064CD1D9408B
:1015F000090740F1FA8212F0080100F0F682016852
:1016000021F00E010160012000FA03F169606065BC
:1016100084F835000020E16C84F83400002940F0A3
:10162000DC82E2E211046F6026D4910603D40168E3
:1016300021F004010160216C002940F0CE82D4E247
:101640009F27C4F20207B84246DC7027C4F20207A3
:10165000B84256D088274FE040F29F47C4F20207B5
:10166000B84241DC40F27047C4F20207B84248D0A9
:1016700040F2884740E000BFD00300F1B382A16C84
:10168000002940F0AA82B0E211046F6000F1B0823C
:10169000910609D4016821F00A010160012084F853
:1016A0003500002084F83400E16B002940F0958279
:1016B0009BE200BF4027C4F20207B84221D058275E
:1016C0001AE000BF40F24047C4F20207B84218D007
:1016D00040F2584710E000BFA027C4F20207B8420A
:1016E0000FD0B82708E000BF40F2A047C4F20207BD
:1016F000B84206D040F2B847C4F20207B84218BF59
:10170000082307681F4208D0036823F0040303601E
:10171000AA60626D42F00102626501228A40324293
:101720006FD0504510DC6F23C4F2020398421DDCD9
:101730003F23C4F20203984234DC1023C4F20203B4
:10174000984256D028234FE048451BDC40F23F43E7
:10175000C4F2020398422DDC40F21043C4F20203AB
:10176000984246D040F228433EE000BF9F23C4F297
:101770000203984228DC7023C4F20203984238D056
:10178000882331E040F29F43C4F20203984223DCF5
:1017900040F27043C4F2020398422AD040F28843D8
:1017A00022E000BF4023C4F20203984221D0582314
:1017B0001AE000BF40F24043C4F20203984218D03E
:1017C00040F2584310E000BFA023C4F20203984245
:1017D0000FD0B82308E000BF40F2A043C4F20203D8
:1017E000984206D040F2B843C4F20203984240F057
:1017F000058243691B0604D5AA60626D42F00202AD
:10180000626504228A4032426FD0504510DC6F235B
:10181000C4F2020398421DDC3F23C4F20203984243
:1018200034DC1023C4F20203984256D028234FE040
:1018300048451BDC40F23F43C4F2020398422DDCD2
:1018400040F21043C4F20203984246D040F22843CB
:101850003EE000BF9F23C4F20203984228DC7023BD
:10186000C4F20203984238D0882331E040F29F430B
:10187000C4F20203984223DC40F27043C4F2020334
:1018800098422AD040F2884322E000BF4023C4F2AD
:101890000203984221D058231AE000BF40F240438F
:1018A000C4F20203984218D040F2584310E000BF3F
:1018B000A023C4F2020398420FD0B82308E000BF6F
:1018C00040F2A043C4F20203984206D040F2B8436B
:1018D000C4F20203984240F0998103689B0704D543
:1018E000AA60626D42F004026265102202FA01F100
:1018F000314200F0818050454FF0080210DC6F2328
:10190000C4F2020398421DDC3F23C4F20203984252
:1019100034DC1023C4F20203984256D028234FE04F
:1019200048451BDC40F23F43C4F2020398422DDCE1
:1019300040F21043C4F20203984246D040F22843DA
:101940003EE000BF9F23C4F20203984228DC7023CC
:10195000C4F20203984238D0882331E040F29F431A
:10196000C4F20203984223DC40F27043C4F2020343
:1019700098422AD040F2884322E000BF4023C4F2BC
:101980000203984221D058231AE000BF40F240439E
:10199000C4F20203984218D040F2584310E000BF4E
:1019A000A023C4F2020398420FD0B82308E000BF7E
:1019B00040F2A043C4F20203984206D040F2B8437A
:1019C000C4F20203984218BF04220368134213D0E2
:1019D000A96001684903016808D4C90508D40168F1
:1019E00021F008010160216C21B905E008034FD402
:1019F000216C09B120468847E06D00F01F012020CE
:101A000000FA01F2324200F0AB802068102350450A
:101A100010DC6F27C4F20207B8421DDC3F27C4F276
:101A20000207B84238DC1027C4F20207B8425AD085
:101A3000282753E048451BDC40F23F47C4F2020729
:101A4000B84231DC40F21047C4F20207B8424AD033
:101A500040F2284742E000BF9F27C4F20207B84285
:101A60002CDC7027C4F20207B8423CD0882735E04E
:101A700040F29F47C4F20207B84227DC40F27047A9
:101A8000C4F20207B8422ED040F2884726E000BFD9
:101A9000A16C0029AED1AFE74027C4F20207B842DB
:101AA00021D058271AE000BF40F24047C4F2020795
:101AB000B84218D040F2584710E000BFA027C4F247
:101AC0000207B8420FD0B82708E000BF40F2A04795
:101AD000C4F20207B84206D040F2B847C4F2020787
:101AE000B84218BF022307681F4239D0AA6094F891
:101AF0003520042A02681BD122F0160202604269D6
:101B000022F080024261226C0AB9A26C1AB102680A
:101B100022F0080202603F208840A860012084F87B
:101B20003500216D0020002984F8340055D15CE097
:101B3000510301680CD4C9050ED4016821F01001CD
:101B40000160012084F83500002084F8340003E0AF
:101B5000080301D4616C00E0E16B09B120468847BD
:101B6000606D002841D0606DC00734D0042084F837
:101B7000350020684FEA9821026822F001020260D5
:101B8000019A013201928A421AD80268D20717D00C
:101B9000019A013201928A4212D80268D2070FD00C
:101BA000019A013201928A420AD80268D20707D00C
:101BB000019A013201928A4202D80268D207DFD12B
:101BC0000068C0074FF0030008BF012084F835000B
:101BD000002084F83400E16C39B1204602B0BDE841
:101BE000F0470847216C0029F7D102B0BDE8F08723
:101BF000D0030DD4616C0029EFD1F6E7026804220E
:101C00008A4032427FF401AE6FE600BF02686CE6A4
:101C1000E16B0029E1D1E8E7B0B500283CD00546EA
:101C200090F83400012801D10220B0BD012085F8D0
:101C3000340095F83500012828D1022085F83500B8
:101C4000002068652868046824F0010404602846C0
:101C5000FEF742FE40F20F422868C4F2020240F250
:101C60006F419042C4F2020118DC6F23C4F20203F8
:101C7000984225DC3F23C4F2020398423CDC102347
:101C8000C4F2020398425ED0282357E04FF400606C
:101C90006865002085F834000120B0BD88421BDC57
:101CA00040F23F43C4F2020398422DDC40F210435D
:101CB000C4F20203984246D040F228433EE000BFFF
:101CC0009F23C4F20203984228DC7023C4F202036B
:101CD000984238D0882331E040F29F43C4F2020397
:101CE000984223DC40F27043C4F2020398422AD0A7
:101CF00040F2884322E000BF4023C4F2020398422E
:101D000021D058231AE000BF40F24043C4F202033E
:101D1000984218D040F2584310E000BFA023C4F20C
:101D2000020398420FD0B82308E000BF40F2B84346
:101D3000C4F20203984206D040F2A043C4F2020368
:101D4000984240F02F8103680B2464F3440303603E
:101D50002B6C1BB10823046823430360884219DC01
:101D60009F23C4F20203984232DC5723C4F20203D9
:101D7000984259DC1023C4F20203984200F0968086
:101D80002823C4F20203984200F090804023C4F25A
:101D9000020389E045F22F43C5F6020398422DDC89
:101DA00040F2B743C4F2020398424BDC40F2704366
:101DB000C4F20203984279D040F28843C4F202038D
:101DC000984273D040F2A043C4F202036CE000BF1B
:101DD00040F22743C4F20203984243DCA023C4F23A
:101DE0000203984262D0B823C4F2020398425DD045
:101DF00040F21043C4F2020356E000BF45F26B43C9
:101E0000C5F6020398423FDC45F23043C5F60203B3
:101E100098424BD045F24443C5F60203984245D060
:101E200045F258433EE000BF5823C4F202039842F3
:101E30003CD07023C4F20203984237D08823C4F206
:101E4000020331E040F2B843C4F2020398422DD0BD
:101E500045F20843C5F60203984227D045F21C43D9
:101E600020E000BF40F22843C4F2020398421DD094
:101E700040F24043C4F20203984217D040F2584364
:101E8000C4F2020310E000BF45F26C43C5F6020342
:101E900098420BD045F29443C5F60203984205D010
:101EA00045F28043C5F60203984274D12B6E1C683C
:101EB000E40303D51C6844F480741C60EB6E1BB112
:101EC0001D6845F480751D60904211DC6F21C4F2DD
:101ED000020188421EDC3F21C4F20201884235DC47
:101EE0001021C4F20201884255D0282150E000BFE1
:101EF00088421BDC40F23F41C4F2020188422DDCE3
:101F000040F21041C4F20201884244D040F228411C
:101F10003EE000BF9F21C4F20201884228DC70210C
:101F2000C4F20201884236D0882131E040F29F415C
:101F3000C4F20201884223DC40F27041C4F2020183
:101F4000884228D040F2884122E000BF4021C4F2FC
:101F5000020188421FD058211AE000BF40F24041E0
:101F6000C4F20201884216D040F2584110E000BF8E
:101F7000A021C4F2020188420DD0B82108E000BFC0
:101F800040F2B841C4F20201884204D040F2A041BC
:101F9000C4F202018842016841F0010101600020A1
:101FA000B0BD00BF0368052464F3430303602B6CDA
:101FB000002B3FF4D3AE0423CDE600000000000068
:101FC000B0B5044600F018F840F200010546C2F230
:101FD0000041621C097818BF0C4400BF00F00CF8E7
:101FE000401BA042FAD3B0BD002A08BF090481619A
:101FF000704700000000000040F2C030C2F2004014
:10200000006870470000000040F2000040F2C0315C
:10201000C2F20040C2F2004100780A681044086031
:10202000704700000000000071B10A1F4FEAB202C1
:10203000032A11D8DFE802F002161E2400F13F0344
:102040001B78012B13D120E090F83E20012A0ED1FD
:10205000022280F83E2032E000F143031B78012B7E
:1020600005D112E000F140031B78012B0DD00120B7
:10207000704700BF00F141031B78012B05D0F6E744
:1020800000F142031B78012BF1D1032A08D8DFE8C5
:1020900002F0030B0F1300BF022280F83F200EE076
:1020A000022280F843200AE0022280F8402006E065
:1020B000022280F8412002E0022280F842200268D9
:1020C00001F01F00012101FA00F0116A8143116241
:1020D0004EF2FF31C4F200018A42116A40EA010067
:1020E000106215DC40F6FF30C4F20000824227DCAB
:1020F000B2F1804F4ED040F20040C4F20000824264
:1021000048D040F60000C4F20000824242D053E0C2
:1021100043F6FF700021C4F20100C4F201018242C3
:1021200044F20000C4F201001EDC4EF20043C4F28F
:1021300000039A422ED08A4224D040F200431DE090
:1021400040F60040C4F20000824223D041F6000075
:10215000C4F2000082421DD04EF20000C4F2000022
:10216000824217D028E000BF82420BD044F6000321
:10217000C4F201039A4205D044F20043C4F20103C1
:102180009A4219D1536C8A4243F40041516418BFFA
:1021900082420BD107219068C0F20101014000206A
:1021A000062918BFB1F5803F06D1704740F20040C4
:1021B000C4F201008242EDD0106840F001001060CE
:1021C0000020704700000000026801F01F0C01238E
:1021D00003FA0CFC136A23EA0C0343F6FF7CC4F2F7
:1021E000010C13626245136A136213DD44F20003AB
:1021F000C4F201039A4218D044F60003C4F201036A
:102200009A4212D044F20043C4F201039A420CD025
:1022100019E000BF0023C4F201039A4205D040F246
:102220000043C4F201039A420DD1D2F820C041F21A
:1022300011131CEA030F06D1D2F820C040F2444328
:102240001CEA030F12D0D2F820C041F211131CEA8D
:10225000030F16D1D2F820C040F244431CEA030F0A
:102260000FD1136823F0010313600AE0536C23F4C9
:1022700000435364D2F820C041F211131CEA030F4B
:10228000E8D04FEAB10104290AD8DFE801F0030FD2
:10229000151B2100012180F83E100020704700BF6F
:1022A000012180F843100020704700BF012180F811
:1022B0003F100020704700BF012180F8401000202F
:1022C000704700BF012180F841100020704700BF17
:1022D000012180F84210002070470000000000003B
:1022E0007047000000000000704700000000000080
:1022F0007047000000000000704700000000000070
:10230000704700000000000070B50446006840F609
:102310002F01C26911402029016886680ED101F0A1
:10232000200306F080555B191AD0616F002900F078
:102330007D802046BDE87040084700BF40F60F038F
:102340001A420DD0012340F22015C1F20003C0F261
:10235000004506EA030C01EA050313EB0C0367D101
:10236000E36E012B05D112F0100318BF11F010031A
:102370004CD1D3020AD516F4800307D04FF4801154
:1023800001622046BDE87040FFF7B6BF100606D5D3
:1023900001F0800006F40003C01840F0A18150064F
:1023A0006ED511F040006BD0206850E8000F216816
:1023B00020F0400041E80002F2B1206850E8000F30
:1023C000216820F0400041E80002002A1FBF206879
:1023D00050E8000F216820F040001CBF41E80002D7
:1023E000002A09D0206850E8000F216820F0400042
:1023F00041E80002002AD7D12020C4F8880000203C
:10240000A0672046BDE8704000F0BABD102101620F
:102410008068400616D4B4F85C00B4F85E10B4F8D6
:102420005E20002A18BF884240F08A8170BD00BF3C
:10243000D30718BF11F480732ED1930706F0010E55
:1024400036D440E0D4F8800040F20F42C4F20202D9
:102450000168914200F34A816F22C4F20202914264
:1024600000F3F6813F22C4F20202914200F30C8293
:102470001022C4F20202914200F02B82282225E2AF
:10248000100240F14B8111F0804000F0478120465E
:10249000BDE87040FFF72CBF01230362D4F89030F1
:1024A00043F00103C4F89030930706F0010E0AD5FB
:1024B000BEF1000F07D002230362D4F8903043F03E
:1024C0000403C4F8903053070AD5BEF1000F07D0BB
:1024D00004230362D4F8903043F00203C4F8903030
:1024E00013070CD501F0200353EA0C0307D008238F
:1024F0000362D4F8903043F00803C4F89030130519
:102500000BD511F0806308D04FF400630362D4F858
:10251000903043F02003C4F89030D4F89030002B72
:102520003FF484AF12F020020AD001F0200106F03F
:102530008052891804D0616F11B120468847206805
:10254000D4F89010806800F0400001F02801401895
:1025500006D12046FFF7D4FE0020C4F8900070BDDD
:10256000206850E8000F216820F4907041E80002D4
:10257000F2B1206850E8000F216820F4907041E823
:102580000002002A1FBF206850E8000F216820F4D5
:1025900090701CBF41E80002002A09D0206850E872
:1025A000000F216820F4907041E80002002AD7D182
:1025B0004FF6FE70CEF6FF70216851E8021F2268C8
:1025C000014042E80213DBB1216851E8021F226892
:1025D000014042E80213002B1FBF216851E8021F8F
:1025E000226801401CBF42E80213002B08D021687A
:1025F00051E8021F2268014042E80213002BDBD1A0
:10260000E06E012827D1206850E8000F216820F0F3
:10261000100041E80002F2B1206850E8000F216884
:1026200020F0100041E80002002A1FBF206850E897
:10263000000F216820F010001CBF41E80002002AB2
:1026400009D0206850E8000F216820F0100041E810
:102650000002002AD7D12020C4F88C000020E066B8
:10266000216860678868400664D5206850E8020FDA
:10267000216820F0400041E80202F2B1206850E8F1
:10268000020F216820F0400041E80202002A1FBF2B
:10269000206850E8020F216820F040001CBF41E88C
:1026A0000202002A09D0206850E8020F216820F0B9
:1026B000400041E80202002AD7D1D4F88000C8B314
:1026C00043F2D101C0F600010165FEF72DFD00289F
:1026D0003FF4ACAED4F88000016DBDE8704008470F
:1026E000A16F00297FF425AEA0E600BF40F26F4243
:1026F000C4F20202914200F3B78040F23F42C4F2BA
:102700000202914200F3C88040F21042C4F2020279
:10271000914200F0DE8040F22842D7E0D0017FF500
:1027200085AEB1F1FF3FC8BF70BD2046BDE8704027
:10273000FFF7DABD2046BDE87040FFF7E1BD00BFFE
:10274000401A216851E8001F226821F4907142E884
:102750000013F3B1216851E8001F226821F4907141
:1027600042E80013002B1FBF216851E8001F2268B8
:1027700021F490711CBF42E80013002B09D021689E
:1027800051E8001F226821F4907142E80013002BE9
:10279000D7D14FF6FE71CEF6FF71226852E8022FB4
:1027A00023680A4043E80226DEB1226852E8022F7D
:1027B00023680A4043E80226002E1FBF226852E821
:1027C000022F23680A401CBF43E80226002E08D0CF
:1027D000226852E8022F23680A4043E80226002EAE
:1027E000DBD12021C4F88C100021E16661672168EB
:1027F00051E8001F226821F0100142E80013F3B1F4
:10280000216851E8001F226821F0100142E80013FE
:10281000002B1FBF216851E8001F226821F0100122
:102820001CBF42E80013002B09D0216851E8001FAB
:10283000226821F0100142E80013002BD7D181B2A9
:10284000022020672046BDE87040FFF749BD00BF69
:102850009F22C4F20202914228DC7022C4F20202DA
:10286000914236D0882231E040F29F42C4F2020207
:10287000914223DC40F27042C4F20202914228D01D
:1028800040F2884222E000BF4022C4F2020291429C
:102890001FD058221AE000BF40F24042C4F20202A8
:1028A000914216D040F2584210E000BFA022C4F27C
:1028B000020291420DD0B82208E000BF40F2B842B7
:1028C000C4F20202914204D040F2A042C4F20202D9
:1028D000914249688AB2002A3FF4A8ADB4F85C304E
:1028E0009A42BFF4A3ADA4F85E10C069B0F5807F32
:1028F00000F0A980206850E8000F216820F4807063
:1029000041E80002F2B1206850E8000F216820F48D
:10291000807041E80002002A1FBF206850E8000FC5
:10292000216820F480701CBF41E80002002A09D011
:10293000206850E8000F216820F4807041E8000210
:10294000002AD7D1206850E8020F216820F001004A
:1029500041E80202F2B1206850E8020F216820F03D
:10296000010041E80202002A1FBF206850E8020F60
:10297000216820F001001CBF41E80202002A09D0B2
:10298000206850E8020F216820F0010041E80202AF
:10299000002AD7D1206850E8020F216820F04000BB
:1029A00041E80202F2B1206850E8020F216820F0ED
:1029B000400041E80202002A1FBF206850E8020FD1
:1029C000216820F040001CBF41E80202002A09D023
:1029D000206850E8020F216820F0400041E8020220
:1029E000002AD7D12020C4F88C000020E06620689F
:1029F00050E8000F216820F0100041E80002F2B119
:102A0000206850E8000F216820F0100041E8000223
:102A1000002A1FBF206850E8000F216820F0100036
:102A20001CBF41E80002002A09D0206850E8000FCE
:102A3000216820F0100041E80002002AD7D1D4F824
:102A40008000FEF7D9F802202067B4F85C00B4F8E3
:102A50005E10401A81B22046BDE87040FFF740BCCE
:102A60002DE9F04381B00446D0F88C00202827D10E
:102A70000E4600294FF0010058D01746002A55D0C5
:102A80001D460020C4F890002221C4F88C10E06696
:102A9000FFF7B2FAA4F85C708046A4F85E70A168F3
:102AA00091B1B1F1805F13D0B1F5805F14D120698D
:102AB00060B940F2FF17A4F86070B14600261CE030
:102AC000022001B0BDE8F083206938B9FF2706E095
:102AD000206918B13F2702E0002700E07F274FF070
:102AE0000009A4F8607008E0384029F8020B0026BD
:102AF000B4F85E000138A4F85E00B4F85E0078B166
:102B00002021002220464346009501F051FB48B9A0
:102B10002068002E406AE7D0384006F8010BE7E74E
:102B2000002000E003202021C4F88C1001B0BDE893
:102B3000F08300000000000010B50446D0F88C00BF
:102B4000202809D196460A460120002918BFBEF167
:102B5000000F03D110BD00BF022010BD4FF0000CCC
:102B6000C4F86CC040F600402168C5F60000814200
:102B700003D04868000200F1A780A2652220A4F8D3
:102B80005CE0C4F890C0C4F88C00D4F88000F8B1C0
:102B900043F2D92143F25143C0F60001C0F60003CD
:102BA000C0E90F1343F2E1010023C0F60001C16444
:102BB0002168036524317346FFF72EF840B11020D9
:102BC000C4F890002020C4F88C00012010BD00BF84
:102BD000206938B3206850E8000F216840F4807005
:102BE00041E80002F2B1206850E8000F216840F48B
:102BF000807041E80002002A1FBF206850E8000FE3
:102C0000216840F480701CBF41E80002002A09D00E
:102C1000206850E8000F216840F4807041E800020D
:102C2000002AD7D1206850E8020F216840F0010047
:102C300041E80202F2B1206850E8020F216840F03A
:102C4000010041E80202002A1FBF206850E8020F7D
:102C5000216840F001001CBF41E80202002A09D0AF
:102C6000206850E8020F216840F0010041E80202AC
:102C7000002AD7D1206850E8020F216840F04000B8
:102C800041E80202F2B1206850E8020F216840F0EA
:102C9000400041E80202002A1FBF206850E8020FEE
:102CA000216840F040001CBF41E80202002A09D020
:102CB000206850E8020F216840F0400041E802021D
:102CC000002AD7D1002010BD206850E8000F2168ED
:102CD00040F0806041E80003002B3FF44EAF2068D5
:102CE00050E8000F216840F0806041E80003002BAD
:102CF0001FBF206850E8000F216840F080601CBFB3
:102D000041E80003002B3FF438AF206850E8000F83
:102D1000216840F0806041E80003002BD4D12CE70B
:102D200080B5D0F88C30202B06D10123002918BFA4
:102D3000002A03D1184680BD022080BD0023C3664F
:102D400040F60043D0F800C0C5F600039C4503D010
:102D5000DCF804301B0205D401F0EEF8002318461D
:102D600080BD00BF036853E800CFD0F800E04CF00E
:102D700080634EE8003CBCF1000FEDD0036853E8DF
:102D800000CFD0F800E04CF080634EE8003CBCF18E
:102D9000000F1FBF036853E800CFD0F800E04CF0ED
:102DA00080631CBF4EE8003CBCF1000FD4D0036828
:102DB00053E800CFD0F800E04CF080634EE8003CD0
:102DC000BCF1000FCED1C7E7B0B544F600010068F2
:102DD000C4F20001884201D0B0BD00BF40F214200F
:102DE000C2F200400078A0F1410102291AD843281C
:102DF0003AD0422824D0412818BFB0BD40F2283430
:102E000040F21005C2F20044C2F2004501224FF028
:102E1000FF3320462946FFF723FE2846FDF734FC02
:102E200034E000BF40F2283040F21201C2F200400C
:102E3000C2F200414FF48072BDE8B040FFF77CBEA3
:102E400040F2283440F26005C2F20044C2F20005AC
:102E500001224FF0FF3320462946FFF701FE2846A6
:102E6000FDF766FC12E000BF40F2283440F2110585
:102E7000C2F20044C2F2004501224FF0FF33204667
:102E80002946FFF7EDFD2846FDF7B6FC40F2142178
:102E90000122C2F200412046BDE8B040FFF740BF2A
:102EA0007047000000000000B0B50446D0F888006C
:102EB000202831D100294FF001005BD0002A1346B1
:102EC00008BFB0BD21650025A4F854302120A4F826
:102ED0005630C4F89050C4F88800E06FF0B143F267
:102EE000E10243F2714CC0F60002C264226843F270
:102EF000315E2832C0F6000CC0F6000E0565C0E950
:102F00000FCEFEF789FE48B11020C4F890002020B3
:102F1000C4F888000120B0BD0220B0BD2068402167
:102F20000162206850E8020F216840F0800041E80B
:102F300002020AB3206850E8020F216840F08000C6
:102F400041E80202002A1FBF206850E8020F2168F2
:102F500040F080001CBF41E80202002A0CD020682B
:102F600050E8020F216840F0800041E80202002A88
:102F7000D7D10020B0BD00BF0020B0BD00000000D0
:102F800070470000000000007047000000000000D3
:102F9000FEE7000000000000FEE700000000000067
:102FA000FEE7000000000000704700000000000085
:102FB0007047000000000000FFF726B80000000086
:102FC0004EF6885042F2000CCEF20000C5F2002C02
:102FD000026842F470020260DCF8000000F00F00AA
:102FE000062806D8DCF80000072262F30300CCF8BC
:102FF000000044F200404EF67F51C5F60200CEF6C6
:10300000F621026842F001020260002202610368B8
:1030100019400160DCF80010090706D5DCF8001043
:10302000072363F30301CCF8001040F20021826112
:10303000C261C0F20221026281620021C0F2FF116E
:10304000C16240F28021C0F20111016342638163D9
:10305000C26301644264016821F480210160026658
:1030600044F20000C5F2002043F2D2010160704733
:10307000B0B50C46B1F5807F28BF4FF4807440F2A4
:1030800014150146C2F2004522462846FDF7EDF927
:1030900040F228302946C2F200402246BDE8B04046
:1030A000FFF702BF0000000040F2283040F212019A
:1030B000C2F20040C2F200414FF48072FFF73CBD03
:1030C00040F22810C2F20000FFF71EB90000000015
:1030D000806B0021A0F85E10A0F85610FFF710B921
:1030E000806B0268D0F88830D0F88CC091680906EF
:1030F00058D5212B56D10021A0F85610016851E86F
:10310000001F026821F0C00142E80013F3B101681A
:1031100051E8001F026821F0C00142E80013002BB3
:103120001FBF016851E8001F026821F0C0011CBFE9
:1031300042E80013002B09D0016851E8001F026823
:1031400021F0C00142E80013002BD7D1016851E8FB
:10315000021F026821F4000142E80213F3B1016882
:1031600051E8021F026821F4000142E80213002B1B
:103170001FBF016851E8021F026821F400011CBF53
:1031800042E80213002B09D0016851E8021F0268CF
:1031900021F4000142E80213002BD7D12021C0F80E
:1031A000881002689168490640F18C80BCF1220FBA
:1031B00040F088800021A0F85E10016851E8001FEF
:1031C000026821F4907142E80013F3B1016851E8FC
:1031D000001F026821F4907142E80013002B1FBF0A
:1031E000016851E8001F026821F490711CBF42E899
:1031F0000013002B09D0016851E8001F026821F478
:10320000907142E80013002BD7D14FF6FE7CCEF62A
:10321000FF7C026852E8022F036802EA0C0243E8CE
:103220000221F1B1016851E8021F026801EA0C01B4
:1032300042E80213002B1FBF016851E8021F026819
:1032400001EA0C011CBF42E80213002B09D00168FF
:1032500051E8021F026801EA0C0142E80213002B48
:10326000D7D1C16E012927D1016851E8001F02683A
:1032700021F0100142E80013F3B1016851E8001F8A
:10328000026821F0100142E80013002B1FBF016803
:1032900051E8001F026821F010011CBF42E8001332
:1032A000002B09D0016851E8001F026821F01001CD
:1032B00042E80013002BD7D12021C0F88C10002148
:1032C000C1664167D0F8901041F01001C0F890102D
:1032D000FFF716B800000000C169806BB1F5807F70
:1032E00000F0AA800021A0F85E10016851E8001FDC
:1032F000026821F4807142E80013FBB1016851E8D3
:10330000001F026821F4807142E80013002B1FBFE8
:10331000016851E8001F026821F480711CBF42E877
:103320000013002B0AD0016851E8001F026821F445
:10333000807142E80013002BD7D100BF016851E82B
:10334000021F026821F0010142E80213F3B1016893
:1033500051E8021F026821F0010142E80213002B2C
:103360001FBF016851E8021F026821F001011CBF64
:1033700042E80213002B09D0016851E8021F0268DD
:1033800021F0010142E80213002BD7D1016851E876
:10339000021F026821F0400142E80213F3B1016804
:1033A00051E8021F026821F0400142E80213002B9D
:1033B0001FBF016851E8021F026821F040011CBFD5
:1033C00042E80213002B09D0016851E8021F02688D
:1033D00021F0400142E80213002BD7D12021C0F890
:1033E0008C10C16E012927D1016851E8001F0268C5
:1033F00021F0100142E80013F3B1016851E8001F09
:10340000026821F0100142E80013002B1FBF016881
:1034100051E8001F026821F010011CBF42E80013B0
:10342000002B09D0016851E8001F026821F010014B
:1034300042E80013002BD7D100210167C16E01299A
:1034400004D1B0F85C10FEF74BBF00BFFFF7BCBC67
:10345000806B01210167C16E012905D1B0F85C10B4
:103460004908FEF73DBF00BFFFF71ABD000000008E
:10347000C169806BB1F5807F02D1FFF781BD00BFCC
:103480000021A0F85610016851E8021F026821F0DF
:10349000800142E80213FBB1016851E8021F026893
:1034A00021F0800142E80213002B1FBF016851E8A0
:1034B000021F026821F080011CBF42E80213002BAA
:1034C0000AD0016851E8021F026821F0800142E839
:1034D0000213002BD7D100BF016851E8001F02681A
:1034E00041F0400142E80013F3B1016851E8001FC8
:1034F000026841F0400142E80013002B1FBF016841
:1035000051E8001F026841F040011CBF42E800136F
:10351000002B09D0016851E8001F026841F040010A
:1035200042E80013002BD7D17047000000000000D4
:10353000806BFFF729BD0000B0F860200168D0F86B
:103540008C30222B40F0A880496A836D114023F80B
:10355000021B8365B0F85E100139A0F85E10B0F868
:103560005E10002918BF7047016851E8001F02680B
:1035700021F4907142E80013F3B1016851E8001F93
:10358000026821F4907142E80013002B1FBF01680C
:1035900051E8001F026821F490711CBF42E800133B
:1035A000002B09D0016851E8001F026821F49071D6
:1035B00042E80013002BD7D1016851E8021F0268CE
:1035C00021F0010142E80213F3B1016851E8021F42
:1035D000026821F0010142E80213002B1FBF0168BD
:1035E00051E8021F026821F001011CBF42E80213EA
:1035F000002B09D0016851E8021F026821F0010187
:1036000042E80213002BD7D12021C0F88C100021F2
:103610004167016740F600420168C5F60002914229
:1036200002D0496809023DD4C16E012964D100214C
:10363000C166016851E8001F026821F0100142E8EC
:103640000013F3B1016851E8001F026821F0100176
:1036500042E80013002B1FBF016851E8001F0268F9
:1036600021F010011CBF42E80013002B09D00168B3
:1036700051E8001F026821F0100142E80013002BFE
:10368000D7D10168CA69D20601D510220A62B0F802
:103690005C10FEF725BE00BF886940F00800886115
:1036A000704700BF016851E8001F026821F0806187
:1036B00042E80013002BB7D0016851E8001F0268F0
:1036C00021F0806142E80013002B1FBF016851E820
:1036D000001F026821F080611CBF42E80013002B2C
:1036E000A2D0016851E8001F026821F0806142E821
:1036F0000013002BD6D197E7FFF766BB0000000050
:103700002DE9F04F81B004460368B0F86050DA69E3
:1037100018689968D4F88C70222F65D1B4F8683095
:10372000002B18BF12F0200266D1B4F85E0000280A
:103730005ED0B4F8681088425AD2206850E8020F70
:10374000216820F0805041E80202F2B1206850E880
:10375000020F216820F0805041E80202002A1FBFBA
:10376000206850E8020F216820F080501CBF41E81B
:103770000202002A09D0206850E8020F216820F0D8
:10378000805041E80202002AD7D143F23950C0F6F6
:1037900000006067206850E8000F216840F02000BA
:1037A00041E8000222B3206850E8000F216840F091
:1037B000200041E80002002A1FBF206850E8000FE7
:1037C000216840F020001CBF41E80002002A0FD011
:1037D000206850E8000F216840F0200041E8000216
:1037E000002AD7D104E000BF986940F00800986132
:1037F00001B0BDE8F08F00BF4FF6FE7640F6004BFB
:10380000CEF6FF7600F4807801F001074FF0000A51
:10381000C5F6000B08E000BF2046FFF7D5FA00BF51
:103820005FEA89607FF581AF2068A16D426A2A4016
:1038300021F8022BA165B4F85E100139A4F85E10DE
:10384000D0F81C905FEA497131D05FEAC97218BFA5
:10385000B8F1000F04D15FEA89720CD414E000BF04
:1038600001220262D4F8902042F00102C4F89020B4
:103870005FEA897208D53FB102220262D4F8902033
:1038800042F00402C4F89020002908D53FB1042179
:103890000162D4F8900040F00200C4F89000D4F81F
:1038A000900020B12046FEF72BFDC4F890A0B4F89C
:1038B0005E000028B4D1206850E8000F216820F491
:1038C000807041E80002FAB1206850E8000F2168DA
:1038D00020F4807041E80002002A1FBF206850E8F1
:1038E000000F216820F480701CBF41E80002002A0C
:1038F0000AD0206850E8000F216820F4807041E869
:103900000002002AD7D100BF206850E8020F2168CA
:10391000304041E80202DAB1206850E8020F216825
:10392000304041E80202002A1FBF206850E8020F21
:10393000216830401CBF41E80202002A08D02068FC
:1039400050E8020F2168304041E80202002ADBD132
:103950002020C4F88C00C4F874A0C4F870A02068BB
:10396000584502D0406800023AD4E06E01287FF446
:1039700053AFC4F86CA0206850E8000F216820F015
:10398000100041E80002F2B1206850E8000F216801
:1039900020F0100041E80002002A1FBF206850E814
:1039A000000F216820F010001CBF41E80002002A2F
:1039B00009D0206850E8000F216820F0100041E88D
:1039C0000002002AD7D12068C169C90601D510219B
:1039D0000162B4F85C102046FEF782FC20E700BFCD
:1039E000206850E8000F216820F0806041E8000264
:1039F000002ABAD0206850E8000F216820F08060CB
:103A000041E80002002A1FBF206850E8000F21682B
:103A100020F080601CBF41E80002002AA5D0206889
:103A200050E8000F216820F0806041E80002002A81
:103A3000D6D19AE700000000B0F860100268D0F814
:103A40008C30222B40F0AA80526A836D114019708D
:103A5000816D01318165B0F85E100139A0F85E100A
:103A6000B0F85E10002918BF7047016851E8001FC8
:103A7000026821F4907142E80013FBB1016851E83B
:103A8000001F026821F4907142E80013002B1FBF51
:103A9000016851E8001F026821F490711CBF42E8E0
:103AA0000013002B0AD0016851E8001F026821F4BE
:103AB000907142E80013002BD7D100BF016851E894
:103AC000021F026821F0010142E80213F3B101680C
:103AD00051E8021F026821F0010142E80213002BA5
:103AE0001FBF016851E8021F026821F001011CBFDD
:103AF00042E80213002B09D0016851E8021F026856
:103B000021F0010142E80213002BD7D12021C0F897
:103B10008C1000214167016740F600420168C5F63C
:103B20000002914202D0496809023DD4C16E0129C8
:103B300064D10021C166016851E8001F026821F0CC
:103B4000100142E80013F3B1016851E8001F026858
:103B500021F0100142E80013002B1FBF016851E85B
:103B6000001F026821F010011CBF42E80013002B67
:103B700009D0016851E8001F026821F0100142E8F5
:103B80000013002BD7D10168CA69D20601D51022D3
:103B90000A62B0F85C10FEF7A3BB00BF906940F06A
:103BA00008009061704700BF016851E8001F02687B
:103BB00021F0806142E80013002BB7D0016851E882
:103BC000001F026821F0806142E80013002B1FBF34
:103BD000016851E8001F026821F080611CBF42E8C3
:103BE0000013002BA2D0016851E8001F026821F0E9
:103BF000806142E80013002BD6D197E7FFF7E4B8C5
:103C00002DE9F04F81B004460368B0F86050DA69DE
:103C100018689968D4F88C70222F65D1B4F8683090
:103C2000002B18BF12F0200266D1B4F85E00002805
:103C30005ED0B4F8681088425AD2206850E8020F6B
:103C4000216820F0805041E80202F2B1206850E87B
:103C5000020F216820F0805041E80202002A1FBFB5
:103C6000206850E8020F216820F080501CBF41E816
:103C70000202002A09D0206850E8020F216820F0D3
:103C8000805041E80202002AD7D143F63920C0F61D
:103C900000006067206850E8000F216840F02000B5
:103CA00041E8000222B3206850E8000F216840F08C
:103CB000200041E80002002A1FBF206850E8000FE2
:103CC000216840F020001CBF41E80002002A0FD00C
:103CD000206850E8000F216840F0200041E8000211
:103CE000002AD7D104E000BF986940F0080098612D
:103CF00001B0BDE8F08F00BF4FF6FE7640F6004BF6
:103D0000CEF6FF7600F4807801F001074FF0000A4C
:103D1000C5F6000B08E000BF2046FFF755F800BFCE
:103D20005FEA89607FF581AF2068A16D406A284015
:103D30000870A06D0130A0652068B4F85E100139EC
:103D4000A4F85E10D0F81C905FEA497131D05FEAA8
:103D5000C97218BFB8F1000F04D15FEA89720CD4A0
:103D600014E000BF01220262D4F8902042F0010268
:103D7000C4F890205FEA897208D53FB1022202623E
:103D8000D4F8902042F00402C4F89020002908D50D
:103D90003FB104210162D4F8900040F00200C4F861
:103DA0009000D4F8900020B12046FEF7A9FAC4F89C
:103DB00090A0B4F85E000028B2D1206850E8000F4F
:103DC000216820F4807041E80002FAB1206850E8D0
:103DD000000F216820F4807041E80002002A1FBF14
:103DE000206850E8000F216820F480701CBF41E873
:103DF0000002002A0AD0206850E8000F216820F451
:103E0000807041E80002002AD7D100BF206850E846
:103E1000020F2168304041E80202DAB1206850E820
:103E2000020F2168304041E80202002A1FBF2068CB
:103E300050E8020F216830401CBF41E80202002A0E
:103E400008D0206850E8020F2168304041E80202A3
:103E5000002ADBD12020C4F88C00C4F874A0C4F878
:103E600070A02068584502D0406800023AD4E06E45
:103E700001287FF451AFC4F86CA0206850E8000F0F
:103E8000216820F0100041E80002F2B1206850E8FB
:103E9000000F216820F0100041E80002002A1FBF37
:103EA000206850E8000F216820F010001CBF41E896
:103EB0000002002A09D0206850E8000F216820F095
:103EC000100041E80002002AD7D12068C169C90664
:103ED00001D510210162B4F85C102046FEF700FA0B
:103EE0001EE700BF206850E8000F216820F08060C6
:103EF00041E80002002ABAD0206850E8000F21688B
:103F000020F0806041E80002002A1FBF206850E8CE
:103F1000000F216820F080601CBF41E80002002AE9
:103F2000A5D0206850E8000F216820F0806041E8AB
:103F30000002002AD6D19AE781650023A0F85C2010
:103F4000A0F85E208168436751B1B1F1805F0BD06A
:103F5000B1F5805F0CD1016921B940F2FF110AE08F
:103F6000016939B9FF2106E0016919B13F2102E079
:103F7000002100E07F21A0F860100021C0F890101F
:103F80002221C0F88C10016851E8021FD0F800C04F
:103F900041F001014CE802130BB3016851E8021F24
:103FA000D0F800C041F001014CE80213002B1FBF04
:103FB000016851E8021FD0F800C041F001011CBFA8
:103FC0004CE80213002B0AD0016851E8021FD0F818
:103FD00000C041F001014CE80213002BD3D1416E27
:103FE000B1F1005F03D1B0F86810914240D9816807
:103FF000B1F5805F016907D1002947D043F6392127
:10400000C0F60001416706E043F639220029C0F6F8
:10401000000242673FD0016851E8001F026841F486
:10402000907142E80013002B00F0BE80016851E857
:10403000001F026841F4907142E80013002B1FBF7B
:10404000016851E8001F026841F490711CBF42E80A
:104050000013002B00F0A880016851E8001F0268DF
:1040600041F4907142E80013002BD4D19CE000BFD2
:104070008168B1F5805F016938D1002966D043F6C7
:104080000141C0F60001416736E000BF43F23951FB
:10409000C0F600014167016851E8001F026841F065
:1040A000200142E80013002B7ED0016851E8001F78
:1040B000026841F0200142E80013002B1FBF016895
:1040C00051E8001F026841F020011CBF42E80013C4
:1040D000002B69D0016851E8001F026841F02001FF
:1040E00042E80013002BD6D15EE000BF43F6014248
:1040F000C0F60002426779B3016851E8001F026808
:1041000041F4807142E8001333B3016851E8001FA5
:10411000026841F4807142E80013002B1FBF016860
:1041200051E8001F026841F480711CBF42E800138F
:10413000002B11D0016851E8001F026841F4807122
:1041400042E80013002BD7D106E000BF43F2017113
:10415000C0F60001416700BF016851E8021F026814
:1041600041F0805142E80213F3B1016851E8021FA7
:10417000026841F0805142E80213002B1FBF016822
:1041800051E8021F026841F080511CBF42E802134F
:10419000002B09D0016851E8021F026841F08051EC
:1041A00042E80213002BD7D1002070470000000026
:1041B0002DE9F041804600680D46C7693940491B2A
:1041C000B1FA81F14909914225D1069C34B31646D2
:1041D000611C29D1C1692940491BB1FA81F1490902
:1041E000B14218D1C1692940491BB1FA81F149098D
:1041F000B14201BFC1692940491BB1FA81F104BF35
:104200004909B14207D1C1692940491BB1FA81F17D
:104210004909B142DED00020BDE8F081FDF7ECFE97
:104220000320BDE8F08100BF1F4607E0C0692840B9
:10423000401BB0FA80F04009B042ECD1FDF7DCFE43
:10424000C01BA04200F2B680D8F800000168490700
:10425000ECD5402D18BF802DE8D0C169090700F1C9
:10426000AD80C1690905E1D54FF400610162D8F85C
:10427000000050E8000FD8F8001020F4907041E8DA
:10428000000222B3D8F8000050E8000FD8F8001060
:1042900020F4907041E80002002A1FBFD8F8000007
:1042A00050E8000FD8F8001020F490701CBF41E8CF
:1042B0000002002A0BD0D8F8000050E8000FD8F810
:1042C000001020F4907041E80002002ACFD14FF690
:1042D000FE70CEF6FF70D8F8001051E8021FD8F833
:1042E0000020014042E802130BB3D8F8001051E857
:1042F000021FD8F80020014042E80213002B1FBF24
:10430000D8F8001051E8021FD8F8002001401CBF67
:1043100042E80213002B0AD0D8F8001051E8021F1F
:10432000D8F80020014042E80213002BD3D1D8F87E
:104330006C0001282FD1D8F8000050E8000FD8F801
:10434000001020F0100041E8000222B3D8F800006D
:1043500050E8000FD8F8001020F0100041E80002EB
:10436000002A1FBFD8F8000050E8000FD8F800104E
:1043700020F010001CBF41E80002002A0BD0D8F842
:10438000000050E8000FD8F8001020F0100041E8BD
:104390000002002ACFD12020C8F88C000021C8F8E4
:1043A0006C10C8F87410C8F89000032088F88410C6
:1043B000BDE8F0810320BDE8F08100BF0821016263
:1043C000D8F8000050E8000FD8F8001020F49070E2
:1043D00041E8000222B3D8F8000050E8000FD8F8F6
:1043E000001020F4907041E80002002A1FBFD8F8A6
:1043F000000050E8000FD8F8001020F490701CBFA7
:1044000041E80002002A0BD0D8F8000050E8000F65
:10441000D8F8001020F4907041E80002002ACFD1B3
:104420004FF6FE70CEF6FF70D8F8001051E8021F6C
:10443000D8F80020014042E802130BB3D8F800106E
:1044400051E8021FD8F80020014042E80213002B77
:104450001FBFD8F8001051E8021FD8F80020014013
:104460001CBF42E80213002B0AD0D8F8001051E814
:10447000021FD8F80020014042E80213002BD3D1DC
:10448000D8F86C0001282FD1D8F8000050E8000FB0
:10449000D8F8001020F0100041E8000222B3D8F84C
:1044A000000050E8000FD8F8001020F0100041E89C
:1044B0000002002A1FBFD8F8000050E8000FD8F80B
:1044C000001020F010001CBF41E80002002A0BD0B1
:1044D000D8F8000050E8000FD8F8001020F01000C5
:1044E00041E80002002ACFD12020C8F88C0000202B
:1044F000C8F86C00C8F874000821C8F8901088F853
:1045000084000120BDE8F08140F22830C2F2004072
:10451000FDF7FABE00000000FEE70000000000000A
:1045200084B0FEF7C1FD46F6724642F26F0746F2CE
:1045300048554FF00A08C0F66456C6F65777C6F6D7
:104540006C456C462046CDE90268CDE90057FBF783
:104550006DFF81B22046FEF78BFD4FF47A70FDF7B8
:104560002FFDEFE70000000080B540F2DC000021E5
:10457000C2F20000FDF728FE002004210022FDF712
:1045800033FD002008210022BDE88040FDF72CBD4E
:1045900010B540F2DC040021C2F200042046FDF711
:1045A00043FD236841F60000C5F602004FF40061A8
:1045B000002246245C63BDE81040FDF715BD0000F5
:1045C000704700000000000080B500200421012297
:1045D000FDF70AFD002008210022BDE88040FDF71C
:1045E00003BD00000000000080B50020042101226E
:1045F000FDF7FAFC002008210022BDE88040FDF70D
:10460000F3BC00000000000010B540F2DC04002103
:10461000C2F200042046FDF707FD236841F60000C2
:10462000C5F602004FF40061012246245C63BDE838
:104630001040FDF7D9BC000040F2BC3040F2E73139
:10464000C2F200400180704740F2BC304FF4167156
:10465000C2F200400180704740F2BC304FF4487114
:10466000C2F200400180704770B540F2DC2405467C
:10467000C2F200440C212046FDF7D6FC206804213C
:1046800005642046FDF7D0FC206840F29026C2F277
:104690000046082185633046FDF7C6FC30680021DE
:1046A000C5633046FDF7C0FC3068082145632046ED
:1046B000FDF78AFD00212046FDF786FD0C213046DE
:1046C000FDF782FD04213046BDE87040FDF77CBD5A
:1046D00070B540F2DC240546C2F2004408212046B1
:1046E000FDF7A2FC20680021C5632046FDF79CFC75
:1046F000206840F29026C2F200460C214563304605
:10470000FDF792FC3068042105643046FDF78CFC0F
:1047100030680C2185632046FDF756FD04212046B4
:10472000FDF752FD08213046FDF74EFD00213046D1
:10473000BDE87040FDF748BD70B540F2DC24064688
:10474000C2F2004408212046FDF76EFC20680021DB
:10475000C6632046FDF768FC206840F29025C2F24F
:104760000045082146632846FDF75EFC28680021C5
:10477000C6632846FDF758FC28680C21466320468E
:10478000FDF722FD04212046FDF71EFD0C212846E1
:10479000FDF71AFD04212846BDE87040FDF714BD61
:1047A00070B540F2DC240646C2F200440C212046DB
:1047B000FDF73AFC2068042106642046FDF734FC2E
:1047C000206840F29025C2F200450C2186632846FD
:1047D000FDF72AFC2868042106642846FDF724FC1E
:1047E0002868082186632046FDF7EEFC002120465C
:1047F000FDF7EAFC08212846FDF7E6FC00212846E3
:10480000BDE87040FDF7E0BC70B540F2DC24082143
:10481000C2F200442046FDF7D7FC0C212046FDF7EC
:10482000D3FC40F290250821C2F200452846FDF74E
:10483000CBFC0C212846FDF7C7FC002120460026B2
:10484000FDF7C2FC04212046FDF7BEFC00212846EE
:10485000FDF7BAFC04212846FDF7B6FC40F2BC1077
:10486000C2F20000066070BDF1EE100A4FF6FF7153
:10487000C0F2C03120EA010040F04070E1EE100AC1
:1048800070470000B8480008000000241000000035
:1048900008030008B448000800000020C00500001C
:1048A00024030008C848000810000024B8050000D0
:1048B00024030008000000000100000010000000B8
:0848C0000090D0030090D0032A
:04000005080002CD20
:00000001FF
