:020000040800F2
:10000000500800202104000891930008A9850008E9
:100010008D930008FD28000805B7000800000000C7
:10002000000000000000000000000000259F000804
:10003000B129000800000000599C0008279F000813
:100040003B0400083B0400083B0400083B04000894
:100050003B0400083B0400083B0400083B04000884
:100060003B0400083B0400083B0400083B04000874
:100070003B0400083B0400083B0400083B04000864
:100080003B0400083B0400083B0400083B04000854
:100090003B0400083B0400083B0400083B04000844
:1000A0003B0400083B0400083B0400083B04000834
:1000B0003B0400083B0400083B0400083B04000824
:1000C0003B0400083B0400083B0400083B04000814
:1000D0003B0400083B0400083B040008F5B6000898
:1000E0003B0400083B040008000000003B0400083B
:1000F0003B0400083B0400083B0400083B040008E4
:100100003B0400083B0400083B0400083B040008D3
:100110003B0400083B0400083B0400083B040008C3
:100120003B0400083B0400083B0400083B040008B3
:100130003B0400083B0400083B0400083B040008A3
:1001400000000000000000000000000000000000AF
:100150003B0400083B0400083B0400083B04000883
:100160003B0400083B0400083B0400083B04000873
:100170003B0400083B0400083B04000800000000AA
:100180003B0400083B0400083B0400083B04000853
:100190003B0400083B0400083B0400083B04000843
:1001A0003B0400083B0400083B040008000000007A
:1001B0003B0400083B0400083B0400083B04000823
:1001C0003B0400083B0400080000000000000000A1
:1001D00000000000000000003B04000800000000D8
:1001E000000000000000000000000000000000000F
:1001F00000000000000000003B0400083B04000871
:100200003B0400083B040008000000003B04000819
:100210003B0400083B0400083B0400083B040008C2
:100220003B040008000000003B0400080000000040
:100230003B0400083B040008000000003B040008E9
:100240003B0400083B0400083B0400083B04000892
:100250003B0400083B0400083B0400083B04000882
:100260003B0400083B0400083B0400083B04000872
:100270003B0400083B0400083B04000800000000A9
:100280003B0400083B0400083B0400083B04000852
:10029000000000003B0400083B04000800000000D0
:1002A000000000003B0400083B040008C9A500084A
:1002B0003B0400083B0400083B0400083B04000822
:1002C0003B0400083B0400083B04000800F002F86F
:1002D00000F096F80AA090E8000C82448344AAF14A
:1002E0000107DA4501D100F08BF8AFF2090EBAE848
:1002F0000F0013F0010F18BFFB1A43F0010318475A
:1003000040C1000080C10000103A24BF78C878C105
:10031000FAD8520724BF30C830C144BF04680C600B
:10032000704700000023002400250026103A28BF53
:1003300078C1FBD8520728BF30C148BF0B60704757
:100340006E2900F04685702900F06F8266290BF057
:10035000548765290BF0518767290BF04E87612977
:100360000BF04D8703681B0A28BF41F08001692903
:1003700000F0E081642900F0DD81752900F0DA8168
:100380006F2901F04280782900F03B82E92900F0D2
:10039000DD87E42900F0DA87F52900F0D787EF2917
:1003A00001F03F80F82900F03A820368DB0928BF9A
:1003B00041F08001632900F05E87732900F06387B4
:1003C000E32901F06982F32901F06E820020704771
:1003D0001FB50BF00DFF9DE8030000F059FC01F084
:1003E0002FF80400002000210BF0D6FE401C6060B6
:1003F000002000210BF0E6FEE0601FBD10B510BD2F
:1004000001F0F0FA1146FFF7E3FF0BF01FFB01F0DC
:100410000EFB03B4FFF7F2FF03BC01F073FB000017
:100420000948804709480047FEE7FEE7FEE7FEE788
:10043000FEE7FEE7FEE7FEE7FEE7FEE704480549C4
:10044000054A064B70470000F19F0008CD020008E6
:1004500050060024500800205008002450000020BE
:1004600070B5064600F0F8FB056806F10B0020F0B9
:100470000704B4429CBF002070BD2B466A68BAB125
:100480001068A04210D304F1080188423CBF5068B4
:10049000586007D35168101941601168091B016049
:1004A00058601460101D70BD13465268002AE7D1D1
:1004B0002146284600F0D8FB0028DED170BD70B57B
:1004C0000446051F00F0C8FB0068002C14BF4468F8
:1004D00070BD002C18BFAC423CBF20466468F8D306
:1004E00001680A18AA4218BF456003D12A68054668
:1004F0001144016028684119A1421CBF6C6070BDA5
:100500006168696021680844286070BD53EA020C84
:1005100000F069802DE9F04B4FF00006002B1FBF63
:10052000B3FA83F503FA05F424FA05F65E4012BF28
:100530001643B2FA82F502FA05F4C5F120051EBF92
:1005400022FA05FC44EA0C04203556EA044C4FEA32
:10055000144418BF641C4FF000084FF0000990428B
:1005600071EB030C39D3002919BFB1FA81F701FAF5
:1005700007F6B0FA80F700FA07F6C7F120071EBFAA
:1005800020FA07FC46EA0C062037B6FBF4FCA7EB82
:100590000507103F07F01F0BCBF120060CFA0BFBF1
:1005A0002CFA06F644BFB3460026202FA4BF5E46B1
:1005B0004FF0000B5BEA060C08BF4FF0010B19EB84
:1005C0000B09ABFB027C48EB0608C01B06FB02CC08
:1005D0000BFB03CC71EB0C01C1E70B460246414615
:1005E0004846BDE8F08B13B54FF000004FF0000116
:1005F000AFF30080BDE81C40704700007CB51D468D
:1006000016460C00009001D02044401E074B7B444E
:100610002A4669460190304600F003FE05461CB1AB
:100620000020694600F010FE28467CBD410C000009
:100630000FB41CB5084B06AA7B4469460090059888
:1006400000F0EFFD04460020694600F0FDFD204665
:100650001CBC5DF814FB00000D0C00000FB47CB551
:100660000C0009AA009001D02044401E084B7B4496
:1006700069460190089800F0D4FD05461CB10020A1
:10068000694600F0E1FD28467CBC5DF814FB0000E3
:10069000E10B000070B5044685690068C10601D50C
:1006A000302600E02026C00707D070BDD4E9012124
:1006B00030469047206A401C20626D1EF6D570BD02
:1006C00070B5044685690078C00707D170BDD4E9CC
:1006D000012120209047206A401C20626D1EF6D523
:1006E00070BD70B50C460546012A05D028788006F5
:1006F00000D5EA69002302E0012305E05B1C934278
:1007000002D2E05C0028F9D1A869E618C01AA861F5
:10071000286A184428622846FFF7BCFF04E0D5E9A0
:10072000012114F8010B9047B442F8D32846FFF793
:10073000C7FF70BD2DE9F0410646002410687529F9
:10074000314616A510D000F0D9FA002802DA40424E
:1007500013A507E031688A0701D512A502E0490711
:1007600004D511A5012401E000F0D1FA00210A22EC
:1007700006F1240709E0B0FBF2FCB0FBF2F302FB48
:100780001C00303078541846491C0028F3D1234609
:100790002A463046BDE8F04100F0C2BA0000000031
:1007A0002D0000002B00000020000000F0B40D46DA
:1007B0000188090502D5214C7C4402E01F4C7C4491
:1007C0000E34002100F1240608E002F00F071209A0
:1007D000E75D42EA03721B097754491C52EA03079A
:1007E000F3D102780023120704D5702D06D009B189
:1007F000022311342246F0BC00F092BA01231034D7
:10080000F8E770B504460D462146106800F07FFAFF
:10081000024629462046BDE870400023C6E7D21DA7
:1008200022F00703D3E90023C0E70368126843F00E
:10083000200303600823C3610023B7E73EBB000029
:100840002DE9F05F894604464FF0000ADFF874B1E5
:10085000FB44C0F820A02046E1688847002874D0F7
:10086000252806D0D4E901219047206A401C206247
:10087000F1E700265F462046E168884720280546C4
:1008800007DB312D05D2781910F8200C08B106438A
:10089000F1E7B00701D526F00406C4F81CA0002734
:1008A000C4F818A02A2D09D028460AF06DFF38B3E5
:1008B00004EB8708303DC8F8185019E059F8041BBC
:1008C000204604EB87029161E1688847012F0546C5
:1008D00018D1E069002820DA26F020061DE0D8F8BB
:1008E000180000EB800005EB40003038C8F8180015
:1008F0002046E168884705460AF046FF0028EED109
:10090000012F0AD02E2D08D12046E16888477F1C90
:100910000546022F46F02006C4DBA069002803DA52
:10092000404246F00106A061F00701D026F0100613
:100930006C2D0BD0682D09D04C2D39D06A2D35D0B7
:10094000742D35D07A2D33D016E038E0E1682F468B
:1009500020468847B842054609D16C2F26D04FF46F
:100960008060E168064320468847054604E06C2F16
:100970001AD04FF4807006430DB3A5F14100192839
:1009800002D8203546F400664A46294620462660AD
:100990004E46FFF7D5FC80B101280BD0F61D26F09E
:1009A000070000F1080956E74020E4E78020D8E777
:1009B0000020D6E706F104094DE7284652E7206AF1
:1009C000BDE8F09FCEBA0000401ECAB210F8011F69
:1009D0008A4202D00029F9D10020704710B5431E89
:1009E00013F8014F002CFBD105E011F8014B002C4E
:1009F00003F8014B03D0521EF7D20021197010BD2D
:100A000030B505460B462A4613F8014B12F8010B88
:100A100008B1A042F8D01CB1002802D06D1CF1E74B
:100A2000284630BD40EA0103024630B59B0710D18D
:100A30004FF0013400E008C208C91D1B9D4315EAB0
:100A4000C41FF8D013F0FF0102F8011B0DD01B0AE0
:100A5000F8E711F8013B002B02F8013B05D011F833
:100A6000013B002B02F8013BF3D130BD10B5431C14
:100A700002E010F8011B71B18107FAD14FF0013289
:100A800002C88C1A8C4314EAC211F9D0C01A0A06A3
:100A900003D0C01E10BDC01A10BD0A0401D0801EB4
:100AA00010BD0902FCD0401E10BD421E12F8013FCD
:100AB000002BFBD111F8013B002B02F8013BF9D1CF
:100AC0007047032A40F2308010F0030C00F01580CC
:100AD00011F8013BBCF1020F624498BF11F801CB41
:100AE00000F8013B38BF11F8013BA2F1040298BFA6
:100AF00000F801CB38BF00F8013B11F0030300F010
:100B00002580083AC0F0088051F8043B083A51F8B3
:100B100004CBA0E80810F5E7121D5CBF51F8043BB8
:100B200040F8043BAFF30080D20724BF11F8013B2B
:100B300011F801CB48BF11F8012B24BF00F8013B8D
:100B400000F801CB48BF00F8012B704710B5203AE0
:100B5000C0F00B80B1E81850203AA0E81850B1E876
:100B60001850A0E81850BFF4F5AF5FEA027C24BF2C
:100B7000B1E81850A0E8185044BF18C918C0BDE823
:100B800010405FEA827C24BF51F8043B40F8043BEC
:100B900008BF7047D20728BF31F8023B48BF11F8A1
:100BA000012B28BF20F8023B48BF00F8012B7047FB
:100BB0004FF000020429C0F0128010F0030C00F086
:100BC0001B80CCF1040CBCF1020F18BF00F8012B04
:100BD000A8BF20F8022BA1EB0C0100F00DB85FEAD2
:100BE000C17C24BF00F8012B00F8012B48BF00F89E
:100BF000012B70474FF0000200B51346944696460D
:100C0000203922BFA0E80C50A0E80C50B1F120011F
:100C1000BFF4F7AF090728BFA0E80C5048BF0CC0CD
:100C20005DF804EB890028BF40F8042B08BF70472B
:100C300048BF20F8022B11F0804F18BF00F8012B9D
:100C4000704770477047704710B500F0F9FB001D02
:100C500010BD00BF45B5000000487047F4050024F2
:100C6000704770477047704738B504460A46002001
:100C70006946AFF30080002808BF38BD02460099DE
:100C8000204600F0E1FB012038BD012000F0A2BEAB
:100C9000F8B5AFF30080054600200C46102000BFD9
:100CA0000646A819A0420DD9324669460020AFF386
:100CB0000080070008BF00F08DFE0098A04218BF1A
:100CC0000546C419FFF7C8FF05600746F01D20F070
:100CD00007004619284600F00AF8B44208BFF8BDDC
:100CE000A21B31463868BDE8F84000F0ADBB0021DA
:100CF0000160C0E9011070471020704709684A057B
:100D000001D540B27047C905FCD500B270470968EB
:100D10004A0501D5C0B27047C905FCD580B27047FD
:100D20002DE9F0470D4699469246044600F1240805
:100D30000168880604D5E06921F01001216000E017
:100D40000120A84201DD471B00E00027A1697A19B4
:100D500002EB0900081AA0612078C00602D42046E0
:100D6000FFF798FC002608E0D4E901211AF80600F4
:100D70009047206A401C761C20624E45F4DB2078A8
:100D8000C0060AD52046FFF785FC06E0D4E901211C
:100D900030209047206A401C2062381EA7F10107CE
:100DA000F4DC07E0D4E9012118F805009047206A37
:100DB000401C2062281EA5F10105F3DC2046FFF748
:100DC0007FFC2078000602D50220BDE8F0870120D4
:100DD000FBE711680268006A530501D508700AE054
:100DE000D30501D5088006E0130603D5C217C1E973
:100DF000000200E008600120704770472DE9FF4FB6
:100E00000C461E464FF0FF378BB0D2E90001DDF8EB
:100E100060800A908A46C1F30A5505B93D46002113
:100E200008464FF00000BAF1000F00F4400005DA68
:100E300000EB80004FF4400101EA50004FEA905966
:100E4000B9F1010F00DDB9460A9850EA4A000ED008
:100E500044F61050A5F2FF3545432F14B8F1000FAA
:100E60001ED07542291E1EDDC9F100021CE0B8F13A
:100E7000010F4FF0000001D0302103E0F24305E004
:100E80002154401CB042FBDB30460022002121549B
:100E90000B99C1F80880C1E900200FB0BDE8F08FC0
:100EA000BD1B6D1CDEE74A4600DA694206A800F069
:100EB000FFFC06AB93E8070003AB83E8070050464E
:100EC0000A9900F045FE8DE80700A0F500501F3894
:100ED00000900398002D0ADD42F21F014A460844A3
:100EE000002303A90390684601F0AEF809E0A0F5DD
:100EF00000504A461F38002303A90390684601F0BA
:100F0000B8F88DE807000004000C03D04FF0FF3064
:100F1000410800E01046B8F1000F03D00022009213
:100F200015461EE0751E05D400F0A8FA3032625551
:100F30006D1EF9D5B3460122084302D000227F1C62
:100F400004E02078302801D100227F1E002A099772
:100F500084D01DE0112D07DA00F090FA303262558E
:100F60006D1C50EA0102F5D1084302D00098C8B1C7
:100F70000EE00021681E05E0235C625C635422548D
:100F8000401E491C8142F7DBAB46A81B401E09905E
:100F9000002004F80B000B98099AC0F80880C0E9FB
:100FA000002B7AE711264FF0000857E72DE9F04FA4
:100FB00088460446D21D22F0070191B0D1E9000114
:100FC000CDE90A010AF0ACFB02460B98C00F01D034
:100FD0002D2007E02068810701D52B2002E0202189
:100FE00001EAC000032A099001D0072A05DB034665
:100FF0004146204600F006FC0BE12078800601D532
:10100000E06900E00620B8F1650F814606D0B8F12E
:10101000660F18D0B8F1670F70D131E00020B9F138
:10102000110F009001DB112301E009F101030AAA6D
:1010300001A90CA8FFF7E2FEDDE90C70002609F11A
:101040000105834647E001204B4600904FF00047E2
:101050000AAA01A90CA8FFF7D1FEDDE90DB00C9991
:101060005D46002610B909F101000D18B9EB050025
:1010700003D4C0F1FF3609F10105A5EB09002BE00F
:10108000B9F1010F01DA4FF001090020B9F1110F98
:101090000090484601DD112300E003460AAA01A999
:1010A0000CA8FFF7ABFEDDE90C704D460026834629
:1010B000207800070AD4AB4500DA5D4601A8012D6F
:1010C00004DD411911F8011C302907D04F4502DA1F
:1010D00017F1040F04DA012082460FE06D1EEEE7DF
:1010E000002F02DCED1B3E4403E0781CA84200DD2B
:1010F0007D1CB81B00F1010A4FF000472078000763
:1011000003D4AA4501DB4FF0FF3A0021B7F1004FAD
:101110000DF143088DF8431024D002202B23002F1B
:1011200001DA7F422D230A21021EA0F1010000DC1A
:101130005FB197FBF1FC97FBF1F201FB1C7C1746BA
:101140000CF1300C08F801CDEEE7A8F101000370B6
:101150002188090501D5452100E06521A0F101089C
:1011600000F8011C09980FA9A1EB0807FF1D00B1A9
:101170000120411901EBEA70A1693844081A401EA8
:10118000A0612078C00602D42046FFF783FA0998B0
:1011900028B1D4E901219047206A401C20622078C0
:1011A000C00622D52046FFF775FA1EE0002E04DBAC
:1011B000B34502DD01A8805D00E03020D4E90121C3
:1011C0009047206A401C2062761CAAF101005FEA69
:1011D000000A0AD100F034F9C0680168405CD4E923
:1011E00001219047206A401C2062281EA5F10105BC
:1011F000DCDC07E0D4E9012118F8010B9047206AF4
:10120000401C2062381EA7F10107F3DC2046FFF7DF
:1012100057FA032011B041E601694A1C02610878BF
:10122000704700B58FB0CDE9013100210591054926
:101230007944CDE9031011466846FFF701FB0FB072
:1012400000BD0000E5FFFFFF0A6802F8010B0A601D
:101250007047D1E900239A4202D2531C0B601070F0
:10126000704710B5436913B1AFF3008001E0FFF799
:1012700038FA012010BD127800F124010A70002212
:101280004A700122EDE711684FF0FF32E9E70000F4
:101290002DE9FF5F15468A460446DFF8AC80F84426
:1012A0000027D8E900103E46CDE9001010E03AF8DA
:1012B00016106A4602A800F06DFB411C07D0217889
:1012C000890603D5E269391891420DD80744761C86
:1012D0002078800602D5E069B84205DDAE42E6DB43
:1012E0003AF816000028E2D1A069C01BA061204690
:1012F000FFF7D0F9D8E90010CDE90010002017E081
:101300003AF818106A4602A800F044FBB0F1FF3F1B
:1013100081460BD000250DF1080B05E0D4E9012131
:101320001BF8050090476D1C4D45F7D308F10100EF
:10133000B0428046E4DB206A384420622046FFF752
:10134000BFF9BDE8FF9F000092B000002DE9F04119
:101350008046D21D22F007020025D2E90002F529BD
:1013600015A614D0011E72F1000106DA0023D0EB9D
:10137000030063EB020211A608E0D8F800108B0707
:1013800001D50FA602E0490701D50EA60125114699
:10139000002408F1240704E000F070F830323A55D8
:1013A000641C50EA0102F7D12B46324621464046E2
:1013B000BDE8F041FFF7B4BC000000002D000000C4
:1013C0002B0000002000000030B4002100F12404B4
:1013D00008E002F00705D208303542EA4372DB0824
:1013E0006554491C52EA0305F3D10468002310A296
:1013F000250707D5A40600D421B1C46901230DA295
:10140000641EC46130BCFFF78BBC10B50446214696
:101410001068FFF77CFC02462046BDE81040002320
:10142000D2E7D21D22F00701D1E90023CCE700006A
:10143000000000003000000000487047EC05002468
:10144000004870470C060024034640688C4600287C
:1014500018BF88423CBF03464068F8D31868184458
:10146000884207D00CF1030020F00700001D411A4C
:10147000521A0146081D0A60FFF721B830B5B0F1D5
:101480000A024FEA900E71F100034EEA817EB0EB42
:101490000E0061EB91014FEA101E4EEA017E10EB47
:1014A0000E0041EB11114FEA102E4EEA016E10EBC7
:1014B0000E0041EB11214FEA104E4EEA014E10EBA7
:1014C0000E0041EB1141401841F100014FEAD000FC
:1014D00040EA41704FEAD10110EB80054FEA8104E8
:1014E00044EA907444EB01046D1944EB0404521B6C
:1014F000A3414FF0000348BF0A3200D530BD401C65
:1015000041F1000130BD00002DE9F04F04460D46C9
:10151000D21D22F0070089B0D0E90097484639462D
:101520000AF0FEF80246F80F01D02D2307E02068EC
:10153000810701D52B2302E0202101EAC0038DF8A9
:1015400020300BB1012000E00020032A824601D0A8
:10155000072A04DB2946204600F054F93FE12078B1
:10156000800601D40D2500E0E569C7F30A560D2D6C
:1015700049DA00214FEA175B08464FF00000002FC0
:1015800000F4400007DA00EB80004FF4400100EB6C
:10159000D07001EA60008115012901DD4FF0FF31B3
:1015A00000224FEA850CBCF1180F06D31346ACF1AC
:1015B00018004FF08052C24003E04FF4801323FA2A
:1015C0000CF30CF10C0CBCF1200F04D3ACF1200C8B
:1015D00009FA0CF001E007FA0CF000294FF000487E
:1015E00001DD18B90FE00ED140450CD319EB02090B
:1015F0005F4121B9404502D19F4329EA0209BBEB73
:10160000175F00D0761C2088000502D57B487844FF
:1016100002E07A487844193808AA302302F80A30E0
:10162000037C0AF10101002E0AF1020A53546A46B2
:1016300002DC4FF0300101E04FF031014FF00108C2
:101640008DF8001002D0A6F2FF3603E059EA4701F8
:1016500000D06B4E002D02DC2178090704D54FF035
:1016600002082E218DF80110C44600210BE0C7F3BB
:1016700003433F01C35C491C6D1E02F80830052975
:1016800008F1010801DA002DF1DC00210CE000EB8B
:101690001973491C1B786D1E082902F808304FEA9F
:1016A000091908F1010801DA002DF0DC21688B0628
:1016B00002D516E0A8F10108E04505DD02EB0803BC
:1016C00013F8013C302BF5D0B8F1000F09DD02EB27
:1016D000080313F8013C2E2B03D1090701D4A8F10C
:1016E0000108002D05DD3E2102F808106D1E08F1ED
:1016F0000108407C002E02F8080008F1010804DA15
:101700002D20764202F8080002E02B2002F80800A3
:101710000A214FF47A70864208F101080BDB96FB30
:10172000F0F3303302F8083096FBF0F308F10108CB
:1017300000FB136601E0642E0CDB642096FBF0F3E3
:10174000303302F8083096FBF0F308F1010800FB93
:10175000136601E00A2E06DB96FBF1F0303002F84A
:10176000080008F1010896FBF1F001FB1060303031
:1017700002F80800A16908F1010808EB050202EB74
:101780000A00081AA0612078C00602D42046FEF79D
:1017900081FF216A08AE01EB0A00206204E0D4E96F
:1017A000012116F8010B9047BAF1010AF7D220780F
:1017B000C00602D52046FEF76DFF6E4609E016F81A
:1017C000010B3E280FD0D4E901219047206A401C2C
:1017D0002062B8F10108F2D22046FEF771FF09B08D
:1017E0000320BDE8F08F206A2844206203E0D4E99A
:1017F0000121302090476D1EEBD3F8E73DAD00008E
:1018000002FCFFFF2DE9F0411F4604460326016854
:10181000072A01F4006004DB08B116A505E016A54F
:1018200003E008B115A500E015A521F01000206027
:10183000A069C01EA0610FB1401EA0612046FEF746
:1018400029FF4FB1D4E9012138469047206A401C56
:101850002062C01C206206E0206AFAE7D4E9012178
:1018600015F8010B9047761EF8D22046FEF728FFA8
:10187000BDE8F0814E414E006E616E00494E46005B
:10188000696E660010B5436913B1AFF3008001E0E3
:10189000FFF7FEFC012010BD128800F124018284B4
:1018A0000022C2840122EDE711684FF0FF32E9E720
:1018B0002DE9F047814616468AB0354878440DC870
:1018C0008DE80D0032487844801C03AC0DC884E8D4
:1018D0000D0041F69B300844372190FBF1F290FB5C
:1018E000F1F5A5F1800501FB12041B3C02D5644211
:1018F000012000E00020DFF898A080460027FA448D
:10190000AAF1BE0A0EE0E0070AD03246684607EBAD
:10191000470101230AEB810100F0ABFB8DE80700D2
:1019200064107F1C002CEED1194F7F44AE3F19E0AC
:10193000E80715D007EB04100DF1180A90E80E0027
:101940008AE80E00C068F04201D19819089032462A
:10195000012306A903A800F08CFB03AB83E8070072
:101960006D10641C002DE3D14FF00103324669462F
:10197000B8F1000F03A802D000F066FB01E000F010
:1019800078FBC9E90001C9F808200AB0BDE8F08772
:1019900020AB000070B516460C460546FFF754F91B
:1019A000036893F80101012806D0FF2C0FD8185DB9
:1019B00068B101202C7070BDD3F807013246214672
:1019C00003F2071303442846BDE8704018474FF060
:1019D000FF3070BD10B500F039F8BDE8104000F0E0
:1019E0002FB870477546FFF727FDAE4605006946DC
:1019F000534620F00700854618B020B5FEF71EFDBF
:101A0000BDE820404FF000064FF000074FF00008FF
:101A10004FF0000B21F00701AC46ACE8C009ACE880
:101A2000C009ACE8C009ACE8C0098D46704710B5E4
:101A30000446AFF300802046BDE81040FEF7E9BC45
:101A4000002801D000F05EB87047000010B50128F2
:101A500005D0002103A000F05BF8012010BD09A112
:101A6000F8E7000053494752544D454D3A204F7511
:101A700074206F662068656170206D656D6F727986
:101A8000000000003A2048656170206D656D6F723E
:101A90007920636F72727570746564004FF0013C59
:101AA00050F8042B51F8043B9A4215D1A2EB0C03D9
:101AB000934313EACC130BD150F8042B51F8043B99
:101AC0009A4209D1A2EB0C03934313EACC13E7D05B
:101AD0004FF00000704700BFD01A01BAB1FA81F18F
:101AE00001F0180122FA01F0CB40C1F12001DBB274
:101AF000C0B2C01A2CFA01F3D11A914311EAC311F2
:101B0000E6D1704701491820ABBEFEE7260002006F
:101B100070B505460C460A2000E06D1C00F011F877
:101B200035B128780028F8D102E0641C00F009F8EB
:101B300014B120780028F8D1BDE870400A20AFF336
:101B4000008008B569468DF800000320ABBE08BDD3
:101B50005FEA400C08BF91F0000F4FEA8C234FEA78
:101B6000C12243EA51514FEA1C5018BF00F5F04022
:101B70004FEA300018BF41F000415FEA6C5C00F0B2
:101B80002980BCF1FF3F08BF40F080407047130C34
:101B900006BF12044FF0100C4FF0000C130E04BFE0
:101BA00012020CF1080C130F04BF12010CF1040C0B
:101BB000930F04BF92000CF1020CD30F04BF52002C
:101BC0000CF1010C11464FF00002A0F11F00A0EB38
:101BD0000C00704711F0004F08BF704731F0004112
:101BE0003FF4D5AF0B0C06BF09044FF0100C4FF0BB
:101BF000000C0B0E04BF09020CF1080C0B0F04BF04
:101C000009010CF1040C8B0F04BF89000CF1020CCC
:101C1000CB0F04BF49000CF1010CCCF12003A0EB69
:101C20000C0022FA03F302FA0CF241EA030100F17C
:101C30000100704720F07F4C80EA030023F07F47CB
:101C4000ACEB070303F57C5300F0004003F1FF0306
:101C50002DE980494FEA154B09B44FEA144325EAB0
:101C60000B4E24EA03480FF2042606EB132749081B
:101C70003E785FEA320203FB0667C7F5000707FB01
:101C800006F64FEA54374FEAD64606F1020607FB3E
:101C9000066CCCF1005C4FEA1C472CEA074C07FBB2
:101CA00006F40CFB06F504EB15464FEA961634BF16
:101CB00000204FF000404FEAD13706FB07FC4FEA07
:101CC0001C4C0CFB0BF7D21B03FB0CF761EB070161
:101CD0000CFB0EF7B0EB074072EB17420CFB08F75A
:101CE00034BFA2EB0742B2EB074261EB17414FEA68
:101CF0000C444FEA910706FB07FC4FEA1C4C0CFB17
:101D00000BF7B0EBC74072EB573203FB0CF734BF55
:101D1000A2EBC742B2EBC74261EB57310CFB0EF7A7
:101D2000B0EBC70072EB57720CFB08F734BFA2EBA5
:101D3000C702B2EBC70261EB5771039F4FEA8161A3
:101D400041EA921104EBCC044FEAD1374FEA8262A8
:101D500006FB07FC42EA90124FEA80604FEA1C4CF7
:101D60000CFB0BF7D21B03FB0CF761EB07010CFB21
:101D70000EF7B0EB074072EB17420CFB08F734BFCD
:101D8000A2EB0742B2EB074261EB17414FEA8C55D9
:101D90004FEA910704EB9C2406FB07FC4FEA1C4C1E
:101DA0000CFB0BF7B0EBC74072EB573203FB0CF7A1
:101DB00034BFA2EBC742B2EBC74261EB57310CFB19
:101DC0000EF7B0EBC70072EB57720CFB08F734BF8D
:101DD000A2EBC702B2EBC70261EB577115EB4C25C2
:101DE0004FEA816141EA92114FEA82624FEAD137AC
:101DF00042EA901206FB07FC44F100044FEA8060BF
:101E00004FEA1C4C0CFB0BF7D21B03FB0CF761EBEE
:101E100007010CFB0EF7B0EB074072EB17420CFB0F
:101E200008F734BFA2EB0742B2EB074261EB174160
:101E300015EB1C154FEA813141EA92414FEA82329B
:101E400042EA90424FEA80304FEA0C7644F10004B7
:101E500048EA03434EEA0B484FF0000EB2EB080C81
:101E600071EB030724BF624639464EEB0E0E4FF06E
:101E7000000B0018524149414BEB0B0BB2EB080C25
:101E800071EB03077BF1000B24BF624639464EEB32
:101E90000E0E4FF0000B0018524149414BEB0B0B5B
:101EA000B2EB080C71EB03077BF1000B24BF624619
:101EB00039464EEB0E0E51EA020718BF46F00106F6
:101EC00016EB0E7655F1000254F1000103D5BDE882
:101ED0008901BDE80088BDE88901BDE80048B61960
:101EE000524141EB0101A3F10103704780807F7EE5
:101EF0007D7C7B7A79787776767574737271717080
:101F00006F6E6E6D6C6C6B6A6A6968686766666531
:101F10006464636362616160605F5F5E5E5D5D5CBF
:101F20005C5B5B5A5A595958585757565655555530
:101F30005454535352525251515050504F4F4F4E90
:101F40004E4D4D4D4C4C4C4B4B4B4A4A4A494949DE
:101F50004848484747474746464645454544444420
:101F6000444343434342424242414141002B9C4649
:101F700030D477002BD01CB54FEA370703B44FF0AD
:101F800010004FF01001BAF1000F06D0BCF1000FA5
:101F9000DCBF40F0080040F008014FF000000FBC2B
:101FA000BDE810400BF1010BBBF1010F08BF5FEA68
:101FB000170722BF12F1010211F101014FF0004198
:101FC00043F1000300F0004043EA00007047F9D3FA
:101FD0005708D0E746EA064613F1400F4FEA164687
:101FE0001FDD13F1200FDFBF16430A460021203307
:101FF0005B42BED0C3F1200746EA064602FA07F765
:102000004FEA164646EA0706C3F1200722FA03F212
:1020100001FA07F721FA03F14FF0000342EA070241
:10202000A7E746EA020646EA06464FEA164646EAA9
:102030000106BCBF46EA0646360C4FF000034FF0DF
:1020400000024FF0000194E72DE9804C9A46934638
:1020500070B491E8380007C831EA400C48BF34EA50
:10206000430C03D5FFF7E6FDFFF780FFF0BCBDE8AA
:10207000008C2DE9804C9A46934670B491E8380064
:1020800007C810F0804F08BF13F0804F03D100F055
:1020900005F8FFF76BFFF0BCBDE8008C20F07F4730
:1020A00080EA030023F07F4C07EB0C03A3F57C537D
:1020B00000F00040A3F1FE0392F0000F00F0B380A7
:1020C00095F0000F00F077802DE901494FEA1140AB
:1020D0004FEA144621EA004800FB06FC24EA0647C2
:1020E00008FB06F607FB08F800FB07F718EB0648A5
:1020F0004CEB164C4FEA124B18EB07484FEA1546CB
:102100004CEB174022EA0B4E0BFB06FC25EA064778
:102110000EFB06F607FB0EFE0BFB07F71EEB064E4B
:102120004CEB164C4FF000061EEB074E4CEB174BDA
:1021300018EB0B0840F1000018EB0E0B58EB0008F1
:1021400040F100008F1A4FF000013CBFC943661BED
:1021500014BFB5EB040C00213CBFC943F61B4FEA8A
:1021600017444EEA8E0E27EA04454FEA1C4704FB4B
:1021700007622CEA074C05FB07F70CFB05F604FB8E
:102180000CFC16EB074642EB174216EB0C4642EBF3
:102190001C421BEB060658EB0202414146EA9E0632
:1021A00001D5BDE80189B619524141EB0101A3F106
:1021B0000103BDE801894FEA14454FEA114724EABB
:1021C000054621EA074C05FB07F406FB07F70CFB65
:1021D00006F105FB0CFC11EB074144EB17444FEAF9
:1021E000124711EB0C4144EB1C4422EA074C05FB5F
:1021F00007F206FB07F70CFB06F605FB0CFC16EBDB
:10220000074642EB174216EB0C4642EB1C456A1898
:1022100054F1000148BF7047B619524141EB01012A
:10222000A3F10103704795F0000F37D04FEA114238
:102230004FEA144721EA024624EA074C02FB07F161
:1022400006FB07F70CFB06F402FB0CFC14EB07443F
:1022500041EB17414FEA154714EB0C4441EB1C418D
:1022600025EA074C02FB07F506FB07F70CFB06F611
:1022700002FB0CFC16EB074645EB174516EB0C462C
:1022800045EB1C42121951F1000148BF7047B619C5
:10229000524141EB0101A3F1010370474FEA14459C
:1022A0004FEA114724EA054621EA074C05FB07F1EE
:1022B00006FB07F70CFB06F24FF0000605FB0CFCD3
:1022C00012EB074241EB174112EB0C4251EB1C4160
:1022D00048BF7047921841EB0101A3F10103704719
:1022E00070B5044643492068884203D042492068BB
:1022F000884208D14148006800F4403008B101200C
:1023000009E0002007E03E48006800F4403008B1D2
:10231000012000E00020B8B104F0FCF90546606837
:10232000B0F5803F06D0B0F5003F04D0B0F5403F97
:1023300008D105E000BF6068000CB5FBF0F502E0D5
:10234000AD0800E000BF2BE04FF40020002102F0B8
:1023500017FE05466068C0F31101F9B980140C2816
:102360001CD2DFE800F01B060708090A0B11131541
:10237000171900BF00BF00BF00BF00BF6068800C1E
:102380004000B5FBF0F50AE02D0908E06D0906E014
:10239000AD0904E0ED0902E02D0A00E000BF00BF36
:1023A0006D081848854206D82068806820F440707F
:1023B000216888601DE01448854208D8206880683C
:1023C00020F4407040F480702168886011E00F486C
:1023D000854208D82068806820F4407040F400707E
:1023E0002168886005E02068806840F440702168BA
:1023F000886070BD00200240002102400823024096
:1024000008630258105E5F0020BCBE0040787D016A
:1024100070B50446206806F0E9F8002851D120681C
:1024200080682949084048B1206E40F010002066BD
:10243000606E40F001006066012070BD206806F00B
:10244000B5F802F02DF90546204A2168914203D0E3
:102450001F4A2168914201D11E4900E01E490846E9
:1024600006F0B1F806461A492068884201D117489B
:1024700000E020682168884200D00EBB1AE0206886
:1024800006F0B4F810B9206806F090F802F008F9E8
:10249000401B02280ED92068006800F0010048B9EE
:1024A000206E40F010002066606E40F00100606613
:1024B0000120C2E72068006800F001000028DED09B
:1024C00000BF0020B9E700003F000080002002406C
:1024D00000210240002302400063025810B5084862
:1024E00001F0F8FA3221064801F042FA28B904480E
:1024F00001F040F884B2204610BD0020FCE7000047
:102500008C00002410B5044609F03AFD20783028EC
:1025100004D109F015FE09F055FB3BE02078312885
:1025200004D11D48008809F06FFD33E0207832287F
:1025300004D11948008809F033FD2BE020783328B6
:1025400004D11548008809F093FD23E02078342851
:1025500004D11148008809F0BFFD1BE02078352820
:1025600002D109F05FFB15E02078362804D109F08C
:1025700063FB09F06FFB0DE0207837280AD0207844
:10258000382802D109F074FB04E02078392801D101
:1025900009F034FB10BD0000080000202DE9F047D1
:1025A000074689469046DDF820C00021002200241D
:1025B00000260025002004460246014645E000268C
:1025C00001E0491C761C614502D2585C2028F8D0F5
:1025D000614500D13BE0ACEB0100022807D3585C19
:1025E0000D2804D1481C185C0A2800D12CE0585C46
:1025F0000A2800D128E01EB16FF02B00BDE8F0875B
:10260000585C3D2806D1601C0446022802D96FF0B0
:102610002B00F3E7585C7F2806DC585CDFF8E4A069
:102620001AF800007F2802D16FF02B00E6E7585C13
:10263000DFF8D0A01AF80000402803DA14B16FF0D8
:102640002B00DBE7521C00BF491C6145B7D300BF1C
:102650001AB90020C8F80000D0E7D00800EB40000D
:102660004FEA400A02F0070000EB40004000C01DA6
:102670000AEBD002121B0FB1914504D2C8F800201A
:102680006FF02900BAE703240020064602463D46C3
:1026900031E018780D2805D018780A2802D018786B
:1026A000202800D125E01878DFF858A01AF800009B
:1026B000402801D1012000E00020241A1878DFF81A
:1026C00044A01AF8000066F39F100646501C02460C
:1026D00004280DD1002214B1300C05F8010B012C97
:1026E00002D9300A05F8010B022C01D905F8016B5B
:1026F00000BF491E5B1C0029CBD1E81BC8F80000B5
:1027000000207BE77AC200082DE9F04F0746894692
:10271000099C00250026AC46A846AA4600211CB903
:1027200000201060BDE8F08F0320B4FBF0F04FF004
:10273000030BB4FBFBFE0BFB1E4BBBF1000F02D0E7
:102740004FF0010B01E04FF0000B00EB0B06B6F170
:10275000804F05D34FF0FF3010606FF02900E1E7A4
:10276000B600701C814500D327B9701C10606FF053
:102770002900D7E70320B4FBF0F000EB400600256A
:10278000394629E013F801CB13F8018B13F801AB9C
:102790002D484FEA9C0B10F80B0001F8010B4FEA93
:1027A0000C1000EB281000F03F00DFF89CB01BF885
:1027B000000001F8010B4FEA880000EBAA1000F0BE
:1027C0003F001BF8000001F8010B0AF03F001BF866
:1027D000000001F8010BED1CB542D3D3A5422DD268
:1027E00013F801CB681CA04202D213F8010B00E0E1
:1027F000002080461448CCF3850B10F80B0001F83C
:10280000010B4FEA0C1000EB281000F03F00DFF83E
:1028100038B01BF8000001F8010B681CA04207D279
:102820003F2000EA88001BF8000001F8010B02E0DD
:102830003D2001F8010B3D2001F8010BC81B106081
:102840000020087000BF6DE73AC2000810B50446CA
:1028500009F09EFB2078302802D109F071FC4AE093
:102860002078312804D12448008809F0CDFB42E0CB
:102870002078322804D12048008809F091FB3AE002
:102880002078332804D11C48008809F0F1FB32E09D
:102890002078342804D11848008809F01DFC2AE06B
:1028A0002078352802D109F0BDF924E020783628B7
:1028B00004D109F0C1F909F0CDF91CE020783728DE
:1028C0000ED109F09BF94FF47A7001F0D7FD09F0B1
:1028D00037FC4FF47A7001F0D1FD09F0A3F90AE05A
:1028E0002078382802D109F0C3F904E0207839288B
:1028F00001D109F083F910BD0800002000BFFEE7F8
:1029000010B5044609F034FB2078302802D109F0D4
:1029100017FC4AE02078312804D12448008809F0C7
:1029200073FB42E02078322804D12048008809F067
:1029300037FB3AE02078332804D11C48008809F09E
:1029400097FB32E02078342804D11848008809F039
:10295000C3FB2AE02078352802D109F063F924E08E
:102960002078362804D109F067F909F073F91CE0E2
:10297000207837280ED109F041F94FF47A7001F030
:102980007DFD09F0DDFB4FF47A7001F077FD09F071
:1029900049F90AE02078382802D109F069F904E001
:1029A0002078392801D109F029F910BD080000204C
:1029B0007047000010B54FF400710348FEF7F8F8B7
:1029C00000200249088010BDEC03002418000024F8
:1029D00070B50546002400BF00F034F980B90DA1A0
:1029E0000E48FEF70DF8044654B13A212046FDF793
:1029F000EBFF044614B1641C204670BD0020FCE7C8
:102A00000A2001F03BFD281EA5F101018DB2E3D1A2
:102A100000BFF2E74950442C00000000EC03002402
:102A200010B5FFF7C7FF28A1294805F00DFC03E00A
:102A30004FF4FA7001F022FD26A127A000F0B4F8AF
:102A40000028F5D126A1224805F0FEFB03E04FF453
:102A5000FA7001F013FD1FA124A000F0A5F80028D2
:102A6000F5D126A11A4805F0EFFB03E04FF4FA7008
:102A700001F004FD17A125A000F096F80028F5D17B
:102A800026A1134805F0E0FB03E04FF4FA7001F0D3
:102A9000F5FC25A126A000F087F80028F5D12BA190
:102AA0000B4805F0D1FB03E04FF4FA7001F0E6FCAF
:102AB00029A12BA000F078F80028F5D134A1044812
:102AC00005F0C2FB10BD0000312E2041540D0A005C
:102AD000580300244F4B000041540D0A0000000031
:102AE000322E2043574D4F44450D0A0041542B438D
:102AF000574D4F44453D310D0A000000332E204113
:102B0000542B4357444843500D0A000041542B4373
:102B100057444843503D312C310D0A00342E204398
:102B2000574A41500D0A0000474F542049500000B9
:102B300041542B43574A41503D22797A78222C2226
:102B40003636363636363636220D0A00352E2043D6
:102B5000574A41500D0A0000434F4E4E4543540022
:102B600041542B43495053544152543D22544350F5
:102B7000222C226D717474732E6865636C6F75649A
:102B8000732E636F6D222C313838330D0A0000002C
:102B9000352E204553503832363620496E69742020
:102BA0004F4B0D0A000000002DE9F04104460D4690
:102BB000C8262046FDF75AFF87B23A4621460D48FF
:102BC00008F0A2FD0FE000F03DF848B929460A4898
:102BD000FDF716FF20B1FFF7EDFE0020BDE8F08104
:102BE0000A2001F04BFC301EA6F10101CEB2EAD161
:102BF0000120F3E7C4020024EC03002430B589B0BF
:102C000004460D46FFF7D6FE2A4608A101A8FDF7A7
:102C10000FFD0AA101A8FFF7C7FF20B92A462146E8
:102C2000074808F071FD09B030BD000041542B4346
:102C3000495053454E443D25640D0A003E000000B6
:102C4000C40200240A48008808B9012070470848D7
:102C5000008808490988884203D100200449088077
:102C6000F4E703480088034908800120EEE70000EC
:102C7000180000241A00002472B600BFFEE700000E
:102C80002DE9F0439DB004460E464FF00008306831
:102C900000B100BF00BF94F85C00012803D10220FE
:102CA0001DB0BDE8F083012084F85C0000BF002067
:102CB00019901A9046492068884202D145480190EF
:102CC00001E000200190019850B9206E40F02000F2
:102CD000206600BF002084F85C0000BF0120DFE711
:102CE000019805F097FC0746206805F093FC002842
:102CF00061D1002F5FD136492068884203D0354921
:102D00002068884201D1344800E0344805463068E4
:102D100058B3A86820F4404071680843A8602C4963
:102D20002068884203D02B492068884201D12A4874
:102D300000E02A482849884209D1254805F05BFC73
:102D40008146244805F057FC49EA000002E0244887
:102D500005F051FC70BBB16830680843A96840F6C3
:102D60001F7291430843A8602BE0A86820F44040FC
:102D7000A86017492068884203D016492068884215
:102D800001D1154800E015481349884209D110487F
:102D900005F031FC81460F4805F02DFC49EA0000A2
:102DA00002E00F4805F027FC20B9A86840F61F7123
:102DB0008843A86005E0206E40F0200020664FF0B8
:102DC000010800BF002084F85C0000BF404667E7B0
:102DD000002002400021024000230240006302580C
:102DE000006002582DE9F84F04460D464FF0000AE6
:102DF0000020009094F84400012800D105E0FE492D
:102E00002068884200D100E000BFFC49E8688842A1
:102E100000D00EE0FA492068884200D100BFF9498D
:102E20002068884200D100BFF3492068884200D161
:102E300000BF00BF94F85C00012802D10220BDE869
:102E4000F88F012084F85C0000BF206805F0DDFBEE
:102E5000002876D1286800F00040C8B9E64920680B
:102E6000884215D02068C1692868C0F3130018B9DA
:102E70002868C0F3846004E0286890FAA0F0B0FAF3
:102E800080F000F01F020120904001432068C161E2
:102E90002168D5E9002001F1300CC0F3012B0CEBC7
:102EA0008B03D3F800C000F01F0E4FF01F0B0BFA7E
:102EB0000EFB2CEA0B0C00F01F0BC2F3846E0EFA13
:102EC0000BFE4CEA0E0CC3F800C000BF206805F0F2
:102ED0009CFB8146206805F084FB0746B9F1000F92
:102EE0007ED1002FFCD1AA682968206805F0A8FBD4
:102EF000C1492068884208D168692168C968C1F35E
:102F0000C101490000FA01F825E0BF48006800F05F
:102F10007040B0F1805F07D168692168C968C1F36A
:102F200082014900884015E02068C06800F0100068
:102F300040B968692168C968C1F3820149008840C5
:102F400008E0F2E268692168C96801F010018908A7
:102F5000490088408046286904287CD0216843467F
:102F6000D5F810C02A6801F1600B0BEB8C00DFF87C
:102F700088B259450AD1D0F800B002F0F84E4EF0B0
:102F8000004E4EEA030EC0F800E00BE0D0F800B0AF
:102F90000BF0004B02F0F84E4EEA030E4BEA0E0B1C
:102FA000C0F800B000BF94492068884231D1206841
:102FB000EA692969904B98420CD100F1600C0CEB46
:102FC0008103D3F800C02CF0807C4CEA020CC3F8DB
:102FD00000C000BF00BF206895F82020296900E0EC
:102FE000F5E0012A01D1520600E000221346824A90
:102FF00090420CD100F1600C0CEB8102D2F800C0C1
:103000002CF0007C4CEA030CC2F800C000BF00BFEB
:1030100021E1206895F821202969012A01D1D207F0
:1030200000E000221346744A90420CD000F1600C7C
:103030000CEB8102D2F800C02CF0004C4CEA030CDF
:10304000C2F800C000BF00BF20682B7E2969012B99
:1030500002D1DB0201E00DE000231A46036923F4EC
:10306000F04301F01F0C02FA0CFC43EA0C0303616D
:1030700000BFF0E060492068884271D100212068DB
:1030800005F0A6FAC0F3130030B90021206805F05E
:103090009FFAC0F3846007E00021206805F098FAE9
:1030A00090FAA0F0B0FA80F02968C1F3130119B9C1
:1030B0002968C1F3846104E0296891FAA1F1B1FAA9
:1030C00081F1884204D100221146206805F0D2FA2D
:1030D0000121206805F07CFAC0F3130030B901210A
:1030E000206805F075FAC0F3846007E001212068CC
:1030F00005F06EFA90FAA0F0B0FA80F02968C1F3FA
:10310000130119B92968C1F3846104E0296891FAAF
:10311000A1F1B1FA81F1884204D100220121206895
:1031200005F0A8FA0221206805F052FAC0F3130056
:1031300030B90221206805F04BFAC0F3846007E043
:103140000221206805F044FA90FAA0F0B0FA80F06D
:103150002968C1F3130121B92968C1F3846105E02D
:1031600036E0296891FAA1F1B1FA81F1884204D1DF
:1031700000220221206805F07DFA0321206805F075
:1031800027FAC0F3130030B90321206805F020FAB4
:10319000C0F3846007E00321206805F019FA90FA73
:1031A000A0F0B0FA80F02968C1F3130119B92968B9
:1031B000C1F3846104E0296891FAA1F1B1FA81F1C7
:1031C000884248D100220321206805F053FA42E0EA
:1031D0002068006E00F0F8402978B0EB816F05D1CF
:1031E0002068006E20F00040216808662068406E6C
:1031F00000F0F840297809E0006002580000FF471D
:1032000000200240002102400010005CB0EB816F02
:1032100005D12068406E20F0004021684866206893
:10322000806E00F0F8402978B0EB816F05D12068FE
:10323000806E20F00040216888662068C06E00F033
:10324000F8402978B0EB816F05D12068C06E20F07E
:1032500000402168C866206805F0C8F900286FD1D1
:103260002068EA682968B74B984212D1D0F8B0308C
:10327000C1F3130C23EA0C0302F0180BDFF8C8C2E9
:103280002CFA0BFC0CEA010C43EA0C03C0F8B0303A
:1032900011E0D0F8C030C1F3130C23EA0C0302F0A4
:1032A000180BDFF8A4C22CFA0BFC0CEA010C43EA61
:1032B0000C03C0F8C03000BFA449E86888427DD143
:1032C0002B68C3F313031BB92B68C3F3846304E0B7
:1032D0002B6893FAA3F3B3FA83F35B1C03F01F0389
:1032E000092B3FD82B68C3F313031BB92B68C3F317
:1032F000846304E02B6893FAA3F3B3FA83F35B1CB3
:1033000003F01F034FF0010C0CFA03FC2B68C3F30E
:1033100013031BB92B68C3F3846304E02B6893FA8F
:10332000A3F3B3FA83F35B1C03F01F034CEA836C33
:103330002B68C3F3130323B92B68C3F3846305E03D
:10334000B1E02B6893FAA3F3B3FA83F35B1C03F0A9
:103350001F0303EB43034FF0000B4BEA03534CEA0C
:10336000030340E02B68C3F313031BB92B68C3F3BB
:10337000846304E02B6893FAA3F3B3FA83F35B1C32
:1033800003F01F034FF0010C0CFA03FC2B68C3F38E
:1033900013031BB92B68C3F3846304E02B6893FA0F
:1033A000A3F3B3FA83F35B1C03F01F034CEA836CB3
:1033B0002B68C3F313032BB92B6800E018E0C3F3A9
:1033C000846304E02B6893FAA3F3B3FA83F35B1CE2
:1033D00003F01F030A3B03EB43034FF0007B4BEA70
:1033E00003534CEA03031946AA68206805F028F93C
:1033F000286800F00040002855D0554A21689142C5
:1034000003D0544A2168914201D1534900E0534905
:103410000846816801F0E07600BF4D492068884287
:1034200003D04C492068884201D14B4800E04B480A
:103430004949884209D1464805F0D8F883464548AD
:1034400005F0D4F84BEA000002E03E4805F0CEF863
:10345000F0BB43492868884226D106F4000018BB17
:1034600038492068884266D1394B22689A4203D095
:10347000384B22689A4201D1374A00E0374A104659
:1034800046F4000105F0F0F8364800683649B0FB14
:10349000F1F0401C4000009002E00098401E0090B7
:1034A00000980028F9D146E030492868884219D1AF
:1034B00006F08070B0B92349206888423BD1244B84
:1034C00022689A4203D0234B22689A4203D100E03B
:1034D00024E0214A00E0214A104646F0807105F0C0
:1034E000C3F828E022492868884224D106F48000E5
:1034F00008BB1449206888421DD1154B22689A42A6
:1035000003D0144B22689A4201D1134A00E0134AB7
:10351000104646F4800105F0A7F80CE0206E40F05C
:10352000200020664FF0010A05E0206E40F02000E8
:1035300020664FF0010A00BF002084F85C0000BF45
:1035400050467CE400600258FFFF0F000000FF4778
:103550000020024000210240002302400063025884
:10356000000052C700000020400D0300000021C3EE
:10357000000084CB01460868006C70472DE9F84FC5
:1035800004464FF000090020009014B90120BDE866
:10359000F88F206920B12020005D012800D100BFF4
:1035A000206E30B9204600F089F90020606684F86A
:1035B0005C0020688168C1F3407131B12068816886
:1035C000B24A1140816000BF00BF206805F018F8C2
:1035D000A8B920688168AE4A114041F080518160ED
:1035E00000BFAC480068AC49B0FBF1F0401C009053
:1035F00002E00098401E009000980028F9D1206851
:1036000004F0FEFF48B9206E40F010002066606EA6
:1036100040F0010060664FF00109206804F0F5FFFA
:103620000646206E00F0100000287DD1002EFCD14F
:10363000206E20F4807040F002002066206804F0C4
:10364000D5FF78BB95492068884203D0944920680B
:10365000884201D1934800E093489249884209D1B9
:103660008E4804F0C3FF82468D4804F0BFFF4AEA4B
:10367000000002E08D4804F0B9FF98B9874B22683A
:103680009A4203D0864B22689A4201D1854A00E0D3
:10369000854A10466168826822F47C120A4382607F
:1036A00000BF00BF81492068884223D1607EE16B62
:1036B00041EA4030E1680843A168082901D10021AE
:1036C0000FE0A1680C2901D104210AE0A1681C299E
:1036D00001D1082105E0A168182901D11C2100E0D1
:1036E000002101F00C0140EA41012020005D41EA87
:1036F000004509E0607EE16B41EA4030A168084383
:103700002021095D40EA01452020005D012803D108
:10371000A08C401E45EA4045A06A38B1208D00F4D7
:103720007870E16A084300E0A7E005435F4920683C
:1037300088420FD12068C0685D490840284321684D
:10374000C8602068006920F04060616B0843216810
:10375000086106E02068C06856490840284321688F
:10376000C860206804F051FF8046206804F039FFEB
:103770000746B8F1000F66D1002F64D14B4920688D
:10378000884206D1207E810394F8380041EA400542
:1037900003E0207E216B41EA80352068C06844F256
:1037A0000301884328432168C86094F84400012835
:1037B00034D13E492068884200D100E000BFA06AB1
:1037C00008B1E06A00B900BF38492068884210D1CA
:1037D000A06C40F00101E06C0843216D0843616D6D
:1037E000084321680969344A114008432168086187
:1037F0001AE0B4F84800401E012141EA0041E06CA3
:103800000843216D0843616D0843216809692A4A0C
:10381000521E114008432168086105E020680069D4
:1038200020F00100216808612068006920F07040E4
:10383000216C0843216808611C492068884202D035
:103840002046FEF74DFD2069012809D12068006B54
:1038500020F00F00E169491E08432168086305E074
:103860002068006B20F00F0021680863206E20F0B4
:10387000020040F00100206605E0206E40F01000DC
:1038800020664FF00109484681E60000C0FFFF5F57
:10389000C0FFFF7F00000020400D03000020024019
:1038A00000210240002302400063025800600258D9
:1038B0000740F0FF03C0F0FF1FF800FC10B5B6B0E2
:1038C0000446142130A8FDF795F9B82102A8FDF7A8
:1038D00091F924492068884241D14FF40021002009
:1038E000CDE902102020049081210591022106914A
:1038F000079108914021099100210A910B91002024
:103900002A9002A801F012FF08B1FFF7B5F900BF35
:103910001548006840F02000134908600846006818
:1039200000F02000019000BF00BF00BF0E4808302B
:10393000006840F004000C4908310860084600683F
:1039400000F00400019000BF00BF20203090032051
:1039500031900020329030A9044800F0A3FD36B029
:1039600010BD000000200240D84402580008025850
:103970002DE9F04704460F46524A2168914203D090
:10398000514A2168914201D1504900E0504908460E
:1039900004F019FE05466069082801D1082628E0D0
:1039A0001DB1052D01D0092D0DD12068C06800F092
:1039B000010030B1206E40F0200020660120BDE8FB
:1039C000F087042615E03F4A2168914203D03E4A21
:1039D0002168914201D13D4900E03D49084604F08B
:1039E000EDFD28B1206E40F0200020660120E6E7C2
:1039F000042600F055FE804617E0781CA8B100F0C0
:103A00004FFEA0EB0800B84200D877B920680068E4
:103A1000304050B9206E40F00400206600BF002006
:103A200084F85C0000BF0320C9E7206800683040CC
:103A30000028E2D0206E40F400702066206804F078
:103A4000EEFD98B1607E88B92068006800F008003B
:103A500008280BD1206E20F480702066206E00F4C0
:103A6000805018B9206E40F0010020661649206889
:103A7000884201D1134800E020682168884204D0C0
:103A80001DB1052D01D0092D03D12068D0F80C906F
:103A900009E00D492068884201D10A4800E0206809
:103AA0008246DAF80C90082E03D1082021680860BD
:103AB00005E009F4804010B90C202168086000205E
:103AC0007DE7000000200240002102400023024068
:103AD000006302582DE9F0410446474A21689142AB
:103AE00003D0464A2168914201D1454900E0454949
:103AF000084604F068FD0546206804F086FD0028AD
:103B000077D100BF94F85C00012802D10220BDE803
:103B1000F081012084F85C0000BF2046FEF778FCAD
:103B20000646002E60D1206E40F60161884340F4C5
:103B30008070206631492068884201D12E4800E01B
:103B400020682168884200D01DB9206E20F48010C2
:103B50002066206E00F48050B0F5805F04D1606E66
:103B600020F00600606601E0002060661C202168ED
:103B7000086000BF002084F85C0000BF1F49206877
:103B8000884201D11C4800E020682168884204D0A6
:103B90001DB1052D01D0092D0ED12068C06800F09F
:103BA000007028B1206E20F4005040F48050206650
:103BB000206804F03DFD1DE0206E40F4801020667A
:103BC0000E492068884201D10B4800E02068074672
:103BD000F86800F0007068B1206E20F4005040F4E6
:103BE0008050206606E004E000BF002084F85C00FE
:103BF00000E0022630468AE7002002400021024011
:103C000000230240006302582DE9F041044600F011
:103C100047FD804614B90120BDE8F08194F83500D5
:103C2000022808D08020606500BF002084F834009E
:103C300000BF0120F0E7FE492068884249D0FC49D6
:103C400018312068884244D0F949303120688842D0
:103C50003FD0F7494831206888423AD0F449603172
:103C60002068884235D0F24978312068884230D0C7
:103C7000EF499031206888422BD0ED49A831206867
:103C8000884226D0EB492068884222D0E949183181
:103C9000206888421DD0E74930312068884218D01A
:103CA000E44948312068884213D0E24960312068F5
:103CB00088420ED0DF4978312068884209D0DD493A
:103CC00090312068884204D0DA49A83120688842BF
:103CD00001D1012000E0002068B12068006820F0D8
:103CE0001E00216808602068406920F0800021687B
:103CF0004861256806E02068006820F00E00216811
:103D000008602568CA492068884270D0C8491831BF
:103D1000206888426BD0C64930312068884266D01E
:103D2000C34948312068884261D0C1496031206868
:103D300088425CD0BE4978312068884257D0BC495F
:103D400090312068884252D0B949A8312068884211
:103D50004DD0B8492068884249D0B649183120680A
:103D6000884244D0B3493031206888423FD0B149BD
:103D70004831206888423AD0AE4960312068884294
:103D800035D0AC4978312068884230D0A94990318B
:103D9000206888422BD0A749A8312068884226D0C5
:103DA000A5492068884222D0A3491431206888425E
:103DB0001DD0A14928312068884218D09E493C3145
:103DC0002068884213D09C495031206888420ED028
:103DD000994964312068884209D097497831206830
:103DE000884204D094498C312068884201D1012056
:103DF00000E0002028B1206E006820F48070216E61
:103E000008608B492068884249D089491831206868
:103E1000884244D086493031206888423FD0844966
:103E20004831206888423AD0814960312068884210
:103E300035D07F4978312068884230D07C49903134
:103E4000206888422BD07A49A8312068884226D041
:103E500078492068884222D0764918312068884203
:103E60001DD0744930312068884218D071494831DA
:103E70002068884213D06F496031206888420ED094
:103E80006C4978312068884209D06A4990312068AD
:103E9000884204D06749A8312068884206D120684A
:103EA000006820F001002168086005E020680068D3
:103EB00020F001002168086011E000F0F1FBA0EBA8
:103EC000080005280BD920206065032084F8350000
:103ED00000BF002084F8340000BF01209CE6286861
:103EE00000F001000028E8D151492068884249D0FB
:103EF0004F4918312068884244D04D4930312068FC
:103F000088423FD04A494831206888423AD04849DF
:103F100060312068884235D0454978312068884230
:103F200030D043499031206888422BD04049A83195
:103F30002068884226D03F492068884222D03D49E7
:103F40001831206888421DD03A49303120688842B3
:103F500018D0384948312068884213D0354960313B
:103F6000206888420ED0334978312068884209D0D1
:103F7000304990312068884204D02E49A831206809
:103F8000884201D1012000E0002040B1A66D94F8E4
:103F90005C0000F01F013F208840B06007E0A76D83
:103FA00094F85C0000F01F010120884078602049EF
:103FB0002068884276D01E4918312068884271D026
:103FC0001B493031206888426CD01949483120683B
:103FD000884267D0164960312068884262D014490F
:103FE0007831206888425DD011499031206888423C
:103FF00058D00F49A8312068884253D00D49206815
:1040000088424FD00B491831206888424AD009496C
:1040100030312068884245D00649483120688842BE
:1040200040D004496031206888423BD0014905E016
:1040300010000240100402400854025878312068F1
:1040400088422FD02549206888422BD02349183137
:104050002068884226D022492068884222D0204900
:104060001431206888421DD01D49283120688842BB
:1040700018D01B493C312068884213D01849503170
:10408000206888420ED0164964312068884209D0E1
:10409000134978312068884204D011498C31206856
:1040A000884201D1012000E0002068B1D4E9191054
:1040B0004860E06E40B1E06E006820F48070E16E10
:1040C0000860D4E91C104860012084F8350000BF66
:1040D000002084F8340000BF00BF9DE5A00402402A
:1040E0000854025870B504460CB9012070BD94F80C
:1040F0003500022803D0802060650120F6E7DC4906
:104100002068884249D0DA4918312068884244D072
:10411000D7493031206888423FD0D549483120689E
:1041200088423AD0D24960312068884235D0D0499F
:1041300078312068884230D0CD499031206888425B
:104140002BD0CB49A8312068884226D0C9492068A5
:10415000884222D0C7491831206888421DD0C549FD
:1041600030312068884218D0C249483120688842DE
:1041700013D0C0496031206888420ED0BD497831E3
:104180002068884209D0BB4990312068884204D019
:10419000B849A8312068884201D1012000E0002000
:1041A000F0B3042084F83500B149206888424BD030
:1041B000AF4918312068884246D0AD493031206877
:1041C000884241D0AA494831206888423CD0A84959
:1041D00060312068884237D0A5497831206888420C
:1041E00032D0A3499031206888422DD0A049A8310F
:1041F0002068884228D09F492068884224D09D4961
:104200001831206888421FD09A493031206888428E
:104210001AD0984948312068884215D0954900E065
:1042200020E06031206888420ED0924978312068C1
:10423000884209D08F4990312068884204D08D4946
:10424000A8312068884206D12068006820F001006B
:104250002168086009E12068006820F001002168F9
:10426000086002E12068006820F00E002168086004
:104270007F492068884249D07D49183120688842AA
:1042800044D07B493031206888423FD0784948315A
:10429000206888423AD0764960312068884235D01B
:1042A000734978312068884230D071499031206854
:1042B00088422BD06E49A8312068884226D06D49AB
:1042C0002068884222D06B491831206888421DD06E
:1042D000684930312068884218D0664948312068E2
:1042E000884213D063496031206888420ED061490A
:1042F00078312068884209D05E4990312068884230
:1043000004D05C49A8312068884206D12068006842
:1043100020F001002168086005E02068006820F0B6
:1043200001002168086052492068884270D05049D5
:104330001831206888426BD04D493031206888425E
:1043400066D04B4948312068884261D04849603185
:10435000206888425CD0464978312068884257D02E
:10436000434990312068884252D04149A8312068A1
:1043700088424DD03F492068884249D03D49183194
:104380002068884244D03B493031206888423FD081
:1043900038494831206888423AD03649603120682F
:1043A000884235D0334978312068884230D031494D
:1043B0009031206888422BD02E49A831206888424D
:1043C00026D02D492068884222D02B4914312068FC
:1043D00088421DD0284928312068884218D02649B3
:1043E0003C312068884213D02349503120688842EC
:1043F0000ED0214964312068884209D01E497831A5
:104400002068884204D01C498C312068884201D140
:10441000012000E00020D8B1206E006820F48070F8
:10442000216E0860A56D94F85C0000F01F0101206A
:1044300088406860D4E919104860E06E40B1E06ED1
:10444000006820F48070E16E0860D4E91C104860B8
:10445000012084F8350000BF002084F8340000BF3C
:10446000206D10B12046216D884700203EE60000F7
:1044700010000240100402400854025870B504466F
:1044800000F00EF906462546681C10B10448007875
:10449000054400BF00F004F9801BA842FAD370BDA8
:1044A00014000024F8B502460B4600216D4DD2E001
:1044B00001278F401E6806EA0704002C72D01E797F
:1044C00006F00306012E04D01E7906F00306022E24
:1044D00013D190684F000326BE40B0434F00DE6802
:1044E000BE4030439060506801268E40B0431E7934
:1044F000C6F300168E40304350601E7906F0030666
:10450000032E09D0D0684F000326BE40B0434F00B1
:104510009E68BE403043D0601E7906F00306022E2E
:1045200013D1CF0802F1200656F827004E07F70EE8
:104530000F26BE40B0434F07FF0E1E69BE403043FA
:10454000CF0802F1200646F8270010684F00032626
:10455000BE40B0431E7906F003064F00BE40304314
:1045600010605E6806F44036002E73D000BF3E4EE9
:10457000366846F002063C4F3E603E46366806F01E
:104580000206009600BF00BF384E8F0856F827007D
:104590008E07370F0F26BE40B043354EB24202D1D0
:1045A000002629E056E0334EB24201D1012623E035
:1045B000314EB24201D102261EE0304EB24201D14C
:1045C000032619E02E4EB24201D1042614E02D4EEE
:1045D000B24201D105260FE02B4EB24201D1062690
:1045E0000AE02A4EB24201D1072605E0284EB24227
:1045F00001D1092600E00A268F073F0FBE40304355
:104600001A4E8F0846F827004FF0B0463068A04396
:104610005E6806F4801606B120434FF0B046306065
:104620007068A0435E6806F4001606B120434FF0A0
:10463000B04670606868A0435E6806F4003606B154
:10464000204368602868A0435E6806F4803606B19F
:1046500020432860491C1E68CE40002E7FF428AFFE
:10466000F8BD000080000058F444025808040058C7
:10467000000002580004025800080258000C0258BA
:10468000001002580014025800180258001C02586A
:10469000002402580AB1816101E00B048361704774
:1046A00001480068704700000C00002403480068BF
:1046B0000349097808440149086070470C00002448
:1046C0001400002410B5032000F0BCF802F06CF8D0
:1046D00010490968C1F303210F4A515C01F01F0121
:1046E00020FA01F40B48006800F00F001146085C46
:1046F00000F01F0024FA00F0084908600848046030
:104700000F2000F00FF808B1012010BD00F036F8BE
:104710000020FAE7184402582AC2000804000020CA
:104720000000002070B504461148007808B9012047
:1047300070BD0F4800784FF47A71B1FBF0F00D496D
:104740000968B1FBF0F5284602F0F2FC08B101203F
:10475000EEE7102C07D200222146501E00F034F85C
:104760000548046001E00120E2E70020E0E70000E6
:1047700014000024000000201000002408B500BF31
:104780000648006840F002000449086008460068D6
:1047900000F00200009000BF00BF08BDF4440258C2
:1047A0000146084600280DDB00BF00BF00F01F03D4
:1047B00001229A4043099B0003F1E023C3F8002142
:1047C00000BF00BF00BF70472DE9F05F80460D4677
:1047D000164606F0BDFF074639462A46334601F025
:1047E0000700C0F1070ABAF1040F02D94FF0040A1A
:1047F00001E0C0F1070AD14600F1040ABAF1070F3F
:1048000002D24FF0000A01E0A0F1030AD4464FF0B3
:10481000010A0AFA09FAAAF1010A0AEA020A0AFADC
:104820000CFA4FF0010B0BFA0CFBABF1010B0BEA8E
:10483000030B4AEA0B042146404606F091FFBDE80F
:10484000F09F000000BF00F00702064B19684FF60A
:10485000FF031940044B0B4343EA0221014B19604B
:1048600000BF70470CED00E00000FA0570B504468B
:1048700015480068C0F3800048B91348006800F08C
:104880000700A04201D0012070BD0020FCE70E48C7
:10489000006820F0070020430B490860FFF700FF85
:1048A000054607E0FFF7FCFE401BB0F57A7F01D913
:1048B0000120E9E7044808380068C0F340300028C8
:1048C000F0D00020E0E700000C48025810B501F0DD
:1048D00021FF05490968C1F30211044A515C01F046
:1048E0001F01C84010BD0000204402582AC2000821
:1048F00070B50146844D2D6805F00303824D2D6887
:10490000C5F30510804D2D1D2D6805F001047E4D69
:104910000C352D68C5F3CC0515FB04F501EE105AD6
:10492000B8EE411AF0EE410A00286FD023B1012BF6
:104930004ED0022B6BD16BE0734D283D2D68C5F333
:1049400040153DB3704D283D2D68C5F3C1066F4D30
:1049500025FA06F201EE102AF8EE411A01EE100ACD
:10496000B8EE411A81EE812A9FED691AC0EE811AD4
:10497000654D08352D68C5F3080501EE105AB8EEEF
:10498000411A31EE811AF7EE001A31EE211A22EEA9
:10499000010A1CE001EE100AB8EE411ADFED5D1AC3
:1049A00081EE812A9FED5A1AC0EE811A564D0835C4
:1049B0002D68C5F3080501EE105AB8EE411A31EE24
:1049C000811AF7EE001A31EE211A22EE010A5BE09D
:1049D00001EE100AB8EE411ADFED4F1A81EE812A7E
:1049E0009FED4B1AC0EE811A474D08352D68C5F36F
:1049F000080501EE105AB8EE411A31EE811AF7EEB1
:104A0000001A31EE211A22EE010A3DE077E01DE0A6
:104A100001EE100AB8EE411A9FED402AC2EE011ACB
:104A20009FED3B1A80EE812A374D08352D68C5F37E
:104A3000080501EE105AB8EE411A32EE011AB7EE2F
:104A4000002A31EE021A21EE810A1DE001EE100A61
:104A5000B8EE411ADFED2F1A81EE812A9FED2C1A54
:104A6000C0EE811A284D08352D68C5F3080501EE02
:104A7000105AB8EE411A31EE811AF7EE001A31EEF3
:104A8000211A22EE010A00BF00BF1F4D08352D6814
:104A9000C5F3462501EE105AB8EE411AF7EE001A9A
:104AA00031EE211AC0EE011ABCEEE11A81ED001AB6
:104AB000154D08352D68C5F3064501EE105AB8EEC0
:104AC000411AF7EE001A31EE211AC0EE011ABCEEBF
:104AD000E11A81ED011A0C4D08352D68C5F3066504
:104AE00001EE105AB8EE411AF7EE001A31EE211A13
:104AF000C0EE011ABCEEE11A81ED021A03E00025B6
:104B00000D604D608D6070BD284402580090D00348
:104B1000000000460024744C0024744A20BCBE4BA4
:104B200070B50146844D2D6805F00303824D2D6854
:104B3000C5F30530804D2D1D2D68C5F300147E4D45
:104B400014352D68C5F3CC0515FB04F501EE105A9C
:104B5000B8EE411AF0EE410A00286FD023B1012BC4
:104B60004ED0022B6BD16BE0734D283D2D68C5F301
:104B700040153DB3704D283D2D68C5F3C1066F4DFE
:104B800025FA06F201EE102AF8EE411A01EE100A9B
:104B9000B8EE411A81EE812A9FED691AC0EE811AA2
:104BA000654D10352D68C5F3080501EE105AB8EEB5
:104BB000411A31EE811AF7EE001A31EE211A22EE77
:104BC000010A1CE001EE100AB8EE411ADFED5D1A91
:104BD00081EE812A9FED5A1AC0EE811A564D10358A
:104BE0002D68C5F3080501EE105AB8EE411A31EEF2
:104BF000811AF7EE001A31EE211A22EE010A5BE06B
:104C000001EE100AB8EE411ADFED4F1A81EE812A4B
:104C10009FED4B1AC0EE811A474D10352D68C5F334
:104C2000080501EE105AB8EE411A31EE811AF7EE7E
:104C3000001A31EE211A22EE010A3DE077E01DE074
:104C400001EE100AB8EE411A9FED402AC2EE011A99
:104C50009FED3B1A80EE812A374D10352D68C5F344
:104C6000080501EE105AB8EE411A32EE011AB7EEFD
:104C7000002A31EE021A21EE810A1DE001EE100A2F
:104C8000B8EE411ADFED301A81EE812A9FED2C1A21
:104C9000C0EE811A284D10352D68C5F3080501EEC8
:104CA000105AB8EE411A31EE811AF7EE001A31EEC1
:104CB000211A22EE010A00BF00BF1F4D10352D68DA
:104CC000C5F3462501EE105AB8EE411AF7EE001A68
:104CD00031EE211AC0EE011ABCEEE11A81ED001A84
:104CE000154D10352D68C5F3064501EE105AB8EE86
:104CF000411AF7EE001A31EE211AC0EE011ABCEE8D
:104D0000E11A81ED011A0C4D10352D68C5F30665C9
:104D100001EE105AB8EE411AF7EE001A31EE211AE0
:104D2000C0EE011ABCEEE11A81ED021A03E0002583
:104D30000D604D608D6070BD284402580090D00316
:104D4000000000460024744C0024744A20BCBE4B72
:104D500070B50146844D2D6805F00303824D2D6822
:104D6000C5F30550804D2D1D2D68C5F300247E4DE3
:104D70001C352D68C5F3CC0515FB04F501EE105A62
:104D8000B8EE411AF0EE410A00286FD023B1012B92
:104D90004ED0022B6BD16BE0734D283D2D68C5F3CF
:104DA00040153DB3704D283D2D68C5F3C1066F4DCC
:104DB00025FA06F201EE102AF8EE411A01EE100A69
:104DC000B8EE411A81EE812A9FED691AC0EE811A70
:104DD000654D18352D68C5F3080501EE105AB8EE7B
:104DE000411A31EE811AF7EE001A31EE211A22EE45
:104DF000010A1CE001EE100AB8EE411ADFED5D1A5F
:104E000081EE812A9FED5A1AC0EE811A564D18354F
:104E10002D68C5F3080501EE105AB8EE411A31EEBF
:104E2000811AF7EE001A31EE211A22EE010A5BE038
:104E300001EE100AB8EE411ADFED4F1A81EE812A19
:104E40009FED4B1AC0EE811A474D18352D68C5F3FA
:104E5000080501EE105AB8EE411A31EE811AF7EE4C
:104E6000001A31EE211A22EE010A3DE077E01DE042
:104E700001EE100AB8EE411A9FED402AC2EE011A67
:104E80009FED3B1A80EE812A374D18352D68C5F30A
:104E9000080501EE105AB8EE411A32EE011AB7EECB
:104EA000002A31EE021A21EE810A1DE001EE100AFD
:104EB000B8EE411ADFED301A81EE812A9FED2C1AEF
:104EC000C0EE811A284D18352D68C5F3080501EE8E
:104ED000105AB8EE411A31EE811AF7EE001A31EE8F
:104EE000211A22EE010A00BF00BF1F4D18352D68A0
:104EF000C5F3462501EE105AB8EE411AF7EE001A36
:104F000031EE211AC0EE011ABCEEE11A81ED001A51
:104F1000154D18352D68C5F3064501EE105AB8EE4B
:104F2000411AF7EE001A31EE211AC0EE011ABCEE5A
:104F3000E11A81ED011A0C4D18352D68C5F306658F
:104F400001EE105AB8EE411AF7EE001A31EE211AAE
:104F5000C0EE011ABCEEE11A81ED021A03E0002551
:104F60000D604D608D6070BD284402580090D003E4
:104F7000000000460024744C0024744A20BCBE4B40
:104F80002DE9F04389B006460F464FF4807186EA5A
:104F90000100384370D1F748006800F00709B9F103
:104FA000050F65D2DFE809F0031221623000F148F5
:104FB0005038006800F00070B0F1007F04D106A8FE
:104FC000FFF796FC079C00E0002453E0E9485038C6
:104FD000006800F00060B0F1006F04D103A8FFF793
:104FE0009FFD039C00E0002444E0E2485038006844
:104FF00000F00050B0F1005F04D16846FFF7A8FE52
:10500000009C00E0002435E0DA48001F006800F052
:105010004055D8485038006800F00400042809D1F1
:1050200045B9D44850380068C0F3C101D24820FACD
:1050300001F41AE0CF485038006800F48070B0F5F1
:10504000807F04D1B5F1805F01D1CC4C0DE0C9481F
:105050005038006800F40030B0F5003F04D1B5F1DD
:10506000005F01D1C64C00E0002403E0C54C01E024
:10507000002400BF4BE3FFE74FF4806186EA0100A4
:1050800038437BD1BB480830006800F46009B9F5AB
:10509000800F2CD006DCB9F1000F0AD0B9F5001F43
:1050A00069D115E0B9F5C00F63D0B9F5000F62D131
:1050B0002CE0B0485038006800F00070B0F1007F7C
:1050C00004D106A8FFF714FC079C00E0002454E07C
:1050D000A8485038006800F00060B0F1006F04D1BB
:1050E00003A8FFF71DFD039C00E0002445E0A14854
:1050F0005038006800F00050B0F1005F04D16846FD
:10510000FFF726FE009C00E0002436E09948001FCF
:10511000006800F0405597485038006800F00400DF
:10512000042809D145B9934850380068C0F3C1013B
:10513000914820FA01F41BE08E485038006800F4D2
:105140008070B0F5807F04D1B5F1805F01D18B4CC8
:105150000EE088485038006800F40030B0F5003F99
:1051600005D1B5F1005F02D1854C01E006E00024D5
:1051700003E0844C01E0002400BFC8E24FF400616A
:1051800086EA010038437BD17A480830006800F095
:10519000E069B9F1007F2CD006DCB9F1000F0AD02C
:1051A000B9F1807F69D115E0B9F1407F63D0B9F1E1
:1051B000806F62D12CE06F485038006800F00070BA
:1051C000B0F1007F04D106A8FFF792FB079C00E036
:1051D000002454E067485038006800F00060B0F1E7
:1051E000006F04D103A8FFF79BFC039C00E00024A0
:1051F00045E060485038006800F00050B0F1005FB2
:1052000004D16846FFF7A4FD009C00E0002436E0CE
:105210005848001F006800F0405556485038006854
:1052200000F00400042809D145B9524850380068FC
:10523000C0F3C101504820FA01F41BE04D4850383A
:10524000006800F48070B0F5807F04D1B5F1805F14
:1052500001D14A4C0EE047485038006800F4003055
:10526000B0F5003F05D1B5F1005F02D1444C01E03B
:1052700006E0002403E0434C01E0002400BF46E2C6
:105280004FF4805186EA0100384372D139480068F2
:1052900000F4E048B8F5005F2CD006DCB8F1000F50
:1052A0000AD0B8F5805F75D115E0B8F5405F6FD0D2
:1052B000B8F5804F6ED12CE02E485038006800F0D1
:1052C0000070B0F1007F04D106A8FFF711FB079C26
:1052D00000E0002460E027485038006800F00060DB
:1052E000B0F1006F04D103A8FFF71AFC039C00E0A3
:1052F000002451E01F485038006800F00050B0F121
:10530000005F04D16846FFF723FD009C00E0002405
:1053100042E01848001F006800F04055154850381A
:10532000006800F00400042809D145B9114850383C
:105330000068C0F3C101104820FA01F427E00D48CD
:105340005038006800F48070B0F5807F04D1B5F16A
:10535000805F01D1094C1AE006485038006800F41B
:105360000030B0F5003F11D1B5F1005F0ED1044C13
:105370000DE012E0504402580090D00300093D00B7
:1053800040787D010080BB0004E001E0002403E0E0
:10539000E14C01E0002400BFB9E14FF4005186EA7E
:1053A0000100384367D1DD48006800F4E028B8F513
:1053B000403F33D009DCB8F1000F0DD0B8F5803F85
:1053C0000ED0B8F5003F53D119E0B8F5802F37D093
:1053D000B8F5A02F4CD13FE001F0C2F9044649E0F6
:1053E000CE485038006800F00060B0F1006F04D182
:1053F00003A8FFF795FB049C00E000243AE0C748AF
:105400005038006800F00050B0F1005F04D16846E9
:10541000FFF79EFC019C00E000242BE0BF485038C1
:10542000006800F00400042808D1BC485038006827
:10543000C0F3C101BA4820FA01F400E0002419E0E9
:10544000B6485038006800F48070B0F5807F01D114
:10545000B44C00E000240DE0B0485038006800F47F
:105460000030B0F5003F01D1AF4C00E0002401E076
:10547000002400BF4BE14FF4002186EA01003843CD
:1054800061D1A6480830006800F44038B8F1000F38
:1054900006D0B8F5803F12D0B8F5003F50D11DE0DE
:1054A0009E485038006800F00060B0F1006F04D1F1
:1054B00003A8FFF735FB039C00E0002442E0974877
:1054C0005038006800F00050B0F1005F04D1684629
:1054D000FFF73EFC029C00E0002433E08F48001FF1
:1054E000006800F040558D485038006800F0040016
:1054F000042809D145B9894850380068C0F3C10172
:10550000874820FA01F41AE084485038006800F413
:105510008070B0F5807F04D1B5F1805F01D1814CFE
:105520000DE07E485038006800F40030B0F5003FD0
:1055300004D1B5F1005F01D17B4C00E0002401E013
:10554000002400BFE3E04FF4803186EA01003843D5
:105550002CD17248001F006800F48038B8F1000FA9
:1055600003D0B8F5803F1ED10EE06C48503800687B
:1055700000F00070B0F1007F04D106A8FFF7B8F981
:10558000079C00E0002410E064485038006800F0F8
:105590000060B0F1006F04D103A8FFF7C1FA059CC9
:1055A00000E0002401E0002400BFB0E04FF480419F
:1055B00086EA0100384368D158480830006800F096
:1055C000E048B8F1405F33D009DCB8F1000F0DD0EE
:1055D000B8F1805F0ED0B8F1005F53D119E0B8F197
:1055E000804F37D0B8F1A04F4CD13FE0FFF76EF9B4
:1055F000044649E049485038006800F00060B0F1C6
:10560000006F04D103A8FFF78BFA049C00E000248C
:105610003AE042485038006800F00050B0F1005FB6
:1056200004D16846FFF794FB019C00E000242BE0C6
:105630003A485038006800F00400042808D1374880
:1056400050380068C0F3C101354820FA01F400E089
:10565000002419E031485038006800F48070B0F53B
:10566000807F01D12F4C00E000240DE02B48503802
:10567000006800F40030B0F5003F01D12A4C00E092
:10568000002401E0002400BF41E04FF4004186EA1D
:10569000010038433AD12148006800F04058B8F181
:1056A000000F06D0B8F1805F0FD0B8F1005F2AD1AB
:1056B0001AE01A485038006800F40030B0F5003F96
:1056C00001D1194C00E000241FE014485038006854
:1056D00000F00070B0F1007F04D106A8FFF708F9D0
:1056E000079C00E0002410E00C485038006800F0EF
:1056F0000060B0F1006F04D103A8FFF711FA049C19
:1057000000E0002401E0002400BF00E00024204667
:1057100009B0BDE8F08300000080BB00504402588F
:105720000090D00300093D0040787D012DE9F04153
:1057300004460025A8464FF00062D4E9001011404D
:105740000020134659404040014331D1606E48B1BA
:10575000B0F5801F0DD0B0F5001F11D0B0F5401F7F
:1057600016D114E0FE48006840F40030FC4908609F
:1057700010E0022104F1080004F070FA054609E087
:10578000022104F1280004F01BFB054602E001E0C1
:10579000012500BF00BF55B9F1482430006820F44E
:1057A0004010616E0843EE492431086000E0A846CD
:1057B0004FF48072D4E90010114000201346594084
:1057C000404001432ED1A06D05281BD2DFE800F038
:1057D000030A11181900E248006840F40030E0495B
:1057E000086011E0002104F1080004F037FA0546D2
:1057F0000AE0002104F1280004F0E2FA054603E083
:1058000002E001E0012500BF00BF55B9D4482430B3
:10581000006820F00700A16D0843D14924310860D9
:1058200000E0A8464FF48062D4E900101140002047
:1058300013465940404001433DD1D4F8A400B0F58F
:10584000C00F24D007DC68B1B0F5001F11D0B0F54F
:10585000800F1FD114E0B0F5000F19D0B0F5200F64
:1058600018D116E0BE48006840F40030BC4908601A
:1058700012E0002104F1080004F0F0F905460BE005
:10588000002104F1280004F09BFA054604E003E03F
:1058900002E001E0012500BF00BF5DB9B0482C3037
:1058A000006820F46000D4F8A4100843AC492C31FF
:1058B000086000E0A8464FF40062D4E900011040FF
:1058C000002113465840494008433DD1D4F8A80070
:1058D000B0F1407F24D007DC68B1B0F1807F11D0F7
:1058E000B0F1007F1FD114E0B0F1806F19D0B0F19A
:1058F000A06F18D116E09A48006840F4003098492B
:10590000086012E0002104F1080004F0A7F9054640
:105910000BE0002104F1280004F052FA054604E0EF
:1059200003E002E001E0012500BF00BF5DB98C4843
:105930002C30006820F0E060D4F8A81008438849B3
:105940002C31086000E0A8464FF00073D4E9001045
:105950001940002059404040014328D1E06CA8B1D3
:10596000102804D0202809D0302810D10DE07C4820
:10597000006840F400307A4908600AE0022104F12E
:10598000080004F06BF9054603E002E001E00125A0
:1059900000BF00BF55B972482030006820F03000C9
:1059A000E16C08436E492031086000E0A8464FF4DE
:1059B0008053D4E900101940002059404040014371
:1059C00037D1E06DB0F5005F1AD004DC50B1B0F50E
:1059D000805F1ED10DE0B0F5405F18D0B0F5804F6C
:1059E00017D115E05E48006840F400305C4908605B
:1059F00011E0002104F1080004F030F905460AE046
:105A0000002104F1280004F0DBF9054603E002E080
:105A100001E0012500BF00BF55B95148243000689E
:105A200020F4E040E16D08434D492431086000E076
:105A3000A8464FF40053D4E9001019400020594003
:105A40004040014335D1206EB0F5403F1ED007DC09
:105A500068B1B0F5803F0BD0B0F5003F19D10EE032
:105A6000B0F5802F13D0B0F5A02F12D110E012E0C6
:105A7000012104F1080004F0F1F805460BE00121D2
:105A800004F1280004F09CF9054604E003E002E07C
:105A900001E0012500BF00BF55B93148243000683E
:105AA00020F4E020216E08432D492431086000E0F5
:105AB000A8464FF48042D4E900011040002113466B
:105AC00058404940084337D1D4F8AC00B0F1405FAA
:105AD0001ED007DC68B1B0F1805F0BD0B0F1005F81
