:020000040800F2
:10000000B80E0024210400087D600008AB550008EC
:100010007B600008F5250008457B00080000000013
:10002000000000000000000000000000656D0008F6
:10003000F725000800000000216B0008676D00082C
:100040003B0400083B0400083B0400083B04000894
:100050003B0400083B0400083B0400083B04000884
:100060003B0400083B0400083B0400083B04000874
:100070003B0400083B0400083B0400083B04000864
:100080003B0400083B0400083B0400083B04000854
:100090003B0400083B0400083B0400083B04000844
:1000A0003B0400083B0400083B0400083B04000834
:1000B0003B0400083B0400083B0400083B04000824
:1000C0003B0400083B0400083B0400083B04000814
:1000D0003B0400083B040008397B00083B0400088F
:1000E0003B0400083B040008000000003B0400083B
:1000F0003B0400083B0400083B0400083B040008E4
:100100003B0400083B0400083B0400083B040008D3
:100110003B0400083B0400083B0400083B040008C3
:100120003B0400083B0400083B0400083B040008B3
:100130003B0400083B0400083B0400083B040008A3
:1001400000000000000000000000000000000000AF
:100150003B0400083B0400083B0400083B04000883
:100160003B0400083B0400083B0400083B04000873
:100170003B0400083B0400083B04000800000000AA
:100180003B0400083B0400083B0400083B04000853
:100190003B0400083B0400083B0400083B04000843
:1001A0003B0400083B0400083B040008000000007A
:1001B0003B0400083B0400083B0400083B04000823
:1001C0003B0400083B0400080000000000000000A1
:1001D00000000000000000003B04000800000000D8
:1001E000000000000000000000000000000000000F
:1001F00000000000000000003B0400083B04000871
:100200003B0400083B040008000000003B04000819
:100210003B0400083B0400083B0400083B040008C2
:100220003B040008000000003B0400080000000040
:100230003B0400083B040008000000003B040008E9
:100240003B0400083B0400083B0400083B04000892
:100250003B0400083B0400083B0400083B04000882
:100260003B0400083B0400083B0400083B04000872
:100270003B0400083B0400083B04000800000000A9
:100280003B0400083B0400083B0400083B04000852
:10029000000000003B0400083B04000800000000D0
:1002A000000000003B0400083B0400083B04000879
:1002B0003B0400083B0400083B0400083B04000822
:1002C0003B0400083B0400083B04000800F002F86F
:1002D00000F096F80AA090E8000C82448344AAF14A
:1002E0000107DA4501D100F08BF8AFF2090EBAE848
:1002F0000F0013F0010F18BFFB1A43F0010318475A
:10030000FC9100001C920000103A24BF78C878C10C
:10031000FAD8520724BF30C830C144BF04680C600B
:10032000704700000023002400250026103A28BF53
:1003300078C1FBD8520728BF30C148BF0B60704757
:100340006E2900F0A985702900F07B82662908F0EB
:10035000EC86652908F0E986672908F0E6866129B8
:1003600008F0E58603681B0A28BF41F0800169296F
:1003700000F0EC81642900F0E981752900F0E68144
:100380006F2901F0A680782900F04782E92901F061
:100390004180E42901F03E80F52901F03B80EF29FE
:1003A00001F0A380F82900F046820368DB0928BF2A
:1003B00041F08001632900F0C287732900F0C787EC
:1003C000E32901F0D182F32901F0D68200207047A1
:1003D0001FB508F0A5FE9DE8030000F0B1FC01F098
:1003E00093F804000020002108F066FE401C6060C5
:1003F0000020002108F076FEE0601FBD10B510BDA2
:1004000001F058FB1146FFF7E3FF08F00DFA01F089
:1004100076FB03B4FFF7F2FF03BC01F0DBFB000047
:100420000948804709480047FEE7FEE7FEE7FEE788
:10043000FEE7FEE7FEE7FEE7FEE7FEE704480549C4
:10044000054A064B70470000096E0008CD020008FF
:10045000B8040024B80E0024B8060024B80600240E
:1004600070B5064600F050FC056806F10B0020F060
:100470000704B4429CBF002070BD2B466A68BAB125
:100480001068A04210D304F1080188423CBF5068B4
:10049000586007D35168101941601168091B016049
:1004A00058601460101D70BD13465268002AE7D1D1
:1004B0002146284600F030FC0028DED170BD70B522
:1004C0000446051F00F020FC0068002C14BF44689F
:1004D00070BD002C18BFAC423CBF20466468F8D306
:1004E00001680A18AA4218BF456003D12A68054668
:1004F0001144016028684119A1421CBF6C6070BDA5
:100500006168696021680844286070BD53EA020C84
:1005100000F069802DE9F04B4FF00006002B1FBF63
:10052000B3FA83F503FA05F424FA05F65E4012BF28
:100530001643B2FA82F502FA05F4C5F120051EBF92
:1005400022FA05FC44EA0C04203556EA044C4FEA32
:10055000144418BF641C4FF000084FF0000990428B
:1005600071EB030C39D3002919BFB1FA81F701FAF5
:1005700007F6B0FA80F700FA07F6C7F120071EBFAA
:1005800020FA07FC46EA0C062037B6FBF4FCA7EB82
:100590000507103F07F01F0BCBF120060CFA0BFBF1
:1005A0002CFA06F644BFB3460026202FA4BF5E46B1
:1005B0004FF0000B5BEA060C08BF4FF0010B19EB84
:1005C0000B09ABFB027C48EB0608C01B06FB02CC08
:1005D0000BFB03CC71EB0C01C1E70B460246414615
:1005E0004846BDE8F08B13B54FF000004FF0000116
:1005F000AFF30080BDE81C40704710B5044600F022
:100600007BFB0068005DC00602D504F1200010BD30
:10061000204610BD7CB51D4616460C00009001D04A
:100620002044401E074B7B442A46694601903046D1
:1006300000F05BFE05461CB10020694600F068FE34
:1006400028467CBDF10C00000FB41CB5084B06AA6F
:100650007B4469460090059800F047FE0446002060
:10066000694600F055FE20461CBC5DF814FB0000F6
:10067000BD0C00000FB47CB50C0009AA009001D09D
:100680002044401E084B7B4469460190089800F0C6
:100690002CFE05461CB10020694600F039FE2846B4
:1006A0007CBC5DF814FB0000910C000070B50446A2
:1006B00085690068C10601D5302600E02026C00704
:1006C00007D070BDD4E9012130469047206A401C14
:1006D00020626D1EF6D570BD70B504468569007840
:1006E000C00707D170BDD4E9012120209047206ABE
:1006F000401C20626D1EF6D570BD70B50C460546D7
:10070000012A05D02878800600D5EA69002302E096
:10071000012305E05B1C934202D2E05C0028F9D182
:10072000A869E618C01AA861286A184428622846F1
:10073000FFF7BCFF04E0D5E9012114F8010B904755
:10074000B442F8D32846FFF7C7FF70BD2DE9F0414A
:100750000646002410687529314616A510D000F011
:1007600030FB002802DA404213A507E031688A070F
:1007700001D512A502E0490704D511A5012401E025
:1007800000F028FB00210A2206F1240709E0B0FB53
:10079000F2FCB0FBF2F302FB1C0030307854184638
:1007A000491C0028F3D123462A463046BDE8F041D3
:1007B00000F019BB000000002D0000002B0000001D
:1007C00020000000F0B40D460188090502D5214C37
:1007D0007C4402E01F4C7C440E34002100F12406CE
:1007E00008E002F00F071209E75D42EA03721B09F5
:1007F0007754491C52EA0307F3D102780023120709
:1008000004D5702D06D009B1022311342246F0BC64
:1008100000F0E9BA01231034F8E770B504460D463C
:100820002146106800F0D6FA024629462046BDE867
:1008300070400023C6E7D21D22F00703D3E900234E
:10084000C0E70368126843F0200303600823C36114
:100850000023B7E74D8B00002DE9F05F8946044681
:100860004FF0000ADFF874B1FB44C0F820A0204626
:10087000E1688847002874D0252806D0D4E90121F2
:100880009047206A401C2062F1E700265F46204620
:10089000E16888472028054607DB312D05D2781905
:1008A00010F8200C08B10643F1E7B00701D526F097
:1008B0000406C4F81CA00027C4F818A02A2D09D0EB
:1008C000284607F059FE38B304EB8708303DC8F8D6
:1008D000185019E059F8041B204604EB8702916177
:1008E000E1688847012F054618D1E069002820DA21
:1008F00026F020061DE0D8F8180000EB800005EB7C
:1009000040003038C8F818002046E168884705469E
:1009100007F032FE0028EED1012F0AD02E2D08D18B
:100920002046E16888477F1C0546022F46F02006D6
:10093000C4DBA069002803DA404246F00106A0614A
:10094000F00701D026F010066C2D0BD0682D09D0D1
:100950004C2D39D06A2D35D0742D35D07A2D33D029
:1009600016E038E0E1682F4620468847B842054641
:1009700009D16C2F26D04FF48060E16806432046F1
:100980008847054604E06C2F1AD04FF48070064368
:100990000DB3A5F14100192802D8203546F40066B0
:1009A0004A462946204626604E46FFF7C9FC80B1DC
:1009B00001280BD0F61D26F0070000F1080956E7C4
:1009C0004020E4E78020D8E70020D6E706F10409BC
:1009D0004DE7284652E7206ABDE8F09FDD8A000017
:1009E000401ECAB210F8011F8A4202D00029F9D174
:1009F0000020704710B5431E13F8014F002CFBD1A7
:100A000005E011F8014B002C03F8014B03D0521EF6
:100A1000F7D20021197010BD30B505460B462A46A5
:100A200013F8014B12F8010B08B1A042F8D01CB129
:100A3000002802D06D1CF1E7284630BD40EA0103D2
:100A4000024630B59B0710D14FF0013400E008C2D8
:100A500008C91D1B9D4315EAC41FF8D013F0FF0100
:100A600002F8011B0DD01B0AF8E711F8013B002B1F
:100A700002F8013B05D011F8013B002B02F8013BC5
:100A8000F3D130BD10B5431C02E010F8011B71B169
:100A90008107FAD14FF0013202C88C1A8C4314EA54
:100AA000C211F9D0C01A0A0603D0C01E10BDC01A68
:100AB00010BD0A0401D0801E10BD0902FCD0401EEA
:100AC00010BD40EA010370B59B072ED14FF00136EF
:100AD000042A2AD308C810C99D1B9D43121F15EA7A
:100AE000C61517D0D8B2E1B2401A50EA056110D14C
:100AF00098B2A1B2401A50EA05410AD123F07F40D2
:100B000024F07F41401A50EA052102D1180EA0EBD3
:100B1000146070BDA342DBD018BA21BA884201D953
:100B2000012070BD4FF0FF3070BD0AB9002070BDCC
:100B300010F8013B11F8014B63B1A3420AD1521ED8
:100B400008D010F8013B11F8014B1BB1A34201D1B1
:100B5000521EEDD1181B70BD421E12F8013F002B32
:100B6000FBD111F8013B002B02F8013BF9D1704792
:100B7000032A40F2308010F0030C00F0158011F8C9
:100B8000013BBCF1020F624498BF11F801CB00F8A1
:100B9000013B38BF11F8013BA2F1040298BF00F8F5
:100BA00001CB38BF00F8013B11F0030300F02580B2
:100BB000083AC0F0088051F8043B083A51F804CBD9
:100BC000A0E80810F5E7121D5CBF51F8043B40F89F
:100BD000043BAFF30080D20724BF11F8013B11F8AA
:100BE00001CB48BF11F8012B24BF00F8013B00F8EE
:100BF00001CB48BF00F8012B704710B5203AC0F078
:100C00000B80B1E81850203AA0E81850B1E818500D
:100C1000A0E81850BFF4F5AF5FEA027C24BFB1E84A
:100C20001850A0E8185044BF18C918C0BDE81040BB
:100C30005FEA827C24BF51F8043B40F8043B08BFC4
:100C40007047D20728BF31F8023B48BF11F8012B8B
:100C500028BF20F8023B48BF00F8012B70474FF037
:100C600000020429C0F0128010F0030C00F01B8079
:100C7000CCF1040CBCF1020F18BF00F8012BA8BF87
:100C800020F8022BA1EB0C0100F00DB85FEAC17C4B
:100C900024BF00F8012B00F8012B48BF00F8012BFE
:100CA00070474FF0000200B513469446964620392F
:100CB00022BFA0E80C50A0E80C50B1F12001BFF415
:100CC000F7AF090728BFA0E80C5048BF0CC05DF87B
:100CD00004EB890028BF40F8042B08BF704748BFC9
:100CE00020F8022B11F0804F18BF00F8012B70473D
:100CF000704770477047000010B500F005FC001DFC
:100D000010BD00BFB5830000004870476004002498
:100D1000704770477047704738B504460A46002050
:100D20006946AFF30080002808BF38BD024600992D
:100D3000204600F0F1FB012038BD012000F0B2BEDA
:100D4000F8B5AFF30080054600200C46102000BF28
:100D50000646A819A0420DD9324669460020AFF3D5
:100D60000080070008BF00F09DFE0098A04218BF59
:100D70000546C419FFF7C8FF05600746F01D20F0BF
:100D800007004619284600F00AF8B44208BFF8BD2B
:100D9000A21B31463868BDE8F84000F0BDBB002119
:100DA0000160C0E9011070471020704710B500F0D5
:100DB000AFFB006810BD10B5044600F0A9FB04604D
:100DC00010BD09684A0501D540B27047C905FCD578
:100DD00000B2704709684A0501D5C0B27047C9051D
:100DE000FCD580B270472DE9F0470D4699469246F2
:100DF000044600F124080168880604D5E06921F062
:100E00001001216000E00120A84201DD471B00E045
:100E10000027A1697A1902EB0900081AA06120785D
:100E2000C00602D42046FFF741FC002608E0D4E9C2
:100E300001211AF806009047206A401C761C2062A7
:100E40004E45F4DB2078C0060AD52046FFF72EFC7D
:100E500006E0D4E9012130209047206A401C20623E
:100E6000381EA7F10107F4DC07E0D4E9012118F8E6
:100E700005009047206A401C2062281EA5F101054C
:100E8000F3DC2046FFF728FC2078000602D502207C
:100E9000BDE8F0870120FBE711680268006A53058E
:100EA00001D508700AE0D30501D5088006E01306D5
:100EB00003D5C217C1E9000200E0086001207047B5
:100EC00070472DE9FF4F0C461E464FF0FF378BB0A1
:100ED000D2E90001DDF860800A908A46C1F30A5524
:100EE00005B93D46002108464FF00000BAF1000F59
:100EF00000F4400005DA00EB80004FF4400101EA05
:100F000050004FEA9059B9F1010F00DDB9460A9837
:100F100050EA4A000ED044F61050A5F2FF35454382
:100F20002F14B8F1000F1ED07542291E1EDDC9F125
:100F300000021CE0B8F1010F4FF0000001D0302199
:100F400003E0F24305E02154401CB042FBDB304695
:100F50000022002121540B99C1F80880C1E900202A
:100F60000FB0BDE8F08FBD1B6D1CDEE74A4600DA0E
:100F7000694206A800F004FD06AB93E8070003AB46
:100F800083E8070050460A9900F04AFE8DE8070002
:100F9000A0F500501F3800900398002D0ADD42F2A2
:100FA0001F014A460844002303A90390684601F044
:100FB000B3F809E0A0F500504A461F38002303A902
:100FC0000390684601F0BDF88DE807000004000CAE
:100FD00003D04FF0FF30410800E01046B8F1000F99
:100FE00003D00022009215461EE0751E05D400F0C5
:100FF000ADFA303262556D1EF9D5B3460122084371
:1010000002D000227F1C04E02078302801D1002289
:101010007F1E002A099784D01DE0112D07DA00F009
:1010200095FA303262556D1C50EA0102F5D1084341
:1010300002D00098C8B10EE00021681E05E0235CD4
:10104000625C63542254401E491C8142F7DBAB466C
:10105000A81B401E0990002004F80B000B98099A69
:10106000C0F80880C0E9002B7AE711264FF000088D
:1010700057E72DE9F04F88460446D21D22F00701BC
:1010800091B0D1E90001CDE90A0106F060FD024608
:101090000B98C00F01D02D2007E02068810701D5F3
:1010A0002B2002E0202101EAC000032A099001D090
:1010B000072A05DB03464146204600F00BFC0BE106
:1010C0002078800601D5E06900E00620B8F1650FC0
:1010D000814606D0B8F1660F18D0B8F1670F70D10D
:1010E00031E00020B9F1110F009001DB112301E084
:1010F00009F101030AAA01A90CA8FFF7E2FEDDE944
:101100000C70002609F10105834647E001204B469B
:1011100000904FF000470AAA01A90CA8FFF7D1FEE2
:10112000DDE90DB00C995D46002610B909F101000A
:101130000D18B9EB050003D4C0F1FF3609F1010524
:10114000A5EB09002BE0B9F1010F01DA4FF001091D
:101150000020B9F1110F0090484601DD112300E095
:1011600003460AAA01A90CA8FFF7ABFEDDE90C7043
:101170004D4600268346207800070AD4AB4500DAA6
:101180005D4601A8012D04DD411911F8011C30292B
:1011900007D04F4502DA17F1040F04DA0120824626
:1011A0000FE06D1EEEE7002F02DCED1B3E4403E076
:1011B000781CA84200DD7D1CB81B00F1010A4FF02D
:1011C00000472078000703D4AA4501DB4FF0FF3A1F
:1011D0000021B7F1004F0DF143088DF8431024D0E2
:1011E00002202B23002F01DA7F422D230A21021E29
:1011F000A0F1010000DC5FB197FBF1FC97FBF1F27D
:1012000001FB1C7C17460CF1300C08F801CDEEE711
:10121000A8F1010003702188090501D5452100E0EE
:101220006521A0F1010800F8011C09980FA9A1EBA4
:101230000807FF1D00B10120411901EBEA70A16907
:101240003844081A401EA0612078C00602D4204607
:10125000FFF72CFA099828B1D4E901219047206AB8
:10126000401C20622078C00622D52046FFF71EFAD7
:101270001EE0002E04DBB34502DD01A8805D00E026
:101280003020D4E901219047206A401C2062761C5E
:10129000AAF101005FEA000A0AD100F035F9C0683E
:1012A0000168405CD4E901219047206A401C20621B
:1012B000281EA5F10105DCDC07E0D4E9012118F8BE
:1012C000010B9047206A401C2062381EA7F10107DD
:1012D000F3DC2046FFF700FA032011B041E60000DE
:1012E00001694A1C02610878704700B58FB0CDE9EA
:1012F00001310021059105497944CDE903101146DA
:101300006846FFF7A9FA0FB000BD0000E5FFFFFF38
:101310000A6802F8010B0A607047D1E900239A427B
:1013200002D2531C0B601070704710B5436913B1A3
:10133000AFF3008001E0FFF7E0F9012010BD127863
:1013400000F124010A7000224A700122EDE71168C1
:101350004FF0FF32E9E700002DE9FF5F15468A46AE
:101360000446DFF8AC80F8440027D8E900103E4678
:10137000CDE9001010E03AF816106A4602A800F015
:1013800071FB411C07D02178890603D5E269391821
:1013900091420DD80744761C2078800602D5E0697A
:1013A000B84205DDAE42E6DB3AF816000028E2D18D
:1013B000A069C01BA0612046FFF778F9D8E90010AA
:1013C000CDE90010002017E03AF818106A4602A88C
:1013D00000F048FBB0F1FF3F81460BD000250DF136
:1013E000080B05E0D4E901211BF8050090476D1CAE
:1013F0004D45F7D308F10100B0428046E4DB206A96
:10140000384420622046FFF767F9BDE8FF9F0000DF
:101410007E8000002DE9F0418046D21D22F00702B7
:101420000025D2E90002F52915A614D0011E72F19B
:10143000000106DA0023D0EB030063EB020211A6E1
:1014400008E0D8F800108B0701D50FA602E0490785
:1014500001D50EA601251146002408F1240704E059
:1014600000F074F830323A55641C50EA0102F7D1AA
:101470002B46324621464046BDE8F041FFF7B3BC5B
:10148000000000002D0000002B00000020000000E4
:1014900030B4002100F1240408E002F00705D2086E
:1014A000303542EA4372DB086554491C52EA0305B1
:1014B000F3D10468002310A2250707D5A40600D4A1
:1014C00021B1C46901230DA2641EC46130BCFFF7C1
:1014D0008ABC10B5044621461068FFF77BFC024623
:1014E0002046BDE810400023D2E7D21D22F00701BC
:1014F000D1E90023CCE7000000000000300000002C
:1015000000487047580400240048704778040024BD
:101510000048704758040024034640688C46002861
:1015200018BF88423CBF03464068F8D31868184487
:10153000884207D00CF1030020F00700001D411A7B
:10154000521A0146081D0A60FEF7B9BF30B5B0F166
:101550000A024FEA900E71F100034EEA817EB0EB71
:101560000E0061EB91014FEA101E4EEA017E10EB76
:101570000E0041EB11114FEA102E4EEA016E10EBF6
:101580000E0041EB11214FEA104E4EEA014E10EBD6
:101590000E0041EB1141401841F100014FEAD0002B
:1015A00040EA41704FEAD10110EB80054FEA810417
:1015B00044EA907444EB01046D1944EB0404521B9B
:1015C000A3414FF0000348BF0A3200D530BD401C94
:1015D00041F1000130BD00002DE9F04F04460D46F9
:1015E000D21D22F0070089B0D0E90097484639465D
:1015F00006F0ADFA0246F80F01D02D2307E020686F
:10160000810701D52B2302E0202101EAC0038DF8D8
:1016100020300BB1012000E00020032A824601D0D7
:10162000072A04DB2946204600F054F93FE12078E0
:10163000800601D40D2500E0E569C7F30A560D2D9B
:1016400049DA00214FEA175B08464FF00000002FEF
:1016500000F4400007DA00EB80004FF4400100EB9B
:10166000D07001EA60008115012901DD4FF0FF31E2
:1016700000224FEA850CBCF1180F06D31346ACF1DB
:1016800018004FF08052C24003E04FF4801323FA59
:101690000CF30CF10C0CBCF1200F04D3ACF1200CBA
:1016A00009FA0CF001E007FA0CF000294FF00048AD
:1016B00001DD18B90FE00ED140450CD319EB02093A
:1016C0005F4121B9404502D19F4329EA0209BBEBA2
:1016D000175F00D0761C2088000502D57B4878442F
:1016E00002E07A487844193808AA302302F80A3010
:1016F000037C0AF10101002E0AF1020A53546A46E2
:1017000002DC4FF0300101E04FF031014FF00108F1
:101710008DF8001002D0A6F2FF3603E059EA470127
:1017200000D06B4E002D02DC2178090704D54FF064
:1017300002082E218DF80110C44600210BE0C7F3EA
:1017400003433F01C35C491C6D1E02F808300529A4
:1017500008F1010801DA002DF1DC00210CE000EBBA
:101760001973491C1B786D1E082902F808304FEACE
:10177000091908F1010801DA002DF0DC21688B0657
:1017800002D516E0A8F10108E04505DD02EB0803EB
:1017900013F8013C302BF5D0B8F1000F09DD02EB56
:1017A000080313F8013C2E2B03D1090701D4A8F13B
:1017B0000108002D05DD3E2102F808106D1E08F11C
:1017C0000108407C002E02F8080008F1010804DA44
:1017D0002D20764202F8080002E02B2002F80800D3
:1017E0000A214FF47A70864208F101080BDB96FB60
:1017F000F0F3303302F8083096FBF0F308F10108FB
:1018000000FB136601E0642E0CDB642096FBF0F312
:10181000303302F8083096FBF0F308F1010800FBC2
:10182000136601E00A2E06DB96FBF1F0303002F879
:10183000080008F1010896FBF1F001FB1060303060
:1018400002F80800A16908F1010808EB050202EBA3
:101850000A00081AA0612078C00602D42046FEF7CC
:1018600025FF216A08AE01EB0A00206204E0D4E9FA
:10187000012116F8010B9047BAF1010AF7D220783E
:10188000C00602D52046FEF711FF6E4609E016F8A5
:10189000010B3E280FD0D4E901219047206A401C5B
:1018A0002062B8F10108F2D22046FEF715FF09B018
:1018B0000320BDE8F08F206A2844206203E0D4E9C9
:1018C0000121302090476D1EEBD3F8E7297D000001
:1018D00002FCFFFF2DE9F0411F4604460326016884
:1018E000072A01F4006004DB08B116A505E016A57F
:1018F00003E008B115A500E015A521F01000206057
:10190000A069C01EA0610FB1401EA0612046FEF775
:10191000CDFE4FB1D4E9012138469047206A401CE2
:101920002062C01C206206E0206AFAE7D4E90121A7
:1019300015F8010B9047761EF8D22046FEF7CCFE34
:10194000BDE8F0814E414E006E616E00494E46008A
:10195000696E660010B5436913B1AFF3008001E012
:10196000FFF7FAFC012010BD128800F124018284E7
:101970000022C2840122EDE711684FF0FF32E9E74F
:101980002DE9F047814616468AB0354878440DC89F
:101990008DE80D0032487844801C03AC0DC884E803
:1019A0000D0041F69B300844372190FBF1F290FB8B
:1019B000F1F5A5F1800501FB12041B3C02D5644240
:1019C000012000E00020DFF898A080460027FA44BC
:1019D000AAF1BE0A0EE0E0070AD03246684607EBDD
:1019E000470101230AEB810100F0ABFB8DE8070002
:1019F00064107F1C002CEED1194F7F44AE3F19E0DC
:101A0000E80715D007EB04100DF1180A90E80E0056
:101A10008AE80E00C068F04201D198190890324659
:101A2000012306A903A800F08CFB03AB83E80700A1
:101A30006D10641C002DE3D14FF00103324669465E
:101A4000B8F1000F03A802D000F066FB01E000F03F
:101A500078FBC9E90001C9F808200AB0BDE8F087A1
:101A60000C7B000070B516460C460546FFF744F99E
:101A7000036893F80101012806D0FF2C0FD8185DE8
:101A800068B101202C7070BDD3F8070132462146A1
:101A900003F2071303442846BDE8704018474FF08F
:101AA000FF3070BD10B500F039F8BDE8104000F00F
:101AB0002FB870477546FFF723FDAE46050069460F
:101AC000534620F00700854618B020B5FEF7B6FC57
:101AD000BDE820404FF000064FF000074FF000082F
:101AE0004FF0000B21F00701AC46ACE8C009ACE8B0
:101AF000C009ACE8C009ACE8C0098D46704710B514
:101B00000446AFF300802046BDE81040FEF781BCDC
:101B1000002801D000F05EB87047000010B5012821
:101B200005D0002103A000F05BF8012010BD09A141
:101B3000F8E7000053494752544D454D3A204F7540
:101B400074206F662068656170206D656D6F7279B5
:101B5000000000003A2048656170206D656D6F726D
:101B60007920636F72727570746564004FF0013C88
:101B700050F8042B51F8043B9A4215D1A2EB0C0308
:101B8000934313EACC130BD150F8042B51F8043BC8
:101B90009A4209D1A2EB0C03934313EACC13E7D08A
:101BA0004FF00000704700BFD01A01BAB1FA81F1BE
:101BB00001F0180122FA01F0CB40C1F12001DBB2A3
:101BC000C0B2C01A2CFA01F3D11A914311EAC31121
:101BD000E6D1704701491820ABBEFEE7260002009F
:101BE00070B505460C460A2000E06D1C00F011F8A7
:101BF00035B128780028F8D102E0641C00F009F81B
:101C000014B120780028F8D1BDE870400A20AFF365
:101C1000008008B569468DF800000320ABBE08BD02
:101C20005FEA400C08BF91F0000F4FEA8C234FEAA7
:101C3000C12243EA51514FEA1C5018BF00F5F04051
:101C40004FEA300018BF41F000415FEA6C5C00F0E1
:101C50002980BCF1FF3F08BF40F080407047130C63
:101C600006BF12044FF0100C4FF0000C130E04BF0F
:101C700012020CF1080C130F04BF12010CF1040C3A
:101C8000930F04BF92000CF1020CD30F04BF52005B
:101C90000CF1010C11464FF00002A0F11F00A0EB67
:101CA0000C00704711F0004F08BF704731F0004141
:101CB0003FF4D5AF0B0C06BF09044FF0100C4FF0EA
:101CC000000C0B0E04BF09020CF1080C0B0F04BF33
:101CD00009010CF1040C8B0F04BF89000CF1020CFC
:101CE000CB0F04BF49000CF1010CCCF12003A0EB99
:101CF0000C0022FA03F302FA0CF241EA030100F1AC
:101D00000100704720F07F4C80EA030023F07F47FA
:101D1000ACEB070303F57C5300F0004003F1FF0335
:101D20002DE980494FEA154B09B44FEA144325EADF
:101D30000B4E24EA03480FF2042606EB132749084A
:101D40003E785FEA320203FB0667C7F5000707FB30
:101D500006F64FEA54374FEAD64606F1020607FB6D
:101D6000066CCCF1005C4FEA1C472CEA074C07FBE1
:101D700006F40CFB06F504EB15464FEA961634BF45
:101D800000204FF000404FEAD13706FB07FC4FEA36
:101D90001C4C0CFB0BF7D21B03FB0CF761EB070190
:101DA0000CFB0EF7B0EB074072EB17420CFB08F789
:101DB00034BFA2EB0742B2EB074261EB17414FEA97
:101DC0000C444FEA910706FB07FC4FEA1C4C0CFB46
:101DD0000BF7B0EBC74072EB573203FB0CF734BF85
:101DE000A2EBC742B2EBC74261EB57310CFB0EF7D7
:101DF000B0EBC70072EB57720CFB08F734BFA2EBD5
:101E0000C702B2EBC70261EB5771039F4FEA8161D2
:101E100041EA921104EBCC044FEAD1374FEA8262D7
:101E200006FB07FC42EA90124FEA80604FEA1C4C26
:101E30000CFB0BF7D21B03FB0CF761EB07010CFB50
:101E40000EF7B0EB074072EB17420CFB08F734BFFC
:101E5000A2EB0742B2EB074261EB17414FEA8C5508
:101E60004FEA910704EB9C2406FB07FC4FEA1C4C4D
:101E70000CFB0BF7B0EBC74072EB573203FB0CF7D0
:101E800034BFA2EBC742B2EBC74261EB57310CFB48
:101E90000EF7B0EBC70072EB57720CFB08F734BFBC
:101EA000A2EBC702B2EBC70261EB577115EB4C25F1
:101EB0004FEA816141EA92114FEA82624FEAD137DB
:101EC00042EA901206FB07FC44F100044FEA8060EE
:101ED0004FEA1C4C0CFB0BF7D21B03FB0CF761EB1E
:101EE00007010CFB0EF7B0EB074072EB17420CFB3F
:101EF00008F734BFA2EB0742B2EB074261EB174190
:101F000015EB1C154FEA813141EA92414FEA8232CA
:101F100042EA90424FEA80304FEA0C7644F10004E6
:101F200048EA03434EEA0B484FF0000EB2EB080CB0
:101F300071EB030724BF624639464EEB0E0E4FF09D
:101F4000000B0018524149414BEB0B0BB2EB080C54
:101F500071EB03077BF1000B24BF624639464EEB61
:101F60000E0E4FF0000B0018524149414BEB0B0B8A
:101F7000B2EB080C71EB03077BF1000B24BF624648
:101F800039464EEB0E0E51EA020718BF46F0010625
:101F900016EB0E7655F1000254F1000103D5BDE8B1
:101FA0008901BDE80088BDE88901BDE80048B6198F
:101FB000524141EB0101A3F10103704780807F7E14
:101FC0007D7C7B7A797877767675747372717170AF
:101FD0006F6E6E6D6C6C6B6A6A6968686766666561
:101FE0006464636362616160605F5F5E5E5D5D5CEF
:101FF0005C5B5B5A5A595958585757565655555560
:102000005454535352525251515050504F4F4F4EBF
:102010004E4D4D4D4C4C4C4B4B4B4A4A4A4949490D
:10202000484848474747474646464545454444444F
:10203000444343434342424242414141002B9C4678
:1020400030D477002BD01CB54FEA370703B44FF0DC
:1020500010004FF01001BAF1000F06D0BCF1000FD4
:10206000DCBF40F0080040F008014FF000000FBC5A
:10207000BDE810400BF1010BBBF1010F08BF5FEA97
:10208000170722BF12F1010211F101014FF00041C7
:1020900043F1000300F0004043EA00007047F9D329
:1020A0005708D0E746EA064613F1400F4FEA1646B6
:1020B0001FDD13F1200FDFBF16430A460021203336
:1020C0005B42BED0C3F1200746EA064602FA07F794
:1020D0004FEA164646EA0706C3F1200722FA03F242
:1020E00001FA07F721FA03F14FF0000342EA070271
:1020F000A7E746EA020646EA06464FEA164646EAD9
:102100000106BCBF46EA0646360C4FF000034FF00E
:1021100000024FF0000194E72DE9804C9A46934667
:1021200070B491E8380007C831EA400C48BF34EA7F
:10213000430C03D5FFF7E6FDFFF780FFF0BCBDE8D9
:10214000008C2DE9804C9A46934670B491E8380093
:1021500007C810F0804F08BF13F0804F03D100F084
:1021600005F8FFF76BFFF0BCBDE8008C20F07F475F
:1021700080EA030023F07F4C07EB0C03A3F57C53AC
:1021800000F00040A3F1FE0392F0000F00F0B380D6
:1021900095F0000F00F077802DE901494FEA1140DA
:1021A0004FEA144621EA004800FB06FC24EA0647F1
:1021B00008FB06F607FB08F800FB07F718EB0648D4
:1021C0004CEB164C4FEA124B18EB07484FEA1546FA
:1021D0004CEB174022EA0B4E0BFB06FC25EA0647A8
:1021E0000EFB06F607FB0EFE0BFB07F71EEB064E7B
:1021F0004CEB164C4FF000061EEB074E4CEB174B0A
:1022000018EB0B0840F1000018EB0E0B58EB000820
:1022100040F100008F1A4FF000013CBFC943661B1C
:1022200014BFB5EB040C00213CBFC943F61B4FEAB9
:1022300017444EEA8E0E27EA04454FEA1C4704FB7A
:1022400007622CEA074C05FB07F70CFB05F604FBBD
:102250000CFC16EB074642EB174216EB0C4642EB22
:102260001C421BEB060658EB0202414146EA9E0661
:1022700001D5BDE80189B619524141EB0101A3F135
:102280000103BDE801894FEA14454FEA114724EAEA
:10229000054621EA074C05FB07F406FB07F70CFB94
:1022A00006F105FB0CFC11EB074144EB17444FEA28
:1022B000124711EB0C4144EB1C4422EA074C05FB8E
:1022C00007F206FB07F70CFB06F605FB0CFC16EB0A
:1022D000074642EB174216EB0C4642EB1C456A18C8
:1022E00054F1000148BF7047B619524141EB01015A
:1022F000A3F10103704795F0000F37D04FEA114268
:102300004FEA144721EA024624EA074C02FB07F190
:1023100006FB07F70CFB06F402FB0CFC14EB07446E
:1023200041EB17414FEA154714EB0C4441EB1C41BC
:1023300025EA074C02FB07F506FB07F70CFB06F640
:1023400002FB0CFC16EB074645EB174516EB0C465B
:1023500045EB1C42121951F1000148BF7047B619F4
:10236000524141EB0101A3F1010370474FEA1445CB
:102370004FEA114724EA054621EA074C05FB07F11D
:1023800006FB07F70CFB06F24FF0000605FB0CFC02
:1023900012EB074241EB174112EB0C4251EB1C418F
:1023A00048BF7047921841EB0101A3F10103704748
:1023B0002DE9F0478946DFF828A10021089E6FF03B
:1023C0002B0C0C460D4637E0002701E0491C7F1C12
:1023D000B14204D213F80180B8F1200FF6D0B14217
:1023E0002CD0A6EB0108B8F1020F04D313F801803A
:1023F000B8F10D0F02D013F8018003E003EB0108E0
:1024000098F80180B8F10A0F15D067B95F5C3D2FCD
:102410000CD07F2F07D800BF1AF807707F2F02D08B
:10242000402F07D235B16046BDE8F0876D1C022D04
:10243000F9D8F1E7641C491CB142C5D3ACB1E60838
:1024400004F0070406EB460704EB440C072606EBF2
:102450004C067C0004EBD604A4EB050408B1A145AE
:1024600005D26FF029001460DEE7002034E0002779
:1024700004460325BC462CE01E780D2E27D00A2EDC
:1024800025D0202E23D01AF80660402E0BD04FF016
:10249000000800BF6CF39F167F1CB446042FA5EB09
:1024A000080503D013E04FF00108F3E74FF00007F1
:1024B0006DB14FEA1C46012D04F8016B07D94FEAB4
:1024C0001C26022D04F8016B01D904F801CB491E2A
:1024D0005B1C0029D0D1201A10600020A4E7000066
:1024E0009A9200082DE9F04F4FF0000B5D46099ECF
:1024F00096B10327B6FBF7F4B6FBF7FC07FB1464B1
:1025000004B101246444B4F1804F6FF0290C06D368
:102510004FF0FF30106010E0C2F800B065E0A4009A
:10252000641CA14208D338B1B6FBF7F1DFF8C0A0B4
:10253000044601EB410926E014606046BDE8F08FD7
:10254000197813F8017F4FEA910C4FEA011808EB54
:1025500027181AF80C10BF0093F801C09B1C2170BB
:1025600008F03F0107EBAC1707F03F071AF801101E
:102570000CF03F0C61701AF80710A1701AF80C10DB
:10258000E170241DED1C4D45DAD3B54228D26D1CF7
:1025900013F8017BB5424FF03D0501D21B7801E0F5
:1025A0004FF000034FEA97064FEA071707EB231790
:1025B0001AF80660267007F03F061AF80660667083
:1025C00004F1020408D24FF03C0606EA83031AF82D
:1025D000031004F8011B01E004F8015B04F8015B3F
:1025E000A4EB0001116084F800B04FF00000A5E7F3
:1025F0005A920008FEE7704704484FF4007110B586
:10260000FEF72DFB02490020088010BD580200246F
:102610002800002410B5044600F02CF958B90C48E5
:1026200009A1FEF7F9F930B13A21FEF7D9F90028EE
:1026300000D0401C10BD0A2000F0BAFD601E84B21C
:10264000EAD2002010BD00004950442C00000000D8
:102650005802002410B5FFF7CFFF294826A102F049
:10266000EBFE4FF4FA7402E0204600F0A1FD25A134
:1026700025A000F0B1F80028F6D1214824A102F0ED
:10268000DBFE02E0204600F093FD1EA123A000F037
:10269000A3F80028F6D11A4824A102F0CDFE02E0EA
:1026A000204600F085FD17A124A000F095F8002831
:1026B000F6D1134825A102F0BFFE02E0204600F04B
:1026C00077FD25A126A000F087F80028F6D10C4858
:1026D0002AA102F0B1FE02E0204600F069FD2AA125
:1026E0002BA000F079F80028F6D1BDE8104004488E
:1026F00033A102F0A1BE0000312E2041540D0A008A
:10270000C40100244F4B000041540D0A000000009A
:10271000322E2043574D4F44450D0A0041542B4360
:10272000574D4F44453D310D0A000000332E2041E6
:10273000542B4357444843500D0A000041542B4347
:1027400057444843503D312C310D0A00342E20436C
:10275000574A41500D0A0000474F5420495000008D
:1027600041542B43574A41503D22797A78222C22FA
:102770003636363636363636220D0A00352E2043AA
:10278000574A41500D0A0000434F4E4E45435400F6
:1027900041542B43495053544152543D22544350C9
:1027A000222C226D717474732E6865636C6F75646E
:1027B000732E636F6D222C313838330D0A00000000
:1027C000352E204553503832363620496E697420F4
:1027D0004F4B0D0A0000000070B50E46104905462B
:1027E0000020C82488602846FEF74CF982B20D48C4
:1027F000294605F0A8F90EE000F03CF840B90A4877
:102800003146FEF709F918B1FFF7F6FE002070BD5A
:102810000A2000F0CDFC601EC4B2EDD2012070BDD4
:1028200028000024300100245802002430B589B06B
:102830000C460546FFF7E0FE08A122466846FDF774
:1028400003FF0AA16846FFF7C7FF002804D1084824
:102850002246294605F077F909B030BD41542B4393
:10286000495053454E443D25640D0A003E0000008A
:10287000300100240648018831B14288914205D1D7
:102880000021018008467047012070474180FBE726
:102890002800002470B5A2B0064600244FF4C3609F
:1028A00001258DF80F5002238DF81D4069038DF826
:1028B0000E5009948DF81F400D9020208DF8045083
:1028C0008DF8325042028DF8605006914FF0405121
:1028D0008DF8384002948DF861408DF81C408DF8D9
:1028E00028408DF862408DF80C400B948DF81E50F6
:1028F0000F948DF8115012948DF840408DF83140AE
:102900008DF8124014948DF8564017903046169367
:102910008DF8205005928DF854408DF830408DF898
:102920001050009169468DF80D408DF85540119476
:102930008DF84C5000F074F81B9568058DF87140C7
:102940004FF406718DF8685019948DF880408DF819
:1029500070401F908DF878401D9030468DF8814072
:10296000219119A900F002F822B070BDF0B50268FB
:1029700047F6020E274E4DF2010702F58052264D12
:10298000D1F800C01368254C23EA0E0343EA0C0378
:1029900013600B79026891F80CE002F58052D1F8CF
:1029A00008C01B0343EACE3343EA0C03D2F804C049
:1029B0002CEA070C4CEA030CC2F804C002684F7BF7
:1029C00002F580520B6A43EA0747D2F800313340E0
:1029D0003B43C2F8003102680B7D02F5805291F84A
:1029E0001DC00F69D2F804611B0143EA0C332E406D
:1029F0003B431E43C2F8046100680B7F00F5805022
:102A00008A69D0F8081142EAC37221401143C0F824
:102A10000811F0BD00C0FEFFEFEFC0FFFFFFC07F59
:102A2000F0B50B790C7B0F688A68DB064D7B43EAB7
:102A3000C4533A438E7B1A43CF7B91F810C042EACD
:102A4000855242EA4652BCF1000F42EA07537CD05D
:102A500000224C7C002C43EAC24278D000238E7CBA
:102A60000D7F42EA43428F7FD1E9053442EA0642B4
:102A70004E7F1A43224342EA0532002F42EAC6241F
:102A800066D00022CD7F91F8203044EA8222002BCC
:102A900042EA45227ED0002504684B6A42EA0522BC
:102AA00091F82870464D1A43CE6A236842EA07120D
:102AB00032432B401343236091F83C2091F8383087
:102AC00091F8305091F83140520642EA036291F891
:102AD000326042EA854242EA4444BEB300220368BF
:102AE000384E4F6B44EA02425C683A4340F20F159D
:102AF000344014435C60036891F840604C6CDA68C1
:102B000044EA0624AA432243DA6091F854300A6D5D
:102B100091F84C4042EA4302ECB300240368B1F858
:102B200048504FF60D76E7011C6F47EA05452A43EA
:102B3000344014431C67026891F8563091F85550A0
:102B400052F8904F43EA450303E02BE032E02BE0DC
:102B50002CE024F003041C43146002688C6DD2F84E
:102B6000003D23F072032343C2F8003D91F860203A
:102B7000CC6D1AB35FF00003026891F8615091F8D0
:102B8000621044EA8310D2F8303D2C0144EAC101BE
:102B9000084301E00CE00FE023F07B010143C2F8A1
:102BA000301DF0BD012254E7012358E7012269E7F7
:102BB000012571E7012292E70124AFE70123DBE75A
:102BC000838004000080F8C072B6FEE72DE9F84F5C
:102BD000044600F0ADFD00903CB194F835000228A9
:102BE00006D0802161650020E4E00120BDE8F88F77
:102BF000C74DC74EC649183520683036DFF81483F4
:102C0000DFF814938842DFF814A3DFF814B32ED052
:102C1000A8422CD0B0422AD0404528D0484526D0E2
:102C2000504524D0584522D0BD4A183290421ED07B
:102C3000BC4A90421BD0BB4A1832904217D0B94AC6
:102C40003032904213D0B74A483290420FD0B54A42
:102C5000603290420BD0B34A7832904207D0B14AEA
:102C60009032904203D0AF4AA832904209D1026814
:102C700022F01E0202602068426922F08002426156
:102C800003E0026822F00E02026027688F42384695
:102C90004DD0A8424BD0B04249D0404547D04845DE
:102CA00045D0504543D0584541D09D4A18329042B6
:102CB0003DD09C4A90423AD09A4A1832904236D03F
:102CC000984A3032904232D0964A483290422ED0C2
:102CD000944A603290422AD0924A7832904226D06A
:102CE000904A9032904222D08E4AA83290421ED012
:102CF0008D4A90421BD08C4A1432904217D08A4A97
:102D00002832904213D0884A3C3290420FD0864AF3
:102D1000503290420BD0844A6432904207D0824AAB
:102D20007832904203D0804A8C32974204D1206E90
:102D3000026822F48072026075492068884228D0B7
:102D4000A84226D0B04224D0404522D0484520D0C9
:102D500050451ED058451CD071491831884218D0B2
:102D60007049884215D06F491831884211D06D4999
:102D7000303188420DD06B494831884209D06949C9
:102D80006031884205D067497831884201D0654971
:102D90009031016821F0010101600EE000F0C8FCF3
:102DA0000099401A052808D92022626503210020D5
:102DB00084F8351084F8340017E73868C007EDD17F
:102DC000534A0121206890422ED0A8422CD0B04214
:102DD0002AD0404528D0484526D0504524D05845D3
:102DE00022D04F4B183398421ED04E4B98421BD0E6
:102DF0004C4B1833984217D04A4B3033984213D07B
:102E0000484B483398420FD0464B603398420BD022
:102E1000444B7833984207D0424B9033984203D0CA
:102E2000404BA833984208D194F85C703F23A06DC2
:102E300007F01F07BB40836007E094F85C30A06D8B
:102E400003F01F0301FA03F34360206890424DD062
:102E5000A8424BD0B04249D0404547D0484545D024
:102E6000504543D0584541D02D4A183290423DD06C
:102E70002C4A90423AD02B4A1832904236D0294AF6
:102E80003032904232D0274A483290422ED0254AE2
:102E9000603290422AD0234A7832904226D0214A8A
:102EA0009032904222D01F4AA83290421ED01E4A31
:102EB00090421BD01C4A1432904217D01A4A283232
:102EC000904213D0184A3C3290420FD0164A5032EA
:102ED00090420BD0144A6432904207D0124A7832A2
:102EE000904203D0104A8C3290420BD1D4E919029F
:102EF0004260E06E30B1026822F480720260D4E970
:102F00001C024260002084F8351084F834006DE61D
:102F10001000024058000240700002408800024049
:102F2000A000024010040240085402582DE9F05F4E
:102F300028B190F83510022904D080214165012084
:102F4000BDE8F09F904C904B0168183C18338E4AB6
:102F5000DFF83C92A1428D4CDFF838E28E4FDFF86B
:102F60003CB2DFF83CA28F4D8F4E31D091422FD032
:102F700099422DD0A1422BD0494529D0714527D067
:102F8000B94225D0DFF810C20CF1180C61451FD0F2
:102F9000DFF808C2ACF1600C614519D0DFF8FCC164
:102FA000ACF1480C614513D0DFF8F0C1ACF1300C46
:102FB00061450DD0DFF8E4C1ACF1180C614507D0D4
:102FC000594505D0514503D0A94201D0B1422CD179
:102FD000DFF8B4C14FF0040880F83580ACF1180C6C
:102FE00061451DD091421BD0994219D0A14217D002
:102FF000494515D0714513D0B94211D066481830F3
:1030000081420DD065486038814209D06348483814
:10301000814205D061483038814201D05F4818387C
:10302000086820F001000860ABE0D1F800C02CF087
:103030000E08DFF854C1C1F80080ACF1180C01682B
:10304000614527D0914225D0994223D0A14221D079
:1030500049451FD071451DD0B9421BD0DFF838C19A
:103060000CF1180C614515D0DFF830C1ACF1600CE3
:1030700061450FD0DFF824C1ACF1480C614509D09F
:10308000DFF818C1ACF1300C614503D0DFF80CC19A
:10309000ACF1180CD1F800C02CF0010CC1F800C044
:1030A000DFF8E4804FF0010C0168A8F118084145F1
:1030B00046D0914244D0994242D0A14240D04945A5
:1030C0003ED071453CD0B9423AD0334A1832914291
:1030D00036D0324A603A914232D0304A483A914230
:1030E0002ED02E4A303A91422AD02C4A183A914298
:1030F00026D0594524D0514522D0A94220D0B142F2
:103100001ED02A4A91421BD0284A1432914217D02D
:10311000264A2832914213D0244A3C3291420FD0A1
:10312000224A503291420BD0204A6432914207D059
:103130001E4A7832914203D01C4A8C32914218D1F7
:10314000016E0A6822F480720A6090F85C20816D3A
:1031500002F01F020CFA02F24A60D0E919124A602A
:10316000C16E31B10A6822F480720A60D0E91C1283
:103170004A600022016D80F835C080F8342001B12A
:1031800088470020DCE6000028000240580002408A
:103190007000024088000240A0000240700402401B
:1031A00088040240A0040240B804024008540258B7
:1031B00070B5044600F0BCFA0546601C02D0044815
:1031C0000078044400F0B4FA401BA042FAD370BD6A
:1031D00008000024F8B5040003D0D4F8840010B12E
:1031E00007E00120F8BD2320C4F88400204600F049
:1031F000D7F86648016841F002010160006800F0FC
:1032000002000090207A08B14FF4000001F0FCFDAC
:103210005F492068096800F58050016841F00101AC
:10322000016000F085FAE02605464FF4FA7706E0E3
:1032300000F07EFA401BB84201D9042023E0206848
:1032400000F580500068C007F2D1204600F028F950
:1032500001F064FA4F4A2168B0FBF2F0401EC1F859
:10326000DC002046FFF716FB206800F58050D0F800
:10327000001121F4E01141F40021C0F8001161694E
:10328000880705D00120C4F88800C4F88460A8E746
:10329000206847F6FE7300F58050D0F808219A4365
:1032A00042EA4101C0F8081100210846E26800EB3B
:1032B000400504EB800302EBC50211605160916090
:1032C000D160401C04289A61F0D3A16203232068D6
:1032D00000F58050C0F82C312068E26800F580507D
:1032E000C0F814212068E26800F58050C0F8202161
:1032F0005FF00002206902EB420604EB820500EB5E
:10330000C600016041608160C160521C0161042AF5
:103310004161A864EED3E1652166A166E166A1651D
:10332000206800F58050C0F830312068226900F52F
:103330008050C0F81C212268206902F58052483074
:10334000C2F828011025D4E90060134A134B808885
:10335000C6F80003D4E900600778D0F8010047EA16
:103360000020C6F804032068D0F80C671643C0F8A4
:103370000C672068D0F810271A43C0F81027C4F84B
:103380008810C4F884500020F8BD0000F4440258AE
:103390000404005840420F006000020C00C0200CE2
:1033A00070B586B0044614216846FDF77AFC3649AC
:1033B0002068884266D13548016841F400410160C7
:1033C000016801F400410591016841F48031016018
:1033D000016801F480310591016841F40031016018
:1033E000006800F40030059028480830016841F07A
:1033F00004010160016801F004010591016841F0D8
:1034000001010160016801F001010591016841F0CD
:1034100002010160016801F002010591016841F0BB
:1034200040010160006800240B26694600F040005E
:1034300005903220009002251548CDE90154CDE9D0
:10344000034600F061F886200090CDE90154114850
:103450006946CDE9034600F057F828030090CDE90E
:1034600001540D486946CDE9034600F04DF84FF48C
:1034700020500090CDE9015408486946CDE9034643
:1034800000F042F806B070BD00800240D8440258F7
:1034900000080258000002580004025800180258A0
:1034A00070B505460068D0F8000220F4706401F0A1
:1034B00035F91049884202D244F4007416E00E49EE
:1034C000884202D244F4407410E00C4988420DD383
:1034D0000B49884202D244F4807407E009498842CB
:1034E00002D244F4806401E044F4A0642868C0F887
:1034F000004270BDC00E16020087930300E1F5057F
:1035000080D1F00880B2E60E2DE9F84F03247A4D01
:1035100000234FF001094FF0B04B4FF00F0AE4E0E9
:1035200009FA03F6324078D00F7907F00307012F2C
:1035300001D0022F1AD187684FEA430ED1F80CC090
:1035400004FA0EF827EA08070CFA0EFC4CEA070CFE
:10355000C0F808C0476891F804C0B743CCF3001C1A
:103560000CFA03FC4CEA070CC0F804C00E79F643D1
:10357000B6070BD0C6684FEA43088F6804FA08FC08
:1035800026EA0C0607FA08F73743C7600E7906F0FB
:103590000306022E12D1DE080F694FEA437C00EBCE
:1035A0008606B646366A4FEADC6C0AFA0CF807FA69
:1035B0000CF726EA08063743CEF820700F79066824
:1035C0004FEA430807F0030704FA08FC07FA08F774
:1035D00026EA0C06374307604E6816F4403F1CD0BD
:1035E000464E376847F00207376036689F0706F097
:1035F0000206009623F0030606F1B046B6463F0FDA
:10360000D6F80864DFF8F8800AFA07FC404526EA95
:103610000C0603D14FF0000C3AE065E0DFF8E4C09F
:10362000604502D14FF0010C32E0DFF8DCC06045AC
:1036300002D14FF0020C2BE0DFF8D0C0604502D180
:103640004FF0030C24E0DFF8C8C0604502D14FF012
:10365000040C1DE0DFF8BCC0604502D14FF0050C42
:1036600016E0DFF8B4C0604502D14FF0060C0FE061
:10367000DFF8A8C0604502D14FF0070C08E0DFF882
:10368000A0C0604502D14FF0090C01E04FF00A0CD8
:103690000CFA07FC4CEA060CCEF808C44F68DBF8BD
:1036A0000060FF0226EA020600D516435F46CBF80B
:1036B0000060D1F804C0DBF804605FEA8C2C26EAD5
:1036C000020600D516437E606E684F6826EA020641
:1036D000BF0300D516436E602E684F6826EA0206C7
:1036E000FF0300D516432E605B1C0A6832FA03F60E
:1036F0007FF416AFBDE8F88F80000058F4440258FC
:10370000000002580004025800080258000C025839
:10371000001002580014025800180258001C0258E9
:10372000002402580AB1816170470904FBE70000D8
:103730000148806870470000080000240248816842
:10374000027811448160704708000024032010B5FE
:1037500000F086F801F028F80F4A10491468136841
:10376000C4F3032203F00F038A5CC95C02F01F025A
:1037700001F01F01D0400A4A20FA01F11160094905
:103780000860002000F010F808B1012010BD00F022
:103790002BF8002010BD0000184402584A9200087F
:1037A000180000241400002470B50D4D044628783C
:1037B000A0B14FF47A71B1FBF0F00A490968B1FB8E
:1037C000F0F001F02BFB48B9102C07D20022214663
:1037D000501E00F025F800206C6070BD012070BD07
:1037E0000800002414000024054808B5016841F0D1
:1037F00002010160006800F00200009008BD0000B6
:10380000F4440258002809DB410900F01F02890036
:10381000012001F1E0219040C1F800017047000053
:103820000E4BF0B41B680D46C3F30223C3F1070629
:10383000042E00D90426191D072901D2002300E017
:10384000DB1E012404FA06F19C40491E2940641E37
:10385000994014402143F0BC04F091B90CED00E014
:10386000064900F0070210B54FF6FF040868044B44
:10387000204040EA02201843086010BD0CED00E033
:103880000000FA05134970B50A68D243520705D5FE
:10389000096801F00701814213D118E00A6822F09B
:1038A000070202430A60FFF743FF0A4D4FF47A769E
:1038B0000446083D07E000BFFFF73AFF001BB04297
:1038C00001D9012070BD2868C0438004F4D40020D1
:1038D00070BD00000C48025810B500F01FFF0549EC
:1038E0000968054AC1F30211515C01F01F01C8408B
:1038F00010BD0000204402584A920008494930B5E2
:10390000484C0B1D0A68143409681D68246802F0CD
:103910000303C5F30012C1F30531C4F3CC0400293D
:1039200014FB02F200EE102AF8EE400A75D03F4A6E
:103930009FED3D1AB7EE000A6BB1DFED3D1A012B8A
:1039400001D0022B64D002EE101A1168F8EE422A60
:1039500081EEA22A21E0334C283C23689B0612D535
:10396000344B246801EE901A1168C4F3C104F8EED8
:10397000612AE34001EE903AC1F30801F8EE611AC2
:1039800081EEA22A0BE001EE901ADFED2B2A00BF98
:10399000F8EE611A116882EEA12AC1F3080101EE66
:1039A000901A1168F8EE611A40EE811A71EE800AE1
:1039B00062EE200AC1F3462101EE101AB8EE411A58
:1039C00031EE001AC0EE811ABCEEE11A80ED001A49
:1039D0001168C1F3064101EE101AB8EE411A31EE3A
:1039E000001AC0EE811ABCEEE11A80ED011A1168CE
:1039F000C1F3066101EE101AB8EE411A31EE000A69
:103A000080EE801ABCEEC10A80ED020A30BD04E0EF
:103A100001EE901ADFED092ABAE70021016041604A
:103A20008160F3E728440258000000393844025806
:103A30000024744A0090D0030024744C0024F44AFB
:103A4000494930B5484C0B1D0A681C3409681D688B
:103A5000246802F00303C5F30022C1F30551C4F347
:103A6000CC04002914FB02F200EE102AF8EE400A02
:103A700075D03F4A9FED3D1AB7EE000A6BB1DFEDFE
:103A80003D1A012B01D0022B64D002EE101A1168EE
:103A9000F8EE422A81EEA22A21E0334C283C23682A
:103AA0009B0612D5344B246801EE901A1168C4F3BA
:103AB000C104F8EE612AE34001EE903AC1F3080137
:103AC000F8EE611A81EEA22A0BE001EE901ADFED0A
:103AD0002B2A00BFF8EE611A116882EEA12AC1F309
:103AE000080101EE901A1168F8EE611A40EE811A91
:103AF00071EE800A62EE200AC1F3462101EE101A2F
:103B0000B8EE411A31EE001AC0EE811ABCEEE11A8D
:103B100080ED001A1168C1F3064101EE101AB8EEEB
:103B2000411A31EE001AC0EE811ABCEEE11A80EDA6
:103B3000011A1168C1F3066101EE101AB8EE411ABC
:103B400031EE000A80EE801ABCEEC10A80ED020A56
:103B500030BD04E001EE901ADFED092ABAE700213A
:103B6000016041608160F3E7284402580000003999
:103B7000404402580024744A0090D0030024744C3E
:103B80000024F44A2DE9FE4F0546DFF800A450F862
:103B9000081B0024FD4FC943019005F1280026466B
:103BA0000AF1240A009008011DD4686E50B1B0F5E6
:103BB000801F0CD0B0F5001F0ED0B0F5401F1ED0F6
:103BC00001240FE0386840F40030386017E00198B5
:103BD000022102F0A7FF03E00098022103F032F86F
:103BE00004000CD026462888C043C00523D4A86D05
:103BF00005281ED2DFE800F00C11161B1B006A6EB0
:103C0000DAF8001021F440111143CAF80010EAE775
:103C1000386840F40030386009E00198002102F073
:103C200081FF03E00098002103F00CF80446C4B1C2
:103C300000E0012426462888DFF85083C04308F1BD
:103C40002C0840052FD4D5F8A400B0F5C00F28D01B
:103C500010DCB8B1B0F5001F19D0B0F5800F0FD14E
:103C60001AE0AA6DDAF8001021F007011143CAF832
:103C70000010E0E7B0F5000F13D0B0F5200F10D022
:103C800001240FE0386840F40030386009E0019802
:103C9000002102F047FF03E00098002102F0D2FF6C
:103CA000044694B126462888C043000530D4D5F890
:103CB000A800B0F1407F29D011DCC0B1B0F1807F05
:103CC0001AD0B0F1007F10D11BE0D5F8A420D8F8AD
:103CD000001021F460011143C8F80010E3E7B0F1CF
:103CE000806F13D0B0F1A06F10D001240FE03868BE
:103CF00040F40030386009E00198002102F012FF22
:103D000003E00098002102F09DFF044694B126468E
:103D10002868DFF878B2C0430BF1200B80011FD474
:103D2000E86CD8B110280FD0202812D0302815D038
:103D3000012414E0D5F8A820D8F8001021F0E061A3
:103D40001143C8F80010E3E7386840F400303860E9
:103D500004E00198022102F0E5FE044674B1264613
:103D60002888C043C0042BD4E86DB0F5005F20D094
:103D70000DDCA0B1B0F5805F0FD115E0EA6CDBF887
:103D8000001021F030011143CBF80010E8E7B0F546
:103D9000405F13D0B0F5804F10D001240FE0386899
:103DA00040F40030386009E00198002102F0BAFECA
:103DB00003E00098002102F045FF04468CB126463E
:103DC0002888C043800429D4286EB0F5403F23D012
:103DD00010DC08B3B0F5803F14D0B0F5003F0FD130
:103DE00015E0EA6DDAF8001021F4E0411143CAF859
:103DF0000010E5E7B0F5802F0ED0B0F5A02F0BD066
:103E000001240AE00198012102F08CFE03E00098F1
:103E1000012102F017FF044694B126462888C043CA
:103E200040042AD4D5F8AC00B0F1405F23D010DCB8
:103E300008B3B0F1805F14D0B0F1005F0FD115E08E
:103E40002A6EDAF8001021F4E0211143CAF80010BC
:103E5000E4E7B0F1804F0ED0B0F1A04F0BD00124B9
:103E60000AE00198012102F05DFE03E000980121C3
:103E700002F0E8FE044674B126462888C0430004D8
:103E80001FD4E86ED8B1B0F1805F0ED0B0F1005F02
:103E900010D0012414E0D5F8AC20D8F8001021F09F
:103EA000E0411143C8F80010E7E7386840F40030FB
:103EB000386004E00198012102F034FE044674B138
:103EC00026462868C043C0011ED4A86CD0B1012882
:103ED0000ED0022811D0032814D0012413E0EA6E7A
:103EE000DAF8001021F040511143CAF80010E8E759
:103EF000386840F40030386004E00198022102F094
:103F000011FE04466CB126462868C043400255D4D1
:103F10001F48016841F480710160FFF709FC814688
:103F20000EE0AA6CDBF8001021F003011143CBF87E
:103F30000010E9E7FFF7FCFBA0EB090064283BD881
:103F400013480068C005F5D5BCBBDFF84090B5F854
:103F5000B01009F14409D9F8000001F4407100F4EF
:103F60004070884211D0D9F80010D9F8002021F40F
:103F7000407142F48032C9F80020D9F8002022F4C0
:103F80008032C9F80020C9F8001003E02C44025820
:103F900000480258D5F8B000B0F5807F19D1FFF77E
:103FA000C7FB029011E000BFFFF7C2FB0299411A64
:103FB00041F28830814208D9032426462878DFF868
:103FC0001494C043C00721D03CE0D9F8000080071A
:103FD000EAD5D5F8B010C1F301200328FE480DD072
:103FE000016821F47C510160B5F8B020D9F80010C7
:103FF000C2F30B021143C9F80010DFE7F74A036868
:1040000002EA111223F47C511143ECE7A86F18283F
:1040100016D005DCA0B1082808D0102804D10AE089
:1040200020280DD028280BD001240AE00198012176
:1040300002F078FD03E00098012102F003FE04463F
:1040400064B126462878C04380071ED4686F0628CE
:1040500019D2DFE800F0160C11161616AA6FD9F85F
:10406000001021F038011143C9F80010EAE7019867
:10407000012102F057FD03E00098012102F0E2FD6A
:1040800004467CB100E0012426462878C04340075E
:104090001FD4D5F89000062819D2DFE800F0160CDE
:1040A000111616166A6FD9F8001021F00701114396
:1040B000C9F80010E9E70198012102F033FD03E09F
:1040C0000098012102F0BEFD0446A4B100E00124E5
:1040D00026462878C04380062BD4D5F88C00B0F152
:1040E000405F24D011DC10B3B0F1805F15D0B0F187
:1040F000005F10D116E0D5F89020D8F8001021F01C
:1041000007011143C8F80010E3E7B0F1804F0ED06B
:10411000B0F1A04F0BD001240AE00198002102F079
:1041200001FD03E00098022102F08CFD044694B1E9
:1041300026462878C04340062BD4D5F89800B0F521
:10414000406F24D011DC10B3B0F5806F15D0B0F5FE
:10415000006F10D116E0D5F88C20D9F8001021F0AE
:10416000E0411143C9F80010E3E7B0F5805F0ED0DD
:10417000B0F5A05F0BD001240AE00198002102F005
:10418000D1FC03E00098022102F05CFD044694B1EA
:1041900026462878C04300062BD4D5F89C00B0F5FD
:1041A000C04F24D011DC10B3B0F5005F15D0B0F5CE
:1041B000804F10D116E0D5F89820D8F8001021F4DF
:1041C000E0511143C8F80010E3E7B0F5004F0ED0FE
:1041D000B0F5204F0BD001240AE00198002102F035
:1041E000A1FC03E00098022102F02CFD044654B12A
:1041F00026462878C04300071ED4D5F88000B0F5C5
:10420000805F0AD00FE0D5F89C20D8F8001021F488
:1042100060411143C8F80010EBE70098022102F05A
:1042200011FD00B10126D5F88020D9F8001021F445
:1042300040511143C9F800102878C043C00613D478
:10424000D5F89400B0F5807F05D10098022102F0E6
:10425000F9FC00B10126D5F89420D8F8001021F41B
:1042600040711143C8F800102868C043000316D4F9
:10427000D5F8A00038B1B0F5803F09D0B0F5003FC7
:104280000BD001240AE00198002102F04BFC03E06E
:104290000098022102F0D6FC04468CB1264628681C
:1042A000C043400322D4D5F88400B0F5801F11D05C
:1042B000B0F5001F13D0B0F5401F15D0012414E055
:1042C000D5F8A020D8F8001021F440311143C8F8E7
:1042D0000010E4E7386840F40030386004E00098EB
:1042E000012102F0AFFC04465CB126462868C043B9
:1042F000C0031CD4286D70B1B0F5803F10D00124EC
:1043000014E0D5F88420D9F8001021F440111143AD
:10431000C9F80010EAE7386840F40030386004E07B
:104320000198022102F0FEFB0446DCB12646286813
:10433000C043800005D40098022102F083FC00B144
:1043400001262868C04380031BD4E86FB8B1B0F5DC
:10435000807F10D0B0F5007F11D0B0F5407F0ED037
:1043600001240DE02A6DDBF8001021F480311143A7
:10437000CBF80010DBE7386840F4003038607CB3DD
:1043800026462868C043C00207D42A6FDAF8001016
:1043900021F000411143CAF800102868C043800290
:1043A00007D4AA6EDAF8001021F080711143CAF820
:1043B00000102868C043400009D40748016821F470
:1043C000004101600168D5F8B420114301602868FC
:1043D000C04306E05444025810440258CFFFFF0087
:1043E0001DE007D46A6DDBF8001021F04051114345
:1043F000CBF800102868C043000208D4D5F8882004
:10440000D9F8001021F440011143C9F800102879AF
:104410000024C04300F00100204309D00EE0EA6F01
:10442000D9F8001021F440711143C9F80010A8E731
:104430000198002102F076FB00B106462879C043BE
:1044400000F00200204305D10198012102F06AFB2F
:1044500000B106462879C04300F00400204305D18E
:104460000198022102F05EFB00B106462879C043A4
:1044700000F00800204305D10098002102F0E2FB83
:1044800000B106462879C04300F01000204305D152
:104490000098012102F0D6FB00B106462879C043FE
:1044A00000F02000044304D10098022102F0CAFB6E
:1044B00000B916B10120BDE8FE8F0020FBE7000027
:1044C0002DE9F05F04000F467ED0DFF83882D8F87F
:1044D000000000F00F00B8420CD2D8F8001021F014
:1044E0000F013943C8F80010D8F8000000F00F00A1
:1044F000B84269D12078844D40070AD520692968DF
:1045000001F07001884204D9296821F0700101434B
:10451000296020787C4E361D00070AD56069316815
:1045200001F07001884204D9316821F07001014323
:1045300031602078C0060AD5A069316801F4E061D5
:10454000884204D9316821F4E06101433160207868
:10455000DFF8B4B180060BF1080B0CD5E1695846C1
:10456000DBF8002002F07002914204D9026822F0C8
:1045700070020A430260207880070AD5E068296843
:1045800001F00F01884204D9296821F00F0101438D
:1045900029602078C0073ED05B49A2682868183996
:1045A00020F47060104328606068022818D0032847
:1045B00019D00968012819D0490700294ADADFF81B
:1045C00048A1AAF1080A00E044E0DAF8002022F04D
:1045D00007020243CAF80020FFF7AAF8814612E05A
:1045E00009688903E9E709688901E6E7C905E4E79D
:1045F000FFF79EF8A0EB090141F28830814202D911
:104600000320BDE8F09F6168DAF8000000F0380090
:10461000B0EBC10FECD1207880070AD5E06829689B
:1046200001F00F01884204D2296821F00F010143F3
:104630002960D8F80010404601F00F01B9420BD9AB
:10464000016821F00F0139430160006800F00F009C
:10465000B84201D00120D4E7207840070AD520696C
:10466000296801F07001884204D2296821F07001A4
:1046700001432960207800070AD56069316801F09C
:104680007001884204D2316821F070010143316029
:104690002078C0060AD5A069316801F4E06188423B
:1046A00004D2316821F4E061014331602078800652
:1046B0000CD5E1695846DBF8002002F07002914207
:1046C00004D2026822F070020A43026000F06CF823
:1046D0000E492A682B68C2F3032203F00F038A5C99
:1046E000C95C02F01F0201F01F01D040084A20FA05
:1046F00001F111600749086007480068BDE8F05FF4
:10470000FFF752B800200052184402584A9200089D
:1047100018000024140000240C00002430B500F020
:1047200043F80B4A0B490C4B15681468C5F3032278
:1047300004F00F048A5C095D02F01F0201F01F0102
:10474000D040064A20FA01F119601060084630BDD9
:10475000184402584A92000818000024140000244B
:1047600000B5FFF7DBFF05490968054AC1F30211EF
:10477000515C01F01F01C84000BD00001C440258FC
:104780004A92000800B5FFF7C9FF05490968054AC4
:10479000C1F30221515C01F01F01C84000BD0000BF
:1047A0001C4402584A920008454970B545480968BA
:1047B000434B103B11F0380208D00111082A03D0F6
:1047C000102A0BD0182A0BD0084670BD196889062C
:1047D000FBD51968C1F3C101C84070BD3A4870BD2E
:1047E0003749374D18310C1D24350A680968266889
:1047F0002D6802F0030406F00102C1F30511C5F3B0
:10480000CC0515FB02F200EE102AB8EE400AE9B31F
:104810002F4ADFED2E0AB7EE001A6CB1DFED2D1A2C
:10482000012C01D0022C43D002EE101A1068F8EED1
:10483000422A81EEA22A1EE01C68A40611D51B683C
:1048400001EE901A1168C3F3C103F8EE612AD84053
:1048500001EE900AC1F30800F8EE611A81EEA22A77
:104860000BE001EE901ADFED1C2A00BFF8EE611A92
:10487000106882EEA12AC0F3080001EE900AF8EE5B
:10488000611A40EE201A31EE810A00E015E022EEB6
:10489000000A1068C0F34620401C00EE900AF8EEB3
:1048A000600A80EE201ABCEEC10A10EE100A70BD3C
:1048B00001EE901ADFED092AD8E7002070BD000054
:1048C000104402580090D00300127A000000003912
:1048D000304402580024744A0024744C0024F44AE2
:1048E0002DE9F05F04007DD0FF4F2078FE4D183792
:1048F000DFF8F483103DC00748D0D8F800003968CD
:1049000000F03800102815D0182803D101F003005A
:1049100002280FD06068B0F5803F12D010B1B0F51A
:10492000A02F18D0286820F480302860286820F450
:10493000802009E02868800328D560680028D2D04C
:1049400024E0286840F480302860606888B1FEF771
:10495000EFFE064609E0286840F480202860F0E772
:10496000FEF7E6FE801B64287ED828688003F7D512
:104970000CE0FEF7DDFE064605E000BFFEF7D8FEC0
:10498000801B6428F0D828688003F7D4207880073B
:1049900056D5D8F80000DFF85093396810F0380089
:1049A000A9F10C090ED0182801D188070AD0E068B7
:1049B000A8B3296821F0190101432960FEF7B8FE68
:1049C000064628E02868400702D5E06800288AD01B
:1049D000E168286820F0190008432860FEF7A8FE67
:1049E000064606E0D2E000BFFEF7A2FE801B0228CA
:1049F000BAD828684007F7D5217CD9F8002022F0E2
:104A0000FE4242EA0161C9F8001019E0FEF790FE8B
:104A1000801B0228A8D828684007F7D5ECE7FFE7F5
:104A2000286820F001002860FEF782FE064604E0B8
:104A3000FEF77EFE801B022896D828684007F7D430
:104A40002078C00646D5D8F80000DFF89C92396877
:104A500000F03800A9F10409082812D0182805D15F
:104A600001F00300012800E0CEE00AD0E069002850
:104A7000286820D040F080002860FEF759FE0646E6
:104A800015E02868C00502D5E06980287ED194F839
:104A90002010D9F8002022F07C5242EA0161C9F8C6
:104AA000001017E0FEF744FE801B0228A0D82868FB
:104AB000C005F7D5EBE720F080002860FEF738FE50
:104AC000064604E0FEF734FE801B022890D82868D2
:104AD000C005F7D42078000729D583486169643080
:104AE00000298146016811D041F001010160FEF703
:104AF0001FFE064605E000BFFEF71AFE801B0228D7
:104B000088D8D9F800008007F6D510E021F001011F
:104B10000160FEF70DFE064605E000BFFEF708FE49
:104B2000801B022870D8D9F800008007F6D42078BE
:104B3000800623D5A0690028286810D040F4805052
:104B40002860FEF7F5FD064605E000BFFEF7F0FD24
:104B5000801B022858D828688004F7D50EE020F47E
:104B600080502860FEF7E4FD064604E0FEF7E0FD15
:104B7000801B022848D828688004F7D42078400792
:104B800051D5DFF86891D9F8001000E015E141F443
:104B90008071C9F80010FEF7CBFD064605E000BFA6
:104BA000FEF7C6FD801B64282ED8D9F80000C0058A
:104BB000F6D54D4EA068603601280AD008B1052808
:104BC00013D0306820F001003060306820F004001D
:104BD00002E0306840F001003060A06841F2883A9D
:104BE00098B1FEF7A5FD81460AE0306840F0040068
:104BF0003060EEE7FEF79CFDA0EB0901514503D8BC
:104C000030688007F6D50EE072E0FEF791FD814630
:104C100006E000BFFEF78CFDA0EB0901514567D807
:104C200030688007F6D4606A00287CD0DFF8B8A02E
:104C3000D8F800100AF1200A4FF6F87B0AF10408B0
:104C4000C1F3C2010329AAF104096DD00228286822
:104C500020F08070286003D0FEF76AFD044681E0F2
:104C6000FEF766FD064604E0FEF762FD801B0228A3
:104C700075D828688001F7D4E26A40F2F3313868C9
:104C800054F8283F884340EA021018433860217BDB
:104C90004FF4FE0C22894FF0FE47208A4902267D00
:104CA000521E401EA1F5007189B2C2F308021143E1
:104CB000761E0CEA00400143484607EA06621143AB
:104CC000CAF80010D9F8001021F00101C9F800104D
:104CD000D8F80030266A23EA0B0343EAC601C8F875
:104CE0000010D9F8001004E010440258004802589F
:104CF00035E0A26921F00C011143C9F800100168E8
:104D0000E26921F0020111430160016841F4803140
:104D10000160016841F400310160016841F48021C3
:104D20000160016801E06CE020E041F001010160F8
:104D3000286840F080702860FEF7FAFC044604E022
:104D4000FEF7F6FC001B022809D828688001F7D579
:104D500057E000BFFEF7ECFC001B022802D903203D
:104D6000BDE8F09F28688001F4D44AE03968012842
:104D7000DAF8000021D0A26A01F0030393421CD1AB
:104D8000E26AC1F305118A4217D1216BC0F3080210
:104D9000491E8A4211D1616BC0F34622491E9142DD
:104DA0000BD1A16BC0F30642491E914205D1E16BC4
:104DB000C0F30660491E814201D00120D0E7A16CFA
:104DC0004646D8F80000C0F3CC00814219D0D9F88B
:104DD00000004D4620F00100C9F80000FEF7A8FCD5
:104DE0004FEA0007FEF7A4FCB842FBD0A26C306883
:104DF00020EA0B0040EAC2003060286840F0010061
:104E000028600020ACE7000003490A6822F4600231
:104E100002430A607047000004040058401EB0F1CD
:104E2000807F10B501D3012010BD4FF0E0246061F8
:104E30000F21601702F0A3FE0020A061072121616D
:104E400010BD30B590F88410012918D0012280F8E7
:104E500084202421C0F888100022202401680B68D7
:104E60000D6823F0005325F001050D6042660168CE
:104E70000B60C0F8884080F88420104630BD0220C6
:104E800030BD7047704770B5044690F88400012823
:104E90001DD0012284F884202420C4F888002068D2
:104EA0000568026822F0010202602068826822F030
:104EB00060620A438260204602F006F822682021E0
:104EC00000201560C4F8881084F8840070BD0220AA
:104ED00070BD70B5044690F8840001281DD00122F1
:104EE00084F884202420C4F88800206805680268BB
:104EF00022F0010202602068826822F060420A43C8
:104F00008260204601F0E0FF226820210020156029
:104F1000C4F8881084F8840070BD022070BD70470A
:104F2000704770472DE9F04107680025044640F6B8
:104F30000F030226F8693968BA6818420AD1830655
:104F40007ED501F0200302F0805C53EA0C0377D099
:104F5000616F74E1CF4BDFF840C3134001EA0C0CE2
:104F600053EA0C0C6CD05FEAC07C0CD05FEAC15CE9
:104F700009D54FF0010CC7F820C0D4F8907047F065
:104F80000107C4F89070870709D5D70707D02768AD
:104F90003E62D4F8906046F00406C4F8906046077C
:104FA0000AD5D60708D0276804263E62D4F8906058
:104FB00046F00206C4F8906006070CD501F0200602
:104FC0001E4308D0266808233362D4F8903043F09B
:104FD0000803C4F8903003050BD54B0109D52668AA
:104FE0004FF400633362D4F8903043F02003C4F8E8
:104FF0009030D4F89030002B3DD0800609D501F0D8
:10500000200002F08051084303D0616F09B12046AF
:1050100088472168D4F890008968490602D410F0C6
:10502000280F2AD0204602F035F820688068400614
:105030001ED52068083050E8001F21F0400100E034
:1050400021E040E80012002AF3D1D4F8800078B1C2
:1050500092490165D4F88000FDF768FF00280AD066
:10506000D4F88000016D00E02046BDE8F04108471B
:105070002046FFF756FFBDE8F0812046FFF751FFBD
:10508000C4F89050F7E7D4F86CC02023BCF1010FAE
:105090007ED15FEAC06C7BD55FEAC16C78D5102009
:1050A000386220688068400673D5D4F880107C4A46
:1050B0000868904234D07A4A1832904230D0784A08
:1050C000303290422CD0764A4832904228D0744AEE
:1050D0006032904224D0724A7832904220D0704A96
:1050E000903290421CD06E4AA832904218D06D4A3D
:1050F000904215D06B4A1832904211D0694A303232
:1051000090420DD0674A4832904209D0654A6032D9
:10511000904205D0634A7832904201D0614A903281
:1051200040680004000CA6D0B4F85C208242A2D9EA
:10513000A4F85E00C869B0F5807F2FD0216851E8DF
:10514000000F20F4807041E80002002AF6D12068A8
:10515000083050E8001F21F0010140E80012002A49
:10516000F5D12068083050E8001F21F0400140E8E8
:105170000012002AF5D1C4F88C30E566216851E8A8
:10518000000F20F0100041E80002002AF6D101E0F3
:1051900040E00BE0D4F88000FDF718FD2667B4F876
:1051A0005C00B4F85E10401A81B22FE0B4F85C00E5
:1051B000B4F85E10B4F85E20401A81B2002AB2D072
:1051C0000029B0D0226852E8000F20F4907042E825
:1051D0000007002FF6D1344F206800F1080050E896
:1051E000002F02EA070240E8002CBCF1000FF3D1C7
:1051F000C4F88C30E5666567206850E8002F22F01F
:10520000100240E80023002BF6D126672046FFF766
:1052100038FE30E7C60209D5560207D54FF4801094
:1052200038622046BDE8F041FFF77ABE06060AD58F
:1052300001F0800602F40002164304D0A16F002999
:105240007FF412AF17E7420611D54A060FD5204664
:10525000026852E8001F21F0400142E80014002CCF
:10526000F6D1C0F88830856700F09EF903E70202A6
:1052700006D54A0004D52046BDE8F041FFF74FBEF1
:10528000C001C6D50029C4DA2046BDE8F041FFF7C9
:10529000F9BD000001000010200100047F7000082B
:1052A0001000024010040240FEFFFFEF10B50400A2
:1052B00003D0D4F8880010B107E0012010BD002011
:1052C00084F88400204600F027F82420C4F88800E1
:1052D0002068016821F001010160A06A10B1204638
:1052E00001F014FE204602F067F90128E6D020689C
:1052F000416821F4904141602068816821F02A01D1
:1053000081602068016841F0010101602046BDE82C
:10531000104001F05FBE00002DE9F043B5B0044637
:1053200014212EA8FBF7BDFCB8216846FBF7B9FC99
:105330003C4D02273D494FF007082068083D394E93
:105340000024DFF8E490884242D100201D9402211D
:10535000CDE900106846FEF715FC08B1FDF734FCF6
:10536000306840F400303060306800F40030339032
:10537000286840F001002860286800F001003390A0
:10538000286840F00800286028682EA9454600F0EB
:105390000800339008202E90CDE92F742448CDE9E1
:1053A0003148FEF7B1F820202E90CDE92F74CDE9D9
:1053B00031452EA94846FEF7A7F8002226201146BF
:1053C000FEF72EFA2620FEF71DFA35B0BDE8F08371
:1053D00018498842F9D100201D940221CDE900101E
:1053E0006846FEF7CFFB08B1FDF7EEFB306840F4EE
:1053F00080203060306800F480203390286840F0CE
:105400000800286028684FF440712E912EA900F002
:105410000800CDE92F743194CDE932804846FEF77B
:1054200073F8D2E7E8440258000C025800440040E8
:1054300000000258004800400FB44FF4947110B5BA
:10544000CAB004464EAB68464D9AFBF7E3F868468F
:10545000FBF718FB82B24FF0FF336946204600F09D
:105460004BF84AB010BC5DF814FB000030B4D0F823
:105470008C30202B02D0022030BC7047A9B1A2B1E1
:105480000B4D00240368C466AB420BD05B681B0263
:1054900008D5046854E8003F43F0806344E80035D1
:1054A000002DF6D130BC02F075BA0120E4E700000F
:1054B000000C00580D4930B4884215D10C490888B9
:1054C000B0F5007F01D3002008800948094C001D79
:1054D00003780888421C23540A800122044930BC06
:1054E0000248091DFFF7C2BF30BC704730010024DD
:1054F00028000024580200242DE9F8430446D0F87F
:105500008800984616460D46202802D00220BDE8A5
:10551000F883A5B19EB10021C4F890102120C4F8F1
:1055200088001834FEF704F9814654F8100CA68759
:10553000E6872027183CB0F5805F02D003E0012009
:10554000E5E7206910B12E46002510E000260EE0A8
:105550008021204602F0A6FAC0B9DEB116F8010B90
:1055600021688862B4F85600401EA4F85600B4F8CA
:1055700056004B464FF00002CDF800800028E7D1DE
:105580004FF04001204602F08DFA48B1C4F888700F
:105590000320BCE735F8020B2168C0F30800E0E700
:1055A000C4F888700020B2E77047FEE710B50446E3
:1055B000007B012802D12068FAF781FF00202060DB
:1055C0006060A060207310BD5FF0010200F07F03F7
:1055D0000B70C00909D0521C43F08003042A01F863
:1055E000013BF3DD4FF0FF307047104670472DE967
:1055F000F0410026044600680F46354610B10220EF
:10560000207315E0012020730846FAF729FF0028CF
:10561000206008D0C4E9016702E0206846556D1C8F
:10562000A068A842F9D8BDE8F081206846556D1CF5
:10563000A068A842F9D888426660F4D22660F2E7F2
:105640002DE9FF5F00251C460298DDE90E68DDE9C3
:1056500012B9FBF717FA0FFA80FA0298F8B1002E88
:105660000AF1110086B200D00225109858B145F019
:105670000405FBF707FAC7B21198FBF703FA3844A1
:105680003044001D86B25FEA08000FD0012808D020
:10569000B8F1020F08D0022004B0BDE8F09F01204D
:1056A000FAE745F00C0501E045F01405BBF1000FE9
:1056B00001D045F02405009868B3019858B30098CC
:1056C00045F0C00BFBF7DEF905460198FBF7DAF968
:1056D00028443044001D85B248462946FFF787FF1D
:1056E000D9F80000C8B12946FBF7B9FAD9E900306A
:1056F0001026411CC9F804101E54D9E900100144B9
:10570000681FFFF761FF00B2002808DA4846FFF77C
:105710004DFF0520C0E70320BEE70420BCE7D9E920
:105720000035002104222844451CC9F804504D26A8
:105730001954D9F8040051275423411CC9F8041006
:10574000D9F800104FEA142C4FEA1A2E0A54D9E95E
:105750000080411CC9F8041008F80060D9E9001065
:10576000451CC9F804500F54D9E90050411CC9F830
:1057700004102B54D9E90060411CC9F804103354BB
:10578000D9F80400411CC9F80410D9F800100A54D3
:10579000D9F80400411CC9F80410D9F8002002F817
:1057A00000B0D9F804005246411CC9F80410D9F8D9
:1057B000001001F800C0D9E90030411CC9F80410FC
:1057C0001C54D9E90030411CC9F8041003F800E06A
:1057D000D9E90030411CC9F8041003F800A0D9E948
:1057E000001008440299FBF705F9D9F804105FEAA4
:1057F0004B725144C9F804103DD5119808B93FA027
:1058000011901098FBF73EF9D9E9003184B2224695
:10581000481CC9F80400250A5D54D9E90030411C30
:10582000C9F804101C54D9E9001008441099FBF77A
:10583000E1F8D9F804000119C9F804101198FBF730
:1058400021F9D9E9003184B2481CC9F80400250ABD
:105850005D54D9E90030421CC9F8042022461C548A
:10586000D9E9001008441199FBF7C4F8D9F80400ED
:105870000119C9F804105FEA0B601CD50098FBF70A
:1058800001F9D9E9003184B22246481CC9F8040064
:10589000250A5D54D9E90030411CC9F804101C5494
:1058A000D9E9001008440099FBF7A4F8D9F80400DE
:1058B0000119C9F804105FEA4B601CD50198FBF789
:1058C000E1F8D9E9003184B22246481CC9F8040045
:1058D000250A5D54D9E90030411CC9F804101C5454
:1058E000D9E9001008440199FBF784F8D9F80400BD
:1058F0000119C9F804100020CEE6000000000000E5
:105900002DE9FF4F81B090464FF000069A465FEABE
:10591000000BB146119C31460F9A08D1012005B009
:10592000BDE8F08F232817D02B2815D0761C0298BD
:10593000805D0028F6D141F030070AB147F0010739
:105940000E9806EB0A0505F1020568B1012805D09D
:10595000022806D00320E2E70220E0E747F0020732
:1059600001E047F00407AD1CB8F1000F03D098F830
:105970000000022807D0691D2046FFF738FE206886
:1059800048B3691D13E0002018F80010401C7D2961
:10599000FAD100F10409AAEB0900291A2046009166
:1059A000C91CFFF724FE2068A8B10099C91CFBF7A9
:1059B00056F9D4E90020411C61601754D4E9000174
:1059C00001442846FFF700FE002806DA2046FFF7CC
:1059D000EDFD0520A3E70420A1E76168330A2268F2
:1059E0000844411C61601354D4E90020411C6160EB
:1059F0001654D4E90001324608440299FAF7FAFF36
:105A000060680E993044606059B12368411C4FEAC8
:105A10001B2261601A54D4E90030421C626003F812
:105A200000B0B8F1000F0ED098F800000228D4E9B9
:105A30000001084409D052464146FBF799F86168D5
:105A400001EB0A006060002069E74A464146FBF727
:105A50008FF8616801EB0900F4E7000030B591B000
:105A600014460CA2034604A8149D00913021FAF7B5
:105A700001FE0021234601200A46CDE90205CDE9B9
:105A800000010A2004A9FFF73BFF002800D00120F5
:105A900011B030BD247379732F25732F25732F74A4
:105AA00068696E672F70726F70657274792F706F8E
:105AB000737400002DE9F0474FF000081F46060000
:105AC0009146089C8A4645460AD10120BDE8F087E8
:105AD00059F8250020B3FAF7D5FF6D1C8044EDB2CC
